:020000040000FA
:10000000381E0020E50D0000ED0D0000EF0D000092
:1000100000000000000000000000000000000000E0
:10002000000000000000000000000000BD01000012
:10003000000000000000000061020000C10200009A
:10004000F70D0000F70D0000F70D0000F70D0000A0
:10005000F70D0000F70D0000F70D0000F70D000090
:10006000F70D0000F70D0000F70D0000F70D000080
:10007000F70D0000F70D0000CD070000F70D0000A0
:10008000F70D0000F70D0000F70D0000F70D000060
:10009000F70D0000F70D0000F70D0000F70D000050
:1000A000B10C0000F70D0000F70D0000F70D000087
:1000B000F70D0000F70D0000F70D0000B70300007A
:1000C00000F002F800F032F80CA030C8083824180C
:1000D0002D18A246671EAB4654465D46AC4201D180
:1000E00000F024F87E460F3E0FCCB6460126334280
:1000F00000D0FB1AA246AB4633431847C452000057
:10010000E45200000023002400250026103A01D309
:1001100078C1FBD8520700D330C100D50B607047BF
:100120001FB5C046C0461FBD10B510BD03F062FD2F
:100130001146FFF7F5FF03F06DF903F07AFD03B404
:10014000FFF7F2FF03BC03F07BFD000080F309889A
:100150007047EFF309807047684680F309880648C6
:100160000078C00703D1032080F314887047022071
:1001700080F3148870470000D44F0000064B9C4663
:10018000EFF305831B0605D1EFF31483DB0701D0E2
:1001900000DF704760470000192A0000064B9C46AC
:1001A000EFF305831B0605D1EFF31483DB0701D0C2
:1001B00000DF704760470000552A0000EFF3098018
:1001C0008169891E0978002933D1A6461FC8A44633
:1001D0007446E0471F4B06CB914224D0083B0029D0
:1001E00010D00CB4203101234B70EFF30983203B76
:1001F0004B60F0C344464D4656465F46F0C302F09E
:100200003BFE0CBC1A60203253681033F0CBA04682
:10021000A946B246BB4683F30988203BF0CB507811
:10022000002803D01078EFF3098318600223DB4322
:10023000184710B5084A1268914209D8074C89003E
:100240006458A6461FC8A446F047EFF309840FC4BC
:1002500010BD0000B8F5FF1FA43C0000A43C000046
:1002600002F0AFFD154B06CB914223D0083B0CB4F6
:10027000203100234B70EFF30983203B4B60F0C328
:1002800044464D4656465F46F0C302F0F5FD0CBCB1
:100290001A60203253681033F0CBA046A946B2460C
:1002A000BB4683F30988203BF0CB5078002801D06F
:1002B000107818610223DB4318470000B8F5FF1FD0
:1002C00002F0C2FDCEE7000002F0BDFD02F0BCFD71
:1002D000C8E700008546084770B505460C46164637
:1002E00002E00FCC0FC5103E102EFAD2082E02D31A
:1002F00003CC03C5083E042E07D301CC01C5361F2D
:1003000003E021782970641C6D1C761EF9D270BD43
:1003100030B53048816B021511438163816B9200C7
:10032000114381632C4980158860C8602B4948605F
:1003300082022B48426053004360294902248031E5
:100340004C6045691543456142691A4342614869F9
:100350002043486130BD01218904214A002801D091
:1003600051607047916070471D4A02218032002819
:1003700001D051607047916070470121C904184A4B
:10038000002801D05160704791607047002070478D
:100390001048816B01221203114381630F48C16829
:1003A00012031143C1600F49C1600F494004086046
:1003B0000E490860704709488030006A000708D578
:1003C0000648C168012212061143C160FF211431A1
:1003D000C16070470080044040A0044000C0044059
:1003E00040F00F4013010A0080E200E000E100E06D
:1003F00000487047D81A0020704770477047704710
:10040000FFFFFFFFFFFFFFFFFFFFFFFFFEFFFFFFFD
:100410005548002101605548826B43151A43826399
:10042000524A53484032506052488368524A1340FF
:100430008360C3681340C360504A892010705048DD
:10044000242242709A220270C278D206D20EC27062
:100450000122027141718179C906FCD481790907B1
:10046000890F0229FAD14021417181790907890F49
:100470000229FAD181794906FCD51A2101708179C6
:100480000907890F0329FAD1704710B53C4C207831
:10049000012183093B48CA03002B11D023789B0913
:1004A000012B53D021788909022908D12F494031E5
:1004B0004968090F491C03F0F0FA3349086010BD80
:1004C00063795B0637D423785B070CD422789206D5
:1004D000520F9140C9B203F0E0FA61788906890FA2
:1004E00002D0400900E01046E17849094901CA06F6
:1004F000D20EDBD149110B0003F088FE08060A0D6D
:10050000101316191B05D1E70521C9014843CDE792
:1005100005210902FAE70F21C901F7E70521490280
:10052000F4E7B7218900F1E7B721C900EEE71749E1
:10053000ECE71749EAE72179C906C90E491C03F01F
:10054000ACFA6179C906C90E1831DFE76078C007D7
:1005500007D0207A0007400F81400E4803F09DFA33
:10056000A4E71046A2E70000008104400080044098
:100570000000011040900440FFF8FFFE00500640CC
:100580000040064000127A00C0F0FF1F95080000EE
:10059000710B000000093D0003490A6ACB698969B3
:1005A0005A404A40026070474080044070B50125BF
:1005B0006D02BB222946A34803F02DFAA24800246D
:1005C000046044608460C460BB2229469F4803F0F5
:1005D00022FA9C481038046044608460C46070BD96
:1005E00010B501249A48A4030460FFF7DFFF99487F
:1005F000816B621011438163416B5210114341635F
:1006000095490015C86188619448C1780C2211434E
:10061000C170C17820221143C170914804608C4898
:1006200080380460012010BD10B58C48C178F322D9
:100630001140C170C1785F221140C170FFF7B6FF51
:10064000012010BD10B501248148A4030460FFF708
:10065000ADFF8248C1784906490EC170814900202A
:1006600008607B4880380460012010BDF8B506465C
:1006700000250120764980032F460860774CE078FA
:10068000F3210840E070FFF791FF71790020012904
:1006900002D0022903D004E001252F4600E0012505
:1006A00001200001690008433843A070306801014F
:1006B0006D48006803F0F1F92178400849094901C3
:1006C000C204D20E1143217061786070E0780C2171
:1006D0000843E07001206249800308605C4980396A
:1006E00008600120F8BD0120704756481038816825
:1006F000C068081A01214902081A7047F0B505467A
:10070000002905D0514B0020DA1DFF32FA3218E0E3
:100710000020F0BD9468D668A41B012624B276029E
:10072000B4420EDA2E7814686D1C1F19641C146014
:100730003E701468E405E40D14609468641C9460D1
:10074000401C0C46491E89B2002CE3D145490C6877
:10075000002CDED1414C25792D06FCD501250D60FC
:1007600051685B18491C51601978404BD971516828
:10077000C905C90D5160D168491CD160E17880225A
:100780001143E170F0BD30B50346002902D00020CE
:100790002D4A15E0002030BD9468D568AC42FAD0EF
:1007A0005468284D2D19641C54602C781C705468B2
:1007B0005B1CE405E40D5460D468641CD460401CE8
:1007C0000C46491E89B2002CE6D130BD38B523490C
:1007D0000A791C4810388368C568224CAB421AD08D
:1007E00013060FD54368194DED185B1C43602B7839
:1007F000CB714368DB05DB0D4360C3685B1CC360E2
:1008000001202060900605D55007800F09D0C879D7
:100810006946087038BDC8784006400EC870002090
:10082000EFE7CA7908480168064B5B18491C01606C
:100830001A700168C905C90D01608168491C816091
:1008400038BD000004F8FF1F04FAFF1FF4F5FF1F76
:1008500080E100E00080044040D0044000C0064039
:1008600080E200E0C4F0FF1FC0F0FF1F00B00640B0
:10087000002070470020704700207047002070471C
:10088000002070470020704700207047002070470C
:1008900000207047002070470020704700207047FC
:1008A00000207047002070470020704780B5002965
:1008B00002D0284FBC4600DF80BD80B5264FBC4625
:1008C00000DF80BD80B5254F0022BC4600DF80BD23
:1008D00010B501F011FB10BDF8B5214C00252148E1
:1008E00025600068002807D00023204F1A46032106
:1008F0001D48BC4600DF20601D4E00240020A500DE
:100900007051184808304059002810D019498842C1
:1009100006D00023154F1A460221BC4600DF05E031
:10092000124F0023144A1549BC4600DF7051641C65
:100930000F2CE3D9124C002020600A4840680028A0
:1009400007D00023094F1A4602210E48BC4600DF9B
:100950002060F8BD5B240000E72400002124000093
:100960000CF1FF1F44420000000000001F30000097
:10097000600100208F1C000058FAFF1F025802007F
:10098000F8F0FF1F000000000120F8490006086091
:100990007047F74908200870F6484168052212049C
:1009A00011434160416B012292041143416301DF15
:1009B000F148017B802211430173017B0906FCD4BD
:1009C000EE490A0AEC4980390A77EC4A130CEA4AE4
:1009D000603A1374E94B1B0E1375FF220A70E84A44
:1009E0001268002A02D00422022301E000221346EA
:1009F0001A4319231A430A7140210170027B0A43EA
:100A000002737047DC49DC4A80390028087D04D035
:100A1000012318430875102005E0400840000875C0
:100A2000107AEF21084010727047D34A012000214C
:100A3000403A83009B181970401C1028F9D3CF4806
:100A400008234380034660334360C8230370034692
:100A50000172E0334361C1610D201070C44AC9487E
:100A60005060C5488038027D02231A430275FF2278
:100A700002700272027301767047BF4880380179B4
:100A80002022114301717047BB4880380179DF2271
:100A9000114001717047BC48007880070ED5B649F7
:100AA0008039087D04221043087500BFB74800BF95
:100AB000401EFCD2087DFB2210400875704770472D
:100AC000002904D14006AC49400E803908767047B1
:100AD0007047F0B5A64B01071B1D07060026012233
:100AE000A64C090F1D68002F0EDA4800401C8240FA
:100AF000154320460A02603012188032480100195E
:100B00001D60C6614261F0BD4700BA409543984AF6
:100B10001D60135C4A01101943800B029749603134
:100B2000591841608821A1540672F0BD01464A79E6
:100B30000B79807811021943020601D48C4A1154B2
:100B4000C7E770479249020605D50007800E401896
:100B50000178052203E08000401801780922114342
:100B6000017070478A49020605D50007800E4018BB
:100B70000178FA2203E0800040180178F622114043
:100B8000017070470007810E814808180178022221
:100B900011430170704701078A0E7D4951180A7888
:100BA000FD231A400A7094E77047F8B5064600071F
:100BB000840E7248E30018180090002540888C4687
:100BC000002E06D16D49C95C8906090F0D2900D197
:100BD00001256A490022A701603179188E4604E098
:100BE00071468F5C61468F54521C8242F8D3604933
:100BF000624A8E5D00994E805D49660849680C46E0
:100C0000F140CF07D15CFF0F4906C90F8F420BD1CE
:100C10005749091D002D03D06546AD79002D0AD036
:100C20000125B5406C400C6051494968F140C90745
:100C300004D0C82103E064086400F4E78821D1549B
:100C4000534940390A7DDF231A400A75F8BDF0B5D3
:100C50000007800E494C801CC5002B195A8027467E
:100C6000002386016037F61902E0CF5CF7545B1C65
:100C70009342FAD343083E4840680146D940C90729
:100C800001D0882100E0C821615501219940384BED
:100C90001B1D484018601046F0BD3D4920390878BA
:100CA00009794907490D0843704731488068704702
:100CB000F8B5374E403E3078377C30703579304C5F
:100CC0000540E80709D0FFF7B0FE00F0B6F821684C
:100CD000002902D0042001F0F7FBE80607D5FFF752
:100CE000CCFE2168002902D0102001F0EDFBA806FF
:100CF00007D5FFF7C9FE2168002902D0202001F0A6
:100D0000E3FB680705D52168002902D0402001F0E7
:100D1000DBFB022D0AD1317A154881602168002958
:100D200002D0802001F0D0FBFF203072280756D57A
:100D3000380639077A07000FC90FD20F0F4C154D2F
:100D4000002807D14B009B18DB00E35C9B061B0FC0
:100D50000D2B21D08600480030188018C700E05DB8
:100D60008006000F012829D02EE0000000E100E0FD
:100D7000D8F0FF1F008004400021074000FEFF1F45
:100D80000CF1FF1F55555555EAF0FF1F4EC30000EB
:100D9000C0200740600100201148022241689143B1
:100DA0004160207E4006400E2076207C4006400EAA
:100DB00020742968002912D002200EE0A9590029C8
:100DC00002D0042001F080FBE05D8006000F0928BE
:100DD00005D1A959002902D0082001F075FBF8BD02
:100DE000D8F0FF1F0748804707480047FEE7FEE7A7
:100DF000FEE7FEE7FEE7FEE704480549054A064B25
:100E00007047000011040000C1000000381B0020E2
:100E1000381E0020381C0020381C002010B5B949AD
:100E20000020C870FFF754FDFFF756FDFFF7B1FD36
:100E300010BD10B5FFF7E6FD10BDB348B34A017809
:100E4000B048C180002101704170C16082600161C1
:100E50007047AC484078002800D001207047A9496D
:100E600010B520310020FFF7A0FE10BD10B5A54C35
:100E7000A7481834A28801788A4200D9CAB2002A49
:100E800002D1A0490020087180202168FFF7DFFE11
:100E9000216809182160A188081AA08010BD10B52A
:100EA000984C002018342168FFF77FFE216809184C
:100EB0002160A188081AA08010BD10B5002211463B
:100EC0008020FFF7C4FE10BD10B592490020FFF747
:100ED0006CFE10BDF8B506468F4D8A4C800723D5B1
:100EE000FFF7BDFF274620373878C009FFF729FEF6
:100EF000F888A88039784806800F02D001287DD173
:100F000084E08548854F08304278130003F07EF96D
:100F10000C070D8F1E8F2D3C8F414757668F02F0B7
:100F20007FFF33E0FFF7A2FF90E0002002F0BAFF5E
:100F300000287CD0FFF7C1FF3868002804D0616921
:100F4000002920D0082056E0754859E0012002F021
:100F5000A9FF00286BD0FFF7B0FF38680028F3D056
:100F60006169002972D0042045E0C906C90E5ED12E
:100F700080788021084320704006400E0121FFF751
:100F80009FFDFFF79AFF61E002F094FE00284ED02B
:100F9000C8E7C806C00E4AD15A48401C1CE002F0FF
:100FA000D5FF002843D0FFF788FF3868002804D019
:100FB000616900294AD001201DE05A4820E0C90695
:100FC000C90E012933D16178002930D00079A17888
:100FD00088422CD2544940182860A3E703F078F8DF
:100FE000002824D0FFF769FF3868002807D061691E
:100FF00000292BD00220FFF759FC27E017E04B48CF
:101000000168002922D0084680471FE0C806C00EAC
:101010000DD001280BD1FFF72DFC002816D100F0D0
:101020008BF8002812D1FFF731FC00280ED13A4886
:1010300008300178C90904D1C088002801D00020F7
:1010400000E08020FFF79EFD0020A880700706D5F5
:10105000314F08373878C0090FD0FFF735FF300718
:1010600035D52D4808300078C00927D0A8882179C7
:1010700008432CD0FFF7FAFE29E0A8880028EED01C
:10108000FFF70DFFA8880028E9D138784106890FBD
:101090000ED001290CD1C006C00E09D0012807D1FD
:1010A000FFF7EAFB0028DAD1FFF7F2FB0028D6D1E0
:1010B0008020FFF767FD0020A880D0E72078010698
:1010C00005D54006400E20700021FFF7F9FC7006A0
:1010D00002D50020FFF75FFD300602D58020FFF724
:1010E0005AFDF8BD0D48006800280AD0074CA41E20
:1010F00020462146FFF7E6FBFFF7DFFBFFF7EAFE9E
:10110000F6E70000E4F0FF1F2642000001000100A6
:101110002A420000CDF0FF1FFCF0FF1F40420000FC
:101120003C42000034420000CCF0FF1F3842000077
:1011300010B500F052F810BD10B51848184A0179E2
:101140001278914227D142780146C8788B78000204
:101150001843CB798C7919022143FE2A0CD0FF2A3F
:1011600019D1002817D1002915D100F05BF800280B
:1011700011D0FFF7A2FE0CE000280CD101290AD102
:1011800000F05CF8002806D0074906480860FFF721
:101190006DFE012010BD002010BD000004F1FF1FF6
:1011A0002B420000CDF0FF1FFCF0FF1F704770477F
:1011B0007047704710B50446FFF7E4FC200605D5DC
:1011C0002007000F01210904814001E00121A14015
:1011D000FA4802681143016010BD10B5F848027961
:1011E0008F200240100605D51007000F01210904C9
:1011F000814001E001219140F248047880200443BD
:1012000094420ED1ED48006808420AD0EE4802F040
:101210002BFCEE49884204D10D22EB492046FFF712
:1012200016FD10BD10B5EA4800240460E6492046CA
:1012300002F02BFCE7480470012010BDE6490020B5
:1012400008700120704710B5DF49E04802F01DFC2E
:10125000DC48802100780D220843DB49FFF7F7FCCA
:10126000DC490520087010BD10B5DA484168C1603E
:10127000002901D0012010BDD348173802F0F4FB3B
:1012800000280DD0D0481F38007B000604D5CD487B
:1012900080210078084301E0D0480078FFF78AFFFA
:1012A000C94901200873FFF7CEFF002010BDF8B533
:1012B000C448C84C007880210843A369626AC24FC1
:1012C000002600909A4206D30025FFF773FF3E7375
:1012D000FFF7B9FF08E0C248E56A00784100C1485D
:1012E000405AA84200D20546FFF7BEFF002800D1B1
:1012F0000025A06A00282BD0002D0CD0A16AE0693F
:101300002A4641180098FFF7A2FCA06A4019A06283
:10131000E06A401BE06221696069A26A4143914230
:1013200003D1A662616A08186062A748083000907D
:1013300002F09AFB401B009902F0A7FB002D06D09B
:10134000E06A002816D02078022800D03E73F8BD4D
:10135000002DE0D02169E06A4018401E02F09DFB9C
:1013600002466069824200D90246E169606A00F083
:10137000E2FDC3E703202070E8E7F8B5954C0026AE
:10138000A169606A884208D3944826630078FFF711
:1013900011FF8D480673FFF756FFFFF765FF002822
:1013A00000D126630020236BA26AE16904E08E4D20
:1013B00017182D5CCD55401C9842F8D3216BA06ABC
:1013C0004018A062E26A521AE262002924D0002A80
:1013D00014D1002812D021694018401E02F05DFB94
:1013E00005466069854200D905462A46E169606A7A
:1013F00000F009FEA662606A40190CE0626921698A
:101400005143814208D1E169606A00F0FCFDA662A7
:101410006169606A401860626B480830054602F0F6
:1014200023FB276B2946C01B02F02FFB002F09D09E
:10143000E06A002802D02078052803D162480673AC
:10144000FFF701FFF8BDF8B5624C0025A169606A9D
:10145000884208D3614825630078FFF7ABFE5A48FD
:101460000573FFF7F0FEFFF7FFFE002806D0206BA4
:10147000002824D0A06A002802D010E025631EE0D6
:101480002169E06A4018401E02F007FB02466069CD
:10149000824200D90246E169606A00F04CFD0020FA
:1014A000514BA26A216B08E0E7691618BE5D1F5C0C
:1014B000BE4201D0256202E0401C8842F4D3266B74
:1014C000A06A8119A162E06A871BE76222696069EC
:1014D00042438A4203D1A562616A081860623A48B1
:1014E0000830054602F0C0FA801B294602F0CDFA0A
:1014F000002E0CD0002F02D02078052807D1206ABA
:10150000002805D0002130480173FFF79CFEF8BD8C
:101510000121F8E7F8B52C480E3802F0A5FA2A4E5A
:1015200000BA040A1F3E307D24020443294D0020E6
:101530006C62A862F07B2F280AD004DC28280BD02C
:101540002A281CD104E0A82810D0AA2817D109E025
:10155000FFF78AFE00282FD0F07DB17D00020843FE
:1015600044BA0CE0FFF780FE002825D016480A3860
:1015700002F07AFA00BA040A307E24020443286991
:1015800044431148EC62173802F06EFA01250E4F01
:1015900000280DD0A04229D0307B000604D5094890
:1015A00080210078084301E00C480078FFF702FE34
:1015B0003D73FFF748FE0020F8BD0000F0F0FF1F6C
:1015C00004F1FF1F2C420000BF010020555342537D
:1015D000F4F0FF1F10F1FF1FCDF0FF1F2D420000A0
:1015E000E7F0FF1F2E42000014FAFF1F0120E3E77F
:1015F00070B5FE4802F038FAFC4D02241735002879
:1016000008D028461F38007B000608D4F848007828
:10161000FFF7D0FD2C73FFF716FE002070BD0120F0
:1016200070BD70B5F14802F01FFAF24C216B884290
:1016300002D82063032000E004202070EE488021BF
:101640000078226B0843ED49FFF701FBE7481F30A4
:10165000054602F009FA216B401A294602F015FAF4
:10166000E24900201731087370BD10B5DF4802F061
:10167000FBF9DE4C173400280FD020461F38007BC2
:10168000000604D5DC4880210078084301E0D848F2
:101690000078FFF78FFD012004E0FFF7E5FD00284B
:1016A00003D000202073FFF7CEFD10BD70B5FFF70B
:1016B0009FFF00282FD0D149702008700020CD4A0C
:1016C00048705368D5681C46AC4306D006248C701D
:1016D00028240C734873D3600BE0002B1CD0C34B41
:1016E00017331B7B002B1BD005238B7020230B7320
:1016F0004873C8700871487188710A23CB710872E9
:1017000048728872C8728873C8730874487412204B
:101710001063FFF786FF70BD02238B703A23E6E764
:1017200088700873E4E710B5FFF762FF00281FD048
:10173000B248002101708022427002228270C27081
:101740002023037141718171C171AD490A6808217B
:101750001478002C02D04454521C00E04354491C1D
:10176000C9B22429F4D3A34924200863FFF759FF01
:1017700010BD9E4810B50838817C04461F340029EE
:1017800004D001202073FFF75EFD10BDC07C994995
:10179000C007C00F4860FFF70CFD0020F2E7934838
:1017A00010B50838C07CC107964800D001210173EC
:1017B000FFF749FD10BD70B5FFF71AFF002820D0D4
:1017C000FFF752FD00281CD08C4803210170002235
:1017D000884942700B7A0424DB018370C270894807
:1017E0000C630830054602F03FF9042807D97F4909
:1017F000204602F04AF92946204602F046F9FFF752
:1018000010FF70BD70B5FFF7F3FE002824D0FFF77E
:101810002BFD002820D0794800210170062242705B
:10182000744A8170137A0824DB01C370017141711D
:101830008171C171734814630830054602F014F9D0
:10184000082807D96949204602F01FF92946204691
:1018500002F01BF9FFF7E5FE70BD10B5FFF7C8FEFB
:1018600000281AD0FFF700FD002816D0614A63480F
:101870009169491E0B0E03700B0C43700B0A8370A9
:10188000C17011690B0E03710B0C43710B0A83714C
:10189000C17108201063FFF7C4FE10BD70B5FFF7DB
:1018A000A7FE00282ED0FFF7DFFC00282AD05348DF
:1018B000002101704170817008214E4AC170916908
:1018C0000C240B0E03710B0C43710B0A8371C17155
:1018D0000221017211690B0C43720B0A8372C172EF
:1018E000484814630830054602F0BEF80C2807D9B2
:1018F0003E49204602F0C9F82946204602F0C5F8C4
:10190000FFF78FFE70BD10B53E4900200873FFF74A
:101910009AFC10BD70B5FFF76BFE002829D0374840
:10192000022404704470334D03202C632870354822
:101930000830064602F098F8022807D92B492046BD
:1019400002F0A3F83146204602F09FF82A48802191
:101950000078224608432949FFF779F9304602F01A
:1019600083F8296B401A314602F08FF8254901208F
:10197000087370BD70B5FFF73BFE00281DD01F48EF
:101980002022027000214170C1771A4C032022638B
:10199000207019488021007808431849FFF757F94B
:1019A00018480830054602F05FF8216B401A2946B6
:1019B00002F06BF813490120087370BDF8B50D4DA6
:1019C0000A4C0020083C0D4A296B02E0135C2354AA
:1019D000401C0B468842F9D3074F802238780126F5
:1019E000104300901F2B76D100480DE0A801002085
:1019F0002D42000010F1FF1F2C42000014FAFF1FBF
:101A0000C8F0FF1FBF010020083802F02DF8A749D9
:101A1000884260D1201D02F027F8A54F391D02F041
:101A200034F83846173802F01FF83946083102F00A
:101A30002CF8607B002804D1A07B002801D010285E
:101A400001D93E7374E0E07B2A283BD020DC1A28C1
:101A500048D00EDC0428F4D006DC00283CD0032853
:101A6000EFD1FFF723FEA7E51228EAD1FFF75BFECF
:101A7000A2E523283CD006DC1B2830D01E28E0D16C
:101A8000FFF78DFE98E5252835D02828D9D13BE0F1
:101A90009E2836D00EDC5528D3D004DC2F2842D027
:101AA0003528CED103E05A281FD09128C9D1FFF79D
:101AB0002AFF81E5A12821D0A3284BD0A82823D034
:101AC000AA28BED1FFF726FD0028CCD0207B000637
:101AD0003BD42E7070E541E0FFF7C7FD6CE5FFF7E2
:101AE00048FE69E5FFF767FE66E5FFF78BFE63E5F5
:101AF000FFF7D4FE60E5FFF7B0FE5DE5FFF70AFFF4
:101B00005AE5FFF737FF57E5FFF704FD0028AAD095
:101B1000207B000604D502202870FFF7C8FB4BE5A8
:101B20006448007812E0207C800704D400203873D9
:101B3000FFF789FB40E5FFF7EDFC002893D0207B01
:101B4000000602D42E702E6236E50098FFF732FBB5
:101B50000220ECE70098FFF72DFB72E70098FFF7F3
:101B600029FB3878544C0107090F012000048840F4
:101B70002168504F084320603878FFF71BFB387806
:101B800086402068064306202660287014E510B5BC
:101B90004A480178022908D0032910D0042911D01D
:101BA000052901D10021017010BD41481F38C07BBB
:101BB000282801D0A828F7D1FFF779FB10BDFFF73F
:101BC00042FB10BD3E48802100780843FFF7F2FA3F
:101BD000F5E710B53948007800280DD001280ED05F
:101BE000052808D033480078FFF7E4FA304902208E
:101BF0000873FFF728FB10BDFFF7E0FE10BD2C486F
:101C00001F38C07B2A2803D02F2804D0AA28F5D15A
:101C1000FFF7B3FB10BDFFF716FC10BDB7E710B51B
:101C2000244828490078FEF7C0FF24490863FFF7DD
:101C3000D0FF10BD10B50446400702D50020FFF7C5
:101C4000EEFF200701D5FFF7A2FF10BD1E48006878
:101C500000280BD01D4C20462146FEF733FEFEF730
:101C60002CFE0007F7D5FFF792FFF4E7164800684F
:101C700000280CD0154C20462146FEF723FEFEF727
:101C80001CFE4007F7D50020FFF7C9FFF3E70E4819
:101C90000068002809D00D4C20462146FEF712FEB0
:101CA000FEF70BFEFFF7C6FFF6E700005553424371
:101CB000BF0100202D420000F4F0FF1F10F1FF1FB4
:101CC0002C42000014FAFF1F40420000FFFF0000FA
:101CD00010B52521864801F0C3FE85482521253011
:101CE00001F0BEFE834800214160017041708170A7
:101CF000C17010BDFFB581B0054602980C9C2E182E
:101D0000002020607B48C1787948401C0090002961
:101D10001DD078490020C870754F04983A78391D55
:101D200001F038FE387804994118049121680818A8
:101D300020607048009940684A780B78000C1102C6
:101D4000000419430843397841186A484160AEE0FD
:101D500028780A2814D00D2812D03A287ED0654958
:101D6000097800297BD000F0BCF862490307604A7B
:101D700048781B0F175C3B431354401C48708EE09F
:101D80005B4A0021137808465B1D04E0175C791854
:101D9000401CC9B2C0B28342F8D8002901D0042740
:101DA00089E0544801218278002A7FD1817000980F
:101DB000417802780802104340BA0099020A08707C
:101DC00007464B484A70C078002804D0012830D01C
:101DD00004286BD12FE046492522881801F0DAFD4E
:101DE00044484068010C09043943814204D0012071
:101DF00040490227C8705EE03D480278011D049802
:101E000001F0C8FD3A48049900784118049121680E
:101E10000818384920604868020C0098120443787A
:101E20000778180238430243314800781018486098
:101E30003CE001273FE021680A98FF22411A0498FC
:101E400001F0E9FD2B4821684268521A0B990A609B
:101E50000299721B8A1A03990A6001E00BE014E0F0
:101E600023494A790B791102194349BA090441609F
:101E7000022005B0F0BD25211D4801F0F1FD1D48EF
:101E8000002101704170817010E01A4F7978252986
:101E900025D200F026F816497A78000188541548B2
:101EA000007800281BD00021124801706D1CB5423B
:101EB00000D04DE7002721680A98FF22411A0498B4
:101EC00001F0A9FD0B4821684068411A0B98016098
:101ED0000298711B411A039801603846C9E7012135
:101EE000E2E7C1060007000F002900DB0930704758
:101EF000CC01002048F1FF1F10B500F030FAC54AB0
:101F0000107BD17A137D0002D47C08431A0201466B
:101F100022435043C04A01241060C04A1160C04AA5
:101F2000146001F0BAFDBF490860C049BE480860AE
:101F3000BF48046010BDF7B584B00025B7490095CF
:101F40000498096814464843029001200190B8485B
:101F50002F4600682E46002849D0002001F01EFAC6
:101F6000B4480DE0029BCF19BB4207D28558FA1A3C
:101F7000891A0091042901D300210191761CF6B23F
:101F8000F20011184968002902D0002DEAD001E0C2
:101F9000002D02D0019801282BD0A04821460068CE
:101FA0004143059801F05CFD9A48017BC27A090221
:101FB0001143827C437C10021843400101F06DFD07
:101FC0009449CA7D8B7D12021A430B7C8D7B5A4348
:101FD000CB7B19022943511840180499884206D135
:101FE0008E48006844432146059801F0ABFB07B0DA
:101FF000F0BD8A4822460068424300982918059897
:1020000001F0C8FCD0E7F7B58CB00646202104A843
:1020100001F028FD8648002500682F46002808D0DA
:10202000854C6069002806D084A28E2189A000F02A
:10203000CAF80FB0F0BD314689A000F0C4F8002006
:1020400001F0ACF9206900280DD07249CA7D087CE6
:102050008B7D110219434843411CB14263D0801C5F
:10206000B04260D064E00D9F384601F039FA012893
:1020700005D0384601F036FA012802D058E0012593
:1020800000E0022579A17DA000F09DF80020C0436A
:10209000624F266060603868E660A06001202061C1
:1020A0002576284601F030FA050069D174A2AD21E9
:1020B00077A000F088F839680E980A4642432068F5
:1020C000301A48430D9901F031FA0546014672A0D5
:1020D00000F079F8002D62D00F2D51D15FE00D98FE
:1020E00079010918202204A801F054FC6846438CA9
:1020F000C28C417F408D03936B4607C36846C27E06
:1021000004A967A00B9B00F05EF808A80FC8039312
:102110006B4607C304A80FC800F057F8012801D187
:102120000B9860607F1C3D4800684009B842D6D8D3
:102130002068B04233D82069012830D1E068401CC3
:10214000B04204D065A14DA000F03DF827E04CA2BC
:10215000D1214FA000F037F8304F0E993868024671
:102160004A432168731A58430D9901F0DFF9054677
:10217000014649A000F027F8002D0BD00F2D09D003
:102180000020206101206061284600F0CFF801F0B6
:1021900006F94EE7A0683968E6604018A060A168BB
:1021A0006068814202D32069012801D00F2DF0D14F
:1021B00050A132A000F007F80020206100F0B6F82E
:1021C00001F0EEF835E7012070470FB470B5002438
:1021D0004B4D06AE10E069460B7C4AA2117899423D
:1021E00006D10322314601F085FB00280CD002E025
:1021F000521C0029F2D1641CA00028580028EAD102
:1022000070BC08BC04B018470B980028F8D0012017
:10221000F6E7000050F1FF1F44F1FF1F20F1FF1F00
:1022200024F1FF1F28F1FF1F180200202CF1FF1FCF
:1022300014F1FF1F50F5FF1F180400205472616E47
:10224000736665725F6661696C6564202D206578D0
:102250006974000025643A2025730D0A000000000F
:10226000626C6F636B3A2025640D0A00464C415343
:102270004820494E49540D0A000000002573000013
:10228000464C415348205752495445202D200000C8
:1022900025643A202573000025640D0A0000000023
:1022A0006E613A252E31317309617472623A2538B4
:1022B0006409737A3A2538640973743A25386409D5
:1022C00063723A253864096D6F643A253864096190
:1022D0006363643A2538640D0A000000424C4F43A2
:1022E0004B204F5554204F46204F524445520D0A23
:1022F00000000000464C41534820454E440D0A0062
:102300001C430000303132333435363738394142DE
:10231000434445464748494A4B4C4D4E4F50515215
:10232000535455565758595A0000000070B50400D0
:10233000214810D020222149FDF7CEFFA500204CD6
:10234000605901F0B5FA1C491C3101F09EFB1D4992
:102350006059886470BD194920222031ECE710B51E
:10236000194C2046027DC37C1002617B184301F0AA
:1023700094FB16494018800A41004018E08210483A
:102380003C3001F095FA0C49091F01F07EFBE08A10
:1023900041020C48C1604161617B4902FF39FF394C
:1023A00002394163416410BD044910B51C2240311B
:1023B0000748FDF791FF10BDB0F3FF1F6C4500000B
:1023C0003043000050F5FF1F50F1FF1FFF030000D6
:1023D0001804002030B5428C920803D10E4A1288AE
:1023E0001204920C836A92009A18530700D5121FA8
:1023F000403A01231B06D363002391631C469D00D2
:102400005B1C54510E2BFAD3C36913624262C16242
:10241000806A0249016030BDCC4F0000A52E5AE20F
:1024200070B5034643480D460468002A208B08D047
:102430001946814301D0062109E0984320830220F8
:1024400070BD0146194001D06183F6E70521638321
:10245000284600F07EFD012070BD0246880070B560
:10246000354940184038C46B002C1DD0208B1043D8
:1024700020836178658B062917D0052914D1294658
:10248000084211D001406183A8432083204600F018
:1024900029F9208B0221A84320830120607020208D
:1024A0000155204600F039FD70BD29468143EBD02F
:1024B00070BD214A890089184039C96B002902D0B2
:1024C0000A8B82430A8370470A46014690001A4AE3
:1024D00010B580184038C06B002803D000F017F901
:1024E00000F063FC10BD13480068408B704710B5C6
:1024F0000446008B084320836278618B062A15D03E
:10250000052A12D10A4610420FD002406283884346
:102510002083204600F0E6F8012060700221202090
:1025200001552146054800F00BF810BD0A468243CC
:10253000EDD010BDB8F5FF1FCC15002034040020ED
:1025400030B502780023022A03D0012A01D0032AE1
:1025500000D101238C7800E010464268002A02D0A6
:102560009578A542F8D24A604160002B04D0002A39
:1025700000D09160886030BD0020FBE701464068D4
:1025800042684A600B780022022B05D0012B03D051
:10259000032B01D0426070474368002B01D0996043
:1025A00042608260704769494A68426000228260E6
:1025B000486070476549664B48681B6882789B781D
:1025C0009A4202D142684A60704700207047816891
:1025D000002907D042684A604168002901D080681C
:1025E00088607047594906E04A68824202D14068D3
:1025F0004860704711460029F6D1704710B58368CE
:102600000446002B05D1607801280CD14F4B03E024
:102610009B6818780028FBD02046FFF7D8FF21469A
:102620001846FFF78DFF10BD484A10B51832D36821
:10263000002B17D013469B8A04E0002C12D02246B0
:10264000A48AE318D4688B42F7D3C460D0600261D7
:10265000C468002C00D02061591A8182908A401AE7
:10266000908210BD0024C460D060C91A02619182BA
:10267000848210BD70B5354D1835E868002830D01B
:10268000A88A401EA882002625E0A068002808D05D
:10269000616841606068002802D0A168816066605E
:1026A000A66021462948FFF74BFFA08AA8826078E0
:1026B000042804D12749E08A09884018A082012013
:1026C000607020210855E068E860E068002801D0CB
:1026D0000561E6602661A88A002802D1EC68002C1A
:1026E000D3D170BD10B5016900290FD0C268CA608E
:1026F000C3680022002B07D08B8A848A1B198B8227
:10270000C3681961C26000E08A82026110BD70B5C1
:10271000114BDD789C1C1E4672B69A78AA4207D2ED
:10272000521C22703278541CAC4200D10024347008
:1027300062B6DC78944204D9D200D218916050601D
:1027400070BD022000F088FE70BD0000340400203F
:10275000B8F5FF1FC0F5FF1FA81500200122027069
:10276000002242704260028142818281954A89033F
:102770008918090CC1817047F8B50D4617464168A4
:1027800000268289904C002901D0002A0CD0C389F0
:102790009A422BD1002F19D08B4A0029126817D0EA
:1027A0001146FFF7CDFE1AE0FFF7E8FE0746C069C5
:1027B000042105602020C1553846FFF793FF3846B5
:1027C00000F0ABFB20682030067020E00120F8BD4F
:1027D000426021684E602168886001214170206854
:1027E0000821C561384600F0B4FBEFE70189890094
:1027F00009180D6172B68189491C818162B601890F
:10280000491C89B20181C289914200D10681002010
:10281000F8BDF7B50446808900256B4F0E460028A9
:1028200033D0608980000019006908606089401C0D
:1028300080B26081E189884200D1658160680028AA
:102840001CD02046FFF79AFE0646203005702189ED
:10285000F0698900091908612089401C80B2208133
:10286000E189884200D125813046FFF73BFF3046A1
:1028700000F053FB38682030057004E072B6A08980
:10288000401EA08162B60020FEBD0298002808D03C
:102890004D4960680968002805D02046FFF750FEC2
:1028A00006E00120FEBD61603868456038688460DC
:1028B0000821029800F04DFB3868C661F1E7C18934
:1028C0008089081A704710B5FFF721FF00F06DFAF4
:1028D00010BD10B50446808900281ED06089800094
:1028E0000019006908606078012807D10220607033
:1028F00000212046FFF70BFF00F057FA72B6A089BF
:10290000401EA08162B66089401C80B26081E1896E
:10291000884201D100206081042010BDF8B5044632
:10292000406800260F46002805D06078022818D09D
:10293000A08900282FD0A089E18988423ED2208931
:1029400080000019076172B6A089401CA08162B6A0
:102950002089401C80B22081E189884200D12681F3
:10296000F8BD66702046FFF709FE05462030067068
:102970002189E86989000919086172B6A089401C9B
:10298000A08162B62089401C80B22081E189884202
:102990000AD1268108E02046FFF7F0FD0546C06910
:1029A0000421076020204155012068702846FFF768
:1029B00099FE29460548FFF7C3FDF8BD032000F046
:1029C0004BFDF8BD0000FCFFB8F5FF1F34040020EC
:1029D00010B5002A06DA52005208D21DD308DB00D7
:1029E000102203E0D21C93089B000C22002B02D083
:1029F0009C188C4201D9012010BD821883604118B7
:102A000002604160C91AD018884202D8106002469C
:102A1000F9E70020106010BD0146EFF31080C207F7
:102A2000D20F72B60868002801D003680B60002A34
:102A300000D162B6704710B50446FDF79FFB002831
:102A400007D0A1680246002903D0002308C2091F4D
:102A5000FCD110BD814202D342688A4201D80120D4
:102A60007047EFF31082D207D20F72B603680B6083
:102A7000016000D162B600207047000003210170A0
:102A8000002141704180416081607047F8B5054682
:102A90004088002804D03F4CA9682268914201D0A8
:102AA000FF20F8BD401E0004000C68803CD1216866
:102AB0006878887069680127002928D02846FFF7C0
:102AC0005DFD06460521203001703046FFF70AFE05
:102AD0006F80AE60B07868702F48216840688A784F
:102AE0008078824201D330460AE02B48FFF728FD68
:102AF00031462948FFF724FD20684770777011E0C0
:102B000000F00BFA21680020203108700CE0224907
:102B100049688A782168824206D91F48FFF710FD6C
:102B2000206847700020EBE70020F8BD70B50E4626
:102B3000184D044641882868002907D0A1688142C1
:102B400008D16088401C6080002070BDA060807843
:102B50006070F6E7002E0FD062788078824203D250
:102B60008870A068FFF74AFD6068002806D02046FC
:102B70002968FFF7E5FC08E0012070BD2868606067
:102B8000296800204860286884600921304600F0E8
:102B9000E0F9F1E7B8F5FF1F3404002002220270CB
:102BA000002242604180704710B54168002911D071
:102BB000FFF7E4FC04460321203001702046FFF7B4
:102BC00091FD204600F0A9F924480021006820303A
:102BD000017002E04188491C4180002010BD10B501
:102BE0000C464188002903D0491E4180002010BDB9
:102BF000002C07D0194A43681168002B04D0FFF756
:102C00009FFC07E0012010BD41601368002159605E
:102C1000116888600721204600F09BF9F2E710B5A3
:102C20000021FFF774FD00F0C0F810BD10B5416839
:102C300000290ED0FFF7A2FC0446FFF753FD012048
:102C4000607003212020015521460548FFF778FCDC
:102C500010BD4188491C418010BD0000B8F5FF1F20
:102C60003404002030B58C48012243688B49002B86
:102C700009DA8B4C0523236102704A68920E1A40D0
:102C8000827050060EE0DD06ED0E1446AC405B117E
:102C9000844D9B005B191C6002704A68D200D20F01
:102CA0008270D006486030BD10B57F4CFFF7DAFF68
:102CB0007E48C168002900D0848A7D4801680029C7
:102CC00003D08088A04200D20446204610BD70B5D3
:102CD0007148002201464368704C8978002B08DA5D
:102CE0006F4D07232B61027043789B000B439906BD
:102CF0000DE0DE06F60E0125B5406A4E5B119B0025
:102D0000803E9B191D60027043781943090761607A
:102D1000427070BDF8B505466648012701684F70DE
:102D20000068FFF740FC6449002008605F48634C7E
:102D3000C16800291AD0818AA94211D822686E1A66
:102D4000891821608782FFF795FC002E11D020683A
:102D5000761E401C20605548C0680028F3D108E06A
:102D600023685A19491B2260818202E020684019B9
:102D700020604F4C206800280FD0A088A8420AD8B5
:102D80002D1AA78000F088FA002D06D020686D1E4D
:102D90000028F7D101E0401BA0804948FFF7EEFB77
:102DA00000F0B6F8FFF793FFF8BD3B480178002923
:102DB00002D0012141707047012038490007486066
:102DC000704770B53B480121026851700068FFF7F9
:102DD000EAFB3C4C657813E0E8000119486802788A
:102DE000002A17D0012A1AD0FFF720FFE0786D1CC7
:102DF000854200D1002572B6A078401EA07062B650
:102E0000A0780028E8D165702D48FFF7B7FB00F0E7
:102E10007FF870BD098989B2FFF769FBE6E7896829
:102E2000FFF77CFDE2E7284801681D484161002169
:102E30008161072101611948016AFF2212061143CD
:102E4000016240177047704710B51A4801210268A7
:102E500051700068FFF7A7FB00F000FB17480168FE
:102E6000491C0160FFF706FC00F016FA1448FFF752
:102E700085FB00F04DF810BD10B50E480068416AA2
:102E8000806A814203D300681049884202D0012041
:102E900000F0E2FA10BD0000B0F5FF1F00ED00E009
:102EA00000E000E080E100E0FFFF00004C040020B3
:102EB000C4F5FF1FB8F5FF1FA8F5FF1FC0F5FF1FE2
:102EC00034040020A8150020D04F0000A52E5AE29F
:102ED00070B5044615460020207001226270A17072
:102EE0006060A060E0602061A082E08220832346D1
:102EF0006083203318705870608C002803D1BE485E
:102F0000FFF78AFDA06229462046FFF763FA70BDED
:102F1000BA49486002214170704770B504000ED074
:102F2000B64DA17828680126827891420BD9FFF727
:102F30003AFB286846702046FFF7EAFF70BDB048AC
:102F4000FFF71CFBF8E766702146AD48FFF7F8FA7B
:102F500070BD70B50D4600280FD0AA49A74C884215
:102F600004D2226801461046FFF75EFB20684570D8
:102F7000A348FFF703FBFFF7CBFF70BD70B5FFF76A
:102F800019FB04000AD09D4D9D482968FFF7D8FA27
:102F90002968012048702046FFF7BAFF70BD9748A6
:102FA0000068002800D0C078704770B50026934DA7
:102FB00000280FD0944A128890421ED8820093486D
:102FC00010184038C46B002C17D0A1702868A0429C
:102FD00002D014E02868817089484068807888426F
:102FE0001BD987482968FFF7ABFA29680120487088
:102FF00028682030067000200DE0FF2070BD2046BC
:10300000FFF7FCFA6078012807D17D48FFF7B6FA90
:10301000296820310E70FFF780FF002070BDFFB5DA
:10302000080681B01E4617460C46000E00D14C1C07
:103030007748FFF7F1FC050025D02002000CAF62B5
:103040006884EE61E1B22846019AFFF741FF01244E
:103050006E486D4906E0A2001218403AD26B002A71
:1030600004D0641C0A889442F5D90024A1000818F1
:103070004038C563EC702846FFF74FFF5F48006893
:1030800020300470204605B0F0BD70B55B4C0025C3
:103090005E4E2168002802D0CA7882421AD14D7053
:1030A000FDF757F821684862FFF7E6FE2068C1780F
:1030B000890089194039CD63816A4F48FFF7CAFCFE
:1030C000216853488D62FFF7C5FC00202560FFF79B
:1030D00024FF19E04C490988884217D880008619D6
:1030E000403EF46B002C11D02046FFF770FA2046CA
:1030F000FFF7F8FAF5634048A16AFFF7ABFC2146F9
:103100004348A562FFF7A6FC002070BDFF2070BDFC
:10311000F7B51646002004463C4A3B4902E08300CE
:10312000D450401C0B889842F9D33A483022018889
:103130003748FFF74DFC384801210088C90780B2A5
:103140004218364801682C48FFF742FC34480822F0
:10315000018834480068FFF73BFC334FFF25FD70C2
:103160007C84324A00213846FFF7B2FE244804210D
:10317000017044602E480170C46004618482786AE2
:103180002030FCF7E3FF1D482B49076002207870D0
:103190002848047044700978C17000F05EF927482F
:1031A000016A2A0411430162C169026A5202920E45
:1031B00092061143C161FFF736FE214900280860DD
:1031C00012DB82081F49920051180A688307DB0E40
:1031D0009D402A430A60C206D20E0121914040114F
:1031E000194A800080180160002332460199009836
:1031F000FFF715FFFEBD000020060020B8F5FF1FF9
:1032000034040020FFFF0000C84F0000CC15002050
:1032100094040020E04F0000CC4F0000E44F000079
:10322000EA4F0000D4F5FF1F64040020553400006D
:103230004C040020A8150020E84F000000ED00E03D
:10324000B4F5FF1F00E400E000E100E01048006872
:10325000704710B50321FFF77CFE10BD0D490C4AE5
:103260000968C882128880188882704710B509489A
:10327000016807488A8A0088CB8A101AD21880B25F
:103280008A82010402D40421FFF763FE10BD00000E
:10329000C0F5FF1FB8F5FF1F70B52A4C2068002845
:1032A00015D0A088284E401EA0800AE0E88800F0D3
:1032B000D2F8A888A0802868206029463068FFF7E7
:1032C000C9FBA088002802D12568002DEED170BD71
:1032D00070B50D4604000BD01B480068002807D0CD
:1032E000FFF79AFB002804D01649C5808A8804E0BD
:1032F000002070BD19469B889A18A24202D20B6822
:10330000002BF7D10B68121B0360828008608A884B
:103310008388D21A8A8070BD10B50A4902E0002A5B
:103320000FD011460A688242F9D102680A608A8881
:103330008388D2188A80014603480068FFF78AFB19
:10334000002010BDC4F5FF1FD4F5FF1F10B500F01D
:10335000FDF810BD134610B50A46194600F0E6F810
:1033600010BD000010B530490028096801D00120C7
:1033700000E00220FFF7A8F810BD2C4F00246420C5
:10338000BC4600DF2046FCF7EFFF002C04D00024F1
:10339000274FBC4600DFF5E70124F9E77047704787
:1033A0007047244F0024BC4600DF1F4D0023234FED
:1033B00028601A460F212048BC4600DF6860FDF7F0
:1033C0002DFD0120FDF735FD1E4F00221C49032075
:1033D000BC4600DF1C4FC820BC4600DF0020FDF7C4
:1033E00028FD1A4FBC4600DFC00701D00A2600E0C6
:1033F0003226174F6868BC4600DF2046FCF7BDFF49
:10340000002C05D00024104F3046BC4600DFF4E706
:103410000124F8E710B5FCF77BFF0520000303C883
:10342000FCF758FF002010BDCCF5FF1F5D320000F7
:103430006D3200009F2F00007B3300001F30000022
:10344000FFFF00002124000053320000E7240000A9
:103450008B300000FEE77047FEE77047704710B5FD
:10346000FFF79DFD002805D060214843154940180D
:10347000603810BD144810BD10B5144902460868E4
:10348000002800D0FEE71248106001220A60FFF712
:10349000F5FA012010BDB0B50446FFF780FD002805
:1034A00004D00D4F0B49BC46206800DFB0BDB0B55D
:1034B0000446FFF774FD002803D0084F2068BC467F
:1034C00000DFB0BDEC150020D81A0020D8F5FF1F92
:1034D000EC180020FFFF00002D2B00008D2A0000BB
:1034E0000120704701783A290AD1007A302809D0A2
:1034F000322807D0332805D0342803D0352801D00E
:10350000002070470120704710B52B4C0228207016
:1035100008D1FEF7DDFBFF210131284800F0A0FAB9
:1035200000206060002010BD00207047084610B5E4
:1035300021490978022903D0012905D00B2010BDAB
:10354000114600F007F810BD002010BD00207047A4
:1035500000207047F3B587B00020FF270C46049089
:10356000039003AD04AE013705900295134B05AAF5
:103570002146009701960798FEF7BCFB00280CD067
:1035800002280FD0012813D0042813D0052801D019
:103590000628EAD10D2009B0F0BD03980028FAD022
:1035A0000020F8E705980799241A08180790DCE727
:1035B0000F20F0E70C20EEE7DCF5FF1FF8180020E5
:1035C000F1B500242546264615E00098E200C059D2
:1035D0001821891AC84061004A19B149C0B251186E
:1035E0004A1C00F0CEF8641C042CEED30024761C98
:1035F0000835202D01D2B700E7E7A9480021203087
:103600000170F8BDF8B506468068012149020843FB
:1036100049108843A24D00240827103DB060E10006
:10362000B068791AC84061004919C0B24A1C00F05C
:10363000A8F8641C022CF2D32827062C0BD2E10038
:10364000F068791AC84061004919C0B24A1C00F0FC
:1036500098F8641CF1E70020E873F8BDFEB59048C7
:103660002422343002704270827018220021C2700D
:103670000424491CC9B20429FBD38A4A0021526898
:10368000535C0355641C491CC9B2E4B20429F7D346
:1036900000260320801BC00001907000071980489D
:1036A0000025343038180090009AE9007C48521800
:1036B00034307918521C0918AB001038C058019BDF
:1036C000D840C0B200F05DF86D1CEDB2042DEBD314
:1036D000761CF6B2042EDCD32034714EE5B2002401
:1036E000343603276000401981194A1C381BC30077
:1036F0006C48C068D840C0B200F043F8641CE4B223
:10370000042CEFD30835E8B200213154FEBD6448E3
:1037100034307047624810B5383000F0C9F84000C6
:10372000801CC0B210BD5E48693070475C4810B55F
:103730002430FCF731FF00F052F8FFF78FFF00F064
:103740002AF810BDFEB5574F0546387800240E46BE
:10375000002803D1FFF7EAFF0120387000216A46F4
:10376000514811710090684600F06AF8002802D0B4
:103770002855641CF7E7311B2819202200F04BF96B
:10378000FEBD10B50409494B00071C5D0C70000F0D
:10379000185C107010BDF8B5414D00243435281D5B
:1037A00000F086F80006C20D901C294635310870DD
:1037B000032048700220002305E0E60709D006191F
:1037C0008B55641CE4B2A242F7D81018C0B20B5457
:1037D000F8BD6608761936790719CE55F1E7F0B5C8
:1037E0000020844686462F4804271026446800207F
:1037F0000246034621780D46303D092D01D830237D
:103800000AE00D46413D052D01D8372304E00D4661
:10381000613D052D00D8572370434018521CC01A33
:10382000641CD2B2BA42E5D30004614608431C4985
:103830001C4A24310968414070464140D160F0BDC6
:10384000F0B5184D0124A96800260279002A03D09A
:103850000A78002A1DD1067103685A1C02601B7881
:10386000402B18D11778412F04D04D2F06D0552F5B
:1038700011D107E00A490471383105E008490471A3
:10388000103901E006490471521C02600A78002ACE
:1038900004D0D3B2491C1846A960F0BD0671D4E724
:1038A000081A0020E4F5FF1FC8470000EC4F000095
:1038B00030B5441C03E00178401C00290DD081077D
:1038C000F9D10B4BDD0104C8D11A91432940FAD03C
:1038D000001B0A0603D0C01E30BD001B30BD0A0409
:1038E00001D0801E30BD0902FCD0401E30BD00005A
:1038F000010101010346F0B50B439B072DD1244D77
:10390000EF01042A29D308C810C9121F5E1B9E4369
:103910003E4017D0D8B2E1B2401A3106014310D16F
:1039200098B2A1B2401A310401430AD1180221020F
:10393000000A090A401A3102014302D1180E210E71
:10394000401AF0BDA342DCD018BA21BA884201D98E
:103950000120F0BD0020C043F0BD002A01D10020AD
:10396000F0BD03780C78401C491C002B0DD0A342FD
:103970000BD1521E09D003780C78401C491C002B37
:1039800003D0A34201D1521EEBD1181BF0BD0000A1
:1039900001010101F8B5042A2CD3830712D00B785A
:1039A000491C0370401C521E83070BD00B78491C26
:1039B0000370401C521E830704D00B78491C03700F
:1039C000401C521E8B079B0F05D0C91ADF00202315
:1039D000DE1B08C90AE0FCF77FFCF8BD1D4608C9DC
:1039E000FD401C46B4402C4310C0121F042AF5D2DF
:1039F000F308C91A521EF0D40B78491C0370401CFE
:103A0000521EEAD40B78491C0370401C521EE4D4A9
:103A100009780170F8BDD2B210B513029A181304D8
:103A20009A1800F00EF810BD01E004C0091F042927
:103A3000FBD28B0701D50280801CC90700D0027021
:103A4000704700290BD0C30702D00270401C491EEA
:103A5000022904D3830702D50280801C891EE3E774
:103A60000022EEE70022DFE70378C27819464378A8
:103A700012061B0219438378C0781B0419431143B3
:103A80000902090A000608437047020A08704A70D2
:103A9000020C8A70020ECA707047002203098B4222
:103AA0002CD3030A8B4211D300239C464EE00346DD
:103AB0000B433CD4002243088B4231D303098B4291
:103AC0001CD3030A8B4201D394463FE0C3098B42C7
:103AD00001D3CB01C01A524183098B4201D38B0120
:103AE000C01A524143098B4201D34B01C01A5241C3
:103AF00003098B4201D30B01C01A5241C3088B4208
:103B000001D3CB00C01A524183088B4201D38B00F2
:103B1000C01A524143088B4201D34B00C01A524194
:103B2000411A00D201465241104670475DE0CA0F6B
:103B300000D04942031000D34042534000229C462B
:103B400003098B422DD3030A8B4212D3FC22890135
:103B500012BA030A8B420CD3890192118B4208D30B
:103B6000890192118B4204D389013AD0921100E06D
:103B70008909C3098B4201D3CB01C01A5241830981
:103B80008B4201D38B01C01A524143098B4201D3AE
:103B90004B01C01A524103098B4201D30B01C01AD9
:103BA0005241C3088B4201D3CB00C01A5241830853
:103BB0008B4201D38B00C01A5241D9D243088B42A9
:103BC00001D34B00C01A5241411A00D2014663464C
:103BD00052415B10104601D34042002B00D54942B0
:103BE000704763465B1000D3404201B50020C046D9
:103BF000C04602BD7546FCF7FBFBAE4605006946B4
:103C00005346C008C000854618B020B5FDF7F4F84B
:103C100060BC00274908B6460026C0C5C0C5C0C55F
:103C2000C0C5C0C5C0C5C0C5C0C5403D49008D4662
:103C300070470446C046C0462046FCF780FA0000A4
:103C400001491820ABBEFEE72600020070B58C18B3
:103C50000578401C6B075B0F01D10378401C2A11CB
:103C600006D10278401C03E00678401C0E70491C07
:103C70005B1EF9D12B0705D40023521E0DD40B7007
:103C8000491CFAE70378401CCB1A921C03E01D780C
:103C90005B1C0D70491C521EF9D5A142D8D30020DF
:103CA00070BD000003000000890900004D330000D2
:103CB000553300007CB54D484D4D01784D4CC9063B
:103CC000C90E02D0012977D177E0C67848484A4A20
:103CD000C17820308078330000F098FA088205140B
:103CE00051828209388245482060122062E01078B3
:103CF000002876D0002903D0414820600A2059E0EE
:103D00004048FAE71278002A01D1012968D0002939
:103D100003D03D49009100210CE03C49FAE7009AAC
:103D20001378002B05D0D37896781B0233439A186A
:103D30000092491C8842F2D10098017800294FD0A6
:103D40002060C17882780802104333E01278002A9C
:103D500046D0002903D02E49009100210CE02D49C6
:103D6000FAE7009A1378002B05D0D37896781B02D7
:103D700033439A180092491C8842F2D1DCE7264965
:103D80000091032801D000210CE0FFF7CCFC20605B
:103D9000FFF7C0FC0EE0009B1A78002A01D0D21871
:103DA0000092491C8842F6D100980178002917D06A
:103DB00020600078019006E012E001A96846FCF757
:103DC00057FD00280DD0A188019881420CD980B2FE
:103DD0001249A0800978491E084203D004E000E09F
:103DE00000207CBD0120287101207CBD04F1FF1F53
:103DF000E4F0FF1FFCF0FF1F274200008C42000090
:103E00009F4200009E420000C1420000A04200000C
:103E1000C3420000C2420000C44200002A42000027
:103E200070B51D481D4C0078C106C90E0AD0234646
:103E30001948183B1A4A5D780079012906D00229F1
:103E400028D10AE015481238206021E0002D21D049
:103E5000997888421ED2002016E08F210840010682
:103E600005D50607360F01210904B14001E0012103
:103E70008140002D01D100070CD19868084209D07B
:103E8000D868084000D001201070000A50702260ED
:103E9000012070BD002070BD04F1FF1FFCF0FF1F6A
:103EA000CDF0FF1F70B5274A01461078264CC30697
:103EB00010464088DB0E04D0012B2AD0022B28D1DB
:103EC00010E0012825D10225002904D0FCF7F7FDD8
:103ED000E088284304E00020FCF7F1FDE088A843D7
:103EE000E0802CE016798F221640320605D5320785
:103EF000120F01252D04954001E00125B54062789F
:103F0000002A06D0320704D0A2682A4201D0002835
:103F100001D0002070BD002905D03046FCF732FEEC
:103F2000E06828430AE02069284208D13046FCF7BF
:103F300032FE3046FDF7FCF8E068A843E06001205F
:103F400070BD000004F1FF1FE4F0FF1FF8B5002072
:103F5000584F00903878C006C00E7DD1B8783E46E4
:103F6000203E00287ED0544801783046C078002991
:103F700001D1012870D0002801D0504C6BE0504C8A
:103F800069E06078022804D0042843D0052860D175
:103F900043E06179B878814237D170702079B07090
:103FA0000020484A484B02E000211154401C198867
:103FB0008842F9D301250120B168A840084202D007
:103FC0002846FCF7CFFD01200004B168A840084254
:103FD00004D0284680210843FCF7C4FD6D1C102D39
:103FE000E9D33A48B0600020F060306135460120E6
:103FF000FCF76EFDE0794006E88802D50121084310
:1040000001E040084000E88023E0E078A178000269
:1040100008431FE0E07800901BE00098002818D1CA
:10402000A5788F200540280605D52907090F01200E
:104030000004884001E00120A840B1680143204607
:10404000B160FCF773FD2846FCF77CFD2846FCF7C1
:1040500040FD2078041901E028E003E020780028E2
:104060008FD11FE00025757001240120B168A040A8
:10407000084202D02046FCF775FD01200004B1681B
:10408000A040084204D0204680210843FCF76AFD86
:10409000641C102CE9D3F5600C483561B060002039
:1040A000FCF716FDB8787178884201D00020F8BD81
:1040B0000120F8BD04F1FF1F27420000C1420000AB
:1040C000A0420000CCF0FF1F2842000001000100C8
:1040D000F0B589B00027484E0397029730783D46E7
:1040E000C006C00E01287DD131462039487800280D
:1040F0007DD000200690414802780846C078002A0A
:1041000001D1012875D0002801D03D4C68E03D4C1C
:1041100066E06078022804D004280DD005285DD11F
:104120001BE03548617920384078814256D0E078EC
:10413000A1780002084352E0A778E57800200290B9
:104140003079B8424AD1B078A84247D101200690D0
:104150002D48C15D0391C55540E03079B8423DD14D
:10416000A0788F2108400790000605D50798010721
:10417000090F0120000401E0079901208840009008
:10418000B078A84216D11C48009A203881681143A3
:104190008160C1689143C1602046FCF7C7FC079865
:1041A000FCF7D0FC0798FCF794FC029900980143B7
:1041B000029113E00398854210D1009902980842B9
:1041C0000CD10D48009A2038816891438160C26803
:1041D00000998A43C2600798FCF7C4FC2078041950
:1041E000207801E005E002E0002892D1069809B0AD
:1041F000F0BD0020FBE7000004F1FF1F2742000094
:10420000C1420000A0420000CCF0FF1F30B4744651
:10421000641E2578641CAB4200D21D46635D5B00C2
:10422000E31830BC184700000100080002024000FB
:10423000000200000000000000000000000000007C
:10424000010000000000000000000000E510000078
:10425000000000008F1C00000000000000000000B3
:10426000000000000000000000000000000000004E
:10427000000000000000000000000000000000003E
:10428000000000000000000000000000120110010A
:1042900000000008280D04020001010203010000D3
:1042A0000902200001010080FA090400000208064A
:1042B000500407058202400000070502024000008A
:1042C00000000000040309040A034D0042004500F9
:1042D00044001E034D0042004500440020004300FE
:1042E0004D005300490053002D0044004100500090
:1042F0001A0330003000300031004100300030003F
:104300003000300030003000300010035500530002
:1043100042005F004D005300430000001A500000AF
:10432000225000001E500000265000000000000037
:10433000295000005D520000FE5100009A5200001A
:10434000C15100006653000021530000925100004B
:10435000665100003E510000EF520000EE50000098
:10436000A65000002A5000002950000056657273C4
:10437000696F6E3A20303232340D0A4275696C64CE
:104380003A2020204D6179203131203230313520E2
:1043900031373A34333A32360D0A0000000000005B
:1043A000000000000000000000000000000000000D
:1043B00000000000000000000000000000000000FD
:1043C00000000000000000000000000000000000ED
:1043D00000000000000000000000000000000000DD
:1043E00000000000000000000000000000000000CD
:1043F00000000000000000000000000000000000BD
:1044000000000000000000000000000000000000AC
:10441000000000000000000000000000000000009C
:10442000000000000000000000000000000000008C
:10443000000000000000000000000000000000007C
:10444000000000000000000000000000000000006C
:10445000000000000000000000000000000000005C
:10446000000000000000000000000000000000004C
:10447000000000000000000000000000000000003C
:10448000000000000000000000000000000000002C
:10449000000000000000000000000000000000001C
:1044A000000000000000000000000000000000000C
:1044B00000000000000000000000000000000000FC
:1044C00000000000000000000000000000000000EC
:1044D00000000000000000000000000000000000DC
:1044E00000000000000000000000000000000000CC
:1044F00000000000000000000000000000000000BC
:1045000000000000000000000000000000000000AB
:10451000000000000000000000000000000000009B
:10452000000000000000000000000000000000008B
:10453000000000000000000000000000000000007B
:10454000000000000000000000000000000000006B
:10455000000000000000000000000000000000005B
:104560000000000000000000000000004641494C2F
:10457000202020205458540100000000210032BBAC
:104580000000DC83BB3404000002000000000000D7
:10459000000000000000000000000000000000001B
:1045A000000000000000000000000000000000000B
:1045B00000000000000000000000000000000000FB
:1045C0000000000000000000F8FFFFFFFFFFFFFFFA
:1045D000FFFFFFFF000000000000000000000000DF
:1045E00000000000000000000000000000000000CB
:1045F00000000000000000000000000000000000BB
:1046000000000000000000000000000000000000AA
:10461000000000000000000000000000000000009A
:10462000000000000000000000000000000000008A
:10463000000000000000000000000000000000007A
:10464000000000000000000000000000000000006A
:10465000000000000000000000000000000000005A
:10466000000000000000000000000000000000004A
:10467000000000000000000000000000000000003A
:10468000000000000000000000000000000000002A
:10469000000000000000000000000000000000001A
:1046A000000000000000000000000000000000000A
:1046B00000000000000000000000000000000000FA
:1046C00000000000000000000000000000000000EA
:1046D00000000000000000000000000000000000DA
:1046E00000000000000000000000000000000000CA
:1046F00000000000000000000000000000000000BA
:1047000000000000000000000000000000000000A9
:104710000000000000000000000000000000000099
:104720000000000000000000000000000000000089
:104730000000000000000000000000000000000079
:104740000000000000000000000000000000000069
:104750000000000000000000000000000000000059
:104760000000000000000000000000000000000049
:104770000000000000000000000000000000000039
:104780000000000000000000000000000000000029
:104790000000000000000000000000000000000019
:1047A0000000000000000000000000000000000009
:1047B00000000000000000000000000000000000F9
:1047C00000000000000000003C212D2D206D6265DE
:1047D0006420506C6174666F726D205765627369F6
:1047E000746520616E642041757468656E746963D8
:1047F0006174696F6E2053686F7274637574202DD5
:104800002D3E0D0A3C68746D6C3E0D0A3C68656176
:10481000643E0D0A3C6D65746120687474702D658A
:10482000717569763D2272656672657368222063D0
:104830006F6E74656E743D22303B2075726C3D68FE
:104840007474703A2F2F6D6265642E6F72672F64D7
:1048500065766963652F3F636F64653D4041222F34
:104860003E0D0A3C7469746C653E6D626564205748
:104870006562736974652053686F72746375743C04
:104880002F7469746C653E0D0A3C2F686561643E47
:104890000D0A3C626F64793E3C2F626F64793E0D75
:1048A0000A3C2F68746D6C3E0D0A0D0A0000000072
:1048B00000000000000000000000000000000000F8
:1048C00000000000000000000000000000000000E8
:1048D00000000000000000000000000000000000D8
:1048E00000000000000000000000000000000000C8
:1048F00000000000000000000000000000000000B8
:1049000000000000000000000000000000000000A7
:104910000000000000000000000000000000000097
:104920000000000000000000000000000000000087
:104930000000000000000000000000000000000077
:104940000000000000000000000000000000000067
:104950000000000000000000000000000000000057
:104960000000000000000000000000000000000047
:104970000000000000000000000000000000000037
:104980000000000000000000000000000000000027
:104990000000000000000000000000000000000017
:1049A0000000000000000000000000000000000007
:1049B00000000000000000000000000000000000F7
:1049C0000000000000000000506C616365686F6CBF
:1049D00064657220666F72206661696C2E747874EB
:1049E00020646174610D0A000000000000000000F6
:1049F00000000000000000000000000000000000B7
:104A000000000000000000000000000000000000A6
:104A10000000000000000000000000000000000096
:104A20000000000000000000000000000000000086
:104FC000000000000000000008000000B80100011F
:104FD000FF52070001000000102700000000000041
:104FE0008C010000880F00000400000030313233D3
:104FF000343536373839616263646566004D424541
:1050000044202020206D6963726F636F6E74726F2D
:105010006C6C657220312E30200042494E004845AC
:10502000580062696E00686578005468652068659C
:10503000782066696C652063616E6E6F74206265AE
:10504000206465636F6465642E20506172736572BD
:10505000206C6F676963206661696C757265206F8B
:105060006363757265642E0D0A54686520686578FF
:105070002066696C652063616E6E6F7420626520C6
:1050800070726F6772616D6D65642E204C6F676919
:1050900063206661696C757265206F6363757272F7
:1050A00065642E0D0A00546865206865782066697D
:1050B0006C652063616E6E6F742062652064656349
:1050C0006F6465642E20436865636B73756D206340
:1050D000616C63756C6174696F6E206661696C7573
:1050E0007265206F6363757265642E0D0A005468E3
:1050F00065206170706C69636174696F6E206669A8
:105100006C6520666F726D617420697320756E6BBB
:105110006E6F776E20616E642063616E6E6F7420B7
:1051200062652070617273656420616E642F6F72B6
:105130002070726F6365737365642E0D0A00466C90
:1051400061736820616C676F726974686D20777233
:1051500069746520636F6D6D616E64204641494CD2
:105160005552450D0A00466C61736820616C676F8B
:10517000726974686D20657261736520616C6C2062
:10518000636F6D6D616E64204641494C5552450D0B
:105190000A00466C61736820616C676F726974689D
:1051A0006D20657261736520736563746F7220632F
:1051B0006F6D6D616E64204641494C5552450D0A34
:1051C0000054686520696E74657266616365206667
:1051D00069726D77617265204641494C454420747F
:1051E0006F20696E697469616C697A65207468659D
:1051F00020746172676574204D43550D0A00546830
:105200006520696E74657266616365206669726D9A
:1052100077617265204641494C454420746F206493
:105220006F776E6C6F61642074686520666C617363
:10523000682070726F6772616D6D696E6720616C56
:10524000676F726974686D7320746F20746865206D
:10525000746172676574204D43550D0A005468658A
:1052600020696E74657266616365206669726D7728
:10527000617265204641494C454420746F20726537
:105280007365742F68616C74207468652074617232
:10529000676574204D43550D0A0054686520696E9A
:1052A00074657266616365206669726D77617265A7
:1052B000204641494C454420746F20646F776E6CE2
:1052C0006F61642074686520666C61736820646136
:1052D000746120636F6E74656E747320746F2062E6
:1052E000652070726F6772616D6D65640D0A0046AE
:1052F0006C6173682070726F6772616D20616464A5
:105300007265737320616E642064617461206275DC
:105310006666657220756E616C69676E65640D0AFC
:105320000054686520696E74657266616365206605
:1053300069726D77617265204641494C454420741D
:105340006F20756E6C6F636B20746865207461727A
:1053500067657420666F722070726F6772616D6D21
:10536000696E670D0A0054686520696E746572661F
:10537000616365206669726D776172652041424F95
:10538000525445442070726F6772616D6D696E672B
:105390002E20496D61676520697320747279696E8A
:1053A0006720746F20736574207365637572697408
:1053B0007920626974730D0A0030323234000000C3
:1053C000E0530000C0F0FF1F340500004C3C00001B
:1053D00040560000F4F5FF1F4428000004010000BF
:1053E00011446CDC020312FD4F1A55010170100CC0
:1053F000EB3C904D53443053342E311402080113CA
:10540000022015501FF8012902A1180B2974190256
:10541000274D42454420011809444E444641543129
:10542000320B100B33C98ED1BCF07B8ED9B816204D
:105430008EC0FCBD104B7C384E247D248BC199E876
:105440003C01721C83EB3A66A11C7C26663B072656
:105450008A57FC750680CA0288560280C31073EB17
:1054600033C98A461098F7661603461C13561E0366
:10547000460E13D18B7611608946FC8956FEB82002
:105480002013F7E68B5E0B03C348F7F30146FC11CC
:105490004EFE61BF13E8E61032723926382D7417BC
:1054A00060B10BBEA17DF3A66174324E740983C74F
:1054B000203BFB72E6EBDCA0FB7DB47D8BF0AC986F
:1054C00040740C487413B40EBB07181BCD10EBEFDF
:1054D000A0FD7DEBE6A0FC7DEBE1CD16CD19268B82
:1054E000551A52B001BB51123B202572E85B8A5617
:1054F00024BE0B7C8BFCC746F03D7DC746F4297D5E
:105500008CD9894EF2894EF6C606967DCBEA0318F1
:105510000A200FB6C8668B46F866AF180A668BD0AD
:1055200066C1EA10EB5E1418434A4A8A460D32E41B
:10553000F7E20346FC1356FEEB4A525006536A014B
:105540006A10918B4618969233D2F7F691F7F6428D
:1055500087CAF7761A8AF28AE8C0CC020ACCB80168
:1055600002807E020E7504B4428BF47D1814CD13B4
:105570006161720B40750142035E0B497506F8C309
:10558000419C1460666A3809EBB04E544C4452207A
:105590000118230D0A52656D6F7665206469736B7F
:1055A00073206F72206F74686572206D6564696125
:1055B0002EFF0D0A44181F206572726F720D1812AB
:1055C000507265737320616E79206B657920746FFA
:1055D000201077746172740D0A480AACCBD855AAB2
:1055E0004D4245445EA3202865418EBB326920456B
:1055F00048544D0112211A329B26DC83BB34021918
:1056000003C80C44455441494C5320545854203B42
:1056100030032001FF01A11550F1FF1F220233C802
:105620004599085B50F3185A4B185A47084A4D08D9
:10563000CB6C43104BC849080148A3B95300000084
:04000005000000C136
:00000001FF
