:04000005000080C1B6
:020000040000FA
:108000001025002009830000118300003D95000029
:10801000000000000000000000000000993FFEDFAB
:108020008F9E939B01999697F5000000B9810000FF
:1080300000000000000000005D820000BD82000022
:108040001B8300001B8300001B8300001B830000B8
:108050001B8300001B8300001B8300001B830000A8
:108060001B8300001B8300001B8300001B83000098
:108070001B830000119C00001B8300001B83000079
:108080001B8300001B8300001B8300001B83000078
:108090001B8300001B8300001B8300001B83000068
:1080A000F99C00001B8300001B8300001B83000061
:1080B0001B8300001B8300001B8300001B83000048
:1080C00000F002F800F030F80CA030C8083824188E
:1080D0002D18A246671EAB4654465D46AC4201D100
:1080E00000F022F87E460F3E0FCCB6460126334202
:1080F00000D0FB1AA246AB4633431847A0AB0000A2
:10810000C0AB00000023002400250026103A01D354
:1081100078C1FBD8520700D330C100D50B6070473F
:108120001FB51FBD10B510BD00F076FB1146FFF75F
:10813000F7FF05F0C1FD00F08EFB03B4FFF7F2FF7F
:1081400003BC00F03FFB000080F309887047EFF3A9
:1081500009807047684680F3098806480078C007A0
:1081600003D1032080F314887047022080F3148821
:1081700070470000F81C0100064B9C46EFF3058396
:108180001B0605D1EFF31483DB0701D000DF704736
:108190006047000075EC0000064B9C46EFF305833A
:1081A0001B0605D1EFF31483DB0701D000DF704716
:1081B0006047000089EE0000EFF309808169891EA5
:1081C0000978002933D1A6461FC8A4467446E04763
:1081D0001F4B06CB914224D0083B002910D00CB491
:1081E000203101234B70EFF30983203B4B60F0C338
:1081F00044464D4656465F46F0C307F021F90CBC95
:108200001A60203253681033F0CBA046A946B2461C
:10821000BB4683F30988203BF0CB5078002803D07D
:108220001078EFF3098318600223DB43184710B579
:10823000084A1268914209D8074C89006458A6463A
:108240001FC8A446F047EFF309840FC410BD000017
:1082500050F1FF1FE0880000E088000006F090FF6A
:10826000154B06CB914223D0083B0CB420310023A0
:108270004B70EFF30983203B4B60F0C344464D46FF
:1082800056465F46F0C307F0DBF80CBC1A6020329C
:1082900053681033F0CBA046A946B246BB4683F3E1
:1082A0000988203BF0CB5078002801D01078186165
:1082B0000223DB431847000050F1FF1F07F078F955
:1082C000CEE7000005F0EAFE07F072F9C8E700000B
:1082D00070B505460C46164602E00FCC0FC5103EA1
:1082E000102EFAD2082E02D303CC03C5083E042E6A
:1082F00007D301CC01C5361F03E021782970641C27
:108300006D1C761EF9D270BD0748804707480047AC
:10831000FEE7FEE7FEE7FEE7FEE7FEE70448054965
:10832000054A064B70470000619B0000C1800000B9
:1083300010230020102500201024002010240020ED
:1083400000487047AC22002010B5002000F040FA31
:10835000FFF7E8FE012000F035FA10BD034610B526
:108360000B439B070FD1042A0DD308C810C9121F55
:10837000A342F8D018BA21BA884201D9012010BD11
:108380000020C04310BD002A03D0D30703D0521CE5
:1083900007E0002010BD03780C78401C491C1B1B13
:1083A00007D103780C78401C491C1B1B01D1921E7D
:1083B000F1D1184610BD000030B5441C03E001782F
:1083C000401C00290DD08107F9D10B4BDD0104C8F9
:1083D000D11A91432940FAD0001B0A0603D0C01ECF
:1083E00030BD001B30BD0A0401D0801E30BD090223
:1083F000FCD0401E30BD00000101010170477047F4
:10840000FFFFFFFFFFFFFFFFFFFFFFFFFEFFFFFF7D
:108410000346F0B50B439B072DD1244DEF01042AF1
:1084200029D308C810C95E1B9E43121F3E4017D0B7
:10843000D8B2E1B2401A3106014310D198B2A1B2CC
:10844000401A310401430AD118022102000A090A24
:10845000401A3102014302D1180E210E401AF0BD1C
:10846000A342DCD018BA21BA884201D90120F0BD5C
:108470000020C043F0BD002A01D10020F0BD0378E8
:108480000C78401C491C002B0DD0A3420BD1521E6E
:1084900009D003780C78401C491C002B03D0A34260
:1084A00001D1521EEBD1181BF0BD000001010101EA
:1084B000421E5378521C002BFBD10B78491C1370C1
:1084C000521C002BF9D17047F8B5042A2CD383072E
:1084D00012D00B78491C0370401C521E83070BD02E
:1084E0000B78491C0370401C521E830704D00B7884
:1084F000491C0370401C521E8B079B0F05D0C91AE4
:10850000DF002023DE1B08C90AE0FFF7E1FEF8BD0B
:108510001D4608C9FD401C46B4402C4310C0121F24
:10852000042AF5D2F308C91A521EF0D40B78491C5C
:108530000370401C521EEAD40B78491C0370401C87
:10854000012AE4D409780170F8BD431A70B593424A
:108550001BD28918801804E0491E401E0B78521E59
:1085600003709307F8D106E01039103878C9103934
:1085700078C01038103A102AF6D203E0091F001F05
:108580000B680360121FF9D570BDFFF7A1FE70BD27
:10859000F8B5064614460843800707D0751AA54269
:1085A00019D20819102D13D2311907E03046FFF700
:1085B000CCFFF8BD401E491E02780A70641EF9D235
:1085C000F8BD471B2A463946FFF77EFF641B384635
:1085D000A542F6D3011B22463046FFF775FFF8BDD2
:1085E000D2B210B513029A1813049A1800F00EF8BC
:1085F00010BD01E004C0091F0429FBD28B0701D57F
:108600000280801CC90700D00270704700290BD07F
:10861000C30702D00270401C491E022904D38307FD
:1086200002D50280801C891EE3E70022EEE70022CB
:10863000DFE70378C2781946437812061B02194314
:108640008378C0781B04194311430902090A000604
:1086500008437047020A08704A70020C8A70020EC2
:10866000CA707047002203098B422CD3030A8B4245
:1086700011D300239C464EE003460B433CD400221A
:1086800043088B4231D303098B421CD3030A8B422C
:1086900001D394463FE0C3098B4201D3CB01C01AFA
:1086A000524183098B4201D38B01C01A52414309C5
:1086B0008B4201D34B01C01A524103098B4201D3B3
:1086C0000B01C01A5241C3088B4201D3CB00C01A20
:1086D000524183088B4201D38B00C01A5241430898
:1086E0008B4201D34B00C01A5241411A00D20146BD
:1086F0005241104670475DE0CA0F00D04942031056
:1087000000D34042534000229C4603098B422DD3A4
:10871000030A8B4212D3FC22890112BA030A8B424C
:108720000CD3890192118B4208D3890192118B429B
:1087300004D389013AD0921100E08909C3098B4220
:1087400001D3CB01C01A524183098B4201D38B0163
:10875000C01A524143098B4201D34B01C01A524106
:1087600003098B4201D30B01C01A5241C3088B424B
:1087700001D3CB00C01A524183088B4201D38B0036
:10878000C01A5241D9D243088B4201D34B00C01AC0
:108790005241411A00D20146634652415B101046D5
:1087A00001D34042002B00D54942704763465B101D
:1087B00000D3404201B50020C046C04602BD70470C
:1087C0007047704701491820ABBEFEE72600020043
:1087D00010B500F009F800F001F810BD10B5002840
:1087E00001D0FFF7EFFF10BD10B5002102A000F08F
:1087F0003AF8012010BD0000534947414252543A13
:108800002041626E6F726D616C207465726D696E6D
:108810006174696F6E0000007546FFF791FDAE460A
:10882000050069465346C008C000854618B020B50B
:10883000FFF774FD60BC00274908B6460026C0C596
:10884000C0C5C0C5C0C5C0C5C0C5C0C5C0C5403D08
:1088500049008D46704710B50446C046C0462046C4
:10886000FFF76BFC10BD70B505460C460A2000E012
:108870006D1C00F012F8002D06D028780028F7D1E2
:1088800002E0641C00F009F8002C02D020780028D7
:10889000F7D10A2000F001F870BD08B569460870EC
:1088A0000320ABBE08BD30B58C180278401C1307FE
:1088B0001B0F01D10378401C120906D10278401C1D
:1088C00003E00578401C0D70491C5B1EF9D101E0E6
:1088D0000B70491C521EFBD1A142E6D3002030BDD3
:1088E00000000000F8B502787F2A02D000F018F8E6
:1088F000F8BD0A704478861C4C708D1C074F08E048
:108900002946304600F00CF8010C3F188E1980B251
:108910004519641EF4D23846F8BD0000020002007A
:10892000F8B502781346803B1F2B02D800F036F9C9
:10893000F8BD0A7007784C1C421C0025FF219048A6
:10894000904E3B0003F022FD170D37405DB7C4E1A8
:10895000F2F16E77F2F2F2F2F27B8085949EB45AD5
:10896000F2001178601C0022062920D006DC0B00E2
:1089700003F00CFD051D1D1D1D0D1D00F0290CD063
:10898000FD2914D0FE290FD0FF2910D107E00522C0
:108990007D49FFF799FD052209E0112105E04021FD
:1089A00001704570022202E0052101700122774822
:1089B00022701018F8BD107800283AD0012838D05D
:1089C00021707248401EC4E01178002903D00129AB
:1089D00002D0002112E00121012202706C48202304
:1089E0004360402545608215426047691F434761E7
:1089F00043692B434361436913434361217030460C
:108A0000A7E005706248426920218A4342614269B9
:108A100040218A434261426981158A43426125703F
:108A2000012096E050781178000208430001401EB2
:108A3000FDD12570C5E765702570022089E02146CB
:108A4000104600F033FB84E02146104600F0FEFAA9
:108A50007FE01778511C002F01D1FF2701373846DE
:108A600001F058F8FF1D2570F8080004801970E027
:108A700011788A07920F521C49070275C90F417578
:108A80002570BCE72170012113780C46521C0AE0C6
:108A90001078521C8006800E00D14020C01DC008F6
:108AA00012180918491C5B1EF2D20804204350E03A
:108AB00010782170D9E711780172937857781902EC
:108AC000394341811179D27809021143818150E003
:108AD00000782146012814D01346521C1078521CED
:108AE000002808D01778521CBC0701D5FC0600D519
:108AF000121D401EF6D1D01A0D7000044D70801C5E
:108B000027E0104600F07EF823E000781746214663
:108B100001280CD00D704D70A5700320F9781D4A06
:108B2000890708D5104301460CE00DE023E010460C
:108B300000F0FAF9F2E7B9787B7809021943890461
:108B400089180143084604E00078012803D0217009
:108B500011488019F8BD1746501CFFF76AFD397996
:108B60000002000A0906084300906946002000F050
:108B70005FFD2570ECE7203CE1773046F8BD000052
:108B800050F2FF1F010001004C1C01000200020016
:108B900080F00F400000040001000500F8B50278E5
:108BA0000A704C1C0178154D8039401C0B0003F0F5
:108BB000EDFB09061F1F1F1F1F1F1F151F0004F0BD
:108BC000FBFE0746FFF7F8FBC6B22670601C324674
:108BD0003946FFF779FCAD196D1C09E001212170C0
:108BE0000078002806D0012804D000202070044D11
:108BF0002846F8BD05F0FAF9F9E700000100010088
:108C000002000200F0B589B00890044600208D1CD7
:108C10000391C34902900870049005906678A41CE3
:108C2000002E6FD02778641CB9076CD504990029F1
:108C300035D0BC48408901901120384001280FD11F
:108C40006946384600F0F4FC02281AD10199491E01
:108C50000191491C03D0B24909780029F0D012E1F2
:108C600069460E2000F0E4FC022808D10199491E53
:108C70000191491C03D0AA4909780029F0D00021AC
:108C800004910128EBD1009929700099090A6970B3
:108C90000099090CA9700099090EE9702D1DF906BB
:108CA00058D52046FFF7C5FCE1780002000A090606
:108CB000084307909B48241D80890690F80715D02B
:108CC0009848408901900021384600F0B1FC022804
:108CD00002D00128C3D109E00199491E0191491C24
:108CE000BDD08F4909780029EDD0CCE08D4840896E
:108CF00001906946384600F09BFC022804D0012808
:108D00001CD10BE0E0E064E00199491E0191491C8F
:108D100014D0834909780029EBD00FE08149009AEB
:108D200009691140079A914208D00699491E069197
:108D3000491C03D07A4909780029D7D07949009A8B
:108D400009691140079A914201D010210843012876
:108D50001AD13CE0734949890191F90718D0049967
:108D6000002934D10021384600F062FC022802D0EC
:108D7000012809D109E00199491E0191491C03D03C
:108D8000674909780029EDD07DE0012104911EE0BA
:108D90006946384600F04CFC022802D0012872D106
:108DA00009E00199491E0191491C6CD05C49097880
:108DB0000029EDD067E0009929700099090A6970CF
:108DC0000099090CA9700099090EE9702D1D002168
:108DD0004DE00498002823D052484089019069460C
:108DE0000E2000F025FC022802D001284BD109E01A
:108DF0000199491E0191491C45D04949097800292A
:108E0000EDD040E0009828700098000A6870009843
:108E1000000CA8700098000EE87000202D1D049032
:108E20002046FFF706FCE1780002000A0906084325
:108E3000241D0090B90603D53A490861012017E0C6
:108E40003848408901906946384600F0F1FB022815
:108E500002D0012817D109E00199491E0191491C4E
:108E600011D02F4909780029EDD00CE0012105919E
:108E70000299491C02912A490978002903D1761EDA
:108E800000D0CFE60AE0002E08D02178641C8A07C3
:108E900001D5C90600D5241D761EF4E7012832D17C
:108EA000049900291ED01F481D4F468969460E208F
:108EB00000F0BEFB022802D0012824D105E0761E76
:108EC00021D339780029F1D01DE00099297000994B
:108ED000090A69700099090CA9700099090EE970D6
:108EE0002D1D10E0059900290DD00E480C4F468924
:108EF00000210E2000F09CFB022804D1761E02D334
:108F000039780029F4D0039A0299117003994870B6
:108F100008980399201A0004691A084309B0F0BDA3
:108F200004F0FF1F50F2FF1FF3B583B00025CE1CE5
:108F300002914449024628460D70917853780C02FC
:108F4000D21C1C4373D01178521C009103928907E4
:108F50005DD50099C90737D03B4847890021009863
:108F600000F066FB022802D0012860D12CE07F1EB1
:108F70005DD3344909780029F0D058E0002C04D1A1
:108F80000098C00701D00E2000902F48478901A902
:108F9000009800F04DFB022802D0012847D106E0DE
:108FA0007F1E44D3274909780029F0D03FE001997A
:108FB000317001996D1C090A71700199090CB17029
:108FC0000199090EF170361D641ED7D22FE0039867
:108FD000FFF72FFB03990002C978000A090608432E
:108FE00001900398001D03901748478901A9009834
:108FF00000F01EFB022802D0012818D106E07F1ED7
:1090000015D3104909780029F0D010E06D1C641EBA
:10901000DDD20D480B4F448900210E2000F008FBE3
:10902000022804D1641E02D339780029F4D00299B1
:109030000D70029A290A517002998870029805B041
:10904000301AF0BD04F0FF1F50F2FF1FF8B50C46B8
:109050000546FFF7EEFA0102E878090A0006104F0C
:10906000014307D00F4800260F4D814205D3012050
:10907000687010E0FF2020700FE00A486E70401EFC
:109080000818FFF7EFFA012804D90321401CFFF765
:10909000E9FA00E00120686026703846F8BD00005B
:1090A0000100040000366E0150F2FF1FF8B50746BC
:1090B000057844780E46801CFFF7BBFA01027879E8
:1090C000090A000601432F48E20706D0EB072022D9
:1090D000002B01D0426000E08260A20706D5AB07FA
:1090E0004022002B01DA426000E08260220606D5B1
:1090F000EA09D307244A01D0426000E082600023DD
:1091000000292ED0214A914200D91146204A93616C
:1091100030277943516105211161E10704D00169CC
:109120008906C90FA94217D1A10705D501696F08A2
:109130004906C90FB9420FD1610701D5A9080BD162
:10914000A10601D5690907D1210609D50169EF09F1
:10915000C905C90FB94203D01169C903C90FDCD0D1
:109160001361016902698906C90F5206D20F5200C4
:1091700000691143C005C00FC001014331700548AB
:10918000F8BD000080F00F4000010000C0C62D00B7
:1091900000E000E00100060010B516480021017053
:1091A0004170032242600172642242818181012266
:1091B0000161027541751048816B1F2252021143F3
:1091C0008163FF200D49033048610D482022426031
:1091D000436913434361FF2404348C61402242609D
:1091E0004369934343610C628115416042690A43BC
:1091F000426110BD50F2FF1F0080044000B00440E7
:1092000080F00F4070B50546EFF31080C407E40FFF
:1092100072B6094E094B29463046F26800F010F844
:10922000002805D1002329463046F26800F000F9F5
:10923000002C00D162B670BD101400206B66656B07
:10924000FFB589B016460C466A46099804F0B2F894
:1092500032462146049B099803F06FFE05002BD18E
:10926000009C019FA619761E39463046FFF7FAF991
:1092700000291BD0401C7843461E17E0210209201C
:10928000090A000609180D4841600C9803F06EFEAB
:10929000002811D1099803F073FE0546099800696A
:1092A000002800D08047002D02D1E419B442E5D94E
:1092B000099803F015FE28460DB0F0BD00000240ED
:1092C00070B5040027D01648C0680001000F0F28B1
:1092D00023D014494000085A8002002525606060B0
:1092E0000120A0606561A56180022561E0602046E3
:1092F00003F015FE00280AD00B48014680390560AE
:10930000416040318160E061204600F00FF8256245
:109310000020656270BD042070BD01204004DCE7C0
:1093200040800440F8200100C414002070B50028DB
:1093300022D0C46916484022410816484900400816
:1093400040006568884202D9421A402A12D828464D
:10935000FFF7BAF81148104E410811486D1C3560EE
:109360004008402249004000A568884206D9421AB8
:10937000402A03D9FEF7E8FF042070BD2846FFF716
:10938000A3F86D1C022075602060002070BD0000F5
:109390008DD6000099D6000010F1FF1F09CF000004
:1093A0001DCF0000FFB589B01F4614000D460DD03B
:1093B0006A46099803F0FEFF3A462946039B09983E
:1093C00003F0BBFD060002D1009D28E004200DB093
:1093D000F0BD02CC154881600399042902D0082908
:1093E00007D00EE029020322090A520689184160BB
:1093F00007E002CCC16029020722090A1206891877
:109400004160099803F0BCFD0646099800690028F0
:1094100000D08047002E04D1039845193F1A002F31
:10942000D7D1099803F05CFD3046D0E70000024038
:10943000FFB589B014460D466A46099803F0BAFF95
:1094400022462946059B099803F077FD00282FD175
:109450006A462946099803F0ADFF009D02980890DE
:109460006942404201404F42AF4201D108983F1843
:10947000002C1CD07E1BA64200D9264630460599FA
:10948000FFF7F0F829020122090A12068A18094991
:109490004A600C9A000412021043FF308860099859
:1094A00003F06EFD002803D1A41BAD19DEE70020F8
:1094B0000DB0F0BD00000240FFB589B0129F1D0045
:1094C00016460C4610D06A46099803F073FF3246E0
:1094D0002146079B099803F030FD002805D1154A65
:1094E00039068F18009C22E004200DB0F0BD210247
:1094F0000120090A400609180F4841608760296861
:10950000C160099803F03CFD002809D01399002997
:1095100000D00C6014990029E7D000220A60E4E72B
:109520000799761A890889004D1907990C19002E98
:10953000DDD1DAE7FFFFFF0000000240B52203A102
:10954000002002F073FF00F057FBFEE72E2E5C2E8A
:109550002E5C2E2E5C736F757263655C6461706C3B
:10956000696E6B5C696E746572666163655C6D6182
:10957000696E2E630000000010B5EFF31080C00785
:10958000C00F72B60021064A1160002800D162B6F1
:109590000448FFF795FE002800D0012010BD000010
:1095A00000810440101400201CB506F063FC002864
:1095B0001AD09E2069460870E7204870102000F0FD
:1095C000A9FA012406F056FC00280DD000206946B7
:1095D0000870082000F09EFA01A9002006F0E0FBC8
:1095E000012802D1002C00D01CBD00201CBD0000B1
:1095F000FEB5074616460D46EFF31080C407E40F8C
:1096000072B60B4639460948FFF7CCFE002809D14F
:10961000012101900091029033462A4639460348C1
:10962000FFF74AFF002C00D162B6FEBD10140020E7
:1096300000B5054A5278002A02D000F007F800BDB4
:1096400000F0E0F800BD000050F2FF1FF0B58C46BE
:109650006A4E4021024671602027B7607760C007DC
:1096600001D0716000E0B160B76077605008C40756
:1096700001D0716000E0B160B760776013189008A6
:10968000C40701D0716000E0B160B76077601B185B
:10969000D008C40701D0716000E0B160B7607760A6
:1096A0001818C00701D0716000E0B160B760776042
:1096B000B160B76077607160B76077607069884348
:1096C00070614F48007D041E03D0B7607760401E74
:1096D000FBD1B760306977604006C00FB76033696F
:1096E00077605B06DB0F5B000343B7603069776030
:1096F0004006C00F8000184301280DD002285DD01D
:1097000004285BD0213403D0B7607760641EFBD19E
:1097100072690A4372616FE0920726D500231C46E6
:109720002022B760356977606D06ED0F64195B081C
:10973000ED072B43521EF4D1B760326977605206B1
:10974000D20F5440E20700D008206246002A00D021
:1097500013602B4A127D002A03D0B7607760521E37
:10976000FBD172690A4372611EE0002C03D0B7601E
:109770007760641EF9E772690A4372616246126893
:1097800000242023D50701D0716000E0B160B760EC
:109790007760A41852085B1EF4D1E20701D0716013
:1097A00000E0B160B7607760154A127A002A23D0D2
:1097B000B160B7607760521EFBD11DE0104B5D7D3C
:1097C000002D06D0930704D52123B76077605B1E78
:1097D000FBD1002C03D0B7607760641EF9E7736992
:1097E0000B437361002D07D0920705D4B16021228D
:1097F000B7607760521EFBD17160F0BD80F00F4002
:1098000050F2FF1FF0B503460022C04D40208C46A9
:1098100068602024AC60BE4F79680E46761EFDD18C
:109820006C600E46761EFDD1DE0701D0686000E058
:10983000A860AC600E46761EFDD16C600E46761EAA
:10984000FDD1D6185A08D70701D0686000E0A8609B
:10985000AC600F467F1EFDD16C600F467F1EFDD1B0
:10986000B6189A08D70701D0686000E0A860AC601D
:109870000F467F1EFDD16C600F467F1EFDD1B618CE
:10988000DA08D70701D0686000E0A860AC600F4636
:109890007F1EFDD16C600F467F1EFDD1B218D2072E
:1098A00001D0686000E0A860AC60994E0A46521E84
:1098B000FDD16C600A46521EFDD1A860AC600A461C
:1098C000521EFDD16C600A46521EFDD16860AC602C
:1098D0000A46521EFDD16C600A46521EFDD16A69CD
:1098E000402082436A61327D161E09D0AC60084672
:1098F000401EFDD16C600846401EFDD1521EF5D1C0
:10990000AC600846401EFDD128696C604006C00F5F
:109910000A46521EFDD1AC600A46521EFDD12A698C
:109920006C605206D20F0F467F1EFDD152000243DB
:10993000AC600846401EFDD128694006C70F2020B4
:1099400068600846401EFDD1B8001043012816D0BB
:1099500002286ED004286CD021360AD02023AB60B8
:109960000A46521EFDD16B600A46521EFDD1761E7C
:10997000F5D169694022114369616A60F0BD9A07B7
:109980003CD50024264620232027AF600A46521EDD
:10999000FDD12A696F605206D20F0F467F1EFDD19E
:1099A0006708D407B6183C435B1EEDD120232A4636
:1099B000AB600F467F1EFDD1176953607F06FF0F16
:1099C000491EFDD17E40F10700D0082061460029E4
:1099D00000D00C604E490C7D002C0AD04E6893607C
:1099E0003146491EFDD153603146491EFDD1641EEA
:1099F000F5D1516940231943516139E0002E0AD055
:109A00002023AB600A46521EFDD16B600A46521EEF
:109A1000FDD1761EF5D16A6940231A436A61624618
:109A20000026126820242746D30703D040236B600A
:109A300002E032E04023AB60AF600B465B1EFDD11D
:109A40006F600B465B1EFDD1B6185208641EEBD149
:109A5000F20702D040226A6001E04022AA603B4641
:109A60002C46AF600A46521EFDD16360491EFDD1EF
:109A700027490A7A002A0DD04023AB604B68202486
:109A8000AC601946491EFDD16C601946491EFDD1D6
:109A9000521EF5D140216960F0BD1D4A527D9446A9
:109AA000002A0DD09A070BD521242027AF600A4643
:109AB000521EFDD16F600A46521EFDD1641EF5D1C3
:109AC000002E0AD02024AC600A46521EFDD16C60E4
:109AD0000A46521EFDD1761EF5D16A694024224302
:109AE0006A616246002A0ED09A070CD4AC6021232A
:109AF0002026AE600A46521EFDD16E600A46521EF6
:109B0000FDD15B1EF5D16C60F0BD000080F00F4010
:109B100050F2FF1FF0B50023104C1A460E4E2027BE
:109B2000656815E0002A02D10B780822491CDC0781
:109B300002D04024746001E04024B460B7602C4639
:109B4000641EFDD177602C46641EFDD15B08521E59
:109B5000401EE7D2F0BD000080F00F4050F2FF1F22
:109B60001E48002202601E48816B43151943816321
:109B70001B491C48403148601B4883681B490B4007
:109B80008360C3680B40C36019498020087019487E
:109B900024214170A2210170C178C906C90EC1708B
:109BA0000321017142718179C906FCD481790907C9
:109BB000890F0229FAD14021417181790907890F62
:109BC0000229FAD181794906FCD51A2101708179DF
:109BD0000907890F0329FAD170470000008104406A
:109BE000008004400000011040900440FFF8FFFE98
:109BF0000050064000400640BFF34F8F0349024823
:109C0000C860BFF34F8FFEE70400FA0500ED00E0E7
:109C100038B5254D2C79E878800601D4202084437E
:109C2000E878000601D480208443200616D51F481A
:109C300002F0A1FC002800D00120E7221CA102F0C4
:109C4000F5FB1A4802F0B8FCE871184802F093FCE2
:109C5000002803D1E8784006400EE870A00605D53C
:109C60006007800F03D0E8796946087038BDED7948
:109C70001B4802F06FFC0446132804D929461848F3
:109C800002F0D6FC38BD02F089FD002807D0132C65
:109C9000F8D1132213A1124802F01BFD38BD104861
:109CA00002F08AFCEAE7000000B00640D014002071
:109CB0002E2E5C2E2E5C2E2E5C736F757263655C8F
:109CC0006869635F68616C5C667265657363616C2B
:109CD000655C6B6C32367A5C756172742E63000061
:109CE000E01600203C4441504C696E6B3A4F76655B
:109CF00072666C6F773E0A00F8B52E4E00243578F8
:109D00000095280741D5317C0A090807C00F4B0789
:109D1000DB0F154605431AD1950040002818C018DE
:109D2000254BC0001D5CAD062D0F012D0FD1C518B0
:109D30006F88002F0BD1214FBA5C6A801A5C5206E3
:109D400001D5882200E0C8221A5401200143EFF314
:109D50001080C507ED0F72B6194A184F143FB86846
:109D600011541521401CFEF77DFCB960002D00D177
:109D700062B608203070002C02D1307D800601D5FB
:109D8000012400E000243578BBE700990B48294303
:109D9000083804F082FB002C01D0012000E00020F4
:109DA000064914390A7810430870357002F09AFA9F
:109DB000F8BD000080200740001C002040F1FF1F7C
:109DC000A021002000207047034801694069081A5B
:109DD00002490988081A704784F1FF1F3A210100DF
:109DE00070B50B4D0C460346696B286B88420BD946
:109DF000401A844200DD044622461846FEF764FB02
:109E0000686B0019686300E00024204670BD000004
:109E100084F1FF1F00207047F8B5184F0C46064626
:109E200079693869401A16490988081A002801DC3E
:109E30000020F8BD844200DD0446FA69B8690025B7
:109E400090420DD30F4A031951188B4208D30D1AB3
:109E50002A463146FEF738FB76190A48641BB8617A
:109E6000002C06D022463146FEF72EFBB8690019B9
:109E7000B8613969601909183961F8BD84F1FF1FAB
:109E80003A210100F219002010B5054C6068002845
:109E900005D10120606000F005F80020606010BD71
:109EA00084F1FF1FF8B5234CA06800283DD06169FC
:109EB00020690026421AE06811460143002935D086
:109EC00021461D4FC9691D4D002A10D0A06981424D
:109ED00005D338888B182818834200D3421A1848B3
:109EE000007843001748C05A904200DA02461648EC
:109EF000E66000788023184302F01CFAE169091833
:109F0000E1616269121862613B88EB188B4200D1F3
:109F1000E561216991420BD1094909784A00094953
:109F2000895A814204D10120E060F8BDA660F8BDE5
:109F3000E660F8BD84F1FF1F3A210100F21900200C
:109F4000C7F1FF1F3E2101003821010010B50C4C64
:109F5000206A002803D0A06A401CA06210BD012026
:109F60002062606200F00EF8002060622062616B87
:109F7000206B8842F2D0401AFFF74CFF10BD000062
:109F800084F1FF1F10B5134C1348216B154B0A1AAF
:109F900012480088821A124800784000185A8242FB
:109FA0000EDB1148007801F07DFD216B081820635D
:109FB000A06A00280CD0616A002909D1401E06E081
:109FC0000120E062606A002802D0A06A401CA06202
:109FD00010BD000084F1FF1F321A00203C21010057
:109FE000C7F1FF1F3E2101003921010010B50446D1
:109FF000400702D52046FFF7A9FF200702D52046DB
:10A00000FFF742FF10BD002070470020704700009E
:10A0100010B50C4800F042F8002812D00948FEF7AD
:10A0200008FB0949020A08704A70020C8A70000E87
:10A03000C870044802790A7142794A71807988713E
:10A04000012010BDBCF1FF1FF018002010B5104812
:10A05000002444608460C46004610E4981614461ED
:10A06000046244628462C462C1610B49016341635A
:10A07000014604804B203831C001FEF7EBFA04485A
:10A080000821383004714471817100F019F810BD55
:10A0900084F1FF1FF2190020321A002070B5044627
:10A0A000064D21462868FEF7D5FA2879A07168790F
:10A0B0006071A8792071012070BD000048F2FF1F77
:10A0C00010B506F0E5FB03F035FE012010BD10B51C
:10A0D00006F020FC012010BD0120704710B5044699
:10A0E000FEF7A7FA06490860A079087160794871FF
:10A0F000207988710020C871084606F021FC10BD47
:10A1000048F2FF1F10B51148002444608460C46009
:10A1100004610F4981614461046244628462C462E3
:10A12000C1610C49016341630480FFF7D0FF074917
:10A130004B203831C001FEF78DFA04480821383031
:10A14000047144718171FFF7C9FF10BD84F1FF1FD5
:10A15000F2190020321A002010B5FFF7D3FF10BD0E
:10A1600070B51B480078002831D01A4C0025206AB1
:10A17000012600280AD1616B206B884206D116495E
:10A18000884203D02163E56225626163A06A0028EA
:10A1900010D0206A00280DD1E06A00280AD126627A
:10A1A000FFF7F0FE2562616B206B884202D0401AF7
:10A1B000FFF730FEA1686068084308D16169206933
:10A1C000884204D06660A660FFF76CFE656070BDD3
:10A1D000C5F1FF1F84F1FF1F321A0020B0B50D4CEE
:10A1E0000D4F002806D0BC4600DF2060002006F09E
:10A1F00075F90CE0BC4600DF2168401AFF212D31C3
:10A20000884201D3012000E0002003F0AFFD0120CF
:10A21000B0BD000044F2FF1FEDF5000000207047C4
:10A220000020704710B502490880FFF755FF10BDA8
:10A2300084F1FF1F10B50B48FEF7FBF9094C000233
:10A24000E178000A090608430749FEF703FA0648C1
:10A250002179017161794171A1798171FFF73EFF27
:10A2600010BD0000F0180020BCF1FF1F01078A0E8E
:10A27000044910B551180A78FD231A400A7001F0FC
:10A28000CBFF10BDC020074010B501464A790B79BD
:10A29000807811021943020601D4024A115401F0D8
:10A2A000BBFF10BD40F1FF1F704710B500F07AFAF8
:10A2B00010BD0000094A094980320028087D04D0F9
:10A2C000012318430875102005E040084000087578
:10A2D000107AEF210840107270470000802007407C
:10A2E00010B50C4C0C48A2880078824200D9024676
:10A2F000002A03D107490020143908718020216801
:10A3000002F018F8216809182160A188081AA080B5
:10A3100010BD0000D8F1FF1F1A21010010B5064C36
:10A320000020A288216801F0BDFB21680918216086
:10A33000A188081AA08010BDD8F1FF1F7047000047
:10A340000749020605D50007800E40180178FA2259
:10A3500003E0800040180178F62211400170704738
:10A36000C02007400749020605D50007800E4018A7
:10A370000178052203E0800040180178092211438A
:10A3800001707047C0200740F8B50446694F6A4D18
:10A390006A4E80071ED501F09BFF3878C009FFF791
:10A3A000CDFFF888A88038784106890F02D00129AE
:10A3B0006BD159E079780B0001F0E8FF0C070D67CD
:10A3C00013671928672D333B4A6701F0EFFC1FE044
:10A3D000FFF786FF66E0002004E001F08DFF58489B
:10A3E0003DE0012001F024FD00284ED0F5E7C00635
:10A3F000C00E4AD1B8788021084330704006400E24
:10A40000012101F04FFF01F077FF4BE001F0DAFB93
:10A4100000283AD0DCE7C006C00E36D14748401CC1
:10A4200014E001F059FD00282FD001F065FF4548E8
:10A4300015E0C006C00E012827D17078002824D06E
:10A440003879B178884220D23F4940182860BFE768
:10A4500001F006FE002818D001F04EFF3B480068CE
:10A4600000281FD080471DE0C006C00E0DD0012877
:10A470000BD100F007F9002814D100F059F9002899
:10A4800010D100F0ABF800280CD13878C00904D105
:10A49000F888002801D0002000E0802001F00CFFA7
:10A4A0000020A880600704D53878C0090DD001F0DD
:10A4B0002BFF200733D53878C00927D0A8883179F9
:10A4C00008432CD0FFF70CFF29E0A8880028F0D023
:10A4D000FFF724FFA8880028EBD138784106890FC0
:10A4E0000ED001290CD1C006C00E09D0012807D119
:10A4F00000F05CF80028DCD100F02AF80028D8D160
:10A50000802001F0D9FE0020A880D2E73078010633
:10A5100005D54006400E3070002101F0C3FE6006F4
:10A5200002D50020FFF7A2FE200602D58020FFF70B
:10A530009DFEF8BDE0F1FF1FD8F1FF1FC4F1FF1F22
:10A54000A02101009821010020F1FF1F9C210100A2
:10A5500010B51349134A08791278904203D0124A71
:10A560001278904219D14878002804D0022805D0EA
:10A57000202812D10EE0FFF751FE05E0C878897857
:10A5800000020843FFF74CFE002806D001F0B4FE9D
:10A59000012010BDFFF74EFEF6E7002010BD0000C1
:10A5A000E0F1FF1F362101003721010010B50948F5
:10A5B000094A0179127891420AD14078092807D1D5
:10A5C00000F0F0FA002803D001F096FE012010BD43
:10A5D000002010BDE0F1FF1F1B21010070B52449D0
:10A5E000244A08791278904203D0234A1278904284
:10A5F0003BD11F484978C278837810021F4C204D08
:10A600001843042920D008DC00290FD001290FD0DD
:10A6100002290BD0032928D111E0202906D02129B5
:10A6200019D022291AD023291FD11AE02C6010E05A
:10A63000FFF7EBFC05E02C60FFF752FE09E0FFF7A7
:10A64000E2FC0028F7D110E0FFF7BCFB0BE001F0C3
:10A6500053FE012070BDFFF7DBFCF2E7FFF7E2FDE0
:10A6600001E0FFF7BBFD0028F1D1002070BD000024
:10A67000E0F1FF1F3621010037210100F018002012
:10A68000D8F1FF1FF8B5234E234930790978884265
:10A690003DD17078214C224D224F030001F076FE0F
:10A6A0000C3707232D37373737371826333700F065
:10A6B00097F900282BD0F078012802D0032803D086
:10A6C00003E01948206000E02560FFF709FE12E072
:10A6D000F078022802D0032803D00CE01348206051
:10A6E00009E0256007E000F063F908E000F032FAC5
:10A6F0000BE001F001FE0120F8BD00F067F9002831
:10A7000005D02760E1E700F043FA0028F1D10020EE
:10A71000F8BD0000E0F1FF1F1B210100D8F1FF1F71
:10A720002AF1FF1FF01800203119002072190020B3
:10A7300010B51848184A01791278914227D1427809
:10A740000146C8788B7800021843CB798C791902BE
:10A750002143FE2A0CD0FF2A19D1002817D1002945
:10A7600015D101F0DFF8002811D001F0C5FD0CE093
:10A7700000280CD101290AD100F0C4FD002806D020
:10A78000074906480860FFF7ABFD012010BD002017
:10A7900010BD0000E0F1FF1F2C210100F018002087
:10A7A000D8F1FF1F074800214170C160016141617C
:10A7B000418081808161C161C180018101624181EB
:10A7C00070470000E8F1FF1FF8B5484EB088718867
:10A7D000474F00257C1C884218D3B069002815D14A
:10A7E0007561B580012339787A1C184606F0F0F9B6
:10A7F00070807088002809D03E4877610078012871
:10A8000001D8746102E07088401C70807088002854
:10A810003AD1F068002801D0F56035E030690028B1
:10A8200032D03449097801290ED83D70B580022311
:10A830007A1C0021012006F0CBF970807088002876
:10A8400000D0746135611FE03C780127202C00D3D3
:10A8500000243946A140014242D0601CC1B2244AC2
:10A8600002231170B5800120521C06F0B1F97080EE
:10A870007088002804D01E4870617088401C708069
:10A880003069A740B84330617088B169084326D069
:10A890007088B188184F401A84B238784100174840
:10A8A000405AA04200D20446154880210078224632
:10A8B0000843716901F03EFD706912490019706129
:10A8C000B088001980B2B080098888420BD23878ED
:10A8D00041000A48405AA04205D10120B061F8BDAC
:10A8E000641CE4B2B2E7B561F8BD0000E8F1FF1FF7
:10A8F0003019002026210100C7F1FF1F222101008D
:10A900001C21010028210100F8B51B4C00272089DB
:10A910001A4D1B4E002802D1E5613188E180E188A3
:10A920000A1A1848E169007801F0BCF8E16980B2C0
:10A930000918E161218909188BB22381002809D007
:10A9400031888B4206D21049104A09784900515A81
:10A95000814210D90E48017801200129009003D8C6
:10A960000021064A022003E029786A1C02205B1EAF
:10A9700006F0E0F92781F8BDE8F1FF1F711900200A
:10A980002A2101001D210100C7F1FF1F2221010022
:10A990002721010010B50446000702D52046FFF725
:10A9A00013FF600702D52046FFF7AEFF10BD000081
:10A9B000034804498078085C034908700120704707
:10A9C000E0F1FF1F28F1FF1FF018002010B506F07E
:10A9D000FDF802490870012010BD0000F0180020A9
:10A9E00010B50B490022C878012804D0022804D0F1
:10A9F000032806D103E0074A02E0002010BD064A02
:10AA0000521C8978002306F0E3F8012010BD0000F5
:10AA1000E0F1FF1F3019002029F1FF1FFEB5444867
:10AA2000007800287ED0434E002031788446481CB0
:10AA300030704148042300784200821893405B1E26
:10AA40000192994203DB0021317001218C463B4A7F
:10AA500000251188FF2901D2491C11804100384886
:10AA6000405A364900900988884200D1012535496D
:10AA7000002009788E4648E000216246002A0DD069
:10AA8000314A135CFF2B01D25B1C13542F4B1B5C10
:10AA9000002B03D0125C9A4200D301212B4A0223DF
:10AAA000145C019A934022469A40009B9A4203DA32
:10AAB000002C01D0012200E00022002D06D0002A47
:10AAC00004D00123376983403B433361204B1B5C37
:10AAD0009C420CD01C4C245C9C4206D30124376958
:10AAE00084403C43346100243470184C23540029C2
:10AAF00009D0002A04D1012132698140114331611A
:10AB0000114A00211154401CC0B27045B4D3002D2D
:10AB100002D00A49002008803069002806D07088D9
:10AB2000002800E002E001D1FFF74EFEFEBD00006C
:10AB3000C5F1FF1FE8F1FF1FC7F1FF1F24F1FF1F41
:10AB40001E2101002621010026F1FF1F27F1FF1F12
:10AB500028F1FF1F0A480A498078C978002802D0E6
:10AB6000084A815409E0094B0020074A1B7802E09B
:10AB70001154401CC0B29842FAD301207047000023
:10AB8000E0F1FF1F27F1FF1F28F1FF1F2621010021
:10AB900010B50348807806F0CBF8012010BD000006
:10ABA000E0F1FF1F38B50D490022C878012804D014
:10ABB000022804D0032806D103E0002038BD084A4B
:10ABC00000E0084A521C00230093CB798C791B02C9
:10ABD0002343897806F0AEF8012038BDE0F1FF1F6D
:10ABE0007119002029F1FF1FF8B5EFF31080C0079D
:10ABF000C00F72B6564D0021EC68E9602A780092C9
:10AC00002970002800D162B6E00708D001F0BEFA32
:10AC100006F052F94F480068002800D08047E0064F
:10AC200006D501F07DFB4C480068002800D0804725
:10AC3000A00606D501F028FB48480068002800D08F
:10AC40008047600704D546480068002800D0804748
:10AC5000022C09D143480168002902D04248007AF9
:10AC600088474148FF210172200767D53F4FEFF326
:10AC70001080C207D20F72B6A9686868884257D19F
:10AC8000012156E0EFF31081CE07F60F72B6384976
:10AC90000C5C1521401CFDF7E5FC6960002E00D11D
:10ACA00062B620462207D30F21066207090FD20F92
:10ACB000002908D15C00A418E4003C5D0026A4062D
:10ACC000240F0D2C0AD08C005B00E3189A18D600D4
:10ACD000BA5D9206120F012A13D01DE028690221E5
:10ACE00088432861387E4006400E3876387C40061E
:10ACF000400E38741F486E7001680029B7D00220DA
:10AD000014E0002902D1C007C00F6870194801592A
:10AD1000002901D004208847B85D8006000F09286B
:10AD2000A5D1144801590029A1D0082088479EE7E1
:10AD30000021002A00D162B60029A3D00098002883
:10AD400004D00949087DDF2210400875F8BD0000D5
:10AD50002CF1FF1F44210100482101004C2101007A
:10AD6000502101005421010080200740001C0020D8
:10AD7000A02100205821010010B51C484023037079
:10AD80001B4841680522120411434160416B1A03BC
:10AD90001143416300F036F81648017B80221143CD
:10ADA0000173017B0906FCD41349124C090A803C4B
:10ADB000217711490A0C0F4960390A740E4A120EA4
:10ADC0000A75FF2121700D490968002900D004216E
:10ADD0000B4A1268002A00D00222114319221143A3
:10ADE00021710370017B1943017310BD40F1FF1FF6
:10ADF0000080044000210740001C00205021010079
:10AE0000542101000120024900060860704700003B
:10AE100000E100E070B500F019F900282AD01648CA
:10AE2000022404704470154E0320346330701448BB
:10AE30000546FDF7FEFB022808D9114920461F39B7
:10AE4000FDF708FC29462046FDF704FC0D4880214B
:10AE5000007822460843084901F06CFA2846FDF7BD
:10AE6000E8FB316B401A2946FDF7F4FB0449012049
:10AE70000839087370BD0000B21900200CF2FF1FE2
:10AE8000A72200202D21010010B5104908780228C2
:10AE900008D003280FD0042810D0052801D10020A5
:10AEA000087010BD0A48C07B282801D0A828F8D116
:10AEB00000F06CFA10BD00F077FD10BD0548802150
:10AEC0000078084300F08AFDF5E700000CF2FF1F50
:10AED000802200202D21010010B51D4A1178002983
:10AEE0000FD0012910D01B48052900781BD0072955
:10AEF00027D000F073FD18490220087300F054FDBC
:10AF000010BD00F00FF910BD13481F38C07B2A2870
:10AF100003D02F2804D0AA28F5D100F015FB10BDCE
:10AF200000F0A2FA10BD012181400C4800680142E6
:10AF300001D0012000E00020094A0AA101F076FAC0
:10AF400010BD00201070106B1F28DAD010BD00005B
:10AF50000CF2FF1F2E2101009F220020D0F1FF1FC5
:10AF6000410400002E2E5C2E2E5C2E2E5C736F751D
:10AF70007263655C7573625C6D73635C7573626448
:10AF80005F6D73632E63000010B5144C6068E06061
:10AF9000002801D0012010BD1148FDF74AFB002810
:10AFA00014D00F480838007B000604D50D488021D6
:10AFB0000078084308E00A481F30FDF73AFB216B90
:10AFC000884203D00848007800F008FD04490120B9
:10AFD0001731087300F0E8FC002010BD0CF2FF1FD1
:10AFE000882200202D2101002E21010010B51248D9
:10AFF00001798F200140080605D50807000F0122BE
:10B000001204824001E001228A400C48047880202A
:10B0100004438C420ED10A48006810420AD0094805
:10B02000FDF707FB0849884204D10D220549204657
:10B0300001F080F910BD0000E0F1FF1F2D2101009B
:10B04000D0F1FF1F9F2200205553425370B50C488A
:10B05000FDF7EFFA0A4C02251734002808D02046E5
:10B060001F38007B000608D40648007800F0B6FCC4
:10B07000257300F099FC002070BD012070BD000018
:10B08000882200202E21010070B51148FDF7D1FA69
:10B09000104C216B884202D82063032000E004207A
:10B0A00020700D4880210078226B08430B4901F085
:10B0B00041F907481F300546FDF7BBFA216B401ADE
:10B0C0002946FDF7C7FA024900201731087370BD01
:10B0D000882200200CF2FF1F2D210100B219002050
:10B0E00010B50648064902880648007800F0DAFCE8
:10B0F00005490863FFF7F0FE10BD00003421010090
:10B10000B21900202E2101000CF2FF1F10B50446D9
:10B11000400702D50020FFF7E3FF200701D5FFF726
:10B12000B3FE10BDF8B5704E316B1F2901D20A462F
:10B1300000E01F2200206D4D6D4B02E01C5C2C5482
:10B14000401C9042FAD36B488022007801271043BC
:10B1500000901F2970D16548FDF76BFA6649884257
:10B160006AD1281DFDF765FA604C1F34211DFDF7DB
:10B1700071FA20461738FDF75CFA21460831FDF7D1
:10B1800069FA687B002804D1A87B002801D0102828
:10B1900001D9277374E0E87B2A283BD020DC1A28E9
:10B1A00047D00EDC0428F4D006DC00283BD003286E
:10B1B000EFD100F075FBF8BD1228EAD100F0AAF833
:10B1C000F8BD23283CD006DC1B282FD01E28E0D158
:10B1D00000F0CCF8F8BD252835D02828D9D13BE09F
:10B1E0009E2836D00EDC5528D3D004DC2F2842D040
:10B1F0003528CED103E05A281FD09128C9D100F0BC
:10B200001DFCF8BDA12821D0A3284ED0A82823D00A
:10B21000AA28BED100F084FA0028F2D0287B0006CC
:10B220003BD43770F8BD00F013FCF8BD00F0ECFB28
:10B23000F8BD00F047FAF8BD3BE000F011FAFAE77C
:10B2400000F0F2FAF7E700F0C9FAF4E7FFF7E2FDE1
:10B25000F1E700F07DFBEEE700F062FA0028EAD0AB
:10B26000287B000604D50220307000F08FF8E2E75A
:10B270002248007815E0287C800704D40020207341
:10B2800000F092FBD7E700F04BFA0028D3D0287BE0
:10B29000000602D437703762CDE716488021007867
:10B2A000084300F09BFB0220E9E7009800F096FBC2
:10B2B0006FE7104C009800F091FB2078104C0107CC
:10B2C000090F01200004884021680C4D08432060CC
:10B2D000287800F083FB2878874020680743062001
:10B2E00027603070A7E700000CF2FF1F80220020CB
:10B2F000B21900202D210100555342432E21010097
:10B30000D4F1FF1F0249002008700120704700009F
:10B31000F018002010B5FFF799FE00281FD0104B41
:10B32000002018708021597002219970D970202452
:10B330001C7158719871D8710A48016808200A7800
:10B34000002A02D01A54491C00E01C54401CC0B210
:10B350002428F4D3044924200863FFF795FE10BD88
:10B36000B21900201CF1FF1F0CF2FF1F10B5054899
:10B37000C07CC107044800D00121017300F014FB18
:10B3800010BD0000802200209F220020F8B5314D22
:10B39000314FA969686A002688420AD3387880212B
:10B3A0000024084300F01AFB2C48067300F0FCFA56
:10B3B00008E02B48007841002A48445AE86A844251
:10B3C00000D30446FFF7E0FD002800D10024A86A5E
:10B3D00000282DD0002C0ED0A96AE86980224118DF
:10B3E00038781043224600F0A5FFA86A0019A86229
:10B3F000E86A001BE86229696869AA6A41439142C8
:10B4000003D1AE62696A08186862144808300746BA
:10B41000FDF70FF9001B3946FDF71CF9002C06D08B
:10B42000E86A002803D1032028700C480673F8BD91
:10B43000002CE0D02969E86A4018401EFDF712F997
:10B4400069690246884200D90A46E969686A05F0D6
:10B45000F3FCC1E70CF2FF1F2D2101009F22002009
:10B46000C7F1FF1F30210100F8B5334C0025A16959
:10B47000606A884208D331482563007800F0AEFA4C
:10B480002F48057300F090FAFFF77EFD002806D0E4
:10B49000206B002824D0A06A002802D010E0256389
:10B4A0001EE02169E06A4018401EFDF7DBF8616983
:10B4B0000246884200D90A46E169606A05F0BCFC90
:10B4C00000202049A76A266B08E0E3693A189A5CD5
:10B4D0000B5C9A4201D0256202E0401CB042F4D3DA
:10B4E000266BA06A8119A162E06A871BE762226964
:10B4F000606942438A4203D1A562616A08186062AA
:10B500000F4808300546FDF794F8801B2946FDF7E3
:10B51000A1F8002E0CD0002F02D02078052807D1EA
:10B52000206A002805D000200549087300F03CFA85
:10B53000F8BD0120F8E700000CF2FF1F2E210100EA
:10B540009F220020B2190020F8B5384D384FA96964
:10B55000686A0026884207D336482E63007800F0D8
:10B560003DFA3E7300F020FAFFF70EFD002800D1EF
:10B570002E63296BA86A40182969884206D9FF22E0
:10B5800001322DA1002000F051FFF8BD0020334909
:10B5900005E0AB6A0A5C1B18EC69401CE2542A6B9C
:10B5A0009042F6D3A86A8018A862E96A891AE9620B
:10B5B000002A25D0002914D1002812D0296940186A
:10B5C000401EFDF74FF869690446884200D90C46D1
:10B5D0002246E969686A05F047FCAE62686A0019AC
:10B5E0000DE069692B690A465943814208D1E9692E
:10B5F000686A05F039FCAE626969686A4018686279
:10B600000B4808300090FDF714F82C6B0099001BD4
:10B61000FDF720F8002CB8D0E86A002802D028787E
:10B620000528B2D13E7300F0BFF9F8BD0CF2FF1F40
:10B630009F2200202E2101002E2E5C2E2E5C2E2E0D
:10B640005C736F757263655C7573625C6D73635C6C
:10B65000757362645F6D73632E630000B21900201E
:10B6600070B5FFF7F3FC002824D0FFF78DFC00280D
:10B6700020D0114800210170062242700F4B8170CA
:10B680001A7A0824D201C270017141718171C171AD
:10B690000B481C630546FCF7CCFF082808D908496D
:10B6A00020461F39FCF7D6FF29462046FCF7D2FF7B
:10B6B000FFF7EAFC70BD0000B21900200CF2FF1F7A
:10B6C000A722002070B5FFF7C1FC002820D0FFF7AB
:10B6D0005BFC00281CD00F480321017000210E4B99
:10B6E00041701A7A0424D2018270C1700B481C6325
:10B6F0000546FCF79EFF042808D9084920461F3953
:10B70000FCF7A8FF29462046FCF7A4FFFFF7BCFC86
:10B7100070BD0000B21900200CF2FF1FA72200200C
:10B72000F8B52A48FCF785FF284D00BA040A113DF8
:10B73000287D24020443264E00207462B062E87B18
:10B740002F280AD004DC28280BD02A281CD104E09A
:10B75000A82810D0AA2817D109E0FFF715FC002867
:10B7600030D0E87DA97D0002084344BA0CE0FFF721
:10B770000BFC002826D01548001DFCF75AFF00BA24
:10B78000040A287E24020443306944430F48F462CB
:10B790000938FCF74EFF0D4F01260E3700280DD05B
:10B7A000A04210D0287B000604D50A4880210078EA
:10B7B000084301E00848007800F010F93E7300F0FB
:10B7C000F3F80020F8BD0120F8BD00009122002010
:10B7D0000CF2FF1F2D2101002E21010010B5FFF7F3
:10B7E00035FC00281AD0FFF7CFFB002816D00C4AF2
:10B7F0000C489169491E0B0E03700B0C43700B0A29
:10B800008370C17011690B0E03710B0C43710B0A2D
:10B810008371C17108201063FFF736FC10BD000072
:10B820000CF2FF1FB219002070B5FFF70FFC0028C3
:10B830002ED0FFF7A9FB00282AD01648002101705E
:10B84000417081700821144AC17091690C240B0E5B
:10B8500003710B0C43710B0A8371C17102210172D8
:10B8600011690B0C43720B0A8372C1720B4814638B
:10B870000546FCF7DEFE0C2808D9084920461F398A
:10B88000FCF7E8FE29462046FCF7E4FEFFF7FCFB48
:10B8900070BD0000B21900200CF2FF1FA72200208B
:10B8A00070B5FFF7D3FB00282ED01B487021017024
:10B8B00000211A4B41705A68DD681446AC4306D02B
:10B8C00006248470282404734173DA600AE0002A95
:10B8D0001BD0134A127B002A1BD005228270202223
:10B8E00002734173C1700171417181710A22C27189
:10B8F000017241728172C1728173C17301744174AA
:10B9000012201863FFF7C0FB70BD022282703A223A
:10B91000E6E781700173E4E7B21900200CF2FF1F23
:10B920009F22002010B50549002008600449FCF75B
:10B9300091FE044907200870012010BDD4F1FF1FBB
:10B940009F2200200CF2FF1F10B5FFF7EBFF10BD88
:10B9500070B5FFF77BFB00281DD00F482022027036
:10B9600000214170C1770D4C0320226320700C48E8
:10B97000802100780843084900F0DCFC09480546AE
:10B98000FCF757FE216B401A2946FCF763FE054978
:10B9900001200839087370BDB21900200CF2FF1F96
:10B9A0002D210100A722002010B508490848FCF706
:10B9B00051FE0848802100780D220843034900F019
:10B9C000B9FC05490520087010BD00009F22002029
:10B9D000555342532D2101000CF2FF1F10B50446B0
:10B9E00000F06AFC200605D52107090F012000049C
:10B9F000884001E00120A04002490A681043086025
:10BA000010BD0000D0F1FF1F10B50A48817C04462C
:10BA10001F34002904D001202073FFF7C5FF10BD9B
:10BA2000C07C0549C007C00F486005F01BFA002024
:10BA3000F2E70000802200200CF2FF1F10B503493E
:10BA400000200873FFF7B0FF10BD00009F22002008
:10BA500010B51048FCF7EDFD0E4C173400280FD040
:10BA600020461F38007B000604D50B488021007853
:10BA7000084301E009480078FFF7B0FF012004E027
:10BA8000FFF782FA002803D000202073FFF78CFF15
:10BA900010BD0000882200202D2101002E21010070
:10BAA00070470000F7B5074682B0002000903807C5
:10BAB000860E3348F500281801904488002F15D1D0
:10BAC00030484078002809D07008012181402D4875
:10BAD000103002F0EEFC002005B0F0BD2848405DBB
:10BAE0008006000F0D2801D1012000900498A0428B
:10BAF00006D2FF22EF3224A1002000F097FC049C24
:10BB00001F4A0020B101A032891803E0039A0B5CA0
:10BB10001354401CA042F9D31A481430C15D019857
:10BB2000174F4180174876080069795DF040C007DB
:10BB30004906C00FC90F88420FD10398C179827995
:10BB4000080200991043002901D000280CD00121DF
:10BB50000C48B140103002F0ACFC0A480069F040DB
:10BB6000C00708D0C82007E006480121C9431030AB
:10BB700002F087FCF1E7882078552046ACE700000A
:10BB8000001C00202CF1FF1F2E2E5C2E2E5C2E2E72
:10BB90005C736F757263655C6869635F68616C5C38
:10BBA000667265657363616C655C757362645F6B17
:10BBB000696E657469732E630000000010B5FFF7AD
:10BBC00015FA10BDFEB54A4E4A4D30784A4CC006B3
:10BBD000C00E02D0012873D173E04848F77802788C
:10BBE00044484349C07889783B0000F0CFFB087F88
:10BBF00005134E7F7F09367F4148206012205DE0AB
:10BC0000002A73D0002803D03E4820600A2055E067
:10BC10003D48FAE7002A01D1012867D0002803D067
:10BC20003A48009000200CE03948FAE7009A13786F
:10BC3000002B05D0D37896781B0233439A180092D4
:10BC4000401C8142F2D10098017800294ED020603A
:10BC5000C17882780802104330E0002A46D00028DC
:10BC600003D02C48009000200CE02B48FAE7009A03
:10BC70001378002B05D0D37896781B0233439A189B
:10BC80000092401C8142F2D1DDE724480090032954
:10BC900001D0002009E001F093FE0DE0009A117838
:10BCA000002901D089180091401CB1788142F5D15A
:10BCB00000980178002919D020600078019006E0F2
:10BCC00014E001A9684600F02DF800280DD0A188E5
:10BCD0000198814208D980B21149A0800978491E93
:10BCE000084201D1012028710120FEBD0020FEBDC7
:10BCF000E0F1FF1FC4F1FF1FD8F1FF1F1721010062
:10BD0000CA210100DD210100DC21010061220100C6
:10BD1000DE21010063220100622201006422010091
:10BD20001A21010030B5174A174B164CD278174D1F
:10BD300024791B78212A02D0222A20D116E09C42A5
:10BD40001DD1134A1378134A002B127801D1012A0E
:10BD500015D0002A08D0104A026010460F4A1288F7
:10BD600080182860092007E00D4AF5E79C4206D1BB
:10BD70000C4828600C4800880860012030BD002075
:10BD800030BD0000E0F1FF1F1B210100D8F1FF1FB3
:10BD900017210100C7F1FF1F61220100C821010026
:10BDA000DE210100A4210100C621010070B51D485B
:10BDB0001D4B0078C106C90E0AD01D461948143D16
:10BDC0001A4C6A780079012906D0022928D10AE0A4
:10BDD00015480E38186021E0002A21D0A978884241
:10BDE0001ED2002016E08F210840010605D5060767
:10BDF000360F01210904B14001E001218140002AF0
:10BE000001D100070CD1A868084209D0E8680840B1
:10BE100000D001202070000A60701C60012070BDFD
:10BE2000002070BDE0F1FF1FD8F1FF1FF0180020C7
:10BE300070B5274B024618781946C0064988254E2A
:10BE4000C00E04D001282BD0022829D111E00129ED
:10BE500026D10224002A05D0012000F069FAF088DA
:10BE6000204304E0002000F063FAF088A043F08053
:10BE70002CE01C798F200440200605D52007000FF8
:10BE800001252D04854001E00125A540707800289A
:10BE900006D0200704D0B068284201D0002901D084
:10BEA000002070BD002A05D0204600F005FAF06899
:10BEB00028430AE03069284208D12046FEF7D6F927
:10BEC0002046FFF77BFEF068A843F060012070BDBC
:10BED000E0F1FF1FC4F1FF1FF8B55A4800260178B2
:10BEE000C906C90E7ED1574F80781C3F00287FD0ED
:10BEF000554801783846C078002901D1012871D011
:10BF0000002801D0514C6CE0514C6AE06078022866
:10BF100004D0042846D0052861D145E0494861791C
:10BF20008078814239D178702079B8704A490020F0
:10BF3000484A0B8802E000211154401C9842FAD371
:10BF400001250120B968A840084202D02846FEF722
:10BF5000F7F901200004B968A840084204D0284637
:10BF600080210843FEF7ECF96D1C102DE9D33B4806
:10BF7000B8600020F86038613D460120FEF794F972
:10BF8000E079400604D5E98801200143E98026E0F4
:10BF9000E88840084000E88021E0E078A1780002CD
:10BFA00008431DE0E6781AE0002E18D1A5788F200E
:10BFB0000540280605D52907090F012000048840FF
:10BFC00001E00120A840B96801432046B960FEF7AE
:10BFD0005BF92846FEF7C6F9284600F01DF92078DF
:10BFE000041901E029E003E0207800288ED11FE049
:10BFF000002501247D7080260120B968A0400842F8
:10C0000002D02046FEF79CF901200004B968A04048
:10C01000084203D020463043FEF792F9641C102CEE
:10C02000EAD3FD600D483D61B8600020FEF73CF9A1
:10C03000044879788078884201D00020F8BD01203A
:10C04000F8BD0000E0F1FF1F17210100612201008F
:10C05000DE21010020F1FF1F182101000100010075
:10C06000F0B585B0002744480397019700783E4615
:10C07000C006C00E01287DD13F491C3948780028F0
:10C0800075D0002002903D4802780846C078002A0A
:10C0900001D101286ED0002801D0394C63E0394C21
:10C0A00061E06078022804D004280DD0052858D11A
:10C0B0001CE0314861791C384078814251D0E078E9
:10C0C000A178000208434DE0A778E67800200190AF
:10C0D00029480179B94244D18078B04241D1012048
:10C0E00002902948C15D0391C6553AE0224908797A
:10C0F000B84236D1A0788F221040009000060098F8
:10C1000004D50007000F01252D0400E0012585401E
:10C110008878B04214D118481C388168294381605E
:10C12000C168A943C1602046FEF7AEF80098FEF74B
:10C1300019F9009800F070F801982843019010E078
:10C14000039886420DD1019828420AD10A481C382A
:10C150008168A9438160C168A943C1600098FEF766
:10C16000EFF820780419207800289AD1029805B0B9
:10C17000F0BDFFE70020FAE7E0F1FF1F1721010003
:10C1800061220100DE21010020F1FF1F70B50126B0
:10C190001A48360606600120194D0024810049190D
:10C1A0000C70401C1028F9D315211648FCF73FFAF3
:10C1B0001548164944608460C4600470447040228D
:10C1C0004A800A46A0324A60C8220A700C72104A9D
:10C1D000CC614A610D2129700E490161084840383F
:10C1E000017D022211430175FF210170017201736B
:10C1F000047602488038066070BD000080E100E0EF
:10C20000C0200740A02100202CF1FF1F001C0020AF
:10C21000201D002055555555F8B50546154F2C07DE
:10C220003E4600060121A03E240F00280EDA6000E1
:10C23000401C8140104802F030F92002C119600111
:10C240008019803141610021C161F8BD68008140E1
:10C25000C943094802F015F907486101001D425D14
:10C26000881942802202D219426088227254002129
:10C270000172F8BDA01C00203CF1FF1F10B5FDF7B6
:10C280006BFFFFF761FB10BD02480179DF2211400F
:10C29000017170478020074010B5FEF7BFFBFDF726
:10C2A0005FFF10BD002903D140060249400E087609
:10C2B00070470000802007400007810E03480818DF
:10C2C000017802221143017070470000C02007402E
:10C2D00010B5082202490020FFF7E4FB10BD000062
:10C2E000E0F1FF1F10B5034881680120400201F012
:10C2F000D1FC10BD50F0FF1F10B500221146802068
:10C3000000F018F810BD000010B50348034902788A
:10C310000020FFF7C7FB10BD1A210100F018002014
:10C3200002480179202211430171704780200740A3
:10C3300070470000F8B50007114F840E1646A41C84
:10C34000E200D01946803D460023A001A0354519E2
:10C3500002E0C85CE8545B1CB342FAD309496008A8
:10C360000969C140C90701D0882100E0C821B9543A
:10C37000012181400348103002F09BF83046F8BD9F
:10C38000001C00202CF1FF1F0020704730B47446C1
:10C39000641E2578641CAB4200D21D46635D5B00C1
:10C3A000E31830BC184710B5002A06DA52005208CC
:10C3B000D21DD308DB00102203E0D21C93089B009F
:10C3C0000C22002B02D09C188C4201D9012010BDF8
:10C3D00082188360411802604160C91AD0188842EF
:10C3E00002D810600246F9E70020106010BD00007E
:10C3F000B0B5044603F05EF9002804D0034F0249AB
:10C40000BC46206800DFB0BDFFFF000015F1000052
:10C41000B0B5044603F04EF9002803D0024F20685F
:10C42000BC4600DFB0BD00006DF00000F8B5164658
:10C430000F4600281BD1EFF31080C507ED0F72B631
:10C4400000231A461946184600F006FA040003D1E4
:10C450003146384600F044FA002D00D162B6002C77
:10C4600005D1EFF30380C00601D104F0EFFFF8BD62
:10C470007047000010B524220D490E48FBF728FF35
:10C4800005F0BCF80C4805F0B3F804F0B3FE0B4916
:10C49000012208600A4952020A600A4A0121116019
:10C4A0000949400A08600A490848086010BD0000B0
:10C4B000641D0100DC06002025CD000040F2FF1FB6
:10C4C0001CF2FF1F20F2FF1F24F2FF1FDC040020DC
:10C4D00028F2FF1F00B591B0FDF776FC402801D986
:10C4E000402001E000280DD081B2684604F008FA2F
:10C4F000010007D06846FDF78FFC002802D000201D
:10C5000001F0F4FB04F08AFA0146402801D94021E9
:10C5100001E000290DD06846FDF762FC002808D034
:10C5200081B2684604F05AFA002802D0002001F0D7
:10C53000DDFB01F0FFFB11B000BD000004484178B5
:10C540008078814201D001207047002070470000B0
:10C55000E4F0FF1F30B50546EFF31080C407E40F89
:10C5600072B6284600F007F8A968081A401E002C89
:10C5700000D162B630BDEFF31081CB07DB0F72B68E
:10C5800006C808388A4201D3501A02E080681018A1
:10C59000401A002B00D162B67047EFF31083DB071F
:10C5A000DB0F72B68260C160002101604160002B28
:10C5B00000D162B67047000070B50446EFF31080FA
:10C5C000C507ED0F72B603CC083C884201D00120AC
:10C5D00000E0002043220DA1FFF728FFE16820685A
:10C5E0000E5C401C2060A16888420AD3884201D1B9
:10C5F000012000E00020482204A1FFF717FF0020DF
:10C600002060002D00D162B6304670BD2E2E5C2E0B
:10C610002E5C2E2E5C736F757263655C6461706C4A
:10C62000696E6B5C636972635F6275662E6300009E
:10C6300070B50446EFF31080C507ED0F72B662685F
:10C64000E06881546068401C6060A16888420AD339
:10C65000884201D1012000E00020312209A1FFF72A
:10C66000E5FE0020606003CC884201D0012000E09C
:10C670000020362203A1FFF7D9FE002D00D162B6BB
:10C6800070BD00002E2E5C2E2E5C2E2E5C736F75FE
:10C690007263655C6461706C696E6B5C6369726324
:10C6A0005F6275662E630000F8B514460E460746B5
:10C6B000FFF761FF844200D220460546002404E0D3
:10C6C0003846FFF779FF3055641CAC42F8D3284652
:10C6D000F8BDF8B514460E460746FFF73BFF844207
:10C6E00000D220460546002404E0315D3846FFF7BD
:10C6F0009FFF641CAC42F8D32846F8BD10B50C4827
:10C70000C0780121C00948402A220AA1FFF78EFE05
:10C71000144901246402084622461038FFF73DFF01
:10C720001149224608461038FFF737FF10BD0000B8
:10C7300000B006402E2E5C2E2E5C2E2E5C736F7584
:10C740007263655C6869635F68616C5C667265658D
:10C750007363616C655C6B6C32367A5C75617274A4
:10C760002E630000E0140020F016002010B500F049
:10C7700025FC10BD10B500F021FC10BD02488079E9
:10C78000002800D001207047642200200248C079B0
:10C79000002800D001207047642200200248007A5F
:10C7A000002800D00120704764220020F8B54B21FA
:10C7B0001F48FBF73AFF4B271E48FBF73AFF1C4C7C
:10C7C0001D4E1C4D4034B04213D168792A790102C4
:10C7D00011434B2901D20A4600E04B224B2901D9D3
:10C7E0000F4600E04B2713491148FBF76DFE002070
:10C7F000E0714B210F48FBF718FF0E493046FBF75D
:10C8000029FF2F71390A697109494122C91DE81DA3
:10C81000FBF75AFE607A227A010206481143403043
:10C820000172090A4172A17A817200F08BF8F8BD99
:10C8300018220020002F0020646C766B10B5412177
:10C840000448FBF7F2FE03480021393001724172BF
:10C8500010BD0000072F0020FFB581B01D46164611
:10C860000F461A48FBF7A8FD441C0198002802D087
:10C870003946FBF7DAFE0020002E00D03080002D74
:10C8800000D028701149C91FC87900281BD0BC42AC
:10C8900001D8224602E0E01B41183A460B4C0198B1
:10C8A000C91D3934002804D0607A237A0002184365
:10C8B0003080002E02D00198FBF706FE002D01D03B
:10C8C000A07A2870012005B0F0BD0000072F0020DD
:10C8D00002488079002800D001207047002F0020F6
:10C8E000F3B581B00746FBF767FD124D441C4126A6
:10C8F0003146E81DFBF799FE412C02D83946224605
:10C9000002E0413CE1193246E81DFBF7DDFD094C30
:10C91000029840342072000A607200F00EF900287C
:10C9200001D0012004E000F00AF9002800D0022024
:10C93000A072FEBD002F00200149887170470000E1
:10C94000002F002070B5002211461046FCF714FE9F
:10C95000092220492048FBF7B7FD204C22781046D9
:10C96000627812021043A278E1781204104309069B
:10C970001B4D0843A8420FD160792179000208437A
:10C98000092804D26079217902020A4300E00922D1
:10C9900012491148FBF798FD0F492846FBF75AFE4C
:10C9A0000D49092088802078014660780002014303
:10C9B000A07800040143E07800060143A94205D1B4
:10C9C0006079217900020843092802D2024801F067
:10C9D0007FFC70BD162301006422002000FC0100D2
:10C9E000646C766B10B503498871084601F070FCE1
:10C9F00010BD00006422002010B50349C87108462C
:10CA000001F066FC10BD00006422002010B503494F
:10CA10000872084601F05CFC10BD00006422002092
:10CA2000F8B50024E4430F460646002512E0705D89
:10CA3000082102F0F5F8000644400A490820002CBD
:10CA400002DA64004C4000E06400401E0006000E64
:10CA5000F5D16D1CBD42EADB2021204602F0E0F852
:10CA6000C043F8BDB71DC104F8B50E4617462021D6
:10CA7000C04302F0D5F80446002512E0705D08219D
:10CA800002F0CEF8000644400A490820002C02DAE1
:10CA900064004C4000E06400401E0006000EF5D12A
:10CAA0006D1CBD42EADB2021204602F0B9F8C043EC
:10CAB000F8BD0000B71DC10470B514460D4606460A
:10CAC000FF2A07D8FF22DD320AA10020FFF7AEFCC3
:10CAD000022070BD00F062FC002801D00E2070BD65
:10CAE0002A462146304600F0C5FD0028F7D01C201C
:10CAF00070BD00002E2E5C2E2E5C2E2E5C736F758A
:10CB00007263655C6461706C696E6B5C64726167B2
:10CB10002D6E2D64726F705C6961705F666C6173FD
:10CB2000685F696E74662E6300000000C10600072E
:10CB3000000F002900DB09307047002070470120FA
:10CB4000704710B500231A4600F072FA002800D092
:10CB5000012010BD10B504F05DFA012800D00020BE
:10CB600010BD0000F8B5164E1F2530780024AD0228
:10CB7000012806D0FF22373212A10020FFF756FC11
:10CB80000AE0B0780227002808D0FF223D320DA12C
:10CB90000020FFF74BFC37700220F8BD204600F064
:10CBA0002DF8002802D037701E20F8BD0120800229
:10CBB0002418AC42F2D30120B0700020F8BD000070
:10CBC000C0F0FF1F2E2E5C2E2E5C2E2E5C736F7518
:10CBD0007263655C6461706C696E6B5C64726167E2
:10CBE0002D6E2D64726F705C6961705F666C61732D
:10CBF000685F696E74662E6300000000F8B5254E0C
:10CC000005463078012805D0FE2223A10020FFF739
:10CC10000DFC1AE00127BF0239462846FBF722FD2A
:10CC20000224002902D0FF22073209E0F078002810
:10CC30000DD0F168B0684018A84208D0FF220E322B
:10CC400015A10020FFF7F2FB34700220F8BD01228D
:10CC50007F20D20380020121954203D3854201D275
:10CC6000002000E00846002810D0F170F760284648
:10CC7000B56000F0CDFF222803D00028E6D0347044
:10CC8000F8BD284600F08AFB0028F9D034701D203A
:10CC9000F8BD0000C0F0FF1F2E2E5C2E2E5C2E2E45
:10CCA0005C736F757263655C6461706C696E6B5CFC
:10CCB000647261672D6E2D64726F705C6961705F64
:10CCC000666C6173685F696E74662E6300000000B5
:10CCD000012080027047000010B5242804D20649C4
:10CCE00080000858002805D1832204A10020FFF706
:10CCF0009DFB0AA010BD00005C1C01002E2E5C2EC6
:10CD00002E5C2E2E5C736F757263655C6461706C53
:10CD1000696E6B5C6572726F722E630000000000BA
:10CD200070470000F8B51E4615460C46074604F04D
:10CD3000FBFC2B48017F03290ED0022C0DD0002CC8
:10CD40001DD0012C08D10168A94205D1407F0028DF
:10CD500031D0032003F0EEFCF8BD0068A842FBD1FF
:10CD6000304604F01FFA0446304604F021FA064625
:10CD7000384602F063FE03462246314617E0384645
:10CD800002F05CFE0328E7D0304604F009FA800781
:10CD9000E2D4384602F052FE0746304604F002FA6A
:10CDA0000446304604F004FA01463B462246284633
:10CDB00003F072FCF8BD24220A490948FBF788FAFF
:10CDC00003F0AAFA08488178012903D141780229A1
:10CDD00000D181700248054F2430BC4600DFF8BD09
:10CDE000DC060020641D0100E4F0FF1F6DF0000070
:10CDF000F7B51B4E0446B07F5502174600280BD1ED
:10CE00002946019802F0D6FD032802D0214603F0FE
:10CE1000EFFBB07F002810D07068A0420DD8B0683A
:10CE2000A0420BD0A04208D9F068401C00D1F460A9
:10CE3000F068A04200D20446F460FEBDB0692A4604
:10CE40008018B061E019B060F07F002803D00020A6
:10CE500003F070FCFEBD2046019903F071FBFEBD9E
:10CE6000DC060020F0B585B018A1096804910378AC
:10CE7000002104AA545C9C4226D0491C0329F9D302
:10CE800013A10A688E6896464A68CD6800239446C6
:10CE9000C25C714664466F46039552C711466139BC
:10CEA000192911D9202A01D2052A0DD100216C4659
:10CEB000675C974208D0491C1029F9D35B1C0B2BE7
:10CEC000E6D3012005B0F0BD0020FBE7E50020001F
:10CED000222A2B2C2E2F3A3B3C3D3E3F5B5C5D7C57
:10CEE00070B50446204600F01AF80546002D00D023
:10CEF00070BD044902480968884700BFF8E7000090
:10CF00000C3000F014F1FF1F01680122920211435E
:10CF10000160BFF36F8FBFF34F8F704770470028DA
:10CF200007D0C069002802D00068022803D06D2015
:10CF30007047042070470020704710B5002806D0C5
:10CF40005B1E194201D11A4203D0652010BD042096
:10CF500010BD03688B4204D84068891818188842AD
:10CF600001D2662010BD002010BD00000349884298
:10CF700001D06B2070470020704700006B66656B26
:10CF800010B50C4C70212170FFF7C9FF002807D1A4
:10CF900009492046096888472078810601D567201D
:10CFA00010BDC10601D5682010BDC007FCD06920A6
:10CFB00010BD00000000024010F1FF1F70B50E4DC3
:10CFC00000202C78002C0FD000212970A97800298E
:10CFD00001D000F0FDFA022C05D06978032902D0B7
:10CFE000002800D1212070BDFF22343203A100208F
:10CFF000FFF71CFA022070BD94F0FF1F2E2E5C2E4E
:10D000002E5C2E2E5C736F757263655C6461706C50
:10D01000696E6B5C647261672D6E2D64726F705CFB
:10D02000666C6173685F6465636F6465722E63002C
:10D030003EB51D460446302901D3012000E0002002
:10D04000402212A1FFF7F2F921460C222031684656
:10D05000FBF73AFA1A49019888420BD1194900980E
:10D06000884201D102203EBD1649FC3988420AD1CE
:10D0700001203EBD204603F0A7FF002801D1002D6E
:10D0800001D003203EBD00203EBD00002E2E5C2EB0
:10D090002E5C2E2E5C736F757263655C6461706CC0
:10D0A000696E6B5C647261672D6E2D64726F705C6B
:10D0B000666C6173685F6465636F6465722E63009C
:10D0C000019996978F9E939BFFB581B007460024E8
:10D0D00004982546002813D00A98002810D00499F7
:10D0E000002008600A9906460860FFF726FD002820
:10D0F00012D00120C003022F04D0032F0AD013E066
:10D10000652237E00399002904D00299814201D0B9
:10D1100018240AE0064615E0FFF711FD002803D0A9
:10D12000012F07D0032F0FD01924FFF72FFB002862
:10D130000FD010E00398002804D00298002801D0F6
:10D140001724F2E70E4802E00E4886680E4805688C
:10D15000EBE7012F04D0002C04D0204605B0F0BD31
:10D160001924FAE7002D04D0049806600A98056097
:10D17000F3E79D2205A10020FFF758F90220EDE713
:10D18000601D010064F1FF1F2C1D01002E2E5C2E7E
:10D190002E5C2E2E5C736F757263655C6461706CBF
:10D1A000696E6B5C647261672D6E2D64726F705C6A
:10D1B000666C6173685F6465636F6465722E63009B
:10D1C00010B50D4C2078002806D0AC220BA1002011
:10D1D000FFF72CF9022010BDFF2230211448FBF785
:10D1E000FFF901202070002060706060A060E060A6
:10D1F000A070E07010BD000094F0FF1F2E2E5C2E7A
:10D200002E5C2E2E5C736F757263655C6461706C4E
:10D21000696E6B5C647261672D6E2D64726F705CF9
:10D22000666C6173685F6465636F6465722E63002A
:10D2300060FCFF1FF7B5494F0546387884B01446A7
:10D24000012807D0C12246A10020FFF7EFF80220F5
:10D2500007B0F0BDF878002803D1BD600120FD6063
:10D26000F870B878002856D1F9688D4201D10120B4
:10D2700000E000200919F96000282FD078683021DB
:10D280000E1AA64200D91646424932460818059998
:10D29000FBF71AF97868A41B801978600599AD1915
:10D2A00089190591302829D316D00020E3222CA11A
:10D2B000FFF7BCF801233748BA687968FFF7B8FE72
:10D2C000787001A8009002AB01227878B968FFF766
:10D2D000FBFE002826D103E00120E7E70320EFE76B
:10D2E000B87801267040FC221DA1FFF79FF8019835
:10D2F00000F008F9002815D1BE7002E0B8780028C7
:10D3000013D024497A68B86800F070F8002809D171
:10D31000B878002809D022462846059900F066F81A
:10D32000002802D00321397092E77878012804D0D0
:10D33000022805D003280FD105E01F20800204E059
:10D340007F20800201E01448C0682919814203D37C
:10D350000220387010207BE7002079E794F0FF1F4F
:10D360002E2E5C2E2E5C2E2E5C736F757263655CA8
:10D370006461706C696E6B5C647261672D6E2D64A4
:10D38000726F705C666C6173685F6465636F64651F
:10D39000722E630060FCFF1F64F1FF1F10B5EFF3F6
:10D3A0001081CC07E40F72B6FBF72CFF002C00D1E4
:10D3B00062B610BD70B50E460500144613D020218C
:10D3C0001046FBF734F92660E8686060A968686871
:10D3D000FBF748F9A0600420E06020616061A06173
:10D3E000E061002070BD042070BD0000F7B5364F2D
:10D3F0000446787800251646012805D07B2233A103
:10D400000020FFF713F809E07869844208D28322EC
:10D410002EA10020FFF70AF8022078700220FEBD3E
:10D42000F878002809D1204602F0BCF9050002D0A6
:10D430000220787045E00120F870234FBA687868C0
:10D440008118A14214D8B9698B682D499847050005
:10D4500003D01D490220487033E0FF222848B968F4
:10D46000FBF7BEF80120B870B9687868401878609A
:10D47000002E24D03969F8684018A04204D820460C
:10D4800002F090F90500E4D10F4948688968201A34
:10D490000F1ABE4200D2374619493A460818019978
:10D4A000FBF712F8002F08D000200749E419887014
:10D4B0000198C019F61B0190BFE70120F5E702486B
:10D4C00044612846FEBD0000A4F0FF1F2E2E5C2EF6
:10D4D0002E5C2E2E5C736F757263655C6461706C7C
:10D4E000696E6B5C647261672D6E2D64726F705C27
:10D4F000666C6173685F6D616E616765722E630053
:10D5000090FCFF1F70B5234D04466878002801D0B9
:10D5100047222CE0002C29D06068002826D0A06883
:10D52000002823D0E068002820D0206900281DD0E2
:10D53000606900281AD0A069002817D00121FF22B5
:10D5400089021548FBF74CF80126AE700020E87000
:10D550006860A860E8602861AC6168612068804705
:10D56000040009D12878002807D010E04D220BA133
:10D570000020FEF75BFF022070BDA86900698047AC
:10D58000040004D0A86940688047204670BD6E70D2
:10D59000FBE70000A4F0FF1F90FCFF1F2E2E5C2E67
:10D5A0002E5C2E2E5C736F757263655C6461706CAB
:10D5B000696E6B5C647261672D6E2D64726F705C56
:10D5C000666C6173685F6D616E616765722E630082
:10D5D00070B5194C00256078002802D0012807D0CA
:10D5E00010E0CB2215A10020FEF720FF022070BD25
:10D5F000A078002806D1A0691D498368A2686068E8
:10D6000098470546A0694068804706460121FF22E9
:10D6100089021748FAF7E4FF01200021A070E170A9
:10D620006160A160E160216161616170002E01D0E3
:10D63000304670BD284670BDA4F0FF1F2E2E5C2E14
:10D640002E5C2E2E5C736F757263655C6461706C0A
:10D65000696E6B5C647261672D6E2D64726F705CB5
:10D66000666C6173685F6D616E616765722E6300E1
:10D6700090FCFF1F10B5EFF31083DC07E40F72B6C8
:10D68000FBF7B6FF002C00D162B610BD80210170FF
:10D6900001780906FCD57047704700000346012257
:10D6A00001490020184700000C07002002480069CB
:10D6B0008007C017401C704740F00F4000207047A3
:10D6C00008B51A48816B1F22520211438163184921
:10D6D0008015086108610861164A50608860002062
:10D6E00000F03AF8002000F02DF8002000F03EF89D
:10D6F00011480168042319430160426910210A435B
:10D70000426142690A43426142690A434261416996
:10D7100019434161084880384169022291434161BF
:10D7200006480090401E0090FCD108BD00800440D7
:10D7300000C0044000A00440C0F00F4040420F0071
:10D740007047000010220349012801D04A60704749
:10D750008A607047C0F00F4010220349012801D0B1
:10D760004A6070478A607047C0F00F40102203493A
:10D77000012801D04A6070478A607047C0F00F40AE
:10D780001B4E1C4D1C4C1C481C4F31461830BC46CF
:10D7900000DFA0681749800140194039FBF7A2F863
:10D7A000A06814498001401940224039FAF78CFEE4
:10D7B000A0680521401CFAF755FF0F48104F203094
:10D7C000BC46A16000DF104F31460E48BC4600DF6A
:10D7D0002078002803D000F0BBFA002020700B4F07
:10D7E0000848BC4600DF002000F08CFACBE70000C0
:10D7F000FFFF0000A8F2FF1F08F0FF1FFDF300006D
:10D80000C1F30000E8F3FF1F15F100006DF0000008
:10D81000B0B5184F15491648BC4600DF174F002118
:10D820001548BC4600DF00281ED00020982214A115
:10D83000FEF7FCFD104C1F49203CE06840228001AF
:10D840004118002003F00CFAE0680521401CFAF7AB
:10D8500009FF194F20461030BC46E16000DF174F2A
:10D860000348BC4600DFB0BD0120DFE7FFFF00003A
:10D87000E8F3FF1F15F1000028F0FF1FFDF3000083
:10D880002E2E5C2E2E5C2E2E5C736F757263655C83
:10D890006461706C696E6B5C636D7369732D646138
:10D8A000705C757362645F757365725F6869642E1E
:10D8B00063000000A8F2FF1FC1F300006DF000003C
:10D8C00070B50F4C00206060A060E0600D492061E1
:10D8D000FFF7A6F8606001200B49C003FFF7A0F82E
:10D8E0000125A060AD021F2029468002FFF798F8AD
:10D8F000E0607F2029468002FFF792F8206170BD2A
:10D9000030F0FF1FFC7B0000FC7B010000487047EB
:10D9100044F0FF1F0021064B0A6A01209A4200D002
:10D920000020496A034A914200D00020704700005D
:10D93000939D939B0199969700B5FFF7EBFF002805
:10D9400001D00020806A00BD014840687047000097
:10D9500030F0FF1F014880687047000030F0FF1F63
:10D960000048704794F4FF1F0048704752F4FF1FAF
:10D970000120C103054B0A6A9A4200D00020496A7F
:10D98000034A914200D00020704700008F9E939B75
:10D990000199969700B5FFF7EBFF002802D0012010
:10D9A000C003806A00BD00000048704745F4FF1FB7
:10D9B0000048704773F4FF1F0048704714F4FF1FBE
:10D9C000004870479DF4FF1F0048704749F0FF1F53
:10D9D00070B5FFF775FF1F4801F0A2F801F088FE4F
:10D9E0001C4831212030FAF722FE1A481A4920300B
:10D9F000FAF75EFD174819A12030FAF759FD1549CD
:10DA00005E3108463E38FAF753FD1249A031084608
:10DA10008038FAF74DFD0F4800242030FAF7CCFC8F
:10DA20000C4AC1B24800A932801C1070032050700B
:10DA3000022000231546893D08E02E5D1654401C47
:10DA4000C0B21354401C641CC0B2E4B28C42F4D384
:10DA500070BD0000F4F3FF1F44F0FF1F3030303082
:10DA60000000000010B5134C2078002806D0612279
:10DA700011A10020FEF7DAFC022010BD00221146A1
:10DA80001046FBF779FD002801D01A2010BD0020B8
:10DA90006070A070E070A060E06020712061606143
:10DAA0000121A06189021248FAF7BFFD0120207010
:10DAB000002010BDC0F0FF1F2E2E5C2E2E5C2E2EDF
:10DAC0005C736F757263655C6461706C696E6B5CCE
