:04000005000080C1B6
:020000040000FA
:10800000102300200983000011830000FD9500006B
:10801000000000000000000000000000D940FEDF6A
:108020008F9E939B01999697F9000000B9810000FB
:1080300000000000000000005D820000BD82000022
:108040001B8300001B8300001B8300001B830000B8
:108050001B8300001B8300001B8300001B830000A8
:108060001B8300001B8300001B8300001B83000098
:108070001B830000D19C00001B8300001B830000B9
:108080001B8300001B8300001B8300001B83000078
:108090001B8300001B8300001B8300001B83000068
:1080A000B99D00001B8300001B8300001B830000A0
:1080B0001B8300001B8300001B8300001B83000048
:1080C00000F002F800F030F80CA030C8083824188E
:1080D0002D18A246671EAB4654465D46AC4201D100
:1080E00000F022F87E460F3E0FCCB6460126334202
:1080F00000D0FB1AA246AB463343184700AF00003E
:1081000020AF00000023002400250026103A01D3F0
:1081100078C1FBD8520700D330C100D50B6070473F
:108120001FB51FBD10B510BD00F076FB1146FFF75F
:10813000F7FF05F0BFFE00F08EFB03B4FFF7F2FF80
:1081400003BC00F03FFB000080F309887047EFF3A9
:1081500009807047684680F3098806480078C007A0
:1081600003D1032080F314887047022080F3148821
:1081700070470000D81E0100064B9C46EFF30583B4
:108180001B0605D1EFF31483DB0701D000DF704736
:1081900060470000FDEA0000064B9C46EFF30583B4
:1081A0001B0605D1EFF31483DB0701D000DF704716
:1081B0006047000011ED0000EFF309808169891E1E
:1081C0000978002933D1A6461FC8A4467446E04763
:1081D0001F4B06CB914224D0083B002910D00CB491
:1081E000203101234B70EFF30983203B4B60F0C338
:1081F00044464D4656465F46F0C307F01FF80CBC98
:108200001A60203253681033F0CBA046A946B2461C
:10821000BB4683F30988203BF0CB5078002803D07D
:108220001078EFF3098318600223DB43184710B579
:10823000084A1268914209D8074C89006458A6463A
:108240001FC8A446F047EFF309840FC410BD000017
:10825000A0F1FF1FFC880000FC88000006F0D4FE9F
:10826000154B06CB914223D0083B0CB420310023A0
:108270004B70EFF30983203B4B60F0C344464D46FF
:1082800056465F46F0C306F0D9FF0CBC1A60203298
:1082900053681033F0CBA046A946B246BB4683F3E1
:1082A0000988203BF0CB5078002801D01078186165
:1082B0000223DB4318470000A0F1FF1F07F076F808
:1082C000CEE7000005F0C8FF07F070F8C8E700002F
:1082D00070B505460C46164602E00FCC0FC5103EA1
:1082E000102EFAD2082E02D303CC03C5083E042E6A
:1082F00007D301CC01C5361F03E021782970641C27
:108300006D1C761EF9D270BD0748804707480047AC
:10831000FEE7FEE7FEE7FEE7FEE7FEE70448054965
:10832000054A064B70470000219C0000C1800000F8
:1083300010210020102300201022002010220020F5
:1083400000487047AC20002010B5002000F040FA33
:10835000FFF7E8FE012000F035FA10BD034610B526
:108360000B439B070FD1042A0DD308C810C9121F55
:10837000A342F8D018BA21BA884201D9012010BD11
:108380000020C04310BD002A03D0D30703D0521CE5
:1083900007E0002010BD03780C78401C491C1B1B13
:1083A00007D103780C78401C491C1B1B01D1921E7D
:1083B000F1D1184610BD000030B5441C03E001782F
:1083C000401C00290DD08107F9D10B4BDD0104C8F9
:1083D000D11A91432940FAD0001B0A0603D0C01ECF
:1083E00030BD001B30BD0A0401D0801E30BD090223
:1083F000FCD0401E30BD00000101010170477047F4
:10840000FFFFFFFFFFFFFFFFFFFFFFFFFEFFFFFF7D
:108410000346F0B50B439B072DD1244DEF01042AF1
:1084200029D308C810C95E1B9E43121F3E4017D0B7
:10843000D8B2E1B2401A3106014310D198B2A1B2CC
:10844000401A310401430AD118022102000A090A24
:10845000401A3102014302D1180E210E401AF0BD1C
:10846000A342DCD018BA21BA884201D90120F0BD5C
:108470000020C043F0BD002A01D10020F0BD0378E8
:108480000C78401C491C002B0DD0A3420BD1521E6E
:1084900009D003780C78401C491C002B03D0A34260
:1084A00001D1521EEBD1181BF0BD000001010101EA
:1084B000421E5378521C002BFBD10B78491C1370C1
:1084C000521C002BF9D17047F8B5042A2CD383072E
:1084D00012D00B78491C0370401C521E83070BD02E
:1084E0000B78491C0370401C521E830704D00B7884
:1084F000491C0370401C521E8B079B0F05D0C91AE4
:10850000DF002023DE1B08C90AE0FFF7E1FEF8BD0B
:108510001D4608C9FD401C46B4402C4310C0121F24
:10852000042AF5D2F308C91A521EF0D40B78491C5C
:108530000370401C521EEAD40B78491C0370401C87
:10854000012AE4D409780170F8BD431A70B593424A
:108550001BD28918801804E0491E401E0B78521E59
:1085600003709307F8D106E01039103878C9103934
:1085700078C01038103A102AF6D203E0091F001F05
:108580000B680360121FF9D570BDFFF7A1FE70BD27
:10859000F8B5064614460843800707D0751AA54269
:1085A00019D20819102D13D2311907E03046FFF700
:1085B000CCFFF8BD401E491E02780A70641EF9D235
:1085C000F8BD471B2A463946FFF77EFF641B384635
:1085D000A542F6D3011B22463046FFF775FFF8BDD2
:1085E000D2B210B513029A1813049A1800F00EF8BC
:1085F00010BD01E004C0091F0429FBD28B0701D57F
:108600000280801CC90700D00270704700290BD07F
:10861000C30702D00270401C491E022904D38307FD
:1086200002D50280801C891EE3E70022EEE70022CB
:10863000DFE70378C2781946437812061B02194314
:108640008378C0781B04194311430902090A000604
:1086500008437047020A08704A70020C8A70020EC2
:10866000CA707047002203098B422CD3030A8B4245
:1086700011D300239C464EE003460B433CD400221A
:1086800043088B4231D303098B421CD3030A8B422C
:1086900001D394463FE0C3098B4201D3CB01C01AFA
:1086A000524183098B4201D38B01C01A52414309C5
:1086B0008B4201D34B01C01A524103098B4201D3B3
:1086C0000B01C01A5241C3088B4201D3CB00C01A20
:1086D000524183088B4201D38B00C01A5241430898
:1086E0008B4201D34B00C01A5241411A00D20146BD
:1086F0005241104670475DE0CA0F00D04942031056
:1087000000D34042534000229C4603098B422DD3A4
:10871000030A8B4212D3FC22890112BA030A8B424C
:108720000CD3890192118B4208D3890192118B429B
:1087300004D389013AD0921100E08909C3098B4220
:1087400001D3CB01C01A524183098B4201D38B0163
:10875000C01A524143098B4201D34B01C01A524106
:1087600003098B4201D30B01C01A5241C3088B424B
:1087700001D3CB00C01A524183088B4201D38B0036
:10878000C01A5241D9D243088B4201D34B00C01AC0
:108790005241411A00D20146634652415B101046D5
:1087A00001D34042002B00D54942704763465B101D
:1087B00000D3404201B50020C046C04602BD70470C
:1087C0007047704701491820ABBEFEE72600020043
:1087D00010B500F009F800F001F810BD10B5002840
:1087E00001D0FFF7EFFF10BD10B5002102A000F08F
:1087F0003AF8012010BD0000534947414252543A13
:108800002041626E6F726D616C207465726D696E6D
:108810006174696F6E0000007546FFF791FDAE460A
:10882000050069465346C008C000854618B020B50B
:10883000FFF774FD60BC00274908B6460026C0C596
:10884000C0C5C0C5C0C5C0C5C0C5C0C5C0C5403D08
:1088500049008D46704710B50446C046C0462046C4
:10886000FFF76BFC10BD70B505460C460A2000E012
:108870006D1C00F012F8002D06D028780028F7D1E2
:1088800002E0641C00F009F8002C02D020780028D7
:10889000F7D10A2000F001F870BD08B569460870EC
:1088A0000320ABBE08BD70B58C180578401C6B0763
:1088B0005B0F01D10378401C2A1106D10278401CBD
:1088C00003E00678401C0E70491C5B1EF9D12B0793
:1088D00005D40023521E0DD40B70491CFAE703780F
:1088E000401CCB1A921C03E01D780D70491C5B1CC8
:1088F000521EF9D5A142D8D3002070BD000000005F
:10890000F8B502787F2A02D000F018F8F8BD0A7096
:108910004478861C4C708D1C074F08E02946304671
:1089200000F00CF8010C3F188E1980B24519641E36
:10893000F4D23846F8BD000002000200F8B5027813
:108940001346803B1F2B02D800F036F9F8BD0A70A1
:1089500007784C1C421C0025FF219048904E3B009C
:1089600003F030FE170D37405DB7C4E1F2F16E77CA
:10897000F2F2F2F2F27B8085949EB45AF200117802
:10898000601C0022062920D006DC0B0003F01AFE32
:10899000051D1D1D1D0D1D00F0290CD0FD2914D035
:1089A000FE290FD0FF2910D107E005227D49FFF7EE
:1089B0008BFD052209E0112105E040210170457081
:1089C000022202E00521017001227748227010186E
:1089D000F8BD107800283AD0012838D021707248AC
:1089E000401EC4E01178002903D0012902D00021E3
:1089F00012E00121012202706C48202343604025CF
:108A000045608215426047691F43476143692B43B4
:108A1000436143691343436121703046A7E0057009
:108A20006248426920218A434261426940218A4367
:108A30004261426981158A4342612570012096E0B6
:108A400050781178000208430001401EFDD12570C6
:108A5000C5E765702570022089E02146104600F0C8
:108A600085FB84E02146104600F050FB7FE017783C
:108A7000511C002F01D1FF270137384601F0AAF819
:108A8000FF1D2570F8080004801970E011788A072E
:108A9000920F521C49070275C90F41752570BCE73A
:108AA0002170012113780C46521C0AE01078521CE8
:108AB0008006800E00D14020C01DC0081218091881
:108AC000491C5B1EF2D20804204350E0107821704C
:108AD000D9E71178017293785778190239434181A7
:108AE0001179D27809021143818150E00078214642
:108AF000012814D01346521C1078521C002808D0AC
:108B00001778521CBC0701D5FC0600D5121D401E6B
:108B1000F6D1D01A0D7000044D70801C27E010466D
:108B200000F0D0F823E000781746214601280CD049
:108B30000D704D70A5700320F9781D4A890708D57E
:108B4000104301460CE00DE023E0104600F04CFA23
:108B5000F2E7B9787B78090219438904891801433F
:108B6000084604E00078012803D0217011488019DC
:108B7000F8BD1746501CFFF75CFD39790002000A6A
:108B80000906084300906946002000F0B1FD2570F9
:108B9000ECE7203CE1773046F8BD0000A8F2FF1F6B
:108BA000010001002C1E01000200020080F00F40B5
:108BB0000000040001000500FEB502780A704D1C9B
:108BC00001783D4C401C80390646671C0B0003F0C1
:108BD000F9FC0D08162238407171714755606468C0
:108BE000710004F0E7FF0746FFF7E6FBC6B22E7000
:108BF000681C32463946FFF767FCA41927E00724B2
:108C0000684601F0ABFA224669462846FFF75CFC4D
:108C1000294C08344EE0684601F0A0FA002002908A
:108C20000422314602A8FFF74FFC029800906846E4
:108C300001F0B4FA002001F031FB012028701F4C34
:108C400038E03E21681C07F0DBFD28702418641C06
:108C500030E03778401C394607F040FE012025E01F
:108C6000012028703078002805D0012803D000208A
:108C70002870134C1EE005F097FAFAE701202870DF
:108C800003F098FE002802D1022007F075FB3C4655
:108C900010E0007806F050FDEAE706F019FD2870B4
:108CA000F5E73778401C394606F0EEFD28703904A8
:108CB000081904192046FEBD01000100020005004C
:108CC00002000200F0B589B00890044600208D1C17
:108CD0000391C34902900870049005906678A41C23
:108CE000002E6FD02778641CB9076CD50499002931
:108CF00035D0BC48408901901120384001280FD15F
:108D00006946384600F0F4FC02281AD10199491E40
:108D10000191491C03D0B24909780029F0D012E131
:108D200069460E2000F0E4FC022808D10199491E92
:108D30000191491C03D0AA4909780029F0D00021EB
:108D400004910128EBD1009929700099090A6970F2
:108D50000099090CA9700099090EE9702D1DF906FA
:108D600058D52046FFF765FCE1780002000A0906A5
:108D7000084307909B48241D80890690F80715D06A
:108D80009848408901900021384600F0B1FC022843
:108D900002D00128C3D109E00199491E0191491C63
:108DA000BDD08F4909780029EDD0CCE08D484089AD
:108DB00001906946384600F09BFC022804D0012847
:108DC0001CD10BE0E0E064E00199491E0191491CCF
:108DD00014D0834909780029EBD00FE08149009A2B
:108DE00009691140079A914208D00699491E0691D7
:108DF000491C03D07A4909780029D7D07949009ACB
:108E000009691140079A914201D0102108430128B5
:108E10001AD13CE0734949890191F90718D00499A6
:108E2000002934D10021384600F062FC022802D02B
:108E3000012809D109E00199491E0191491C03D07B
:108E4000674909780029EDD07DE0012104911EE0F9
:108E50006946384600F04CFC022802D0012872D145
:108E600009E00199491E0191491C6CD05C490978BF
:108E70000029EDD067E0009929700099090A69700E
:108E80000099090CA9700099090EE9702D1D0021A7
:108E90004DE00498002823D052484089019069464B
:108EA0000E2000F025FC022802D001284BD109E059
:108EB0000199491E0191491C45D049490978002969
:108EC000EDD040E0009828700098000A6870009883
:108ED000000CA8700098000EE87000202D1D049072
:108EE0002046FFF7A6FBE1780002000A09060843C6
:108EF000241D0090B90603D53A490861012017E006
:108F00003848408901906946384600F0F1FB022854
:108F100002D0012817D109E00199491E0191491C8D
:108F200011D02F4909780029EDD00CE001210591DD
:108F30000299491C02912A490978002903D1761E19
:108F400000D0CFE60AE0002E08D02178641C8A0702
:108F500001D5C90600D5241D761EF4E7012832D1BB
:108F6000049900291ED01F481D4F468969460E20CE
:108F700000F0BEFB022802D0012824D105E0761EB5
:108F800021D339780029F1D01DE00099297000998A
:108F9000090A69700099090CA9700099090EE97015
:108FA0002D1D10E0059900290DD00E480C4F468963
:108FB00000210E2000F09CFB022804D1761E02D373
:108FC00039780029F4D0039A0299117003994870F6
:108FD00008980399201A0004691A084309B0F0BDE3
:108FE00004F0FF1FA8F2FF1FF3B583B00025CE1CCD
:108FF00002914449024628460D70917853780C023C
:10900000D21C1C4373D01178521C00910392890723
:109010005DD50099C90737D03B48478900210098A2
:1090200000F066FB022802D0012860D12CE07F1EF0
:109030005DD3344909780029F0D058E0002C04D1E0
:109040000098C00701D00E2000902F48478901A941
:10905000009800F04DFB022802D0012847D106E01D
:109060007F1E44D3274909780029F0D03FE00199B9
:10907000317001996D1C090A71700199090CB17068
:109080000199090EF170361D641ED7D22FE00398A6
:10909000FFF7CFFA03990002C978000A09060843CE
:1090A00001900398001D03901748478901A9009873
:1090B00000F01EFB022802D0012818D106E07F1E16
:1090C00015D3104909780029F0D010E06D1C641EFA
:1090D000DDD20D480B4F448900210E2000F008FB23
:1090E000022804D1641E02D339780029F4D00299F1
:1090F0000D70029A290A517002998870029805B081
:10910000301AF0BD04F0FF1FA8F2FF1FF8B50C469F
:109110000546FFF78EFA0102E878090A0006104FAB
:10912000014307D00F4800260F4D814205D301208F
:10913000687010E0FF2020700FE00A486E70401E3B
:109140000818FFF78FFA012804D90321401CFFF704
:1091500089FA00E00120686026703846F8BD0000FA
:109160000100040000366E01A8F2FF1FF8B50746A3
:10917000057844780E46801CFFF75BFA0102787987
:10918000090A000601432F48E20706D0EB07202218
:10919000002B01D0426000E08260A20706D5AB0739
:1091A0004022002B01DA426000E08260220606D5F0
:1091B000EA09D307244A01D0426000E0826000231C
:1091C00000292ED0214A914200D91146204A9361AC
:1091D00030277943516105211161E10704D001690C
:1091E0008906C90FA94217D1A10705D501696F08E2
:1091F0004906C90FB9420FD1610701D5A9080BD1A2
:10920000A10601D5690907D1210609D50169EF0930
:10921000C905C90FB94203D01169C903C90FDCD010
:109220001361016902698906C90F5206D20F520003
:1092300000691143C005C00FC001014331700548EA
:10924000F8BD000080F00F4000010000C0C62D00F6
:1092500000E000E00100060010B516480021017092
:1092600041700322426001726422428181810122A5
:109270000161027541751048816B1F225202114332
:109280008163FF200D49033048610D482022426070
:10929000436913434361FF2404348C6140224260DC
:1092A0004369934343610C628115416042690A43FB
:1092B000426110BDA8F2FF1F0080044000B00440CE
:1092C00080F00F4070B50546EFF31080C407E40F3F
:1092D00072B6094E094B29463046F26800F010F884
:1092E000002805D1002329463046F26800F000F935
:1092F000002C00D162B670BD0C1300206B66656B4C
:10930000FFB589B016460C466A46099804F0D2F9B2
:1093100032462146049B099803F08FFF05002BD1AC
:10932000009C019FA619761E39463046FFF79AF930
:1093300000291BD0401C7843461E17E0210209205B
:10934000090A000609180D4841600C9803F08EFFC9
:10935000002811D1099803F093FF05460998006988
:10936000002800D08047002D02D1E419B442E5D98D
:10937000099803F035FF28460DB0F0BD000002400B
:1093800070B5040027D01648C0680001000F0F28F0
:1093900023D014494000085A8002002525606060EF
:1093A0000120A0606561A56180022561E060204622
:1093B00003F035FF00280AD00B48014680390560CC
:1093C000416040318160E061204600F00FF8256285
:1093D0000020656270BD042070BD01204004DCE700
:1093E0004080044000230100C013002070B5002815
:1093F00022D0C46916484022410816484900400856
:1094000040006568884202D9421A402A12D828468C
:10941000FFF75AF81148104E410811486D1C35608D
:109420004008402249004000A568884206D9421AF7
:10943000402A03D9FEF788FF042070BD2846FFF7B5
:1094400043F86D1C022075602060002070BD000094
:109450008DD9000099D9000020F1FF1F09D200002A
:109460001DD20000FFB589B01F4614000D460DD077
:109470006A46099804F01EF93A462946039B099862
:1094800003F0DBFE060002D1009D28E004200DB0B1
:10949000F0BD02CC154881600399042902D0082947
:1094A00007D00EE029020322090A520689184160FA
:1094B00007E002CCC16029020722090A12068918B6
:1094C0004160099803F0DCFE06460998006900280F
:1094D00000D08047002E04D1039845193F1A002F71
:1094E000D7D1099803F07CFE3046D0E70000024057
:1094F000FFB589B014460D466A46099804F0DAF8BB
:1095000022462946059B099803F097FE00282FD193
:109510006A462946099804F0CDF8009D0298089003
:109520006942404201404F42AF4201D108983F1882
:10953000002C1CD07E1BA64200D926463046059939
:10954000FFF790F829020122090A12068A18094930
:109550004A600C9A000412021043FF308860099898
:1095600003F08EFE002803D1A41BAD19DEE7002016
:109570000DB0F0BD00000240FFB589B0129F1D0084
:1095800016460C4610D06A46099804F093F8324605
:109590002146079B099803F050FE002805D1154A83
:1095A00039068F18009C22E004200DB0F0BD210286
:1095B0000120090A400609180F48416087602968A0
:1095C000C160099803F05CFE002809D013990029B6
:1095D00000D00C6014990029E7D000220A60E4E76B
:1095E0000799761A890889004D1907990C19002ED8
:1095F000DDD1DAE7FFFFFF0000000240BA2203A13D
:10960000002003F02FF800F057FBFEE72E2E5C2E13
:109610002E5C2E2E5C736F757263655C6461706C7A
:10962000696E6B5C696E746572666163655C6D61C1
:10963000696E2E630000000010B5EFF31080C007C4
:10964000C00F72B60021064A1160002800D162B630
:109650000448FFF795FE002800D0012010BD00004F
:10966000008104400C1300201CB506F00FFB0028FD
:109670001AD09E2069460870E7204870102000F03C
:10968000A9FA012406F002FB00280DD0002069464B
:109690000870082000F09EFA01A9002006F08CFA5C
:1096A000012802D1002C00D01CBD00201CBD0000F0
:1096B000FEB5074616460D46EFF31080C407E40FCB
:1096C00072B60B4639460948FFF7CCFE002809D18F
:1096D000012101900091029033462A463946034801
:1096E000FFF74AFF002C00D162B6FEBD0C1300202C
:1096F00000B5054A5278002A02D000F007F800BDF4
:1097000000F0E0F800BD0000A8F2FF1FF0B58C46A5
:109710006A4E4021024671602027B7607760C0071B
:1097200001D0716000E0B160B76077605008C40795
:1097300001D0716000E0B160B760776013189008E5
:10974000C40701D0716000E0B160B76077601B189A
:10975000D008C40701D0716000E0B160B7607760E5
:109760001818C00701D0716000E0B160B760776081
:10977000B160B76077607160B76077607069884387
:1097800070614F48007D041E03D0B7607760401EB3
:10979000FBD1B760306977604006C00FB7603369AE
:1097A00077605B06DB0F5B000343B760306977606F
:1097B0004006C00F8000184301280DD002285DD05C
:1097C00004285BD0213403D0B7607760641EFBD1DE
:1097D00072690A4372616FE0920726D500231C4626
:1097E0002022B760356977606D06ED0F64195B085C
:1097F000ED072B43521EF4D1B760326977605206F1
:10980000D20F5440E20700D008206246002A00D060
:1098100013602B4A127D002A03D0B7607760521E76
:10982000FBD172690A4372611EE0002C03D0B7605D
:109830007760641EF9E772690A43726162461268D2
:1098400000242023D50701D0716000E0B160B7602B
:109850007760A41852085B1EF4D1E20701D0716052
:1098600000E0B160B7607760154A127A002A23D011
:10987000B160B7607760521EFBD11DE0104B5D7D7B
:10988000002D06D0930704D52123B76077605B1EB7
:10989000FBD1002C03D0B7607760641EF9E77369D1
:1098A0000B437361002D07D0920705D4B1602122CC
:1098B000B7607760521EFBD17160F0BD80F00F4041
:1098C000A8F2FF1FF0B503460022C04D40208C4691
:1098D00068602024AC60BE4F79680E46761EFDD1CC
:1098E0006C600E46761EFDD1DE0701D0686000E098
:1098F000A860AC600E46761EFDD16C600E46761EEA
:10990000FDD1D6185A08D70701D0686000E0A860DA
:10991000AC600F467F1EFDD16C600F467F1EFDD1EF
:10992000B6189A08D70701D0686000E0A860AC605C
:109930000F467F1EFDD16C600F467F1EFDD1B6180D
:10994000DA08D70701D0686000E0A860AC600F4675
:109950007F1EFDD16C600F467F1EFDD1B218D2076D
:1099600001D0686000E0A860AC60994E0A46521EC3
:10997000FDD16C600A46521EFDD1A860AC600A465B
:10998000521EFDD16C600A46521EFDD16860AC606B
:109990000A46521EFDD16C600A46521EFDD16A690C
:1099A000402082436A61327D161E09D0AC600846B1
:1099B000401EFDD16C600846401EFDD1521EF5D1FF
:1099C000AC600846401EFDD128696C604006C00F9F
:1099D0000A46521EFDD1AC600A46521EFDD12A69CC
:1099E0006C605206D20F0F467F1EFDD1520002431B
:1099F000AC600846401EFDD128694006C70F2020F4
:109A000068600846401EFDD1B8001043012816D0FA
:109A100002286ED004286CD021360AD02023AB60F7
:109A20000A46521EFDD16B600A46521EFDD1761EBB
:109A3000F5D169694022114369616A60F0BD9A07F6
:109A40003CD50024264620232027AF600A46521E1C
:109A5000FDD12A696F605206D20F0F467F1EFDD1DD
:109A60006708D407B6183C435B1EEDD120232A4675
:109A7000AB600F467F1EFDD1176953607F06FF0F55
:109A8000491EFDD17E40F10700D008206146002923
:109A900000D00C604E490C7D002C0AD04E689360BB
:109AA0003146491EFDD153603146491EFDD1641E29
:109AB000F5D1516940231943516139E0002E0AD094
:109AC0002023AB600A46521EFDD16B600A46521E2F
:109AD000FDD1761EF5D16A6940231A436A61624658
:109AE0000026126820242746D30703D040236B604A
:109AF00002E032E04023AB60AF600B465B1EFDD15D
:109B00006F600B465B1EFDD1B6185208641EEBD188
:109B1000F20702D040226A6001E04022AA603B4680
:109B20002C46AF600A46521EFDD16360491EFDD12E
:109B300027490A7A002A0DD04023AB604B682024C5
:109B4000AC601946491EFDD16C601946491EFDD115
:109B5000521EF5D140216960F0BD1D4A527D9446E8
:109B6000002A0DD09A070BD521242027AF600A4682
:109B7000521EFDD16F600A46521EFDD1641EF5D102
:109B8000002E0AD02024AC600A46521EFDD16C6023
:109B90000A46521EFDD1761EF5D16A694024224341
:109BA0006A616246002A0ED09A070CD4AC60212369
:109BB0002026AE600A46521EFDD16E600A46521E35
:109BC000FDD15B1EF5D16C60F0BD000080F00F4050
:109BD000A8F2FF1FF0B50023104C1A460E4E2027A6
:109BE000656815E0002A02D10B780822491CDC07C1
:109BF00002D04024746001E04024B460B7602C4679
:109C0000641EFDD177602C46641EFDD15B08521E98
:109C1000401EE7D2F0BD000080F00F40A8F2FF1F09
:109C20001E48002202601E48816B43151943816360
:109C30001B491C48403148601B4883681B490B4046
:109C40008360C3680B40C3601949802008701948BD
:109C500024214170A2210170C178C906C90EC170CA
:109C60000321017142718179C906FCD48179090708
:109C7000890F0229FAD14021417181790907890FA1
:109C80000229FAD181794906FCD51A21017081791E
:109C90000907890F0329FAD17047000000810440A9
:109CA000008004400000011040900440FFF8FFFED7
:109CB0000050064000400640BFF34F8F0349024862
:109CC000C860BFF34F8FFEE70400FA0500ED00E027
:109CD00038B5254D2C79E878800601D420208443BE
:109CE000E878000601D480208443200616D51F485A
:109CF00002F05DFD002800D00120E7221CA102F047
:109D0000B1FC1A4802F074FDE871184802F04FFDEA
:109D1000002803D1E8784006400EE870A00605D57B
:109D20006007800F03D0E8796946087038BDED7987
:109D30001B4802F02BFD0446132804D92946184875
:109D400002F092FD38BD02F045FE002807D0132C2A
:109D5000F8D1132213A1124802F0D7FD38BD1048E4
:109D600002F046FDEAE7000000B00640CC130020F8
:109D70002E2E5C2E2E5C2E2E5C736F757263655CCE
:109D80006869635F68616C5C667265657363616C6A
:109D9000655C6B6C32367A5C756172742E630000A0
:109DA000DC1500203C4441504C696E6B3A4F76659F
:109DB00072666C6F773E0A00F8B52E4E0024357837
:109DC0000095280741D5317C0A090807C00F4B07C9
:109DD000DB0F154605431AD1950040002818C0181E
:109DE000254BC0001D5CAD062D0F012D0FD1C518F0
:109DF0006F88002F0BD1214FBA5C6A801A5C520623
:109E000001D5882200E0C8221A5401200143EFF353
:109E10001080C507ED0F72B6194A184F143FB86885
:109E200011541521401CFEF71DFCB960002D00D116
:109E300062B608203070002C02D1307D800601D53A
:109E4000012400E000243578BBE700990B48294342
:109E5000083804F006FC002C01D0012000E00020AE
:109E6000064914390A7810430870357002F056FB21
:109E7000F8BD000080200740001A002090F1FF1F6D
:109E8000A01F002000207047034801694069081A9C
:109E900002490988081A7047DCF1FF1F46230100B8
:109EA00070B50B4D0C460346696B286B88420BD985
:109EB000401A844200DD044622461846FEF704FBA1
:109EC000686B0019686300E00024204670BD000044
:109ED000DCF1FF1F00207047F8B5184F0C4606460E
:109EE00079693869401A16490988081A002801DC7E
:109EF0000020F8BD844200DD0446FA69B8690025F7
:109F000090420DD30F4A031951188B4208D30D1AF2
:109F10002A463146FEF7D8FA76190A48641BB8611A
:109F2000002C06D022463146FEF7CEFAB869001959
:109F3000B8613969601909183961F8BDDCF1FF1F92
:109F400046230100EE18002010B5054C606800287B
:109F500005D10120606000F005F80020606010BDB0
:109F6000DCF1FF1FF8B5234CA06800283DD06169E3
:109F700020690026421AE06811460143002935D0C5
:109F800021461D4FC9691D4D002A10D0A06981428C
:109F900005D338888B182818834200D3421A1848F2
:109FA000007843001748C05A904200DA024616482B
:109FB000E66000788023184302F0D8FAE1690918B6
:109FC000E1616269121862613B88EB188B4200D133
:109FD000E561216991420BD1094909784A00094993
:109FE000895A814204D10120E060F8BDA660F8BD25
:109FF000E660F8BDDCF1FF1F46230100EE180020EB
:10A000001FF2FF1F4A2301004423010010B50C4C2E
:10A01000206A002803D0A06A401CA06210BD012065
:10A020002062606200F00EF8002060622062616BC6
:10A03000206B8842F2D0401AFFF74CFF10BD0000A1
:10A04000DCF1FF1F10B5134C1348216B154B0A1A96
:10A0500012480088821A124800784000185A82423A
:10A060000EDB1148007801F01BFE216B08182063FD
:10A07000A06A00280CD0616A002909D1401E06E0C0
:10A080000120E062606A002802D0A06A401CA06241
:10A0900010BD0000DCF1FF1F2E1900204823010035
:10A0A0001FF2FF1F4A2301004523010010B504469B
:10A0B000400702D52046FFF7A9FF200702D520461A
:10A0C000FFF742FF10BD00207047002070470000DE
:10A0D00010B50C4800F042F8002812D00948FEF7ED
:10A0E000A8FA0949020A08704A70020C8A70000E28
:10A0F000C870044802790A7142794A71807988717E
:10A10000012010BD14F2FF1FEC17002010B51048FD
:10A11000002444608460C46004610E49816144612C
:10A12000046244628462C462C1610B490163416399
:10A13000014604804B203831C001FEF78BFA0448F9
:10A140000821383004714471817100F019F810BD94
:10A15000DCF1FF1FEE1800202E19002070B5044618
:10A16000064D21462868FEF775FA2879A0716879AE
:10A170006071A8792071012070BD0000A0F2FF1F5E
:10A1800010B506F005FB03F0C7FE012010BD10B5A9
:10A1900006F040FB012010BD0120704710B50446B9
:10A1A000FEF747FA06490860A0790871607948719E
:10A1B000207988710020C871084606F041FB10BD67
:10A1C000A0F2FF1F10B51148002444608460C460F1
:10A1D00004610F4981614461046244628462C46223
:10A1E000C1610C49016341630480FFF7D0FF074957
:10A1F0004B203831C001FEF72DFA044808213830D1
:10A20000047144718171FFF7C9FF10BDDCF1FF1FBC
:10A21000EE1800202E19002010B5FFF7D3FF10BD57
:10A2200070B51B480078002831D01A4C0025206AF0
:10A23000012600280AD1616B206B884206D116499D
:10A24000884203D02163E56225626163A06A002829
:10A2500010D0206A00280DD1E06A00280AD12662B9
:10A26000FFF7F0FE2562616B206B884202D0401A36
:10A27000FFF730FEA1686068084308D16169206972
:10A28000884204D06660A660FFF76CFE656070BD12
:10A290001DF2FF1FDCF1FF1F2E190020B0B50D4C81
:10A2A0000D4F002806D0BC4600DF2060002006F0DD
:10A2B00063F80CE0BC4600DF2168401AFF212D3115
:10A2C000884201D3012000E0002003F033FE01208A
:10A2D000B0BD00009CF2FF1FE9F3000000207047B2
:10A2E0000020704710B502490880FFF755FF10BDE8
:10A2F000DCF1FF1F10B50B48FEF79BF9094C00027B
:10A30000E178000A090608430749FEF7A3F9064861
:10A310002179017161794171A1798171FFF73EFF66
:10A3200010BD0000EC17002014F2FF1F01078A0E79
:10A33000044910B551180A78FD231A400A7002F03A
:10A3400087F810BDC020074010B501464A790B7947
:10A35000807811021943020601D4024A115402F016
:10A3600077F810BD90F1FF1F704710B500F016FB95
:10A3700010BD0000094A094980320028087D04D038
:10A38000012318430875102005E0400840000875B7
:10A39000107AEF21084010727047000080200740BB
:10A3A00010B50C4C0C48A2880078824200D90246B5
:10A3B000002A03D107490020143908718020216840
:10A3C00002F0D4F8216809182160A188081AA08039
:10A3D00010BD000030F2FF1F2423010010B5064C11
:10A3E0000020A288216801F05BFC21680918216027
:10A3F000A188081AA08010BD30F2FF1F704700002E
:10A400000749020605D50007800E40180178FA2298
:10A4100003E0800040180178F62211400170704777
:10A42000C02007400749020605D50007800E4018E6
:10A430000178052203E080004018017809221143C9
:10A4400001707047C0200740F8B504466F4F704D4B
:10A45000704E800720D502F057F83878C009FFF712
:10A46000CDFFF888A88038784106890F04D00129EB
:10A470005CD0022975D169E079780B0002F0A2F86E
:10A480000C070D7113711928712D333B4A7101F0BE
:10A49000A9FD1FE0FFF784FF70E0002004E002F058
:10A4A00047F85D483DE0012001F0DEFD002858D06E
:10A4B000F5E7C006C00E54D1B8788021084330704B
:10A4C0004006400E012102F009F802F031F855E093
:10A4D00001F076FC002844D0DCE7C006C00E40D175
:10A4E0004C48401C14E001F013FE002839D002F063
:10A4F0001FF84A4815E0C006C00E012831D1707817
:10A5000000282ED03879B17888422AD244494018A0
:10A510002860BFE701F0C0FE002822D002F008F852
:10A5200040480068002829D0804727E0C006C00EB8
:10A5300017D0012815D100F017F900281ED100F01E
:10A540006FF900281AD100F0BBF808E0C006C00E71
:10A5500007D100F09FF9002810D100F0E7F900289A
:10A560000CD13878C00904D1F888002801D0002027
:10A5700000E0802001F0BCFF0020A880600704D527
:10A580003878C0090DD001F0DBFF200733D53878CB
:10A59000C00927D0A888317908432CD0FFF700FFE5
:10A5A00029E0A8880028F0D0FFF718FFA888002825
:10A5B000EBD138784106890F0ED001290CD1C006A5
:10A5C000C00E09D0012807D100F05CF80028DCD1CA
:10A5D00000F02AF80028D8D1802001F089FF00205F
:10A5E000A880D2E73078010605D54006400E3070CD
:10A5F000002101F073FF600602D50020FFF796FEF0
:10A60000200602D58020FFF791FEF8BD38F2FF1F2B
:10A6100030F2FF1F1CF2FF1FAC230100A423010036
:10A620006FF1FF1FA823010010B51349134A0879E1
:10A630001278904203D0124A1278904219D1487889
:10A64000002804D0022805D0202812D10EE0FFF700
:10A6500045FE05E0C878897800020843FFF740FE10
:10A66000002806D001F064FF012010BDFFF742FE74
:10A67000F6E7002010BD000038F2FF1F4223010062
:10A680004323010010B50B490B4A08791278904218
:10A6900003D00A4A127890420AD14878092807D193
:10A6A00000F07EFB002803D001F042FF012010BD26
:10A6B000002010BD38F2FF1F2523010026230100D2
:10A6C00070B52449244A08791278904203D0234A6D
:10A6D000127890423BD11F484978C27883781002A3
:10A6E0001F4C204D1843042920D008DC00290FD02E
:10A6F00001290FD002290BD0032928D111E02029EC
:10A7000006D0212919D022291AD023291FD11AE0D5
:10A710002C6010E0FFF7D9FC05E02C60FFF740FE4D
:10A7200009E0FFF7D0FC0028F7D110E0FFF7AAFB03
:10A730000BE001F0FDFE012070BDFFF7C9FCF2E760
:10A74000FFF7D0FD01E0FFF7A9FD0028F1D10020BF
:10A7500070BD000038F2FF1F4223010043230100B7
:10A76000EC17002030F2FF1FF8B5254E254930794F
:10A770000978884203D02449097888423DD170780D
:10A78000224C234D234F030001F01CFF0C370723FD
:10A790002D37373737371826333700F01FFA0028A0
:10A7A0002BD0F078012802D0032803D003E01A4808
:10A7B000206000E02560FFF7F3FD12E0F07802284A
:10A7C00002D0032803D00CE01448206009E0256083
:10A7D00007E000F0EBF908E000F0BAFA0BE001F056
:10A7E000A7FE0120F8BD00F0EFF9002805D0276092
:10A7F000E1E700F0CBFA0028F1D10020F8BD00001D
:10A8000038F2FF1F252301002623010030F2FF1F2D
:10A810007AF1FF1FEC1700202D1800206E18002081
:10A8200010B51848184A01791278914227D1427818
:10A830000146C8788B7800021843CB798C791902CD
:10A840002143FE2A0CD0FF2A19D1002817D1002954
:10A8500015D101F065F9002811D001F069FE0CE076
:10A8600000280CD101290AD100F04AFE002806D0A8
:10A87000074906480860FFF793FD012010BD00203E
:10A8800010BD000038F2FF1F38230100EC17002034
:10A8900030F2FF1F70B51F4D1F49687809780026F8
:10A8A000884235D1687929790002084302282FD1DE
:10A8B000AA781A4C002A2BD0002004E02178002925
:10A8C00000D00C19401C411C8A42F7D8207800287F
:10A8D00019D003F019F90146E01CFDF7E9FD104A13
:10A8E00001261460E979AB79207809021943814285
:10A8F0000BD90C4990800978491E084206D10A49B3
:10A900000120087002E0002602E09180FFF748FD78
:10A91000304670BD38F2FF1F4E23010030F1FF1F9B
:10A9200030F2FF1F2423010020F2FF1F10B5154A4B
:10A930001549507809780024884220D1507911793E
:10A940000002084307281AD1114B10481860417AB9
:10A95000007A09020143D079927900020124104360
:10A96000884209D90B4899800078401E014204D1E1
:10A9700009490120087000E09880FFF711FD20468A
:10A9800010BD000038F2FF1F4F230100EA23010031
:10A9900030F2FF1F2423010020F2FF1F074800218F
:10A9A0004170C16001614161418081808161C1610B
:10A9B000C1800181016241817047000040F2FF1FA8
:10A9C000F8B5494EB0887188484F00257C1C8842F4
:10A9D00018D3B069002815D17561B5800123397885
:10A9E0007A1C184606F0FCF970807088002809D09F
:10A9F0003F4877610078012801D8746102E07088CF
:10AA0000401C7080708800283AD1F068002801D07E
:10AA1000F56035E03069002832D0354909780129E0
:10AA20000ED83D70B58002237A1C0021012006F06B
:10AA3000D7F970807088002800D0746135611FE0FC
:10AA40003C780127202C00D300243946A140014244
:10AA50001AD0601CC1B2254A02231170B5800120B2
:10AA6000521C06F0BDF970807088002804D01F4881
:10AA700070617088401C70803069A740B8433061B5
:10AA80007088002806D102E0641CE4B2DAE7B069FD
:10AA9000002826D07088B188164F401A84B23878C2
:10AAA00041001548405AA04200D204461348802174
:10AAB000007822460843716901F058FD7069104919
:10AAC00000197061B088001980B2B080098888428E
:10AAD00008D2387841000848405AA04202D10120EB
:10AAE000B061F8BDB561F8BD40F2FF1F2C18002021
:10AAF000322301001FF2FF1F2E2301002723010034
:10AB000034230100F8B51B4C002720891A4D1B4E39
:10AB1000002802D1E5613188E180E1880A1A1848ED
:10AB2000E169007801F0BCF8E16980B20918E161DF
:10AB3000218909188BB22381002809D031888B42E2
:10AB400006D21049104A09784900515A814210D959
:10AB50000E48017801200129009003D80021064AFF
:10AB6000022003E029786A1C02205B1E06F0C0F96F
:10AB70002781F8BD40F2FF1F6D1800203623010029
:10AB8000282301001FF2FF1F2E23010033230100A1
:10AB900010B50446000702D52046FFF711FF6007F5
:10ABA00002D52046FFF7AEFF10BD00000348044960
:10ABB0008078085C034908700120704738F2FF1F55
:10ABC00078F1FF1FEC17002010B506F007F90249D5
:10ABD0000870012010BD0000EC17002010B50B49D3
:10ABE0000022C878012804D0022804D0032806D106
:10ABF00003E0074A02E0002010BD064A521C897893
:10AC0000002306F0EDF8012010BD000038F2FF1F10
:10AC10002C18002079F1FF1FFEB544480078002869
:10AC20007ED0434E002031788446481C3070414825
:10AC3000042300784200821893405B1E01929942DF
:10AC400003DB0021317001218C463B4A002511882D
:10AC5000FF2901D2491C118041003848405A364929
:10AC600000900988884200D10125354900200978E3
:10AC70008E4648E000216246002A0DD0314A135C1E
:10AC8000FF2B01D25B1C13542F4B1B5C002B03D0FA
:10AC9000125C9A4200D301212B4A0223145C019AD0
:10ACA000934022469A40009B9A4203DA002C01D03E
:10ACB000012200E00022002D06D0002A04D001234A
:10ACC000376983403B433361204B1B5C9C420CD073
:10ACD0001C4C245C9C4206D30124376984403C43CD
:10ACE000346100243470184C2354002909D0002A00
:10ACF00004D101213269814011433161114A00219F
:10AD00001154401CC0B27045B4D3002D02D00A4982
:10AD1000002008803069002806D07088002800E0F4
:10AD200002E001D1FFF74CFEFEBD00001DF2FF1F47
:10AD300040F2FF1F1FF2FF1F74F1FF1F2A230100C3
:10AD40003223010076F1FF1F77F1FF1F78F1FF1F1B
:10AD50000A480A498078C978002802D0084A8154F4
:10AD600009E0094B0020074A1B7802E01154401CFF
:10AD7000C0B29842FAD301207047000038F2FF1F9A
:10AD800077F1FF1F78F1FF1F3223010010B5034850
:10AD9000807806F0ABF8012010BD000038F2FF1FEC
:10ADA00038B50D490022C878012804D0022804D003
:10ADB000032806D103E0002038BD084A00E0084A15
:10ADC000521C00230093CB798C791B022343897892
:10ADD00006F08EF8012038BD38F2FF1F6D180020F4
:10ADE00079F1FF1FF8B5EFF31080C007C00F72B6FE
:10ADF000564D0021EC68E9602A78009229700028FD
:10AE000000D162B6E00708D001F0DCFA06F042F9A2
:10AE10004F480068002800D08047E00606D501F0C2
:10AE20009BFB4C480068002800D08047A00606D550
:10AE300001F046FB48480068002800D080476007C2
:10AE400004D546480068002800D08047022C09D16C
:10AE500043480168002902D04248007A88474148A7
:10AE6000FF210172200767D53F4FEFF31080C20723
:10AE7000D20F72B6A9686868884257D1012156E09E
:10AE8000EFF31081CE07F60F72B638490C5C15212E
:10AE9000401CFDF7E7FB6960002E00D162B620463A
:10AEA0002207D30F21066207090FD20F002908D10C
:10AEB0005C00A418E4003C5D0026A406240F0D2CC1
:10AEC0000AD08C005B00E3189A18D600BA5D92068F
:10AED000120F012A13D01DE028690221884328613E
:10AEE000387E4006400E3876387C4006400E387476
:10AEF0001F486E7001680029B7D0022014E00029B5
:10AF000002D1C007C00F687019480159002901D04B
:10AF100004208847B85D8006000F0928A5D1144891
:10AF200001590029A1D0082088479EE70021002A66
:10AF300000D162B60029A3D00098002804D00949A6
:10AF4000087DDF2210400875F8BD00007CF1FF1F6E
:10AF50005023010054230100582301005C23010009
:10AF60006023010080200740001A0020A01F00205D
:10AF70006423010010B51C48402303701B4841683E
:10AF80000522120411434160416B1A0311434163CE
:10AF900000F036F81648017B802211430173017BD3
:10AFA0000906FCD41349124C090A803C2177114947
:10AFB0000A0C0F4960390A740E4A120E0A75FF21F5
:10AFC00021700D490968002900D004210B4A12683C
:10AFD000002A00D00222114319221143217103706B
:10AFE000017B1943017310BD90F1FF1F00800440E5
:10AFF00000210740001A00205C23010060230100AB
:10B0000001200249000608607047000000E100E0EE
:10B0100070B500F019F900282AD0164802240470EF
:10B020004470154E03203463307014480546FDF714
:10B0300000FB022808D9114920461F39FDF70AFBF9
:10B0400029462046FDF706FB0D4880210078224660
:10B050000843084901F08AFA2846FDF7EAFA316BFD
:10B06000401A2946FDF7F6FA044901200839087309
:10B0700070BD0000AE18002064F2FF1FA720002062
:10B080003923010010B510490878022808D0032898
:10B090000FD0042810D0052801D10020087010BD61
:10B0A0000A48C07B282801D0A828F8D100F06CFA03
:10B0B00010BD00F077FD10BD0548802100780843E1
:10B0C00000F08AFDF5E7000064F2FF1F80200020F9
:10B0D0003923010010B51D4A117800290FD001292C
:10B0E00010D01B48052900781BD0072927D000F075
:10B0F00073FD18490220087300F054FD10BD00F0E4
:10B100000FF910BD13481F38C07B2A2803D02F2801
:10B1100004D0AA28F5D100F015FB10BD00F0A2FA6A
:10B1200010BD012181400C480068014201D001207E
:10B1300000E00020094A0AA101F094FA10BD0020A5
:10B140001070106B1F28DAD010BD000064F2FF1FD2
:10B150003A2301009F20002028F2FF1F4104000035
:10B160002E2E5C2E2E5C2E2E5C736F757263655CCA
:10B170007573625C6D73635C757362645F6D73633A
:10B180002E63000010B5144C6068E060002801D008
:10B19000012010BD1148FDF74CFA002814D00F48CB
:10B1A0000838007B000604D50D488021007808434C
:10B1B00008E00A481F30FDF73CFA216B884203D0B3
:10B1C0000848007800F008FD044901201731087391
:10B1D00000F0E8FC002010BD64F2FF1F8820002072
:10B1E000392301003A23010010B5124801798F205C
:10B1F0000140080605D50807000F0122120482400D
:10B2000001E001228A400C480478802004438C42EB
:10B210000ED10A48006810420AD00948FDF709FA21
:10B220000849884204D10D220549204601F09EF9C3
:10B2300010BD000038F2FF1F3923010028F2FF1F64
:10B240009F2000205553425370B50C48FDF7F1F98B
:10B250000A4C02251734002808D020461F38007BEE
:10B26000000608D40648007800F0B6FC257300F00C
:10B2700099FC002070BD012070BD000088200020D6
:10B280003A23010070B51148FDF7D3F9104C216B3A
:10B29000884202D82063032000E0042020700D487B
:10B2A00080210078226B08430B4901F05FF90748C1
:10B2B0001F300546FDF7BDF9216B401A2946FDF701
:10B2C000C9F9024900201731087370BD8820002099
:10B2D00064F2FF1F39230100AE18002010B50648A4
:10B2E000064902880648007800F0DAFC0549086340
:10B2F000FFF7F0FE10BD000040230100AE18002053
:10B300003A23010064F2FF1F10B50446400702D53E
:10B310000020FFF7E3FF200701D5FFF7B3FE10BDC4
:10B32000F8B5704E316B1F2901D20A4600E01F228A
:10B3300000206D4D6D4B02E01C5C2C54401C904273
:10B34000FAD36B48802200780127104300901F2910
:10B3500070D16548FDF76DF9664988426AD1281DAC
:10B36000FDF767F9604C1F34211DFDF773F9204686
:10B370001738FDF75EF921460831FDF76BF9687B58
:10B38000002804D1A87B002801D0102801D92773F8
:10B3900074E0E87B2A283BD020DC1A2847D00EDC5A
:10B3A0000428F4D006DC00283BD00328EFD100F0BD
:10B3B00075FBF8BD1228EAD100F0AAF8F8BD2328E1
:10B3C0003CD006DC1B282FD01E28E0D100F0CCF8A2
:10B3D000F8BD252835D02828D9D13BE09E2836D085
:10B3E0000EDC5528D3D004DC2F2842D03528CED10E
:10B3F00003E05A281FD09128C9D100F01DFCF8BDE8
:10B40000A12821D0A3284ED0A82823D0AA28BED175
:10B4100000F084FA0028F2D0287B00063BD4377075
:10B42000F8BD00F013FCF8BD00F0ECFBF8BD00F037
:10B4300047FAF8BD3BE000F011FAFAE700F0F2FA43
:10B44000F7E700F0C9FAF4E7FFF7E2FDF1E700F0F3
:10B450007DFBEEE700F062FA0028EAD0287B0006C8
:10B4600004D50220307000F08FF8E2E7224800781F
:10B4700015E0287C800704D40020207300F092FBA4
:10B48000D7E700F04BFA0028D3D0287B000602D47F
:10B4900037703762CDE7164880210078084300F006
:10B4A0009BFB0220E9E7009800F096FB6FE7104C49
:10B4B000009800F091FB2078104C0107090F012043
:10B4C0000004884021680C4D08432060287800F073
:10B4D00083FB287887402068074306202760307068
:10B4E000A7E7000064F2FF1F80200020AE180020B4
:10B4F00039230100555342433A2301002CF2FF1F28
:10B50000024900200870012070470000EC1700205D
:10B5100010B5FFF799FE00281FD0104B00201870BF
:10B520008021597002219970D97020241C715871A2
:10B530009871D8710A48016808200A78002A02D058
:10B540001A54491C00E01C54401CC0B22428F4D3F7
:10B55000044924200863FFF795FE10BDAE180020B3
:10B560002CF1FF1F64F2FF1F10B50548C07CC10716
:10B57000044800D00121017300F014FB10BD00004D
:10B58000802000209F200020F8B5314D314FA9695F
:10B59000686A002688420AD338788021002408434C
:10B5A00000F01AFB2C48067300F0FCFA08E02B4868
:10B5B000007841002A48445AE86A844200D304468D
:10B5C000FFF7E0FD002800D10024A86A00282DD054
:10B5D000002C0ED0A96AE8698022411838781043FF
:10B5E000224600F0C3FFA86A0019A862E86A001B9F
:10B5F000E86229696869AA6A4143914203D1AE624F
:10B60000696A08186862144808300746FDF711F89F
:10B61000001B3946FDF71EF8002C06D0E86A00280A
:10B6200003D1032028700C480673F8BD002CE0D02D
:10B630002969E86A4018401EFDF714F86969024656
:10B64000884200D90A46E969686A05F0E3FCC1E767
:10B6500064F2FF1F392301009F2000201FF2FF1F0B
:10B660003C230100F8B5334C0025A169606A88428B
:10B6700008D331482563007800F0AEFA2F480573EF
:10B6800000F090FAFFF77EFD002806D0206B00281E
:10B6900024D0A06A002802D010E025631EE02169B2
:10B6A000E06A4018401EFCF7DDFF616902468842EF
:10B6B00000D90A46E169606A05F0ACFC0020204927
:10B6C000A76A266B08E0E3693A189A5C0B5C9A4219
:10B6D00001D0256202E0401CB042F4D3266BA06A80
:10B6E0008119A162E06A871BE762226960694243AF
:10B6F0008A4203D1A562616A081860620F48083067
:10B700000546FCF796FF801B2946FCF7A3FF002E99
:10B710000CD0002F02D02078052807D1206A0028FD
:10B7200005D000200549087300F03CFAF8BD01205F
:10B73000F8E7000064F2FF1F3A2301009F20002079
:10B74000AE180020F8B5384D384FA969686A002650
:10B75000884207D336482E63007800F03DFA3E73E6
:10B7600000F020FAFFF70EFD002800D12E63296BB0
:10B77000A86A40182969884206D9FF2201322DA102
:10B78000002000F06FFFF8BD0020334905E0AB6AF0
:10B790000A5C1B18EC69401CE2542A6B9042F6D3F9
:10B7A000A86A8018A862E96A891AE962002A25D085
:10B7B000002914D1002812D029694018401EFCF736
:10B7C00051FF69690446884200D90C462246E9695E
:10B7D000686A05F037FCAE62686A00190DE06969B5
:10B7E0002B690A465943814208D1E969686A05F024
:10B7F00029FCAE626969686A401868620B480830C3
:10B800000090FCF716FF2C6B0099001BFCF722FF41
:10B81000002CB8D0E86A002802D028780528B2D1D8
:10B820003E7300F0BFF9F8BD64F2FF1F9F200020B7
:10B830003A2301002E2E5C2E2E5C2E2E5C736F752B
:10B840007263655C7573625C6D73635C757362646F
:10B850005F6D73632E630000AE18002070B5FFF7B4
:10B86000F3FC002824D0FFF78DFC002820D01148DD
:10B8700000210170062242700F4B81701A7A082451
:10B88000D201C270017141718171C1710B481C6399
:10B890000546FCF7CEFE082808D9084920461F397E
:10B8A000FCF7D8FE29462046FCF7D4FEFFF7EAFC59
:10B8B00070BD0000AE18002064F2FF1FA72000201A
:10B8C00070B5FFF7C1FC002820D0FFF75BFC002813
:10B8D0001CD00F480321017000210E4B41701A7AD1
:10B8E0000424D2018270C1700B481C630546FCF72A
:10B8F000A0FE042808D9084920461F39FCF7AAFEF3
:10B9000029462046FCF7A6FEFFF7BCFC70BD0000F0
:10B91000AE18002064F2FF1FA7200020F8B52A48C7
:10B92000FCF787FE284D00BA040A113D287D240249
:10B930000443264E00207462B062E87B2F280AD0B0
:10B9400004DC28280BD02A281CD104E0A82810D019
:10B95000AA2817D109E0FFF715FC002830D0E87DB0
:10B96000A97D0002084344BA0CE0FFF70BFC002855
:10B9700026D01548001DFCF75CFE00BA040A287E9C
:10B9800024020443306944430F48F4620938FCF749
:10B9900050FE0D4F01260E3700280DD0A04210D0CA
:10B9A000287B000604D50A4880210078084301E07E
:10B9B0000848007800F010F93E7300F0F3F800201A
:10B9C000F8BD0120F8BD00009120002064F2FF1FA7
:10B9D000392301003A23010010B5FFF735FC002898
:10B9E0001AD0FFF7CFFB002816D00C4A0C489169FB
:10B9F000491E0B0E03700B0C43700B0A8370C17051
:10BA000011690B0E03710B0C43710B0A8371C17129
:10BA100008201063FFF736FC10BD000064F2FF1F22
:10BA2000AE18002070B5FFF70FFC00282ED0FFF7EE
:10BA3000A9FB00282AD016480021017041708170AE
:10BA40000821144AC17091690C240B0E03710B0C70
:10BA500043710B0A8371C1710221017211690B0CD0
:10BA600043720B0A8372C1720B4814630546FCF7DC
:10BA7000E0FD0C2808D9084920461F39FCF7EAFDEB
:10BA800029462046FCF7E6FDFFF7FCFB70BD0000F1
:10BA9000AE18002064F2FF1FA720002070B5FFF74A
:10BAA000D3FB00282ED01B487021017000211A4BB7
:10BAB00041705A68DD681446AC4306D00624847091
:10BAC000282404734173DA600AE0002A1BD0134A69
:10BAD000127B002A1BD00522827020220273417340
:10BAE000C1700171417181710A22C271017241728A
:10BAF0008172C1728173C173017441741220186321
:10BB0000FFF7C0FB70BD022282703A22E6E7817027
:10BB10000173E4E7AE18002064F2FF1F9F200020AD
:10BB200010B50549002008600449FCF793FD04495D
:10BB300007200870012010BD2CF2FF1F9F2000205D
:10BB400064F2FF1F10B5FFF7EBFF10BD70B5FFF7F4
:10BB50007BFB00281DD00F4820220270002141707D
:10BB6000C1770D4C0320226320700C48802100789F
:10BB70000843084900F0FAFC09480546FCF759FD5E
:10BB8000216B401A2946FCF765FD0549012008395B
:10BB9000087370BDAE18002064F2FF1F3923010046
:10BBA000A720002010B508490848FCF753FD0848B5
:10BBB000802100780D220843034900F0D7FC054995
:10BBC0000520087010BD00009F20002055534253EF
:10BBD0003923010064F2FF1F10B5044600F088FC11
:10BBE000200605D52107090F01200004884001E047
:10BBF0000120A04002490A681043086010BD0000FF
:10BC000028F2FF1F10B50A48817C04461F34002922
:10BC100004D001202073FFF7C5FF10BDC07C05498B
:10BC2000C007C00F486005F00BFA0020F2E70000E3
:10BC30008020002064F2FF1F10B503490020087324
:10BC4000FFF7B0FF10BD00009F20002010B5104886
:10BC5000FCF7EFFC0E4C173400280FD020461F389D
:10BC6000007B000604D50B4880210078084301E0E2
:10BC700009480078FFF7B0FF012004E0FFF782FADF
:10BC8000002803D000202073FFF78CFF10BD0000B8
:10BC900088200020392301003A230100704700006A
:10BCA000F7B5074682B0002000903807860E33486B
:10BCB000F500281801904488002F15D130484078AD
:10BCC000002809D07008012181402D48103002F071
:10BCD000D4FC002005B0F0BD2848405D8006000F70
:10BCE0000D2801D1012000900498A04206D2FF2225
:10BCF000EF3224A1002000F0B5FC049C1F4A002074
:10BD0000B101A032891803E0039A0B5C1354401C64
:10BD1000A042F9D31A481430C15D0198174F4180F1
:10BD2000174876080069795DF040C0074906C00FE2
:10BD3000C90F88420FD10398C1798279080200990E
:10BD40001043002901D000280CD001210C48B1403B
:10BD5000103002F092FC0A480069F040C00708D099
:10BD6000C82007E006480121C943103002F06DFCED
:10BD7000F1E7882078552046ACE70000001A002043
:10BD80007CF1FF1F2E2E5C2E2E5C2E2E5C736F75A9
:10BD90007263655C6869635F68616C5C6672656547
:10BDA0007363616C655C757362645F6B696E657407
:10BDB00069732E630000000010B5FFF715FA10BD7F
:10BDC0007CB5534B534D1878534CC006C00E02D06F
:10BDD000012875D185E05149D8780E784D49CA7847
:10BDE0001C318978062810D006DC012809D00228E9
:10BDF00015D0032864D149E007282FD00F285FD140
:10BE00005FE047482060122069E0002E7ED0002AC3
:10BE100003D0444820600A2061E04348FAE7002E3E
:10BE200001D1012A72D0002A03D04048009000209E
:10BE30000CE03F48FAE7009A1378002B05D0D3783E
:10BE400096781B0233439A180092401C8142F2D12B
:10BE500000980178002959D020603CE0002E55D090
:10BE6000002A03D03348009000200CE03248FAE763
:10BE7000009A1378002B05D0D37896781B023343B1
:10BE80009A180092401C8142F2D1E1E72B480090C1
:10BE9000032901D0002009E001F090FE0DE0009997
:10BEA0000A78002A01D051180091401C99788142EB
:10BEB000F5D100980178002928D0206000780EE0A4
:10BEC00024E01F48007800281FD01E480090206002
:10BED000017800291AD0C1788278080210430190B5
:10BEE00005E001A9684600F031F800280DD0A188CE
:10BEF0000198814208D980B21349A0800978491E6F
:10BF0000084201D10120287101207CBD00207CBDA8
:10BF100038F2FF1F1CF2FF1F30F2FF1F1F2301002A
:10BF2000D6230100E9230100E8230100592501007F
:10BF3000CD2401005B2501005A2501005C2501008C
:10BF400020230100942401002423010070B51A4A23
:10BF50001A4CD3781A4A25781478174A194E127950
:10BF6000212B02D0222B24D118E0AA4201D0A242D8
:10BF70001FD1154A1378154A002B127801D1012AD6
:10BF800017D0002A08D0124A02601046114A1288BF
:10BF900080183060092009E00F4AF5E7AA4201D075
:10BFA000A24206D10D4830600D480088086001208B
:10BFB00070BD002070BD000038F2FF1F2523010076
:10BFC0002623010030F2FF1F1F2301001FF2FF1F75
:10BFD00059250100D4230100CD240100B023010024
:10BFE000D223010070B51D481D4B0078C106C90E53
:10BFF0000AD01D461948143D1A4C6A780079012967
:10C0000006D0022928D10AE015480E38186021E030
:10C01000002A21D0A97888421ED2002016E08F2164
:10C020000840010605D50607360F01210904B14075
:10C0300001E001218140002A01D100070CD1A8684C
:10C04000084209D0E868084000D001202070000AAA
:10C0500060701C60012070BD002070BD38F2FF1FB1
:10C0600030F2FF1FEC17002070B5274B02461878FE
:10C070001946C0064988254EC00E04D001282BD091
:10C08000022829D111E0012926D10224002A05D055
:10C09000012000F069FAF088204304E0002000F05D
:10C0A00063FAF088A043F0802CE01C798F200440D4
:10C0B000200605D52007000F01252D04854001E04D
:10C0C0000125A5407078002806D0200704D0B0686C
:10C0D000284201D0002901D0002070BD002A05D0DF
:10C0E000204600F005FAF06828430AE0306928424B
:10C0F00008D12046FEF71AF92046FFF75DFEF068EA
:10C10000A843F060012070BD38F2FF1F1CF2FF1F32
:10C11000F8B55A4800260178C906C90E7ED1574F96
:10C1200080781C3F00287FD0554801783846C07879
:10C13000002901D1012871D0002801D0514C6CE0B8
:10C14000514C6AE06078022804D0042846D00528C3
:10C1500061D145E0494861798078814239D1787070
:10C160002079B8704A490020484A0B8802E0002133
:10C170001154401C9842FAD301250120B968A84007
:10C18000084202D02846FEF73BF901200004B968B6
:10C19000A840084204D0284680210843FEF730F921
:10C1A0006D1C102DE9D33B48B8600020F860386161
:10C1B0003D460120FEF7D8F8E079400604D5E9882D
:10C1C00001200143E98026E0E88840084000E8803B
:10C1D00021E0E078A178000208431DE0E6781AE04B
:10C1E000002E18D1A5788F200540280605D52907EF
:10C1F000090F01200004884001E00120A840B9682F
:10C2000001432046B960FEF79FF82846FEF70AF979
:10C21000284600F01DF92078041901E029E003E028
:10C22000207800288ED11FE0002501247D70802613
:10C230000120B968A040084202D02046FEF7E0F88D
:10C2400001200004B968A040084203D020463043D2
:10C25000FEF7D6F8641C102CEAD3FD600D483D6152
:10C26000B8600020FEF780F804487978807888422A
:10C2700001D00020F8BD0120F8BD000038F2FF1FFA
:10C280001F23010059250100CD2401006FF1FF1F7C
:10C290002223010001000100F0B585B000274448C9
:10C2A0000397019700783E46C006C00E01287DD155
:10C2B0003F491C394878002875D0002002903D483D
:10C2C00002780846C078002A01D101286ED00028E3
:10C2D00001D0394C63E0394C61E06078022804D029
:10C2E00004280DD0052858D11CE0314861791C384C
:10C2F0004078814251D0E078A178000208434DE0B7
:10C30000A778E6780020019029480179B94244D104
:10C310008078B04241D1012002902948C15D03914B
:10C32000C6553AE022490879B84236D1A0788F2222
:10C33000104000900006009804D50007000F01256A
:10C340002D0400E0012585408878B04214D11848BA
:10C350001C38816829438160C168A943C1602046B7
:10C36000FDF7F2FF0098FEF75DF8009800F070F816
:10C3700001982843019010E0039886420DD101985E
:10C3800028420AD10A481C388168A9438160C168E3
:10C39000A943C1600098FEF733F82078041920788B
:10C3A00000289AD1029805B0F0BDFFE70020FAE717
:10C3B00038F2FF1F1F23010059250100CD24010081
:10C3C0006FF1FF1F70B501261A483606066001207E
:10C3D000194D0024810049190C70401C1028F9D314
:10C3E00015211648FCF723F9154816494460846066
:10C3F000C4600470447040224A800A46A0324A60F9
:10C40000C8220A700C72104ACC614A610D21297051
:10C410000E49016108484038017D0222114301752F
:10C42000FF210170017201730476024880380660B2
:10C4300070BD000080E100E0C0200740A01F002088
:10C440007CF1FF1F001A0020201B00205555555578
:10C45000F8B50546154F2C073E4600060121A03EC3
:10C46000240F00280EDA6000401C8140104802F0C2
:10C47000F8F82002C1196001801980314161002162
:10C48000C161F8BD68008140C943094802F0DDF888
:10C4900007486101001D425D881942802202D219BD
:10C4A00042608822725400210172F8BDA01A002057
:10C4B0008CF1FF1F10B5FDF7AFFEFFF743FB10BD7A
:10C4C00002480179DF221140017170478020074046
:10C4D00010B5FEF7A1FBFDF7A3FE10BD002903D1A7
:10C4E00040060249400E0876704700008020074051
:10C4F0000007810E034808180178022211430170D9
:10C5000070470000C020074010B5082202490020F3
:10C51000FFF7C6FB10BD000038F2FF1F10B503483F
:10C5200081680120400201F0B3FC10BD60F0FF1FE4
:10C5300010B500221146802000F018F810BD000050
:10C5400010B50348034902780020FFF7A9FB10BD8E
:10C5500024230100EC170020024801792022114316
:10C56000017170478020074070470000F8B5000750
:10C57000114F840E1646A41CE200D01946803D4699
:10C580000023A001A035451902E0C85CE8545B1CFB
:10C59000B342FAD3094960080969C140C90701D00B
:10C5A000882100E0C821B95401218140034810309E
:10C5B00002F063F83046F8BD001A00207CF1FF1F3E
:10C5C0000020704730B47446641E2578641CAB426A
:10C5D00000D21D46635D5B00E31830BC184710B500
:10C5E000002A06DA52005208D21DD308DB001022BE
:10C5F00003E0D21C93089B000C22002B02D09C1855
:10C600008C4201D9012010BD82188360411802605C
:10C610004160C91AD018884202D810600246F9E772
:10C620000020106010BD0000B0B5044602F040FFCD
:10C63000002804D0034F0249BC46206800DFB0BD8B
:10C64000FFFF00009DEF0000B0B5044602F030FF90
:10C65000002803D0024F2068BC4600DFB0BD0000B8
:10C66000F5EE0000F8B516460F4600281BD1EFF393
:10C670001080C507ED0F72B600231A4619461846FA
:10C6800000F006FA040003D13146384600F044FABF
:10C69000002D00D162B6002C05D1EFF30380C00657
:10C6A00001D104F0C1FFF8BD7047000010B5282289
:10C6B0000D490E48FBF70CFE05F08CF80C4805F010
:10C6C00083F804F085FE0B49012208600A495202F2
:10C6D0000A600A4A012111600949400A08600A49B2
:10C6E0000848086010BD0000441F0100D405002068
:10C6F00059D0000098F2FF1F74F2FF1F78F2FF1F5D
:10C700007CF2FF1FD403002080F2FF1F00B591B020
:10C71000FDF7BAFB402801D9402001E000280DD0E8
:10C7200081B2684604F06CF8010007D06846FDF756
:10C73000D3FB002802D0012001F0D6FB04F0EEF874
:10C740000146402801D9402101E000290DD068466A
:10C75000FDF7A6FB002808D081B2684604F0BEF8B9
:10C76000002802D0012001F0BFFB01F0D5FB11B081
:10C7700000BD0000044841788078814201D001204A
:10C780007047002070470000F4F0FF1F30B50546E9
:10C79000EFF31080C407E40F72B6284600F007F8E4
:10C7A000A968081A401E002C00D162B630BDEFF314
:10C7B0001081CB07DB0F72B606C808388A4201D356
:10C7C000501A02E080681018401A002B00D162B69F
:10C7D0007047EFF31083DB07DB0F72B68260C16036
:10C7E000002101604160002B00D162B6704700005B
:10C7F00070B50446EFF31080C507ED0F72B603CC99
:10C80000083C884201D0012000E0002043220DA115
:10C81000FFF728FFE16820680E5C401C2060A168DB
:10C8200088420AD3884201D1012000E0002048223A
:10C8300004A1FFF717FF00202060002D00D162B691
:10C84000304670BD2E2E5C2E2E5C2E2E5C736F75C6
:10C850007263655C6461706C696E6B5C6369726362
:10C860005F6275662E63000070B50446EFF31080BA
:10C87000C507ED0F72B66268E06881546068401CBD
:10C880006060A16888420AD3884201D1012000E09B
:10C890000020312209A1FFF7E5FE0020606003CCF3
:10C8A000884201D0012000E00020362203A1FFF7DA
:10C8B000D9FE002D00D162B670BD00002E2E5C2E78
:10C8C0002E5C2E2E5C736F757263655C6461706C98
:10C8D000696E6B5C636972635F6275662E630000EC
:10C8E000F8B514460E460746FFF761FF844200D2B2
:10C8F00020460546002404E03846FFF779FF30550E
:10C90000641CAC42F8D32846F8BDF8B514460E4670
:10C910000746FFF73BFF844200D22046054600242D
:10C9200004E0315D3846FFF79FFF641CAC42F8D34A
:10C930002846F8BD10B50C48C0780121C009484010
:10C940002A220AA1FFF78EFE144901246402084638
:10C9500022461038FFF73DFF11492246084610389D
:10C96000FFF737FF10BD000000B006402E2E5C2EF2
:10C970002E5C2E2E5C736F757263655C6869635FF5
:10C9800068616C5C667265657363616C655C6B6C39
:10C9900032367A5C756172742E630000DC130020FD
:10C9A000EC15002010B500F089FC10BD10B500F0AA
:10C9B00085FC10BD02488079002800D00120704716
:10C9C000642000200248C079002800D00120704770
:10C9D000642000200248007A002800D0012070471F
:10C9E00064200020F8B54B211F48FBF71EFE4B27A3
:10C9F0001E48FBF71EFE1C4C1D4E1C4D4034B04221
:10CA000013D168792A79010211434B2901D20A46D0
:10CA100000E04B224B2901D90F4600E04B27134978
:10CA20001148FBF751FD0020E0714B210F48FBF747
:10CA3000FCFD0E493046FBF70DFE2F71390A697176
:10CA400009494122C91DE81DFBF73EFD607A227AA3
:10CA500001020648114340300172090A4172A17A6D
:10CA6000817200F08BF8F8BD18200020002F002004
:10CA7000646C766B10B541210448FBF7D6FD034882
:10CA8000002139300172417210BD0000072F0020D3
:10CA9000FFB581B01D4616460F461A48FBF78CFCC1
:10CAA000441C0198002802D03946FBF7BEFD002047
:10CAB000002E00D03080002D00D028701149C91FF1
:10CAC000C87900281BD0BC4201D8224602E0E01BF6
:10CAD00041183A460B4C0198C91D3934002804D03E
:10CAE000607A237A000218433080002E02D0019829
:10CAF000FBF7EAFC002D01D0A07A2870012005B0D8
:10CB0000F0BD0000072F002002488079002800D0E7
:10CB100001207047002F0020F3B581B00746FBF7D6
:10CB20004BFC124D441C41263146E81DFBF77DFDB0
:10CB3000412C02D83946224602E0413CE1193246F6
:10CB4000E81DFBF7C1FC094C029840342072000A32
:10CB5000607200F00EF9002801D0012004E000F01E
:10CB60000AF9002800D00220A072FEBD002F00208C
:10CB70000149887170470000002F002070B5002225
:10CB800011461046FCF758FD092220492048FBF7C2
:10CB90009BFC204C22781046627812021043A27847
:10CBA000E1781204104309061B4D0843A8420FD137
:10CBB0006079217900020843092804D2607921793B
:10CBC00002020A4300E0092212491148FBF77CFCEB
:10CBD0000F492846FBF73EFD0D4909208880207843
:10CBE0000146607800020143A07800040143E07828
:10CBF00000060143A94205D160792179000208436A
:10CC0000092802D2024801F047FC70BD3E2601000F
:10CC10006420002000FC0100646C766B10B50349B1
:10CC20008871084601F038FC10BD00006420002027
:10CC300010B50349C871084601F02EFC10BD000074
:10CC40006420002010B503490872084601F024FC56
:10CC500010BD000064200020F8B50024E4430F4616
:10CC60000646002512E0705D082101F01DFF000658
:10CC700044400A490820002C02DA64004C4000E0DD
:10CC80006400401E0006000EF5D16D1CBD42EADBBB
:10CC90002021204601F008FFC043F8BDB71DC104A4
:10CCA000F8B50E4617462021C04301F0FDFE0446AC
:10CCB000002512E0705D082101F0F6FE00064440F8
:10CCC0000A490820002C02DA64004C4000E06400AD
:10CCD000401E0006000EF5D16D1CBD42EADB20218E
:10CCE000204601F0E1FEC043F8BD0000B71DC104BD
:10CCF00070B514460D460646FF2A07D8FF22DD32DE
:10CD00000AA10020FFF7AEFC022070BD00F0C6FCB7
:10CD1000002801D00E2070BD2A462146304600F082
:10CD200029FE0028F7D01C2070BD00002E2E5C2E9E
:10CD30002E5C2E2E5C736F757263655C6461706C23
:10CD4000696E6B5C647261672D6E2D64726F705CCE
:10CD50006961705F666C6173685F696E74662E638B
:10CD600000000000C1060007000F002900DB0930A9
:10CD70007047002070470120704710B500231A4605
:10CD800000F0D6FA002800D0012010BD10B504F044
:10CD90002FFA012800D0002010BD0000F8B5164E73
:10CDA0001F2530780024AD02012806D0FF2237323B
:10CDB00012A10020FFF756FC0AE0B07802270028F5
:10CDC00008D0FF223D320DA10020FFF74BFC377049
:10CDD0000220F8BD204600F02DF8002802D0377060
:10CDE0001E20F8BD012080022418AC42F2D301209D
:10CDF000B0700020F8BD0000D0F0FF1F2E2E5C2E7A
:10CE00002E5C2E2E5C736F757263655C6461706C52
:10CE1000696E6B5C647261672D6E2D64726F705CFD
:10CE20006961705F666C6173685F696E74662E63BA
:10CE300000000000F8B5254E05463078012805D0E1
:10CE4000FE2223A10020FFF70DFC1AE00127BF02FC
:10CE500039462846FBF706FC0224002902D0FF22AF
:10CE6000073209E0F07800280DD0F168B06840186A
:10CE7000A84208D0FF220E3215A10020FFF7F2FBD6
:10CE800034700220F8BD01227F20D20380020121EC
:10CE9000954203D3854201D2002000E008460028D5
:10CEA00010D0F170F7602846B56000F0AFFF22287F
:10CEB00003D00028E6D03470F8BD284600F0EEFB21
:10CEC0000028F9D034701D20F8BD0000D0F0FF1FFD
:10CED0002E2E5C2E2E5C2E2E5C736F757263655C3D
:10CEE0006461706C696E6B5C647261672D6E2D6439
:10CEF000726F705C6961705F666C6173685F696EA8
:10CF000074662E630000000001208002704700005C
:10CF100010B5242804D2064980000858002805D1FD
:10CF2000E12204A10020FFF79DFB0AA010BD000034
:10CF30003C1E01002E2E5C2E2E5C2E2E5C736F7517
:10CF40007263655C6461706C696E6B5C6572726F54
:10CF5000722E63000000000001460120242901D246
:10CF60000148405C704700001CF0FF1FF3B581B022
:10CF70000446009000E0641C2078402802D000287D
:10CF8000F9D15EE06078622848D012DC522854D093
:10CF900008DC422842D0442849D0482841D04D28B6
:10CFA00017D134E054283FD0552833D0562810D11B
:10CFB00040E0722841D006DC642838D0682830D0A0
:10CFC0006D2806D123E074282ED0752822D076282B
:10CFD00030D01DA52046FBF7EFF907462846FBF7A2
:10CFE000EBF90646A019029B009AC119D218891EB6
:10CFF000914225D2BA1EA11CFBF7CAFA3246294635
:10D000002046FBF761FA20780028B5D119E000F03E
:10D01000C9FD01E000F0CEFD0546DBE700F074FD40
:10D02000FAE700F09FFDF7E700F0C0FDF4E700F03D
:10D0300095FDF1E700F0C6FDEEE705480568C9E794
:10D04000E4190098201AFEBD4552524F52000000CC
:10D05000201E010070470000F8B51E4615460C461C
:10D06000074604F04DFC2048007803280CD01E48E9
:10D070002038022C09D0002C19D0012C04D10068D2
:10D08000A84201D103F0AAF9F8BD0068A842FBD17B
:10D09000304604F075F90446304604F077F9064648
:10D0A000384602F0D7FB03462246314617E03846A1
:10D0B00002F0D0FB0328E7D0304604F05FF9800788
:10D0C000E2D4384602F0C6FB0746304604F058F971
:10D0D0000446304604F05AF901463B4622462846AB
:10D0E00003F052FAF8BD0000F4050020F7B51C4E1D
:10D0F0000446B0785502174600280BD129460198FE
:10D1000002F064FB032802D0214603F0E9F9B0786D
:10D11000002812D0124920394868A0420DD8C868AA
:10D12000A0420BD0A04208D90869401C00D10C6174
:10D130000869A04200D204460C61FEBDC8692A46B7
:10D140008018C861E019C860F078002803D000207A
:10D1500003F068FAFEBD2046019903F06BF9FEBDAD
:10D16000F4050020F0B585B018A109680491037892
:10D17000002104AA545C9C4226D0491C0329F9D3FF
:10D1800013A10A688E6896464A68CD6800239446C3
:10D19000C25C714664466F46039552C711466139B9
:10D1A000192911D9202A01D2052A0DD100216C4656
:10D1B000675C974208D0491C1029F9D35B1C0B2BE4
:10D1C000E6D3012005B0F0BD0020FBE7E50020001C
:10D1D000222A2B2C2E2F3A3B3C3D3E3F5B5C5D7C54
:10D1E00070B50446204600F01AF80546002D00D020
:10D1F00070BD044902480968884700BFF8E700008D
:10D200000C3000F024F1FF1F01680122920211434B
:10D210000160BFF36F8FBFF34F8F704770470028D7
:10D2200007D0C069002802D00068022803D06D2012
:10D230007047042070470020704710B5002806D0C2
:10D240005B1E194201D11A4203D0652010BD042093
:10D2500010BD03688B4204D84068891818188842AA
:10D2600001D2662010BD002010BD00000349884295
:10D2700001D06B2070470020704700006B66656B23
:10D2800010B50C4C70212170FFF7C9FF002807D1A1
:10D2900009492046096888472078810601D567201A
:10D2A00010BDC10601D5682010BDC007FCD06920A3
:10D2B00010BD00000000024020F1FF1F70B50E4DB0
:10D2C00000202C78002C0FD000212970A97800298B
:10D2D00001D000F0FDFA022C05D06978032902D0B4
:10D2E000002800D1212070BDFF22343203A100208C
:10D2F000FFF7B8F9022070BDA4F0FF1F2E2E5C2EA0
:10D300002E5C2E2E5C736F757263655C6461706C4D
:10D31000696E6B5C647261672D6E2D64726F705CF8
:10D32000666C6173685F6465636F6465722E630029
:10D330003EB51D460446302901D3012000E00020FF
:10D34000402212A1FFF78EF921460C2220316846B7
:10D35000FBF7BAF81A49019888420BD1194900988D
:10D36000884201D102203EBD1649FC3988420AD1CB
:10D3700001203EBD204603F015FF002801D1002DFD
:10D3800001D003203EBD00203EBD00002E2E5C2EAD
:10D390002E5C2E2E5C736F757263655C6461706CBD
:10D3A000696E6B5C647261672D6E2D64726F705C68
:10D3B000666C6173685F6465636F6465722E630099
:10D3C000019996978F9E939BFFB581B007460024E5
:10D3D00004982546002813D00A98002810D00499F4
:10D3E000002008600A9906460860FFF7C2FC002882
:10D3F00012D00120C003022F04D0032F0AD013E063
:10D40000652237E00399002904D00299814201D0B6
:10D4100018240AE0064615E0FFF7ADFC002803D00B
:10D42000012F07D0032F0FD01924FFF7CBFA0028C4
:10D430000FD010E00398002804D00298002801D0F3
:10D440001724F2E70E4802E00E4886680E48056889
:10D45000EBE7012F04D0002C04D0204605B0F0BD2E
:10D460001924FAE7002D04D0049806600A98056094
:10D47000F3E79D2205A10020FFF7F4F80220EDE775
:10D48000401F0100B4F1FF1F0C1F01002E2E5C2E67
:10D490002E5C2E2E5C736F757263655C6461706CBC
:10D4A000696E6B5C647261672D6E2D64726F705C67
:10D4B000666C6173685F6465636F6465722E630098
:10D4C00010B50D4C2078002806D0AC220BA100200E
:10D4D000FFF7C8F8022010BDFF2230211448FBF7E7
:10D4E0007FF801202070002060706060A060E06024
:10D4F000A070E07010BD0000A4F0FF1F2E2E5C2E67
:10D500002E5C2E2E5C736F757263655C6461706C4B
:10D51000696E6B5C647261672D6E2D64726F705CF6
:10D52000666C6173685F6465636F6465722E630027
:10D5300058FBFF1FF7B5494F0546387884B01446AD
:10D54000012807D0C12246A10020FFF78BF8022056
:10D5500007B0F0BDF878002803D1BD600120FD6060
:10D56000F870B878002856D1F9688D4201D10120B1
:10D5700000E000200919F96000282FD078683021D8
:10D580000E1AA64200D91646424932460818059995
:10D59000FAF79AFF7868A41B801978600599AD198D
:10D5A00089190591302829D316D00020E3222CA117
:10D5B000FFF758F801233748BA687968FFF7B8FED3
:10D5C000787001A8009002AB01227878B968FFF763
:10D5D000FBFE002826D103E00120E7E70320EFE768
:10D5E000B87801267040FC221DA1FFF73BF8019896
:10D5F00000F008F9002815D1BE7002E0B8780028C4
:10D6000013D024497A68B86800F070F8002809D16E
:10D61000B878002809D022462846059900F066F817
:10D62000002802D00321397092E77878012804D0CD
:10D63000022805D003280FD105E01F20800204E056
:10D640007F20800201E01448C0682919814203D379
:10D650000220387010207BE7002079E7A4F0FF1F3C
:10D660002E2E5C2E2E5C2E2E5C736F757263655CA5
:10D670006461706C696E6B5C647261672D6E2D64A1
:10D68000726F705C666C6173685F6465636F64651C
:10D69000722E630058FBFF1FB4F1FF1F10B5EFF3AC
:10D6A0001081CC07E40F72B6FBF70CFE002C00D102
:10D6B00062B610BD70B50E460500144613D0202189
:10D6C0001046FAF7B4FF2660E8686060A9686868E9
:10D6D000FAF7C8FFA0600420E06020616061A061EB
:10D6E000E061002070BD042070BD0000F7B5364F2A
:10D6F0000446787800251646012805D07B2233A100
:10D700000020FEF7AFFF09E07869844208D2832247
:10D710002EA10020FEF7A6FF022078700220FEBD99
:10D72000F878002809D1204601F048FF050002D012
:10D730000220787045E00120F870234FBA687868BD
:10D740008118A14214D8B9698B682D499847050002
:10D7500003D01D490220487033E0FF222848B968F1
:10D76000FAF73EFF0120B870B96878684018786011
:10D77000002E24D03969F8684018A04204D8204609
:10D7800001F01CFF0500E4D10F4948688968201AA0
:10D790000F1ABE4200D2374619493A460818019975
:10D7A000FAF792FE002F08D000200749E41988708C
:10D7B0000198C019F61B0190BFE70120F5E7024868
:10D7C00044612846FEBD0000B4F0FF1F2E2E5C2EE3
:10D7D0002E5C2E2E5C736F757263655C6461706C79
:10D7E000696E6B5C647261672D6E2D64726F705C24
:10D7F000666C6173685F6D616E616765722E630050
:10D8000088FBFF1F70B5234D04466878002801D0BF
:10D8100047222CE0002C29D06068002826D0A06880
:10D82000002823D0E068002820D0206900281DD0DF
:10D83000606900281AD0A069002817D00121FF22B2
:10D8400089021548FAF7CCFE0126AE700020E87078
:10D850006860A860E8602861AC6168612068804702
:10D86000040009D12878002807D010E04D220BA130
:10D870000020FEF7F7FE022070BDA869006980470E
:10D88000040004D0A86940688047204670BD6E70CF
:10D89000FBE70000B4F0FF1F88FBFF1F2E2E5C2E5D
:10D8A0002E5C2E2E5C736F757263655C6461706CA8
:10D8B000696E6B5C647261672D6E2D64726F705C53
:10D8C000666C6173685F6D616E616765722E63007F
:10D8D00070B5194C00256078002802D0012807D0C7
:10D8E00010E0CB2215A10020FEF7BCFE022070BD87
:10D8F000A078002806D1A0691D498368A2686068E5
:10D9000098470546A0694068804706460121FF22E6
:10D9100089021748FAF764FE01200021A070E17027
:10D920006160A160E160216161616170002E01D0E0
:10D93000304670BD284670BDB4F0FF1F2E2E5C2E01
:10D940002E5C2E2E5C736F757263655C6461706C07
:10D95000696E6B5C647261672D6E2D64726F705CB2
:10D96000666C6173685F6D616E616765722E6300DE
:10D9700088FBFF1F10B5EFF31083DC07E40F72B6CE
:10D98000FBF796FE002C00D162B610BD802101701D
:10D9900001780906FCD57047704700000346012254
:10D9A00001490020184700000806002002480069CD
:10D9B0008007C017401C704740F00F4000207047A0
:10D9C00008B51A48816B1F2252021143816318491E
:10D9D0008015086108610861164A5060886000205F
:10D9E00000F03AF8002000F02DF8002000F03EF89A
:10D9F00011480168042319430160426910210A4358
:10DA0000426142690A43426142690A434261416993
:10DA100019434161084880384169022291434161BC
:10DA200006480090401E0090FCD108BD00800440D4
:10DA300000C0044000A00440C0F00F4040420F006E
:10DA40007047000010220349012801D04A60704746
:10DA50008A607047C0F00F4010220349012801D0AE
:10DA60004A6070478A607047C0F00F401022034937
:10DA7000012801D04A6070478A607047C0F00F40AB
:10DA800010B50C4CA068002812D0401EA060206980
:10DA90000949800141184022002003F0CDF9206996
:10DAA0000521401CFAF7DEFD21616068401C6060C2
:10DAB00010BD000008F0FF1FC0F2FF1F70B50F4C33
:10DAC00000206060A060E0600D492061FFF7C4F8AD
