:04000005000080C1B6
:020000040000FA
:10800000A82200200983000011830000FD950000D4
:108010000000000000000000000000004141FEDF01
:108020008F9E939B01999697FD000000B9810000F7
:1080300000000000000000005D820000BD82000022
:108040001B8300001B8300001B8300001B830000B8
:108050001B8300001B8300001B8300001B830000A8
:108060001B8300001B8300001B8300001B83000098
:108070001B830000299D00001B8300001B83000060
:108080001B8300001B8300001B8300001B83000078
:108090001B8300001B8300001B8300001B83000068
:1080A000099E00001B8300001B8300001B8300004F
:1080B0001B8300001B8300001B8300001B83000048
:1080C00000F002F800F030F80CA030C8083824188E
:1080D0002D18A246671EAB4654465D46AC4201D100
:1080E00000F022F87E460F3E0FCCB6460126334202
:1080F00000D0FB1AA246AB463343184710B000002D
:1081000030B000000023002400250026103A01D3DF
:1081100078C1FBD8520700D330C100D50B6070473F
:108120001FB51FBD10B510BD00F076FB1146FFF75F
:10813000F7FF05F0DFFE00F08EFB03B4FFF7F2FF60
:1081400003BC00F03FFB000080F309887047EFF3A9
:1081500009807047684680F3098806480078C007A0
:1081600003D1032080F314887047022080F3148821
:1081700070470000341F0100064B9C46EFF3058357
:108180001B0605D1EFF31483DB0701D000DF704736
:108190006047000071EB0000064B9C46EFF305833F
:1081A0001B0605D1EFF31483DB0701D000DF704716
:1081B0006047000085ED0000EFF309808169891EAA
:1081C0000978002933D1A6461FC8A4467446E04763
:1081D0001F4B06CB914224D0083B002910D00CB491
:1081E000203101234B70EFF30983203B4B60F0C338
:1081F00044464D4656465F46F0C307F059F80CBC5E
:108200001A60203253681033F0CBA046A946B2461C
:10821000BB4683F30988203BF0CB5078002803D07D
:108220001078EFF3098318600223DB43184710B579
:10823000084A1268914209D8074C89006458A6463A
:108240001FC8A446F047EFF309840FC410BD000017
:10825000B4F1FF1FFC880000FC88000006F00EFF50
:10826000154B06CB914223D0083B0CB420310023A0
:108270004B70EFF30983203B4B60F0C344464D46FF
:1082800056465F46F0C307F013F80CBC1A60203264
:1082900053681033F0CBA046A946B246BB4683F3E1
:1082A0000988203BF0CB5078002801D01078186165
:1082B0000223DB4318470000B4F1FF1F07F0B0F8BA
:1082C000CEE7000005F0EEFF07F0AAF8C8E70000CF
:1082D00070B505460C46164602E00FCC0FC5103EA1
:1082E000102EFAD2082E02D303CC03C5083E042E6A
:1082F00007D301CC01C5361F03E021782970641C27
:108300006D1C761EF9D270BD0748804707480047AC
:10831000FEE7FEE7FEE7FEE7FEE7FEE70448054965
:10832000054A064B70470000799C0000C1800000A0
:10833000A8200020A8220020A8210020A821002099
:10834000004870474420002010B5002000F040FA9B
:10835000FFF7E8FE012000F035FA10BD034610B526
:108360000B439B070FD1042A0DD308C810C9121F55
:10837000A342F8D018BA21BA884201D9012010BD11
:108380000020C04310BD002A03D0D30703D0521CE5
:1083900007E0002010BD03780C78401C491C1B1B13
:1083A00007D103780C78401C491C1B1B01D1921E7D
:1083B000F1D1184610BD000030B5441C03E001782F
:1083C000401C00290DD08107F9D10B4BDD0104C8F9
:1083D000D11A91432940FAD0001B0A0603D0C01ECF
:1083E00030BD001B30BD0A0401D0801E30BD090223
:1083F000FCD0401E30BD00000101010170477047F4
:10840000FFFFFFFFFFFFFFFFFFFFFFFFFEFFFFFF7D
:108410000346F0B50B439B072DD1244DEF01042AF1
:1084200029D308C810C95E1B9E43121F3E4017D0B7
:10843000D8B2E1B2401A3106014310D198B2A1B2CC
:10844000401A310401430AD118022102000A090A24
:10845000401A3102014302D1180E210E401AF0BD1C
:10846000A342DCD018BA21BA884201D90120F0BD5C
:108470000020C043F0BD002A01D10020F0BD0378E8
:108480000C78401C491C002B0DD0A3420BD1521E6E
:1084900009D003780C78401C491C002B03D0A34260
:1084A00001D1521EEBD1181BF0BD000001010101EA
:1084B000421E5378521C002BFBD10B78491C1370C1
:1084C000521C002BF9D17047F8B5042A2CD383072E
:1084D00012D00B78491C0370401C521E83070BD02E
:1084E0000B78491C0370401C521E830704D00B7884
:1084F000491C0370401C521E8B079B0F05D0C91AE4
:10850000DF002023DE1B08C90AE0FFF7E1FEF8BD0B
:108510001D4608C9FD401C46B4402C4310C0121F24
:10852000042AF5D2F308C91A521EF0D40B78491C5C
:108530000370401C521EEAD40B78491C0370401C87
:10854000012AE4D409780170F8BD431A70B593424A
:108550001BD28918801804E0491E401E0B78521E59
:1085600003709307F8D106E01039103878C9103934
:1085700078C01038103A102AF6D203E0091F001F05
:108580000B680360121FF9D570BDFFF7A1FE70BD27
:10859000F8B5064614460843800707D0751AA54269
:1085A00019D20819102D13D2311907E03046FFF700
:1085B000CCFFF8BD401E491E02780A70641EF9D235
:1085C000F8BD471B2A463946FFF77EFF641B384635
:1085D000A542F6D3011B22463046FFF775FFF8BDD2
:1085E000D2B210B513029A1813049A1800F00EF8BC
:1085F00010BD01E004C0091F0429FBD28B0701D57F
:108600000280801CC90700D00270704700290BD07F
:10861000C30702D00270401C491E022904D38307FD
:1086200002D50280801C891EE3E70022EEE70022CB
:10863000DFE70378C2781946437812061B02194314
:108640008378C0781B04194311430902090A000604
:1086500008437047020A08704A70020C8A70020EC2
:10866000CA707047002203098B422CD3030A8B4245
:1086700011D300239C464EE003460B433CD400221A
:1086800043088B4231D303098B421CD3030A8B422C
:1086900001D394463FE0C3098B4201D3CB01C01AFA
:1086A000524183098B4201D38B01C01A52414309C5
:1086B0008B4201D34B01C01A524103098B4201D3B3
:1086C0000B01C01A5241C3088B4201D3CB00C01A20
:1086D000524183088B4201D38B00C01A5241430898
:1086E0008B4201D34B00C01A5241411A00D20146BD
:1086F0005241104670475DE0CA0F00D04942031056
:1087000000D34042534000229C4603098B422DD3A4
:10871000030A8B4212D3FC22890112BA030A8B424C
:108720000CD3890192118B4208D3890192118B429B
:1087300004D389013AD0921100E08909C3098B4220
:1087400001D3CB01C01A524183098B4201D38B0163
:10875000C01A524143098B4201D34B01C01A524106
:1087600003098B4201D30B01C01A5241C3088B424B
:1087700001D3CB00C01A524183088B4201D38B0036
:10878000C01A5241D9D243088B4201D34B00C01AC0
:108790005241411A00D20146634652415B101046D5
:1087A00001D34042002B00D54942704763465B101D
:1087B00000D3404201B50020C046C04602BD70470C
:1087C0007047704701491820ABBEFEE72600020043
:1087D00010B500F009F800F001F810BD10B5002840
:1087E00001D0FFF7EFFF10BD10B5002102A000F08F
:1087F0003AF8012010BD0000534947414252543A13
:108800002041626E6F726D616C207465726D696E6D
:108810006174696F6E0000007546FFF791FDAE460A
:10882000050069465346C008C000854618B020B50B
:10883000FFF774FD60BC00274908B6460026C0C596
:10884000C0C5C0C5C0C5C0C5C0C5C0C5C0C5403D08
:1088500049008D46704710B50446C046C0462046C4
:10886000FFF76BFC10BD70B505460C460A2000E012
:108870006D1C00F012F8002D06D028780028F7D1E2
:1088800002E0641C00F009F8002C02D020780028D7
:10889000F7D10A2000F001F870BD08B569460870EC
:1088A0000320ABBE08BD70B58C180578401C6B0763
:1088B0005B0F01D10378401C2A1106D10278401CBD
:1088C00003E00678401C0E70491C5B1EF9D12B0793
:1088D00005D40023521E0DD40B70491CFAE703780F
:1088E000401CCB1A921C03E01D780D70491C5B1CC8
:1088F000521EF9D5A142D8D3002070BD000000005F
:10890000F8B502787F2A02D000F018F8F8BD0A7096
:108910004478861C4C708D1C074F08E02946304671
:1089200000F00CF8010C3F188E1980B24519641E36
:10893000F4D23846F8BD000002000200F8B5027813
:108940001346803B1F2B02D800F036F9F8BD0A70A1
:1089500007784C1C421C0025FF219048904E3B009C
:1089600003F056FE170D37405DB7C4E1F2F16E77A4
:10897000F2F2F2F2F27B8085949EB45AF200117802
:10898000601C0022062920D006DC0B0003F040FE0C
:10899000051D1D1D1D0D1D00F0290CD0FD2914D035
:1089A000FE290FD0FF2910D107E005227D49FFF7EE
:1089B0008BFD052209E0112105E040210170457081
:1089C000022202E00521017001227748227010186E
:1089D000F8BD107800283AD0012838D021707248AC
:1089E000401EC4E01178002903D0012902D00021E3
:1089F00012E00121012202706C48202343604025CF
:108A000045608215426047691F43476143692B43B4
:108A1000436143691343436121703046A7E0057009
:108A20006248426920218A434261426940218A4367
:108A30004261426981158A4342612570012096E0B6
:108A400050781178000208430001401EFDD12570C6
:108A5000C5E765702570022089E02146104600F0C8
:108A600085FB84E02146104600F050FB7FE017783C
:108A7000511C002F01D1FF270137384601F0D6F8ED
:108A8000FF1D2570F8080004801970E011788A072E
:108A9000920F521C49070275C90F41752570BCE73A
:108AA0002170012113780C46521C0AE01078521CE8
:108AB0008006800E00D14020C01DC0081218091881
:108AC000491C5B1EF2D20804204350E0107821704C
:108AD000D9E71178017293785778190239434181A7
:108AE0001179D27809021143818150E00078214642
:108AF000012814D01346521C1078521C002808D0AC
:108B00001778521CBC0701D5FC0600D5121D401E6B
:108B1000F6D1D01A0D7000044D70801C27E010466D
:108B200000F0D0F823E000781746214601280CD049
:108B30000D704D70A5700320F9781D4A890708D57E
:108B4000104301460CE00DE023E0104600F04CFA23
:108B5000F2E7B9787B78090219438904891801433F
:108B6000084604E00078012803D0217011488019DC
:108B7000F8BD1746501CFFF75CFD39790002000A6A
:108B80000906084300906946002000F0DDFD2570CD
:108B9000ECE7203CE1773046F8BD00008CF4FF1F85
:108BA000010001004C1F01000200020080F00F4094
:108BB0000000040001000500FEB502780A704D1C9B
:108BC00001783D4C401C80390646671C0B0003F0C1
:108BD0001FFD0D0816223840717171475560646899
:108BE000710005F013F80746FFF7E6FBC6B22E70DA
:108BF000681C32463946FFF767FCA41927E00724B2
:108C0000684601F0D3FA224669462846FFF75CFC25
:108C1000294C08344EE0684601F0C8FA0020029062
:108C20000422314602A8FFF74FFC029800906846E4
:108C300001F0DCFA002001F059FB012028701F4CE4
:108C400038E03E21681C07F065FE28702418641C7B
:108C500030E03778401C394607F0CAFE012025E095
:108C6000012028703078002805D0012803D000208A
:108C70002870134C1EE005F0C1FAFAE701202870B5
:108C800003F0B2FE002802D1022007F00FFC3C46A0
:108C900010E0007806F072FDEAE706F03FFD28706C
:108CA000F5E73778401C394606F008FE287039048D
:108CB000081904192046FEBD01000100020005004C
:108CC00002000200F0B589B00890044600208D1C17
:108CD0000391C34902900870049005906678A41C23
:108CE000002E6FD02778641CB9076CD50499002931
:108CF00035D0BC48408901901120384001280FD15F
:108D00006946384600F020FD02281AD10199491E13
:108D10000191491C03D0B24909780029F0D012E131
:108D200069460E2000F010FD022808D10199491E65
:108D30000191491C03D0AA4909780029F0D00021EB
:108D400004910128EBD1009929700099090A6970F2
:108D50000099090CA9700099090EE9702D1DF906FA
:108D600058D52046FFF765FCE1780002000A0906A5
:108D7000084307909B48241D80890690F80715D06A
:108D80009848408901900021384600F0DDFC022817
:108D900002D00128C3D109E00199491E0191491C63
:108DA000BDD08F4909780029EDD0CCE08D484089AD
:108DB00001906946384600F0C7FC022804D001281B
:108DC0001CD10BE0E0E064E00199491E0191491CCF
:108DD00014D0834909780029EBD00FE08149009A2B
:108DE00009691140079A914208D00699491E0691D7
:108DF000491C03D07A4909780029D7D07949009ACB
:108E000009691140079A914201D0102108430128B5
:108E10001AD13CE0734949890191F90718D00499A6
:108E2000002934D10021384600F08EFC022802D0FF
:108E3000012809D109E00199491E0191491C03D07B
:108E4000674909780029EDD07DE0012104911EE0F9
:108E50006946384600F078FC022802D0012872D119
:108E600009E00199491E0191491C6CD05C490978BF
:108E70000029EDD067E0009929700099090A69700E
:108E80000099090CA9700099090EE9702D1D0021A7
:108E90004DE00498002823D052484089019069464B
:108EA0000E2000F051FC022802D001284BD109E02D
:108EB0000199491E0191491C45D049490978002969
:108EC000EDD040E0009828700098000A6870009883
:108ED000000CA8700098000EE87000202D1D049072
:108EE0002046FFF7A6FBE1780002000A09060843C6
:108EF000241D0090B90603D53A490861012017E006
:108F00003848408901906946384600F01DFC022827
:108F100002D0012817D109E00199491E0191491C8D
:108F200011D02F4909780029EDD00CE001210591DD
:108F30000299491C02912A490978002903D1761E19
:108F400000D0CFE60AE0002E08D02178641C8A0702
:108F500001D5C90600D5241D761EF4E7012832D1BB
:108F6000049900291ED01F481D4F468969460E20CE
:108F700000F0EAFB022802D0012824D105E0761E89
:108F800021D339780029F1D01DE00099297000998A
:108F9000090A69700099090CA9700099090EE97015
:108FA0002D1D10E0059900290DD00E480C4F468963
:108FB00000210E2000F0C8FB022804D1761E02D347
:108FC00039780029F4D0039A0299117003994870F6
:108FD00008980399201A0004691A084309B0F0BDE3
:108FE00008F0FF1F8CF4FF1FF3B583B00025CE1CE3
:108FF00002914449024628460D70917853780C023C
:10900000D21C1C4373D01178521C00910392890723
:109010005DD50099C90737D03B48478900210098A2
:1090200000F092FB022802D0012860D12CE07F1EC4
:109030005DD3344909780029F0D058E0002C04D1E0
:109040000098C00701D00E2000902F48478901A941
:10905000009800F079FB022802D0012847D106E0F1
:109060007F1E44D3274909780029F0D03FE00199B9
:10907000317001996D1C090A71700199090CB17068
:109080000199090EF170361D641ED7D22FE00398A6
:10909000FFF7CFFA03990002C978000A09060843CE
:1090A00001900398001D03901748478901A9009873
:1090B00000F04AFB022802D0012818D106E07F1EEA
:1090C00015D3104909780029F0D010E06D1C641EFA
:1090D000DDD20D480B4F448900210E2000F034FBF7
:1090E000022804D1641E02D339780029F4D00299F1
:1090F0000D70029A290A517002998870029805B081
:10910000301AF0BD08F0FF1F8CF4FF1FF8B50C46B5
:109110000546FFF78EFA0102E878090A0006104FAB
:10912000014307D00F4800260F4D814205D301208F
:10913000687010E0FF2020700FE00A486E70401E3B
:109140000818FFF78FFA012804D90321401CFFF704
:1091500089FA00E00120686026703846F8BD0000FA
:109160000100040000366E018CF4FF1FF8B50746BD
:10917000057844780E46801CFFF75BFA0102787987
:10918000090A000601432F48E20706D0EB07202218
:10919000002B01D0426000E08260A20706D5AB0739
:1091A0004022002B01DA426000E08260220606D5F0
:1091B000EA09D307244A01D0426000E0826000231C
:1091C00000292ED0214A914200D91146204A9361AC
:1091D00030277943516105211161E10704D001690C
:1091E0008906C90FA94217D1A10705D501696F08E2
:1091F0004906C90FB9420FD1610701D5A9080BD1A2
:10920000A10601D5690907D1210609D50169EF0930
:10921000C905C90FB94203D01169C903C90FDCD010
:109220001361016902698906C90F5206D20F520003
:1092300000691143C005C00FC001014331700548EA
:10924000F8BD000080F00F4000010000C0C62D00F6
:1092500000E000E00100060010B516480021017092
:1092600041700322426001726422428181810122A5
:109270000161027541751048816B1F225202114332
:109280008163FF200D49033048610D482022426070
:10929000436913434361FF2404348C6140224260DC
:1092A0004369934343610C628115416042690A43FB
:1092B000426110BD8CF4FF1F0080044000B00440E8
:1092C00080F00F4070B50546EFF31080C407E40F3F
:1092D00072B6094E094B29463046F26800F010F884
:1092E000002805D1002329463046F26800F000F935
:1092F000002C00D162B670BD001200206B66656B59
:10930000FFB589B016460C466A46099804F0FEF986
:1093100032462146049B099803F0C5FF05002BD176
:10932000009C019FA619761E39463046FFF79AF930
:1093300000291BD0401C7843461E17E0210209205B
:10934000090A000609180D4841600C9803F0C4FF93
:10935000002811D1099803F0C9FF05460998006952
:10936000002800D08047002D02D1E419B442E5D98D
:10937000099803F06BFF28460DB0F0BD00000240D5
:1093800070B5040027D01648C0680001000F0F28F0
:1093900023D014494000085A8002002525606060EF
:1093A0000120A0606561A56180022561E060204622
:1093B00003F06BFF00280AD00B4801468039056096
:1093C000416040318160E061204600F00FF8256285
:1093D0000020656270BD042070BD01204004DCE700
:1093E000408004400E240100B412002070B5002813
:1093F00022D0C46916484022410816484900400856
:1094000040006568884202D9421A402A12D828468C
:10941000FFF75AF81148104E410811486D1C35608D
:109420004008402249004000A568884206D9421AF7
:10943000402A03D9FEF788FF042070BD2846FFF7B5
:1094400043F86D1C022075602060002070BD000094
:10945000E5D90000F1D9000034F1FF1F75D20000FA
:1094600089D20000FFB589B01F4614000D460DD00B
:109470006A46099804F04AF93A462946039B099836
:1094800003F011FF060002D1009D28E004200DB07A
:10949000F0BD02CC154881600399042902D0082947
:1094A00007D00EE029020322090A520689184160FA
:1094B00007E002CCC16029020722090A12068918B6
:1094C0004160099803F012FF0646099800690028D8
:1094D00000D08047002E04D1039845193F1A002F71
:1094E000D7D1099803F0B2FE3046D0E70000024021
:1094F000FFB589B014460D466A46099804F006F98E
:1095000022462946059B099803F0CDFE00282FD15D
:109510006A462946099804F0F9F8009D02980890D7
:109520006942404201404F42AF4201D108983F1882
:10953000002C1CD07E1BA64200D926463046059939
:10954000FFF790F829020122090A12068A18094930
:109550004A600C9A000412021043FF308860099898
:1095600003F0C4FE002803D1A41BAD19DEE70020E0
:109570000DB0F0BD00000240FFB589B0129F1D0084
:1095800016460C4610D06A46099804F0BFF83246D9
:109590002146079B099803F086FE002805D1154A4D
:1095A00039068F18009C22E004200DB0F0BD210286
:1095B0000120090A400609180F48416087602968A0
:1095C000C160099803F092FE002809D01399002980
:1095D00000D00C6014990029E7D000220A60E4E76B
:1095E0000799761A890889004D1907990C19002ED8
:1095F000DDD1DAE7FFFFFF0000000240EFF308844F
:1096000070460007000F0D2801D1EFF309842546AD
:10961000A08B2035800500D52D1D7046C00600D4D6
:109620004835704603F048FAEFF3098003F044FA36
:10963000EFF3088003F040FAEFF3148003F03CFAF4
:10964000284603F039FA606903F036FAA06903F09E
:1096500033FAE06903F030FA4A2203A1002003F054
:1096600027F800F055FBFEE72E5C736F757263659B
:109670005C6461706C696E6B5C48617264466175B4
:109680006C745F48616E646C65722E63000000004C
:1096900010B5EFF31080C007C00F72B60021064A64
:1096A0001160002800D162B60448FFF769FE002867
:1096B00000D0012010BD00000081044000120020F5
:1096C0001CB506F039FB00281AD09E2069460870A8
:1096D000E7204870102000F0A9FA012406F02CFBC6
:1096E00000280DD0002069460870082000F09EFA7E
:1096F00001A9002006F0B6FA012802D1002C00D002
:109700001CBD00201CBD0000FEB5074616460D46D8
:10971000EFF31080C407E40F72B60B4639460948D0
:10972000FFF7A0FE002809D10121019000910290CD
:1097300033462A4639460348FFF71EFF002C00D166
:1097400062B6FEBD0012002000B5054A5278002A1C
:1097500002D000F007F800BD00F0E0F800BD000006
:109760008CF4FF1FF0B58C466A4E402102467160B2
:109770002027B7607760C00701D0716000E0B1605A
:10978000B76077605008C40701D0716000E0B16035
:10979000B760776013189008C40701D0716000E0CB
:1097A000B160B76077601B18D008C40701D0716042
:1097B00000E0B160B76077601818C00701D0716031
:1097C00000E0B160B7607760B160B76077607160EA
:1097D000B76077607069884370614F48007D041EF0
:1097E00003D0B7607760401EFBD1B7603069776007
:1097F0004006C00FB760336977605B06DB0F5B0024
:109800000343B760306977604006C00F800018439B
:1098100001280DD002285DD004285BD0213403D06C
:10982000B7607760641EFBD172690A4372616FE0B2
:10983000920726D500231C462022B7603569776041
:109840006D06ED0F64195B08ED072B43521EF4D132
:10985000B760326977605206D20F5440E20700D0F9
:1098600008206246002A00D013602B4A127D002A8D
:1098700003D0B7607760521EFBD172690A437261F0
:109880001EE0002C03D0B7607760641EF9E77269B0
:109890000A4372616246126800242023D50701D072
:1098A000716000E0B160B7607760A41852085B1E79
:1098B000F4D1E20701D0716000E0B160B760776079
:1098C000154A127A002A23D0B160B7607760521E21
:1098D000FBD11DE0104B5D7D002D06D0930704D514
:1098E0002123B76077605B1EFBD1002C03D0B760EB
:1098F0007760641EF9E773690B437361002D07D02D
:10990000920705D4B1602122B7607760521EFBD167
:109910007160F0BD80F00F408CF4FF1FF0B503467E
:109920000022C04D40208C4668602024AC60BE4FB1
:1099300079680E46761EFDD16C600E46761EFDD10E
:10994000DE0701D0686000E0A860AC600E46761EBD
:10995000FDD16C600E46761EFDD1D6185A08D70789
:1099600001D0686000E0A860AC600F467F1EFDD1AA
:109970006C600F467F1EFDD1B6189A08D70701D03C
:10998000686000E0A860AC600F467F1EFDD16C608F
:109990000F467F1EFDD1B618DA08D70701D06860E0
:1099A00000E0A860AC600F467F1EFDD16C600F46E2
:1099B0007F1EFDD1B218D20701D0686000E0A86018
:1099C000AC60994E0A46521EFDD16C600A46521E8A
:1099D000FDD1A860AC600A46521EFDD16C600A46FB
:1099E000521EFDD16860AC600A46521EFDD16C600B
:1099F0000A46521EFDD16A69402082436A61327D67
:109A0000161E09D0AC600846401EFDD16C600846A9
:109A1000401EFDD1521EF5D1AC600846401EFDD15E
:109A200028696C604006C00F0A46521EFDD1AC602A
:109A30000A46521EFDD12A696C605206D20F0F46AB
:109A40007F1EFDD152000243AC600846401EFDD18E
:109A500028694006C70F202068600846401EFDD1D7
:109A6000B8001043012816D002286ED004286CD00C
:109A700021360AD02023AB600A46521EFDD16B600E
:109A80000A46521EFDD1761EF5D169694022114366
:109A900069616A60F0BD9A073CD500242646202300
:109AA0002027AF600A46521EFDD12A696F60520618
:109AB000D20F0F467F1EFDD16708D407B6183C436E
:109AC0005B1EEDD120232A46AB600F467F1EFDD1E1
:109AD000176953607F06FF0F491EFDD17E40F107D5
:109AE00000D008206146002900D00C604E490C7D52
:109AF000002C0AD04E6893603146491EFDD1536058
:109B00003146491EFDD1641EF5D1516940231943E8
:109B1000516139E0002E0AD02023AB600A46521E64
:109B2000FDD16B600A46521EFDD1761EF5D16A69E1
:109B300040231A436A6162460026126820242746A1
:109B4000D30703D040236B6002E032E04023AB60D8
:109B5000AF600B465B1EFDD16F600B465B1EFDD1F7
:109B6000B6185208641EEBD1F20702D040226A6098
:109B700001E04022AA603B462C46AF600A46521ED6
:109B8000FDD16360491EFDD127490A7A002A0DD014
:109B90004023AB604B682024AC601946491EFDD1C0
:109BA0006C601946491EFDD1521EF5D140216960F5
:109BB000F0BD1D4A527D9446002A0DD09A070BD560
:109BC00021242027AF600A46521EFDD16F600A464D
:109BD000521EFDD1641EF5D1002E0AD02024AC60A7
:109BE0000A46521EFDD16C600A46521EFDD1761EF9
:109BF000F5D16A69402422436A616246002A0ED088
:109C00009A070CD4AC6021232026AE600A46521E6F
:109C1000FDD16E600A46521EFDD15B1EF5D16C600F
:109C2000F0BD000080F00F408CF4FF1FF0B5002362
:109C3000104C1A460E4E2027656815E0002A02D106
:109C40000B780822491CDC0702D04024746001E034
:109C50004024B460B7602C46641EFDD177602C466A
:109C6000641EFDD15B08521E401EE7D2F0BD00000D
:109C700080F00F408CF4FF1F1E48002202601E4837
:109C8000816B4315194381631B491C48403148606F
:109C90001B4883681B490B408360C3680B40C3604B
:109CA000194980200870194824214170A2210170AF
:109CB000C178C906C90EC170032101714271817951
:109CC000C906FCD481790907890F0229FAD14021FC
:109CD000417181790907890F0229FAD181794906F1
:109CE000FCD51A21017081790907890F0329FAD15E
:109CF0007047000000810440008004400000011013
:109D000040900440FFF8FFFE00500640004006402F
:109D1000BFF34F8F03490248C860BFF34F8FFEE780
:109D20000400FA0500ED00E038B5254D2C79E878FF
:109D3000800601D420208443E878000601D48020E6
:109D40008443200616D51F4802F057FD002800D096
:109D50000120E7221CA102F0ABFC1A4802F06EFDC4
:109D6000E871184802F049FD002803D1E878400660
:109D7000400EE870A00605D56007800F03D0E87993
:109D80006946087038BDED79194802F025FD044692
:109D9000132804D92946164802F088FD38BD02F080
:109DA00033FE002807D0132CF8D1132211A110483C
:109DB00002F0C9FD38BD0E4802F040FDEAE70000A0
:109DC00000B00640C01200202E5C736F7572636590
:109DD0005C6869635F68616C5C667265657363612A
:109DE0006C655C6B6C32367A5C756172742E6300E4
:109DF000D01400203C4441504C696E6B3A4F76655C
:109E000072666C6F773E0A00F8B52E4E00243578E6
:109E10000095280741D5317C0A090807C00F4B0778
:109E2000DB0F154605431AD1950040002818C018CD
:109E3000254BC0001D5CAD062D0F012D0FD1C5189F
:109E40006F88002F0BD1214FBA5C6A801A5C5206D2
:109E500001D5882200E0C8221A5401200143EFF303
:109E60001080C507ED0F72B6194A184F143FB86835
:109E700011541521401CFEF7F5FBB960002D00D1EF
:109E800062B608203070002C02D1307D800601D5EA
:109E9000012400E000243578BBE700990B482943F2
:109EA000083804F000FC002C01D0012000E0002064
:109EB000064914390A7810430870357002F054FBD3
:109EC000F8BD000080200740001A0020A4F1FF1F09
:109ED000A01F002000207047034801694069081A4C
:109EE00002490988081A704730F2FF1F5424010004
:109EF00070B50B4D0C460346696B286B88420BD935
:109F0000401A844200DD044622461846FEF7DCFA79
:109F1000686B0019686300E00024204670BD0000F3
:109F200030F2FF1F00207047F8B5184F0C46064668
:109F300079693869401A16490988081A002801DC2D
:109F40000020F8BD844200DD0446FA69B8690025A6
:109F500090420DD30F4A031951188B4208D30D1AA2
:109F60002A463146FEF7B0FA76190A48641BB861F2
:109F7000002C06D022463146FEF7A6FAB869001931
:109F8000B8613969601909183961F8BD30F2FF1FED
:109F900054240100E217002010B5054C6068002829
:109FA00005D10120606000F005F80020606010BD60
:109FB00030F2FF1FF8B5234CA06800283DD061693E
:109FC00020690026421AE06811460143002935D075
:109FD00021461D4FC9691D4D002A10D0A06981423C
:109FE00005D338888B182818834200D3421A1848A2
:109FF000007843001748C05A904200DA02461648DB
:10A00000E66000788023184302F0D6FAE169091867
:10A01000E1616269121862613B88EB188B4200D1E2
:10A02000E561216991420BD1094909784A00094942
:10A03000895A814204D10120E060F8BDA660F8BDD4
:10A04000E660F8BD30F2FF1F54240100E217002043
:10A05000CFF2FF1F582401005224010010B50C4C10
:10A06000206A002803D0A06A401CA06210BD012015
:10A070002062606200F00EF8002060622062616B76
:10A08000206B8842F2D0401AFFF74CFF10BD000051
:10A0900030F2FF1F10B5134C1348216B154B0A1AF1
:10A0A00012480088821A124800784000185A8242EA
:10A0B0000EDB1148007801F01DFE216B08182063AB
:10A0C000A06A00280CD0616A002909D1401E06E070
:10A0D0000120E062606A002802D0A06A401CA062F1
:10A0E00010BD000030F2FF1F22180020562401008E
:10A0F000CFF2FF1F582401005324010010B504467D
:10A10000400702D52046FFF7A9FF200702D52046C9
:10A11000FFF742FF10BD002070470020704700008D
:10A1200010B50C4800F042F8002812D00948FEF79C
:10A1300080FA0949020A08704A70020C8A70000EFF
:10A14000C870044802790A7142794A71807988712D
:10A15000012010BD68F2FF1FE016002010B5104866
:10A16000002444608460C46004610E4981614461DC
:10A17000046244628462C462C1610B490163416349
:10A18000014604804B203831C001FEF763FA0448D1
:10A190000821383004714471817100F019F810BD44
:10A1A00030F2FF1FE21700202218002070B504468D
:10A1B000064D21462868FEF74DFA2879A071687986
:10A1C0006071A8792071012070BD00002CF1FF1F83
:10A1D00010B506F067FB03F0C1FE012010BD10B5FD
:10A1E00006F0A2FB012010BD0120704710B5044607
:10A1F000FEF71FFA06490860A07908716079487176
:10A20000207988710020C871084606F0A3FB10BDB4
:10A210002CF1FF1F10B51148002444608460C46015
:10A2200004610F4981614461046244628462C462D2
:10A23000C1610C49016341630480FFF7D0FF074906
:10A240004B203831C001FEF705FA044808213830A8
:10A25000047144718171FFF7C9FF10BD30F2FF1F17
:10A26000E21700202218002010B5FFF7D3FF10BD21
:10A2700070B51B480078002831D01A4C0025206AA0
:10A28000012600280AD1616B206B884206D116494D
:10A29000884203D02163E56225626163A06A0028D9
:10A2A00010D0206A00280DD1E06A00280AD1266269
:10A2B000FFF7F0FE2562616B206B884202D0401AE6
:10A2C000FFF730FEA1686068084308D16169206922
:10A2D000884204D06660A660FFF76CFE656070BDC2
:10A2E000CDF2FF1F30F2FF1F22180020B0B5054647
:10A2F0000F480068C1698847002817D10D4C0E4FE0
:10A30000002D06D0BC4600DF2060002006F0CEF80D
:10A310000CE0BC4600DF2168401AFF212D31884245
:10A3200001D3012000E0002003F026FE0120B0BD93
:10A33000F023010028F1FF1F5DF4000000207047AA
:10A340000020704710B502490880FFF74DFF10BD8F
:10A3500030F2FF1F10B50B48FEF76BF9094C0002F5
:10A36000E178000A090608430749FEF773F9064831
:10A370002179017161794171A1798171FFF736FF0E
:10A3800010BD0000E016002068F2FF1F01078A0ED2
:10A39000044910B551180A78FD231A400A7002F0DA
:10A3A0007DF810BDC020074010B501464A790B79F1
:10A3B000807811021943020601D4024A115402F0B6
:10A3C0006DF810BDA4F1FF1F704710B500F016FB2B
:10A3D00010BD0000094A094980320028087D04D0D8
:10A3E000012318430875102005E040084000087557
:10A3F000107AEF210840107270470000802007405B
:10A4000010B50C4C0C48A2880078824200D9024654
:10A41000002A03D1074900201439087180202168DF
:10A4200002F0CAF8216809182160A188081AA080E2
:10A4300010BD0000E0F2FF1F3224010010B5064CF1
:10A440000020A288216801F055FC216809182160CC
:10A45000A188081AA08010BDE0F2FF1F704700001D
:10A460000749020605D50007800E40180178FA2238
:10A4700003E0800040180178F62211400170704717
:10A48000C02007400749020605D50007800E401886
:10A490000178052203E08000401801780922114369
:10A4A00001707047C0200740F8B504466F4F704DEB
:10A4B000704E800720D502F04DF83878C009FFF7BC
:10A4C000CDFFF888A88038784106890F04D001298B
:10A4D0005CD0022975D169E079780B0002F098F818
:10A4E0000C070D7113711928712D333B4A7101F05E
:10A4F0009FFD1FE0FFF784FF70E0002004E002F002
:10A500003DF85D483DE0012001F0D4FD002858D021
:10A51000F5E7C006C00E54D1B878802108433070EA
:10A520004006400E012101F0FFFF02F027F855E040
:10A5300001F06CFC002844D0DCE7C006C00E40D11E
:10A540004C48401C14E001F009FE002839D002F00C
:10A5500015F84A4815E0C006C00E012831D17078C0
:10A5600000282ED03879B17888422AD24449401840
:10A570002860BFE701F0B6FE002822D001F0FEFF00
:10A5800040480068002829D0804727E0C006C00E58
:10A5900017D0012815D100F017F900281ED100F0BE
:10A5A0006FF900281AD100F0BBF808E0C006C00E11
:10A5B00007D100F09FF9002810D100F0E7F900283A
:10A5C0000CD13878C00904D1F888002801D00020C7
:10A5D00000E0802001F0B2FF0020A880600704D5D1
:10A5E0003878C0090DD001F0D1FF200733D5387875
:10A5F000C00927D0A888317908432CD0FFF700FF85
:10A6000029E0A8880028F0D0FFF718FFA8880028C4
:10A61000EBD138784106890F0ED001290CD1C00644
:10A62000C00E09D0012807D100F05CF80028DCD169
:10A6300000F02AF80028D8D1802001F07FFF002008
:10A64000A880D2E73078010605D54006400E30706C
:10A65000002101F069FF600602D50020FFF796FE99
:10A66000200602D58020FFF791FEF8BDE8F2FF1F1B
:10A67000E0F2FF1FCCF2FF1FBC240100B424010054
:10A6800083F1FF1FB824010010B51349134A08795C
:10A690001278904203D0124A1278904219D1487829
:10A6A000002804D0022805D0202812D10EE0FFF7A0
:10A6B00045FE05E0C878897800020843FFF740FEB0
:10A6C000002806D001F05AFF012010BDFFF742FE1E
:10A6D000F6E7002010BD0000E8F2FF1F5024010043
:10A6E0005124010010B50B490B4A087912789042A9
:10A6F00003D00A4A127890420AD14878092807D133
:10A7000000F080FB002803D001F038FF012010BDCD
:10A71000002010BDE8F2FF1F3324010034240100A3
:10A7200070B52449244A08791278904203D0234A0C
:10A73000127890423BD11F484978C2788378100242
:10A740001F4C204D1843042920D008DC00290FD0CD
:10A7500001290FD002290BD0032928D111E020298B
:10A7600006D0212919D022291AD023291FD11AE075
:10A770002C6010E0FFF7D1FC05E02C60FFF740FEF5
:10A7800009E0FFF7C8FC0028F7D110E0FFF7A2FBB3
:10A790000BE001F0F3FE012070BDFFF7C1FCF2E712
:10A7A000FFF7D0FD01E0FFF7A1FD0028F1D1002067
:10A7B00070BD0000E8F2FF1F502401005124010089
:10A7C000E0160020E0F2FF1FF8B5254E254930794C
:10A7D0000978884203D02449097888423DD17078AD
:10A7E000224C234D234F030001F012FF0C370723A7
:10A7F0002D37373737371826333700F021FA00283E
:10A800002BD0F078012802D0032803D003E01A48A7
:10A81000206000E02560FFF7F3FD12E0F0780228E9
:10A8200002D0032803D00CE01448206009E0256022
:10A8300007E000F0EDF908E000F0BCFA0BE001F0F1
:10A840009DFE0120F8BD00F0F1F9002805D0276039
:10A85000E1E700F0CDFA0028F1D10020F8BD0000BA
:10A86000E8F2FF1F3324010034240100E0F2FF1F4F
:10A870008EF1FF1FE0160020211700206217002034
:10A8800010B51848184A01791278914227D14278B8
:10A890000146C8788B7800021843CB798C7919026D
:10A8A0002143FE2A0CD0FF2A19D1002817D10029F4
:10A8B00015D101F05FF9002811D001F05FFE0CE026
:10A8C00000280CD101290AD100F048FE002806D04A
:10A8D000074906480860FFF793FD012010BD0020DE
:10A8E00010BD0000E8F2FF1F46240100E016002022
:10A8F000E0F2FF1F70B51F4D1F49687809780026E8
:10A90000884235D1687929790002084302282FD17D
:10A91000AA781A4C002A2BD0002004E021780029C4
:10A9200000D00C19401C411C8A42F7D8207800281E
:10A9300019D003F015F90146E01CFDF7B9FD104AE6
:10A9400001261460E979AB79207809021943814224
:10A950000BD90C4990800978491E084206D10A4952
:10A960000120087002E0002602E09180FFF748FD18
:10A97000304670BDE8F2FF1F5C24010044F1FF1F68
:10A98000E0F2FF1F32240100D0F2FF1F10B5154A7C
:10A990001549507809780024884220D150791179DE
:10A9A0000002084307281AD1114B10481860417A59
:10A9B000007A09020143D079927900020124104300
:10A9C000884209D90B4899800078401E014204D181
:10A9D00009490120087000E09880FFF711FD20462A
:10A9E00010BD0000E8F2FF1F5D240100FA24010001
:10A9F000E0F2FF1F32240100D0F2FF1F07480021C0
:10AA00004170C16001614161418081808161C161AA
:10AA1000C1800181016241817047000070F2FF1F17
:10AA2000F8B5494EB0887188484F00257C1C884293
:10AA300018D3B069002815D17561B5800123397824
:10AA40007A1C184606F052FA70807088002809D0E7
:10AA50003F4877610078012801D8746102E070886E
:10AA6000401C7080708800283AD1F068002801D01E
:10AA7000F56035E03069002832D035490978012980
:10AA80000ED83D70B58002237A1C0021012006F00B
:10AA90002DFA70807088002800D0746135611FE045
:10AAA0003C780127202C00D300243946A1400142E4
:10AAB0001AD0601CC1B2254A02231170B580012052
:10AAC000521C06F013FA70807088002804D01F48CA
:10AAD00070617088401C70803069A740B843306155
:10AAE0007088002806D102E0641CE4B2DAE7B0699D
:10AAF000002826D07088B188164F401A84B2387862
:10AB000041001548405AA04200D204461348802113
:10AB1000007822460843716901F04EFD70691049C2
:10AB200000197061B088001980B2B080098888422D
:10AB300008D2387841000848405AA04202D101208A
:10AB4000B061F8BDB561F8BD70F2FF1F201700209D
:10AB500040240100CFF2FF1F3C24010035240100F6
:10AB600042240100F8B51C4C002620891B4D1C4FC7
:10AB7000002803D1E5613888E0802681E0882189BA
:10AB8000421A1848E169007801F0B4F8E16980B22E
:10AB90000918E161218909188BB22381002809D0A5
:10ABA00039888B4206D21049104A09784900515A17
:10ABB000814210D90E48017801200129009003D864
:10ABC0000021064A022003E029786A1C02205B1E4D
:10ABD00006F014FA2681F8BD70F2FF1F61170020FD
:10ABE0004424010036240100CFF2FF1F3C24010061
:10ABF0004124010010B50446000702D52046FFF7A6
:10AC00000FFF600702D52046FFF7ACFF10BD000024
:10AC1000034804498078085C0349087001207047A4
:10AC2000E8F2FF1F8CF1FF1FE016002010B506F0C0
:10AC30005BF902490870012010BD0000E0160020F9
:10AC400010B50B490022C878012804D0022804D08E
:10AC5000032806D103E0074A02E0002010BD064A9F
:10AC6000521C8978002306F041F9012010BD000034
:10AC7000E8F2FF1F201700208DF1FF1FFEB54448AA
:10AC8000007800287ED0434E002031788446481C4E
:10AC900030704148042300784200821893405B1EC4
:10ACA0000192994203DB0021317001218C463B4A1D
:10ACB00000251188FF2901D2491C11804100384824
:10ACC000405A364900900988884200D1012535490B
:10ACD000002009788E4648E000216246002A0DD007
:10ACE000314A135CFF2B01D25B1C13542F4B1B5CAE
:10ACF000002B03D0125C9A4200D301212B4A02237D
:10AD0000145C019A934022469A40009B9A4203DACF
:10AD1000002C01D0012200E00022002D06D0002AE4
:10AD200004D00123376983403B433361204B1B5CD4
:10AD30009C420CD01C4C245C9C4206D301243769F5
:10AD400084403C43346100243470184C235400295F
:10AD500009D0002A04D101213269814011433161B7
:10AD6000114A00211154401CC0B27045B4D3002DCB
:10AD700002D00A49002008803069002806D0708877
:10AD8000002800E002E001D1FFF74AFEFEBD00000E
:10AD9000CDF2FF1F70F2FF1FCFF2FF1F88F1FF1FE0
:10ADA00038240100402401008AF1FF1F8BF1FF1FAE
:10ADB0008CF1FF1F0A480A498078C978002802D020
:10ADC000084A815409E0094B0020074A1B7802E039
:10ADD0001154401CC0B29842FAD3012070470000C1
:10ADE000E8F2FF1F8BF1FF1F8CF1FF1F40240100D1
:10ADF00010B50348807806F0FFF8012010BD000070
:10AE0000E8F2FF1F38B50D490022C878012804D0A8
:10AE1000022804D0032806D103E0002038BD084AE8
:10AE200000E0084A521C00230093CB798C791B0266
:10AE30002343897806F0E2F8012038BDE8F2FF1FCD
:10AE4000611700208DF1FF1FF8B5EFF31080C007E8
:10AE5000C00F72B6564D0021EC68E9602A78009266
:10AE60002970002800D162B6E00708D001F0D0FABE
:10AE700006F092F94F480068002800D08047E006AD
:10AE800006D501F08FFB4C480068002800D08047B1
:10AE9000A00606D501F03AFB48480068002800D01B
:10AEA0008047600704D546480068002800D08047E6
:10AEB000022C09D143480168002902D04248007A97
:10AEC00088474148FF210172200767D53F4FEFF3C4
:10AED0001080C207D20F72B6A9686868884257D13D
:10AEE000012156E0EFF31081CE07F60F72B6384914
:10AEF0000C5C1521401CFDF7B5FB6960002E00D1EC
:10AF000062B620462207D30F21066207090FD20F2F
:10AF1000002908D15C00A418E4003C5D0026A406CA
:10AF2000240F0D2C0AD08C005B00E3189A18D60071
:10AF3000BA5D9206120F012A13D01DE02869022182
:10AF400088432861387E4006400E3876387C4006BB
:10AF5000400E38741F486E7001680029B7D0022077
:10AF600014E0002902D1C007C00F687019480159C8
:10AF7000002901D004208847B85D8006000F092809
:10AF8000A5D1144801590029A1D0082088479EE77F
:10AF90000021002A00D162B60029A3D00098002821
:10AFA00004D00949087DDF2210400875F8BD000073
:10AFB00090F1FF1F60240100642401006824010057
:10AFC0006C2401007024010080200740001A00203A
:10AFD000A01F00207424010010B51C4840230370FA
:10AFE0001B4841680522120411434160416B1A035A
:10AFF0001143416300F036F81648017B802211436B
:10B000000173017B0906FCD41349124C090A803CE8
:10B01000217711490A0C0F4960390A740E4A120E41
:10B020000A75FF2121700D490968002900D004210B
:10B030000B4A1268002A00D0022211431922114340
:10B0400021710370017B1943017310BDA4F1FF1F2F
:10B050000080044000210740001A00206C240100F9
:10B0600070240100012002490006086070470000BA
:10B0700000E100E070B500F015F900282AD016486C
:10B08000022404704470154E032034633070144859
:10B090000546FDF7CEFA022808D9114920461F3986
:10B0A000FDF7D8FA29462046FDF7D4FA0D4880214D
:10B0B000007822460843084901F07EFA2846FDF749
:10B0C000B8FA316B401A2946FDF7C4FA0449012049
:10B0D0000839087370BD0000A217002094F2FF1F0A
:10B0E0003F2000204724010010B5104908780228AD
:10B0F00008D003280FD0042810D0052801D1002043
:10B10000087010BD0A48C07B282801D0A828F8D1B3
:10B1100000F068FA10BD00F06FFD10BD05488021F9
:10B120000078084300F082FDF5E7000094F2FF1F6D
:10B13000182000204724010010B51D4A117800296D
:10B140000FD0012910D01B48052900781BD00729F2
:10B1500027D000F06BFD18490220087300F04CFD69
:10B1600010BD00F00BF910BD13481F38C07B2A2812
:10B1700003D02F2804D0AA28F5D100F011FB10BD70
:10B1800000F09EFA10BD012181400C480068014288
:10B1900001D0012000E00020094A0AA101F088FA4C
:10B1A00010BD00201070106B1F28DAD010BD0000F9
:10B1B00094F2FF1F4824010037200020D8F2FF1F1F
:10B1C000410400002E5C736F757263655C75736279
:10B1D0005C6D73635C757362645F6D73632E630093
:10B1E00010B5144C6068E060002801D0012010BD4B
:10B1F0001148FDF71EFA002814D00F480838007BCC
:10B20000000604D50D4880210078084308E00A486C
:10B210001F30FDF70EFA216B884203D008480078F2
:10B2200000F004FD044901201731087300F0E4FC2C
:10B23000002010BD94F2FF1F2020002047240100B1
:10B240004824010010B5124801798F2001400806FA
:10B2500005D50807000F01221204824001E00122F7
:10B260008A400C480478802004438C420ED10A485E
:10B27000006810420AD00948FDF7DBF90849884206
:10B2800004D10D220549204601F096F910BD0000B9
:10B29000E8F2FF1F47240100D8F2FF1F37200020EB
:10B2A0005553425370B50C48FDF7C3F90A4C0225BB
:10B2B0001734002808D020461F38007B000608D429
:10B2C0000648007800F0B2FC257300F095FC0020E1
:10B2D00070BD012070BD0000202000204824010026
:10B2E00070B51148FDF7A5F9104C216B884202D8C2
:10B2F0002063032000E0042020700D4880210078A6
:10B30000226B08430B4901F057F907481F300546E7
:10B31000FDF78FF9216B401A2946FDF79BF9024989
:10B3200000201731087370BD2020002094F2FF1F09
:10B3300047240100A217002010B5064806490288DC
:10B340000648007800F0D6FC05490863FFF7F4FED4
:10B3500010BD00004E240100A21700204824010067
:10B3600094F2FF1F10B50446400702D50020FFF7F6
:10B37000E3FF200701D5FFF7B7FE10BDF8B5704E0B
:10B38000316B1F2901D20A4600E01F2200206D4DBB
:10B390006D4B02E01C5C2C54401C9042FAD36B486D
:10B3A000802200780127104300901F2970D1654842
:10B3B000FDF73FF9664988426AD1281DFDF739F942
:10B3C000604C1F34211DFDF745F920461738FDF765
:10B3D00030F921460831FDF73DF9687B002804D19A
:10B3E000A87B002801D0102801D9277374E0E87BDE
:10B3F0002A283BD020DC1A2847D00EDC0428F4D0C1
:10B4000006DC00283BD00328EFD100F071FBF8BD2B
:10B410001228EAD100F0AAF8F8BD23283CD006DCB7
:10B420001B282FD01E28E0D100F0CCF8F8BD25282D
:10B4300035D02828D9D13BE09E2836D00EDC5528BF
:10B44000D3D004DC2F2842D03528CED103E05A28AF
:10B450001FD09128C9D100F019FCF8BDA12821D036
:10B46000A3284ED0A82823D0AA28BED100F080FA65
:10B470000028F2D0287B00063BD43770F8BD00F0DE
:10B480000FFCF8BD00F0E8FBF8BD00F043FAF8BD92
:10B490003BE000F00DFAFAE700F0EEFAF7E700F013
:10B4A000C5FAF4E7FFF7E6FDF1E700F079FBEEE718
:10B4B00000F05EFA0028EAD0287B000604D50220BE
:10B4C000307000F08FF8E2E72248007815E0287C21
:10B4D000800704D40020207300F08EFBD7E700F033
:10B4E00047FA0028D3D0287B000602D43770376291
:10B4F000CDE7164880210078084300F097FB022032
:10B50000E9E7009800F092FB6FE7104C009800F01C
:10B510008DFB2078104C0107090F012000048840A2
:10B5200021680C4D08432060287800F07FFB2878C4
:10B53000874020680743062027603070A7E7000097
:10B5400094F2FF1F18200020A217002047240100BA
:10B550005553424348240100DCF2FF1F02490020FA
:10B560000870012070470000E016002010B5FFF7BA
:10B5700099FE00281FD0104B0020187080215970B0
:10B5800002219970D97020241C7158719871D8715A
:10B590000A48016808200A78002A02D01A54491C77
:10B5A00000E01C54401CC0B22428F4D304492420D9
:10B5B0000863FFF795FE10BDA217002040F1FF1FA2
:10B5C00094F2FF1F10B50548C07CC107044800D0A5
:10B5D0000121017300F010FB10BD000018200020B5
:10B5E00037200020F8B5314D314FA969686A00262F
:10B5F00088420AD3387880210024084300F016FBE3
:10B600002C48067300F0F8FA08E02B480078410057
:10B610002A48445AE86A844200D30446FFF7E0FD12
:10B62000002800D10024A86A00282DD0002C0ED0BC
:10B63000A96AE8698022411838781043224600F050
:10B64000BBFFA86A0019A862E86A001BE8622969C2
:10B650006869AA6A4143914203D1AE62696A0818D7
:10B660006862144808300746FCF7E3FF001B3946C0
:10B67000FCF7F0FF002C06D0E86A002803D1032075
:10B6800028700C480673F8BD002CE0D02969E86AE0
:10B690004018401EFCF7E6FF69690246884200D95F
:10B6A0000A46E969686A05F037FDC1E794F2FF1FB1
:10B6B0004724010037200020CFF2FF1F4A24010059
:10B6C000F8B5334C0025A169606A884208D3314837
:10B6D0002563007800F0AAFA2F48057300F08CFA71
:10B6E000FFF77EFD002806D0206B002824D0A06A3A
:10B6F000002802D010E025631EE02169E06A4018AE
:10B70000401EFCF7AFFF61690246884200D90A4635
:10B71000E169606A05F000FD00202049A76A266BF8
:10B7200008E0E3693A189A5C0B5C9A4201D0256202
:10B7300002E0401CB042F4D3266BA06A8119A162DA
:10B74000E06A871BE7622269606942438A4203D14B
:10B75000A562616A081860620F4808300546FCF768
:10B7600068FF801B2946FCF775FF002E0CD0002FC8
:10B7700002D02078052807D1206A002805D00020B3
:10B780000549087300F038FAF8BD0120F8E7000019
:10B7900094F2FF1F4824010037200020A217002048
:10B7A000F8B5384D384FA969686A0026884207D332
:10B7B00036482E63007800F039FA3E7300F01CFA28
:10B7C000FFF70EFD002800D12E63296BA86A4018F0
:10B7D0002969884206D9FF2201322DA1002000F0FC
:10B7E00067FFF8BD0020314905E0AB6A0A5C1B1811
:10B7F000EC69401CE2542A6B9042F6D3A86A801888
:10B80000A862E96A891AE962002A25D0002914D1C0
:10B81000002812D029694018401EFCF723FF6969EF
:10B820000446884200D90C462246E969686A05F058
:10B830008BFCAE62686A00190DE069692B690A46E3
:10B840005943814208D1E969686A05F07DFCAE621E
:10B850006969686A401868620B4808300090FCF714
:10B86000E8FE2C6B0099001BFCF7F4FE002CB8D00E
:10B87000E86A002802D028780528B2D13E7300F08B
:10B88000BBF9F8BD94F2FF1F3720002048240100C7
:10B890002E5C736F757263655C7573625C6D736348
:10B8A0005C757362645F6D73632E6300A217002082
:10B8B00070B5FFF7F7FC002824D0FFF791FC0028B3
:10B8C00020D0114800210170062242700F4B817078
:10B8D0001A7A0824D201C270017141718171C1715B
:10B8E0000B481C630546FCF7A4FE082808D9084944
:10B8F00020461F39FCF7AEFE29462046FCF7AAFE7B
:10B90000FFF7EEFC70BD0000A217002094F2FF1FAD
:10B910003F20002070B5FFF7C5FC002820D0FFF7BE
:10B920005FFC00281CD00F480321017000210E4B42
:10B9300041701A7A0424D2018270C1700B481C63D2
:10B940000546FCF776FE042808D9084920461F3929
:10B95000FCF780FE29462046FCF77CFEFFF7C0FC82
:10B9600070BD0000A217002094F2FF1F3F200020AE
:10B97000F8B52A48FCF75DFE284D00BA040A113DCF
:10B98000287D24020443264E00207462B062E87BC6
:10B990002F280AD004DC28280BD02A281CD104E048
:10B9A000A82810D0AA2817D109E0FFF719FC002811
:10B9B00030D0E87DA97D0002084344BA0CE0FFF7CF
:10B9C0000FFC002826D01548001DFCF732FE00BAF7
:10B9D000040A287E24020443306944430F48F46279
:10B9E0000938FCF726FE0D4F01260E3700280DD032
:10B9F000A04210D0287B000604D50A488021007898
:10BA0000084301E00848007800F010F93E7300F0A8
:10BA1000F3F80020F8BD0120F8BD00002920002027
:10BA200094F2FF1F472401004824010010B5FFF7DE
:10BA300039FC00281AD0FFF7D3FB002816D00C4A97
:10BA40000C489169491E0B0E03700B0C43700B0AD6
:10BA50008370C17011690B0E03710B0C43710B0ADB
:10BA60008371C17108201063FFF73AFC10BD00001C
:10BA700094F2FF1FA217002070B5FFF713FC0028F7
:10BA80002ED0FFF7ADFB00282AD016480021017008
:10BA9000417081700821144AC17091690C240B0E09
:10BAA00003710B0C43710B0A8371C1710221017286
:10BAB00011690B0C43720B0A8372C1720B48146339
:10BAC0000546FCF7B6FD0C2808D9084920461F3961
:10BAD000FCF7C0FD29462046FCF7BCFDFFF700FC43
:10BAE00070BD0000A217002094F2FF1F3F2000202D
:10BAF00070B5FFF7D7FB00282ED01B4870210170CE
:10BB000000211A4B41705A68DD681446AC4306D0D8
:10BB100006248470282404734173DA600AE0002A42
:10BB20001BD0134A127B002A1BD0052282702022D0
:10BB300002734173C1700171417181710A22C27136
:10BB4000017241728172C1728173C1730174417457
:10BB500012201863FFF7C4FB70BD022282703A22E4
:10BB6000E6E781700173E4E7A217002094F2FF1F5B
:10BB70003720002010B50549002008600449FCF773
:10BB800069FD044907200870012010BDDCF2FF1F89
:10BB90003720002094F2FF1F10B5FFF7EBFF10BD18
:10BBA00070B5FFF77FFB00281DD00F4820220270E0
:10BBB00000214170C1770D4C0320226320700C4896
:10BBC000802100780843084900F0F6FC0948054642
:10BBD000FCF72FFD216B401A2946FCF73BFD054978
:10BBE00001200839087370BDA217002094F2FF1FCE
:10BBF000472401003F20002010B508490848FCF701
:10BC000029FD0848802100780D220843034900F0EF
:10BC1000D3FC05490520087010BD00003720002026
:10BC2000555342534724010094F2FF1F10B50446B8
:10BC300000F084FC200605D52107090F012000042F
:10BC4000884001E00120A04002490A6810430860D2
:10BC500010BD0000D8F2FF1F10B50A48817C0446D1
:10BC60001F34002904D001202073FFF7C5FF10BD49
:10BC7000C07C0549C007C00F486005F063FA00208A
:10BC8000F2E700001820002094F2FF1F10B50349CE
:10BC900000200873FFF7B0FF10BD00003720002020
:10BCA00010B51048FCF7C5FC0E4C173400280FD017
:10BCB00020461F38007B000604D50B488021007801
:10BCC000084301E009480078FFF7B0FF012004E0D5
:10BCD000FFF786FA002803D000202073FFF78CFFBF
:10BCE00010BD00002020002047240100482401004E
:10BCF00070470000F7B5074682B000200090380773
:10BD0000860E3348F500281801904488002F15D17D
:10BD100030484078002809D07008012181402D4822
:10BD2000103002F0CCFC002005B0F0BD2848405D8A
:10BD30008006000F0D2801D1012000900498A04238
:10BD400006D2FF22EF3224A1002000F0B1FC049CB7
:10BD50001F4A0020B101A032891803E0039A0B5C4E
:10BD60001354401CA042F9D31A481430C15D019805
:10BD7000174F4180174876080069795DF040C00789
:10BD80004906C00FC90F88420FD10398C179827943
:10BD9000080200991043002901D000280CD001218D
:10BDA0000C48B140103002F08AFC0A480069F040AB
:10BDB000C00708D0C82007E006480121C943103059
:10BDC00002F065FCF1E7882078552046ACE70000DA
:10BDD000001A002090F1FF1F2E5C736F757263656F
:10BDE0005C6869635F68616C5C66726565736361FA
:10BDF0006C655C757362645F6B696E657469732EE4
:10BE00006300000010B5FFF71DFA10BD7CB5534B61
:10BE1000534D1878534CC006C00E02D0012875D17E
:10BE200085E05149D8780E784D49CA781C31897817
:10BE3000062810D006DC012809D0022815D00328D6
:10BE400064D149E007282FD00F285FD15FE0474831
:10BE50002060122069E0002E7ED0002A03D04448E2
:10BE600020600A2061E04348FAE7002E01D1012A50
:10BE700072D0002A03D04048009000200CE03F48D8
:10BE8000FAE7009A1378002B05D0D37896781B0236
:10BE900033439A180092401C8142F2D100980178F5
:10BEA000002959D020603CE0002E55D0002A03D054
:10BEB0003348009000200CE03248FAE7009A1378EB
:10BEC000002B05D0D37896781B0233439A18009242
:10BED000401C8142F2D1E1E72B480090032901D0B8
:10BEE000002009E001F096FE0DE000990A78002A92
:10BEF00001D051180091401C99788142F5D10098E9
:10BF00000178002928D0206000780EE024E01F4846
:10BF1000007800281FD01E4800902060017800297A
:10BF20001AD0C178827808021043019005E001A977
:10BF3000684600F031F800280DD0A18801988142B0
:10BF400008D980B21349A0800978491E084201D15E
:10BF50000120287101207CBD00207CBDE8F2FF1F7C
:10BF6000CCF2FF1FE0F2FF1F2D240100E6240100A8
:10BF7000F9240100F824010069260100DD250100F3
:10BF80006B2601006A2601006C2601002E240100A8
:10BF9000A42501003224010070B51A4A1A4CD37846
:10BFA0001A4A25781478174A194E1279212B02D093
:10BFB000222B24D118E0AA4201D0A2421FD1154A57
:10BFC0001378154A002B127801D1012A17D0002AC4
:10BFD00008D0124A02601046114A12888018306058
:10BFE000092009E00F4AF5E7AA4201D0A24206D192
:10BFF0000D4830600D4800880860012070BD0020A9
:10C0000070BD0000E8F2FF1F33240100342401005A
:10C01000E0F2FF1F2D240100CFF2FF1F692601006F
:10C02000E4240100DD250100C0240100E224010018
:10C0300070B51D481D4B0078C106C90E0AD01D46BB
:10C040001948143D1A4C6A780079012906D0022952
:10C0500028D10AE015480E38186021E0002A21D0C6
:10C06000A97888421ED2002016E08F2108400106E0
:10C0700005D50607360F01210904B14001E0012171
:10C080008140002A01D100070CD1A868084209D0DC
:10C09000E868084000D001202070000A60701C6031
:10C0A000012070BD002070BDE8F2FF1FE0F2FF1F0D
:10C0B000E016002070B5274B024618781946C006D6
:10C0C0004988254EC00E04D001282BD0022829D142
:10C0D00011E0012926D10224002A05D0012000F018
:10C0E00069FAF088204304E0002000F063FAF08849
:10C0F000A043F0802CE01C798F200440200605D559
:10C100002007000F01252D04854001E00125A540F1
:10C110007078002806D0200704D0B068284201D0EB
:10C12000002901D0002070BD002A05D0204600F073
:10C1300005FAF06828430AE03069284208D1204611
:10C14000FEF724F92046FFF75DFEF068A843F06093
:10C15000012070BDE8F2FF1FCCF2FF1FF8B55A486E
:10C1600000260178C906C90E7ED1574F80781C3F42
:10C1700000287FD0554801783846C078002901D181
:10C18000012871D0002801D0514C6CE0514C6AE07C
:10C190006078022804D0042846D0052861D145E003
:10C1A000494861798078814239D178702079B870B6
:10C1B0004A490020484A0B8802E000211154401CE3
:10C1C0009842FAD301250120B968A840084202D05C
:10C1D0002846FEF745F901200004B968A840084246
:10C1E00004D0284680210843FEF73AF96D1C102D33
:10C1F000E9D33B48B8600020F86038613D46012033
:10C20000FEF7E2F8E079400604D5E9880120014311
:10C21000E98026E0E88840084000E88021E0E078F6
:10C22000A178000208431DE0E6781AE0002E18D13C
:10C23000A5788F200540280605D52907090F01207C
:10C240000004884001E00120A840B968014320466D
:10C25000B960FEF7A9F82846FEF714F9284600F061
:10C260001DF92078041901E029E003E02078002876
:10C270008ED11FE0002501247D7080260120B96841
:10C28000A040084202D02046FEF7EAF80120000450
:10C29000B968A040084203D020463043FEF7E0F8DA
:10C2A000641C102CEAD3FD600D483D61B86000208D
:10C2B000FEF78AF8044879788078884201D0002017
:10C2C000F8BD0120F8BD0000E8F2FF1F2D24010099
:10C2D00069260100DD25010083F1FF1F30240100E4
:10C2E00001000100F0B585B000274448039701978D
:10C2F00000783E46C006C00E01287DD13F491C395A
:10C300004878002875D0002002903D480278084601
:10C31000C078002A01D101286ED0002801D0394C04
:10C3200063E0394C61E06078022804D004280DD025
:10C33000052858D11CE0314861791C384078814289
:10C3400051D0E078A178000208434DE0A778E67864
:10C350000020019029480179B94244D18078B04247
:10C3600041D1012002902948C15D0391C6553AE0B0
:10C3700022490879B84236D1A0788F221040009027
:10C380000006009804D50007000F01252D0400E0E9
:10C39000012585408878B04214D118481C3881683E
:10C3A00029438160C168A943C1602046FDF7FCFFB5
:10C3B0000098FEF767F8009800F070F8019828439D
:10C3C000019010E0039886420DD1019828420AD1CD
:10C3D0000A481C388168A9438160C168A943C160CB
:10C3E0000098FEF73DF820780419207800289AD1AB
:10C3F000029805B0F0BDFFE70020FAE7E8F2FF1F62
:10C400002D24010069260100DD25010083F1FF1FB5
:10C4100070B501261A48360606600120194D002421
:10C42000810049190C70401C1028F9D315211648B9
:10C43000FCF7FDF81548164944608460C460047038
:10C44000447040224A800A46A0324A60C8220A70DC
:10C450000C72104ACC614A610D2129700E490161AC
:10C4600008484038017D022211430175FF21017007
:10C4700001720173047602488038066070BD0000C6
:10C4800080E100E0C0200740A01F002090F1FF1FC6
:10C49000001A0020201B002055555555F8B50546BB
:10C4A000154F2C073E4600060121A03E240F002810
:10C4B0000EDA6000401C8140104802F0F4F82002BF
:10C4C000C11960018019803141610021C161F8BD4D
:10C4D00068008140C943094802F0D9F80748610162
:10C4E000001D425D881942802202D21942608822D2
:10C4F000725400210172F8BDA01A0020A0F1FF1FA4
:10C5000010B5FDF7B1FEFFF747FB10BD02480179FA
:10C51000DF221140017170478020074010B5FEF7FF
:10C52000ADFBFDF7A5FE10BD002903D14006024971
:10C53000400E087670470000802007400007810EFB
:10C540000348081801780222114301707047000067
:10C55000C020074010B5082202490020FFF7CAFB9F
:10C5600010BD0000E8F2FF1F10B5034881680120EC
:10C57000400201F0ADFC10BD0CF1FF1F10B5002210
:10C580001146802000F018F810BD000010B50348D7
:10C59000034902780020FFF7ADFB10BD32240100F3
:10C5A000E0160020024801792022114301717047F2
:10C5B0008020074070470000F8B50007114F840E37
:10C5C0001646A41CE200D01946803D460023A00177
:10C5D000A035451902E0C85CE8545B1CB342FAD3AD
:10C5E000094960080969C140C90701D0882100E0F4
:10C5F000C821B954012181400348103002F05FF88E
:10C600003046F8BD001A002090F1FF1F002070474F
:10C6100030B47446641E2578641CAB4200D21D46BB
:10C62000635D5B00E31830BC184710B5002A06DADA
:10C6300052005208D21DD308DB00102203E0D21CA6
:10C6400093089B000C22002B02D09C188C4201D92D
:10C65000012010BD82188360411802604160C91A30
:10C66000D018884202D810600246F9E70020106016
:10C6700010BD0000B0B5044602F054FF002804D0FD
:10C68000034F0249BC46206800DFB0BDFFFF000039
:10C6900011F00000B0B5044602F044FF002803D0BA
:10C6A000024F2068BC4600DFB0BD000069EF00000B
:10C6B000F8B516460F4600281BD1EFF31080C507CA
:10C6C000ED0F72B600231A461946184600F018FA04
:10C6D000040003D13146384600F064FA002D00D141
:10C6E00062B6002C05D1EFF30380C00601D105F03E
:10C6F00037F8F8BD7047000010B528220D490E48E4
:10C70000FBF7E6FD05F0F8F80C4805F0EFF804F04B
:10C710000BFF0B49012208600A4952020A600A4ACB
:10C72000012111600949400A08600A490848086067
:10C7300010BD0000781F010064010020C5D000007A
:10C74000C8F2FF1FA4F2FF1FA8F2FF1FACF2FF1FE9
:10C7500064FFFF1FB0F2FF1F00B591B0FDF7BCFBF7
:10C76000402801D9402001E000280DD081B2684660
:10C7700004F0D0F8010007D06846FDF7D5FB00288B
:10C7800002D0012001F0D2FB04F052F9014640280A
:10C7900001D9402101E000290DD06846FDF7A8FB32
:10C7A000002808D081B2684604F022F9002802D09F
:10C7B000012001F0BBFB01F0D1FB11B000BD000076
:10C7C000044841788078814201D0012070470020E0
:10C7D000704700009CF0FF1F30B50546EFF3108056
:10C7E000C407E40F72B6284600F007F8A968081AD3
:10C7F000401E002C00D162B630BDEFF31081CB0794
:10C80000DB0F72B606C808388A4201D3501A02E01C
:10C8100080681018401A002B00D162B67047EFF301
:10C820001083DB07DB0F72B68260C16000210160FC
:10C830004160002B00D162B67047000070B504461D
:10C84000EFF31080C507ED0F72B603CC083C8842A9
:10C8500001D0012000E0002043220DA1FFF728FFB6
:10C86000E16820680E5C401C2060A16888420AD301
:10C87000884201D1012000E00020482204A1FFF7F6
:10C8800017FF00202060002D00D162B6304670BD39
:10C890002E5C736F757263655C6461706C696E6B3E
:10C8A0005C636972635F6275662E630070B50446EF
:10C8B000EFF31080C507ED0F72B66268E06881542F
:10C8C0006068401C6060A16888420AD3884201D138
:10C8D000012000E00020312209A1FFF7E9FE00203D
:10C8E000606003CC884201D0012000E000203622A5
:10C8F00003A1FFF7DDFE002D00D162B670BD000080
:10C900002E5C736F757263655C6461706C696E6BCD
:10C910005C636972635F6275662E6300F8B51446E6
:10C920000E460746FFF769FF844200D220460546BF
:10C93000002404E03846FFF781FF3055641CAC4208
:10C94000F8D32846F8BDF8B514460E460746FFF75B
:10C9500043FF844200D220460546002404E0315DB6
:10C960003846FFF7A3FF641CAC42F8D32846F8BD55
:10C9700010B50C48C0780121C00948402A220AA1FC
:10C98000FFF796FE12490124640208462246103839
:10C99000FFF745FF0F49224608461038FFF73FFFD3
:10C9A00010BD000000B006402E5C736F75726365A9
:10C9B0005C6869635F68616C5C667265657363611E
:10C9C0006C655C6B6C32367A5C756172742E6300D8
:10C9D000D0120020E014002010B500F0A5FC10BD1E
:10C9E00010B500F0A1FC10BD02488079002800D0ED
:10C9F00001207047E41100200248C079002800D0CF
:10CA000001207047E41100200248007A002800D07D
:10CA100001207047E4110020F8B58C212348FBF772
:10CA200004FE8C272248FBF704FE204C214E204DAB
:10CA30004034B04213D168792A79010211438C291C
:10CA400001D20A4600E08C228C2901D90F4600E071
:10CA50008C2717491548FBF737FD0020E0718C2122
:10CA60001348FBF7E2FD12493046FBF7F3FD2F7147
:10CA7000390A69710D494122C91DE81DFBF724FDE2
:10CA8000607A227A01020A48114340300172090A91
:10CA90004172A17A8172E17AC1728A0003490C3035
:10CAA0004C31FBF711FD00F0AFF8F8BD5811002034
:10CAB000002F0020646C766B10B5094CE17A1029C8
:10CAC00001D3002010BD064A8900403A89184C3134
:10CAD000FBF7C0FDE07A401CC0B2E07210BD000060
:10CAE000402F002010B541210448FBF79EFD03486C
:10CAF0000021393001724172C17210BD072F002030
:10CB0000FFB581B01D4616460F461A48FBF754FC88
:10CB1000441C0198002802D03946FBF786FD00200E
:10CB2000002E00D03080002D00D028701149C91F80
:10CB3000C87900281BD0BC4201D8224602E0E01B85
:10CB400041183A460B4C0198C91D3934002804D0CD
:10CB5000607A237A000218433080002E02D00198B8
:10CB6000FBF7B2FC002D01D0A07A2870012005B09F
:10CB7000F0BD0000072F00200549CA7A002A04D022
:10CB80000A460C320260C87A7047002070470000E5
:10CB9000402F002002488079002800D001207047F3
:10CBA000002F0020F3B581B00746FBF705FC124DBE
:10CBB000441C41263146E81DFBF737FD412C02D8C5
:10CBC0003946224602E0413CE1193246E81DFBF7B6
:10CBD0007BFC094C029840342072000A607200F01D
:10CBE0000AF9002801D0012004E000F006F900282D
:10CBF00000D00220A072FEBD002F002001498871E4
:10CC000070470000002F002070B50022114610462A
:10CC1000FCF73EFD092220492048FBF755FC204C3B
:10CC200022781046627812021043A278E17812044A
:10CC3000104309061B4D0843A8420FD160792179A2
:10CC400000020843092804D26079217902020A43CC
:10CC500000E0092212491148FBF736FC0F4928462B
:10CC6000FBF7F8FC0D4909208880207801466078A0
:10CC700000020143A07800040143E078000601436C
:10CC8000A94205D16079217900020843092802D21E
:10CC9000024801F027FC70BDF4230100E4110020DC
:10CCA00000FC0100646C766B10B50349887108467E
:10CCB00001F018FC10BD0000E411002010B503497C
:10CCC000C871084601F00EFC10BD0000E411002000
:10CCD00010B503490872084601F004FC10BD0000BD
:10CCE000E4110020F8B50024E4430F460646002571
:10CCF00012E0705D082101F011FF000644400A496E
:10CD00000820002C02DA64004C4000E06400401E61
:10CD10000006000EF5D16D1CBD42EADB2021204645
:10CD200001F0FCFEC043F8BDB71DC104F8B50E46C6
:10CD300017462021C04301F0F1FE0446002512E011
:10CD4000705D082101F0EAFE000644400A4908200F
:10CD5000002C02DA64004C4000E06400401E000633
:10CD6000000EF5D16D1CBD42EADB2021204601F00A
:10CD7000D5FEC043F8BD0000B71DC10470B5144610
:10CD80000D460646FF2A07D8FF22DF320AA10020FF
:10CD9000FFF78EFC022070BD00F0ACFC002801D033
:10CDA0000E2070BD2A462146304600F00FFE0028B6
:10CDB000F7D01C2070BD00002E5C736F7572636528
:10CDC0005C6461706C696E6B5C647261672D6E2D62
:10CDD00064726F705C6961705F666C6173685F69D3
:10CDE0006E74662E63000000C1060007000F002964
:10CDF00000DB09307047002070470120704710B5F4
:10CE000000231A4600F0C8FA002800D0012010BD07
:10CE100010B504F09DFA012800D0002010BD0000DC
:10CE2000F8B5164E1F2530780024AD02012806D033
:10CE3000FF22393212A10020FFF73AFC0AE0B07855
:10CE40000227002808D0FF223F320DA10020FFF763
:10CE50002FFC37700220F8BD204600F029F800288A
:10CE600002D037701E20F8BD012080022418AC4289
:10CE7000F2D30120B0700020F8BD000078F0FF1F51
:10CE80002E5C736F757263655C6461706C696E6B48
:10CE90005C647261672D6E2D64726F705C69617085
:10CEA0005F666C6173685F696E74662E6300000074
:10CEB000F8B5254E05463078012806D0FF2201320C
:10CEC00022A10020FFF7F4FB1AE00127BF02394638
:10CED0002846FBF7C7FB0224002902D0FF220932B3
:10CEE00009E0F07800280DD0F168B0684018A84239
:10CEF00008D0FF22103215A10020FFF7D9FB3470B3
:10CF00000220F8BD01227F20D20380020121954238
:10CF100003D3854201D2002000E00846002810D04B
:10CF2000F170F7602846B56000F094FF222803D026
:10CF30000028E6D03470F8BD284600F0DBFB00285E
:10CF4000F9D034701D20F8BD78F0FF1F2E5C736F90
:10CF5000757263655C6461706C696E6B5C64726150
:10CF6000672D6E2D64726F705C6961705F666C61B5
:10CF700073685F696E74662E630000000120800292
:10CF80007047000010B5242804D2064980000858D4
:10CF9000002805D1E12204A10020FFF789FB08A0A9
:10CFA00010BD0000342301002E5C736F7572636541
:10CFB0005C6461706C696E6B5C6572726F722E631B
:10CFC0000000000001460120242901D20148405CF4
:10CFD00070470000C8F0FF1FF3B581B00446009011
:10CFE00000E0641C2078402802D00028F9D15EE0DF
:10CFF0006078622848D012DC522854D008DC4228DD
:10D0000042D0442849D0482841D04D2817D134E097
:10D0100054283FD0552833D0562810D140E07228EC
:10D0200041D006DC642838D0682830D06D2806D17D
:10D0300023E074282ED0752822D0762830D01DA564
:10D040002046FBF7B9F907462846FBF7B5F906462F
:10D05000A019029B009AC119D218891E914225D2AB
:10D06000BA1EA11CFBF794FA324629462046FBF76C
:10D070002BFA20780028B5D119E000F0BFFD01E0BF
:10D0800000F0C4FD0546DBE700F06AFDFAE700F0BA
:10D0900095FDF7E700F0B6FDF4E700F08BFDF1E752
:10D0A00000F0BCFDEEE705480568C9E7E419009803
:10D0B000201AFEBD4552524F520000001C1F0100B5
:10D0C00070470000F8B51E4615460C46074604F0AA
:10D0D000A9FC2048007803280CD01E482038022CD8
:10D0E00009D0002C19D0012C04D10068A84201D12C
:10D0F00003F00EFAF8BD0068A842FBD1304604F0F8
:10D10000EBF90446304604F0EDF90646384602F0E5
:10D11000BBFB03462246314617E0384602F0B4FB1B
:10D120000328E7D0304604F0D5F98007E2D438462A
:10D1300002F0AAFB0746304604F0CEF9044630461A
:10D1400004F0D0F901463B462246284603F0AEFAE9
:10D15000F8BD000084010020F7B51C4E0446B078ED
:10D160005502174600280BD12946019802F04CFBC6
:10D17000032802D0214603F049FAB078002812D0E3
:10D18000124920394868A0420DD8C868A0420BD087
:10D19000A04208D90869401C00D10C610869A0426E
:10D1A00000D204460C61FEBDC8692A468018C861D9
:10D1B000E019C860F078002803D0002003F0C0FA1E
:10D1C000FEBD2046019903F0CFF9FEBD8401002089
:10D1D000F0B585B018A1096804910378002104AA6C
:10D1E000545C9C4226D0491C0329F9D313A10A6838
:10D1F0008E6896464A68CD6800239446C25C7146A4
:10D2000064466F46039552C711466139192911D9F1
:10D21000202A01D2052A0DD100216C46675C974275
:10D2200008D0491C1029F9D35B1C0B2BE6D3012035
:10D2300005B0F0BD0020FBE7E5002000222A2B2CE2
:10D240002E2F3A3B3C3D3E3F5B5C5D7C70B5044617
:10D25000204600F01AF80546002D00D070BD0449A4
:10D2600002480968884700BFF8E700000C3000F06A
:10D2700038F1FF1F01680122920211430160BFF3E0
:10D280006F8FBFF34F8F70477047002807D0C0697A
:10D29000002802D00068022803D06D2070470420C7
:10D2A00070470020704710B5002806D05B1E194259
:10D2B00001D11A4203D0652010BD042010BD0368BF
:10D2C0008B4204D8406889181818884201D2662019
:10D2D00010BD002010BD00000349884201D06B2022
:10D2E00070470020704700006B66656B10B50C4CF2
:10D2F00070212170FFF7C9FF002807D10949204696
:10D30000096888472078810601D5672010BDC106CD
:10D3100001D5682010BDC007FCD0692010BD0000F9
:10D320000000024034F1FF1F70B50E4D00202C7834
:10D33000002C0FD000212970A978002901D000F01D
:10D34000F5FA022C05D06978032902D0002800D113
:10D35000212070BDFF22343203A10020FFF7A8F97D
:10D36000022070BD4CF0FF1F2E5C736F75726365F9
:10D370005C6461706C696E6B5C647261672D6E2DAC
:10D3800064726F705C666C6173685F6465636F6420
:10D3900065722E63000000003EB51D46044630292C
:10D3A00001D3012000E00020402212A1FFF780F904
:10D3B00021460C2220316846FBF786F8194901986E
:10D3C00088420BD118490098884201D102203EBD05
:10D3D0001549FC3988420AD101203EBD204603F0A0
:10D3E00063FF002801D1002D01D003203EBD0020A5
:10D3F0003EBD00002E5C736F757263655C64617086
:10D400006C696E6B5C647261672D6E2D64726F70F7
:10D410005C666C6173685F6465636F6465722E63DC
:10D4200000000000019996978F9E939BFFB581B0F5
:10D430000746002404982546002813D00A9800289F
:10D4400010D00499002008600A9906460860FFF78A
:10D45000D2FC002812D00120C003022F04D0032FD9
:10D460000AD013E0652237E00399002904D002991D
:10D47000814201D018240AE0064615E0FFF7BDFC02
:10D48000002803D0012F07D0032F0FD01924FFF756
:10D49000B3FA00280FD010E00398002804D00298B7
:10D4A000002801D01724F2E70E4802E00E488668F3
:10D4B0000E480568EBE7012F04D0002C04D020466D
:10D4C00005B0F0BD1924FAE7002D04D004980660D9
:10D4D0000A980560F3E79D2205A10020FFF7E8F810
:10D4E0000220EDE7741F0100C8F1FF1FF0230100C7
:10D4F0002E5C736F757263655C6461706C696E6BD2
:10D500005C647261672D6E2D64726F705C666C6115
:10D5100073685F6465636F6465722E63000000006A
:10D5200010B50D4C2078002806D0AC220BA10020AD
:10D53000FFF7BEF8022010BDFF2230211348FBF791
:10D540004FF801202070002060706060A060E060F3
:10D55000A070E07010BD00004CF0FF1F2E5C736FD8
:10D56000757263655C6461706C696E6B5C6472613A
:10D57000672D6E2D64726F705C666C6173685F649A
:10D5800065636F6465722E6300000000E8F6FF1F9C
:10D59000F7B5494F0546387884B01446012807D0BE
:10D5A000C12246A10020FFF783F8022007B0F0BD9A
:10D5B000F878002803D1BD600120FD60F870B878CC
:10D5C000002856D1F9688D4201D1012000E00020E9
:10D5D0000919F96000282FD0786830210E1AA64268
:10D5E00000D916464149324608180599FAF76CFFEA
:10D5F0007868A41B801978600599AD19891905917F
:10D60000302829D316D00020E3222CA1FFF750F8B0
:10D6100001233648BA687968FFF7BEFE787001A822
:10D62000009002AB01227878B968FFF7FFFE00286E
:10D6300026D103E00120E7E70320EFE7B8780126D1
:10D640007040FC221DA1FFF733F8019800F008F9A3
:10D65000002815D1BE7002E0B878002813D0234905
:10D660007A68B86800F06EF8002809D1B878002808
:10D6700009D022462846059900F064F8002802D017
:10D680000321397092E77878012804D0022805D068
:10D6900003280FD105E01F20800204E07F208002D4
:10D6A00001E01348C0682919814203D30220387071
:10D6B00010207BE7002079E74CF0FF1F2E5C736F92
:10D6C000757263655C6461706C696E6B5C647261D9
:10D6D000672D6E2D64726F705C666C6173685F6439
:10D6E00065636F6465722E6300000000E8F6FF1F3B
:10D6F000C8F1FF1F10B5EFF31081CC07E40F72B62D
:10D70000FBF7E0FD002C00D162B610BD70B50E46EF
:10D710000500144613D020211046FAF788FF266032
:10D72000E8686060A9686868FAF79CFFA060042058
:10D73000E06020616061A061E061002070BD0420B4
:10D7400070BD0000F7B5384F0446787800251646BE
:10D75000012805D07B2235A10020FEF7A9FF09E0B2
:10D760007869844208D2832230A10020FEF7A0FF0E
:10D77000022078700220FEBDF878002809D12046EA
:10D7800001F044FF050002D0022078704AE0012039
:10D79000F870254FBA6878688118A14219D8B9780D
:10D7A00000290BD1B9698B682C499847050003D033
:10D7B0001D490220487035E00120B870FF2227483B
:10D7C000B968FAF70DFF2046B968FAF74BFF601AFF
:10D7D0007860002E24D03969F8684018A04204D837
:10D7E000204601F013FF0500E2D10F49486889681F
:10D7F000201A0F1ABE4200D2374618493A46081876
:10D800000199FAF761FE002F08D000200649E419BB
:10D8100088700198C019F61B0190BAE70120F5E75E
:10D82000014844612846FEBD5CF0FF1F2E5C736F0B
:10D83000757263655C6461706C696E6B5C64726167
:10D84000672D6E2D64726F705C666C6173685F6DBE
:10D85000616E616765722E630000000018F7FF1F9C
:10D8600070B5244D04466878002801D047222FE087
:10D87000002C2CD06068002829D0A068002826D071
:10D88000E068002823D02069002820D060690028A3
:10D890001DD0A06900281AD0E069002817D0012106
:10D8A000FF2289021448FAF79BFE0126AE70002081
:10D8B000E8706860A860E8602861AC616861206811
:10D8C0008047040009D12878002807D010E04D22B5
:10D8D0000AA10020FEF7ECFE022070BDA8690069D5
:10D8E0008047040004D0A86940688047204670BD86
:10D8F0006E70FBE75CF0FF1F18F7FF1F2E5C736F65
:10D90000757263655C6461706C696E6B5C64726196
:10D91000672D6E2D64726F705C666C6173685F6DED
:10D92000616E616765722E630000000070B5194C6E
:10D9300000256078002802D0012807D010E0CE2210
:10D9400015A10020FEF7B4FE022070BDA0780028CB
:10D9500006D1A0691C498368A2686068984705469B
:10D96000A0694068804706460121FF2289021648C7
:10D97000FAF736FE01200021A070E1706160A1601D
:10D98000E160216161616170002E01D0304670BD9F
:10D99000284670BD5CF0FF1F2E5C736F7572636567
:10D9A0005C6461706C696E6B5C647261672D6E2D76
:10D9B00064726F705C666C6173685F6D616E6167E5
:10D9C00065722E630000000018F7FF1F10B5EFF31B
:10D9D0001083DC07E40F72B6FBF796FE002C00D133
:10D9E00062B610BD8021017001780906FCD5704730
:10D9F000704700000346012201490020184700003B
:10DA000098010020024800698007C017401C704739
:10DA100040F00F400020704708B51A48816B1F2264
:10DA20005202114381631849801508610861086139
:10DA3000164A50608860002000F03AF8002000F09C
:10DA40002DF8002000F03EF8114801680423194326
:10DA50000160426910210A43426142690A434261FE
:10DA600042690A434261416919434161084880386B
:10DA7000416902229143416106480090401E009096
:10DA8000FCD108BD0080044000C0044000A0044058
:10DA9000C0F00F4040420F007047000010220349C1
:10DAA000012801D04A6070478A607047C0F00F407B
:10DAB00010220349012801D04A6070478A607047EC
:10DAC000C0F00F4010220349012801D04A6070477E
