:04000005000080C1B6
:020000040000FA
:10800000D02700200983000011830000C5960000DE
:10801000000000000000000000000000513BFEDFF7
:108020008F9E939B01999697FE000000B9810000F6
:10803000000000007C2C01005D820000BD82000079
:108040001B8300001B8300001B8300001B830000B8
:108050001B8300001B8300001B8300001B830000A8
:108060001B8300001B8300001B8300001B83000098
:108070001B830000F19D00001B8300001B83000098
:108080001B8300001B8300001B8300001B83000078
:108090001B8300001B8300001B8300001B83000068
:1080A000D19E00001B8300001B8300001B83000087
:1080B0001B8300001B8300001B8300001B83000048
:1080C00000F002F800F030F80CA030C8083824188E
:1080D0002D18A246671EAB4654465D46AC4201D100
:1080E00000F022F87E460F3E0FCCB6460126334202
:1080F00000D0FB1AA246AB4633431847DCBF000052
:10810000FCBF00000023002400250026103A01D304
:1081100078C1FBD8520700D330C100D50B6070473F
:108120001FB51FBD10B510BD00F076FB1146FFF75F
:10813000F7FF06F035F900F08EFB03B4FFF7F2FF0E
:1081400003BC00F03FFB000080F309887047EFF3A9
:1081500009807047684680F3098806480078C007A0
:1081600003D1032080F314887047022080F3148821
:108170007047000088350100064B9C46EFF30583ED
:108180001B0605D1EFF31483DB0701D000DF704736
:108190006047000085F10000064B9C46EFF3058325
:1081A0001B0605D1EFF31483DB0701D000DF704716
:1081B0006047000099F30000EFF309808169891E90
:1081C0000978002933D1A6461FC8A4467446E04763
:1081D0001F4B06CB914224D0083B002910D00CB491
:1081E000203101234B70EFF30983203B4B60F0C338
:1081F00044464D4656465F46F0C307F063FB0CBC51
:108200001A60203253681033F0CBA046A946B2461C
:10821000BB4683F30988203BF0CB5078002803D07D
:108220001078EFF3098318600223DB43184710B579
:10823000084A1268914209D8074C89006458A6463A
:108240001FC8A446F047EFF309840FC410BD000017
:10825000CCF4FF1FFC880000FC88000007F018FA2F
:10826000154B06CB914223D0083B0CB420310023A0
:108270004B70EFF30983203B4B60F0C344464D46FF
:1082800056465F46F0C307F01DFB0CBC1A60203257
:1082900053681033F0CBA046A946B246BB4683F3E1
:1082A0000988203BF0CB5078002801D01078186165
:1082B0000223DB4318470000CCF4FF1F07F0BAFB92
:1082C000CEE7000006F0F2FA07F0B4FBC8E70000C2
:1082D00070B505460C46164602E00FCC0FC5103EA1
:1082E000102EFAD2082E02D303CC03C5083E042E6A
:1082F00007D301CC01C5361F03E021782970641C27
:108300006D1C761EF9D270BD0748804707480047AC
:10831000FEE7FEE7FEE7FEE7FEE7FEE70448054965
:10832000054A064B70470000419D0000C1800000D7
:10833000D0250020D0270020D0260020D0260020E5
:10834000004870477025002010B5002000F040FA6A
:10835000FFF7E8FE012000F035FA10BD034610B526
:108360000B439B070FD1042A0DD308C810C9121F55
:10837000A342F8D018BA21BA884201D9012010BD11
:108380000020C04310BD002A03D0D30703D0521CE5
:1083900007E0002010BD03780C78401C491C1B1B13
:1083A00007D103780C78401C491C1B1B01D1921E7D
:1083B000F1D1184610BD000030B5441C03E001782F
:1083C000401C00290DD08107F9D10B4BDD0104C8F9
:1083D000D11A91432940FAD0001B0A0603D0C01ECF
:1083E00030BD001B30BD0A0401D0801E30BD090223
:1083F000FCD0401E30BD00000101010170477047F4
:10840000FFFFFFFFFFFFFFFFFFFFFFFFFEFFFFFF7D
:108410000346F0B50B439B072DD1244DEF01042AF1
:1084200029D308C810C95E1B9E43121F3E4017D0B7
:10843000D8B2E1B2401A3106014310D198B2A1B2CC
:10844000401A310401430AD118022102000A090A24
:10845000401A3102014302D1180E210E401AF0BD1C
:10846000A342DCD018BA21BA884201D90120F0BD5C
:108470000020C043F0BD002A01D10020F0BD0378E8
:108480000C78401C491C002B0DD0A3420BD1521E6E
:1084900009D003780C78401C491C002B03D0A34260
:1084A00001D1521EEBD1181BF0BD000001010101EA
:1084B000421E5378521C002BFBD10B78491C1370C1
:1084C000521C002BF9D17047F8B5042A2CD383072E
:1084D00012D00B78491C0370401C521E83070BD02E
:1084E0000B78491C0370401C521E830704D00B7884
:1084F000491C0370401C521E8B079B0F05D0C91AE4
:10850000DF002023DE1B08C90AE0FFF7E1FEF8BD0B
:108510001D4608C9FD401C46B4402C4310C0121F24
:10852000042AF5D2F308C91A521EF0D40B78491C5C
:108530000370401C521EEAD40B78491C0370401C87
:10854000012AE4D409780170F8BD431A70B593424A
:108550001BD28918801804E0491E401E0B78521E59
:1085600003709307F8D106E01039103878C9103934
:1085700078C01038103A102AF6D203E0091F001F05
:108580000B680360121FF9D570BDFFF7A1FE70BD27
:10859000F8B5064614460843800707D0751AA54269
:1085A00019D20819102D13D2311907E03046FFF700
:1085B000CCFFF8BD401E491E02780A70641EF9D235
:1085C000F8BD471B2A463946FFF77EFF641B384635
:1085D000A542F6D3011B22463046FFF775FFF8BDD2
:1085E000D2B210B513029A1813049A1800F00EF8BC
:1085F00010BD01E004C0091F0429FBD28B0701D57F
:108600000280801CC90700D00270704700290BD07F
:10861000C30702D00270401C491E022904D38307FD
:1086200002D50280801C891EE3E70022EEE70022CB
:10863000DFE70378C2781946437812061B02194314
:108640008378C0781B04194311430902090A000604
:1086500008437047020A08704A70020C8A70020EC2
:10866000CA707047002203098B422CD3030A8B4245
:1086700011D300239C464EE003460B433CD400221A
:1086800043088B4231D303098B421CD3030A8B422C
:1086900001D394463FE0C3098B4201D3CB01C01AFA
:1086A000524183098B4201D38B01C01A52414309C5
:1086B0008B4201D34B01C01A524103098B4201D3B3
:1086C0000B01C01A5241C3088B4201D3CB00C01A20
:1086D000524183088B4201D38B00C01A5241430898
:1086E0008B4201D34B00C01A5241411A00D20146BD
:1086F0005241104670475DE0CA0F00D04942031056
:1087000000D34042534000229C4603098B422DD3A4
:10871000030A8B4212D3FC22890112BA030A8B424C
:108720000CD3890192118B4208D3890192118B429B
:1087300004D389013AD0921100E08909C3098B4220
:1087400001D3CB01C01A524183098B4201D38B0163
:10875000C01A524143098B4201D34B01C01A524106
:1087600003098B4201D30B01C01A5241C3088B424B
:1087700001D3CB00C01A524183088B4201D38B0036
:10878000C01A5241D9D243088B4201D34B00C01AC0
:108790005241411A00D20146634652415B101046D5
:1087A00001D34042002B00D54942704763465B101D
:1087B00000D3404201B50020C046C04602BD70470C
:1087C0007047704701491820ABBEFEE72600020043
:1087D00010B500F009F800F001F810BD10B5002840
:1087E00001D0FFF7EFFF10BD10B5002102A000F08F
:1087F0003AF8012010BD0000534947414252543A13
:108800002041626E6F726D616C207465726D696E6D
:108810006174696F6E0000007546FFF791FDAE460A
:10882000050069465346C008C000854618B020B50B
:10883000FFF774FD60BC00274908B6460026C0C596
:10884000C0C5C0C5C0C5C0C5C0C5C0C5C0C5403D08
:1088500049008D46704710B50446C046C0462046C4
:10886000FFF76BFC10BD70B505460C460A2000E012
:108870006D1C00F012F8002D06D028780028F7D1E2
:1088800002E0641C00F009F8002C02D020780028D7
:10889000F7D10A2000F001F870BD08B569460870EC
:1088A0000320ABBE08BD70B58C180578401C6B0763
:1088B0005B0F01D10378401C2A1106D10278401CBD
:1088C00003E00678401C0E70491C5B1EF9D12B0793
:1088D00005D40023521E0DD40B70491CFAE703780F
:1088E000401CCB1A921C03E01D780D70491C5B1CC8
:1088F000521EF9D5A142D8D3002070BD000000005F
:10890000F8B502787F2A02D000F04CF8F8BD0A7062
:108910004478861C4C708D1C074F08E02946304671
:1089200000F040F8010C3F188E1980B24519641E02
:10893000F4D23846F8BD00000200020070B50024F1
:108940000D4606282BD006DC030003F033FF052874
:1089500028280D102800F02816D0FD281FD0FE284A
:108960001AD0FF281BD111E005F0BAFB01E005F099
:10897000BFFB0646FFF720FD401CC4B2224631462D
:108980002846FFF7A1FD0AE0112006E040202870EC
:1089900000204870022402E00520087001242046CF
:1089A00070BD0000F8B502781346803B1F2B02D83B
:1089B00000F00EF9F8BD0A7007784C1C421C002527
:1089C000FF217D487D4E3B0003F0F4FE170D151E80
:1089D0003B95A2BFF2DA4C55F2F2F2F2F2595E6325
:1089E000727C9238F2001078611CFFF7A7FF74497F
:1089F00020704018F8BD107800283AD0012838D0EF
:108A000021706F48401EC0E01178002903D0012971
:108A100002D0002112E001210122027069482022C7
:108A200042604025456083154360476917434761AD
:108A300042692A43426142691A43426121703046C9
:108A4000A3E005705F48426920218A434261416981
:108A5000402291434161426981158A4342612570F8
:108A6000012092E050781178000208430001401E76
:108A7000FDD12570C5E765702570022085E021468F
:108A8000104600F07FFB80E02146104600F04AFBD4
:108A90007BE01778511C002F01D1FF2701373846A2
:108AA00001F028F9FF1D2570F808000480196CE01A
:108AB00011788A07920F521C49070275C90F417538
:108AC0002570BCE72170012113780C46521C0AE086
:108AD0001078521C8006800E00D14020C01DC008B6
:108AE00012180918491C5B1EF2D2080420434CE0FE
:108AF00010782170D9E711780172937857781902AC
:108B0000394341811179D2780902114381814CE0C6
:108B100000782146012814D01346521C1078521CAC
:108B2000002808D01778521CBC0701D5FC0600D5D8
:108B3000121D401EF6D1D01A0D7000044D70801C1D
:108B400023E0104600F0CAF81FE0007817462146DF
:108B5000012809D00D704D70A5700320F9781A4ACC
:108B6000890705D5104310E0104600F049FAF5E7F3
:108B7000B9787B780902194389048918084304E00D
:108B80000078012803D0217010488019F8BD1746DD
:108B9000501CFFF74EFD39790002000A0906084310
:108BA00000906946002000F033FE2570ECE7FFE7F7
:108BB000203CE1773046F8BDF0F5FF1F01000100D1
:108BC0000200020080F00F400000040001000500D8
:108BD000FEB502780A704D1C01783D4C401C80396E
:108BE0000646671C0B0003F0E5FD0D081622384011
:108BF0007171714755606468710005F071FA07463C
:108C0000FFF7DAFBC6B22E70681C32463946FFF712
:108C10005BFCA41927E00724684601F095FB224677
:108C200069462846FFF750FC294C08344EE0684658
:108C300001F08AFB002002900422314602A8FFF7CF
:108C400043FC02980090684601F09EFB002001F072
:108C50001BFC012028701F4C38E03E21681C08F0E6
:108C600009FC28702418641C30E03778401C394611
:108C700008F06EFC012025E00120287030780028E3
:108C800005D0012803D000202870134C1EE005F009
:108C900011FDFAE70120287003F078FF002802D1C7
:108CA000022008F0BBF93C4610E0007807F03AF9E2
:108CB000EAE707F007F92870F5E73778401C3946EE
:108CC00007F0CAF928703904081904192046FEBDB6
:108CD000010001000200050002000200F0B589B0A9
:108CE0000890044600208D1C0391C349029008702F
:108CF000049005906678A41C002E6FD02778641C21
:108D0000B9076CD50499002935D0BC484089019039
:108D10001120384001280FD16946384600F078FD0F
:108D200002281AD10199491E0191491C03D0B24968
:108D300009780029F0D012E169460E2000F068FDA4
:108D4000022808D10199491E0191491C03D0AA4962
:108D500009780029F0D0002104910128EBD1009975
:108D600029700099090A69700099090CA970009985
:108D7000090EE9702D1DF90658D52046FFF759FC5C
:108D8000E1780002000A0906084307909B48241D69
:108D900080890690F80715D09848408901900021F5
:108DA000384600F035FD022802D00128C3D109E081
:108DB0000199491E0191491CBDD08F4909780029AC
:108DC000EDD0CCE08D48408901906946384600F0EE
:108DD0001FFD022804D001281CD10BE0E0E064E074
:108DE0000199491E0191491C14D083490978002931
:108DF000EBD00FE08149009A09691140079A91422E
:108E000008D00699491E0691491C03D07A49097871
:108E10000029D7D07949009A09691140079A9142EF
:108E200001D01021084301281AD13CE07349498937
:108E30000191F90718D00499002934D1002138464E
:108E400000F0E6FC022802D0012809D109E00199CE
:108E5000491E0191491C03D0674909780029EDD0CA
:108E60007DE0012104911EE06946384600F0D0FC07
:108E7000022802D0012872D109E00199491E01910E
:108E8000491C6CD05C4909780029EDD067E0009955
:108E900029700099090A69700099090CA970009954
:108EA000090EE9702D1D00214DE00498002823D003
:108EB00052484089019069460E2000F0A9FC022822
:108EC00002D001284BD109E00199491E0191491CAA
:108ED00045D0494909780029EDD040E00098287034
:108EE0000098000A68700098000CA8700098000EA6
:108EF000E87000202D1D04902046FFF79AFBE178D2
:108F00000002000A09060843241D0090B90603D593
:108F10003A490861012017E03848408901906946C4
:108F2000384600F075FC022802D0012817D109E06C
:108F30000199491E0191491C11D02F490978002936
:108F4000EDD00CE0012105910299491C02912A49BA
:108F50000978002903D1761E00D0CFE60AE0002E62
:108F600008D02178641C8A0701D5C90600D5241DC4
:108F7000761EF4E7012832D1049900291ED01F483B
:108F80001D4F468969460E2000F042FC022802D09F
:108F9000012824D105E0761E21D339780029F1D0AB
:108FA0001DE0009929700099090A69700099090C5F
:108FB000A9700099090EE9702D1D10E0059900298E
:108FC0000DD00E480C4F468900210E2000F020FCE9
:108FD000022804D1761E02D339780029F4D0039AEE
:108FE000029911700399487008980399201A000497
:108FF000691A084309B0F0BD00F0FF1FF0F5FF1F2C
:10900000F3B583B00025CE1C0291444902462846A0
:109010000D70917853780C02D21C1C4373D01178D8
:10902000521C0091039289075DD50099C90737D07A
:109030003B4847890021009800F0EAFB022802D053
:10904000012860D12CE07F1E5DD3344909780029C6
:10905000F0D058E0002C04D10098C00701D00E20B9
:1090600000902F48478901A9009800F0D1FB022801
:1090700002D0012847D106E07F1E44D32749097852
:109080000029F0D03FE00199317001996D1C090A67
:1090900071700199090CB1700199090EF170361DBA
:1090A000641ED7D22FE00398FFF7C3FA039900029A
:1090B000C978000A0906084301900398001D03902F
:1090C0001748478901A9009800F0A2FB022802D0A6
:1090D000012818D106E07F1E15D310490978002910
:1090E000F0D010E06D1C641EDDD20D480B4F44899A
:1090F00000210E2000F08CFB022804D1641E02D354
:1091000039780029F4D002990D70029A290A517019
:1091100002998870029805B0301AF0BD00F0FF1F68
:10912000F0F5FF1FF8B50C460546FFF782FA01027D
:10913000E878090A0006104F014307D00F480026BF
:109140000F4D814205D30120687010E0FF20207090
:109150000FE00A486E70401E0818FFF783FA0128D6
:1091600004D90321401CFFF77DFA00E0012068606C
:1091700026703846F8BD00000100040000366E017C
:10918000F0F5FF1FF8B50746057844780E46801CB9
:10919000FFF74FFA01027879090A000601432F48C8
:1091A000E20706D0EB072022002B01D0426000E04E
:1091B0008260A20706D5AB074022002B01DA42608D
:1091C00000E08260220606D5EA09D307244A01D0CE
:1091D000426000E08260002300292ED0214A9142A3
:1091E00000D91146204A9361302779435161052106
:1091F0001161E10704D001698906C90FA94217D19D
:10920000A10705D501696F084906C90FB9420FD1F9
:10921000610701D5A9080BD1A10601D5690907D1BC
:10922000210609D50169EF09C905C90FB94203D063
:109230001169C903C90FDCD013610169026989068C
:10924000C90F5206D20F520000691143C005C00F6A
:10925000C001014331700548F8BD000080F00F40A7
:1092600000010000C0C62D0000E000E00100060083
:1092700010B516480021017041700322426001724E
:109280006422428181810122016102754175104889
:10929000816B1F22520211438163FF200D4903306D
:1092A00048610D4820224260436913434361FF2413
:1092B00004348C61402242604369934343610C62F1
:1092C0008115416042690A43426110BDF0F5FF1FFC
:1092D0000080044000B0044080F00F40F8B5C41D89
:1092E0000546F934E06C1E460F46002823D0402A7C
:1092F00000DD4022401EE064606D80014019FFF7F0
:10930000E3F8606D800141193846FFF7F9FA616DA5
:1093100049004919FF3141310880606D0521800104
:1093200040193060606D401CFFF79CF96165206D4D
:10933000401C20650120F8BD10B5C41DF934236D13
:10934000002B17D05B1E2365A36D9B011B180B60C0
:10935000A16D49000818FF30413000881060A06DF1
:109360000521401CFFF77EF9A165E06C401CE0641C
:10937000012010BD002010BDFF30002201304265E9
:10938000826505210265C1647047000070B505461D
:10939000EFF31080C407E40F72B6094E094B29465B
:1093A0003046F26800F010F8002805D10023294665
:1093B0003046F26800F000F9002C00D162B670BDB2
:1093C0006C0E00206B66656BFFB589B016460C46C7
:1093D0006A46099804F05CFB32462146049B0998D2
:1093E00004F091F805002BD1009C019FA619761E70
:1093F00039463046FFF736F900291BD0401C784328
:10940000461E17E021020920090A000609180D4826
:1094100041600C9804F090F8002811D1099804F0EC
:1094200095F8054609980069002800D08047002D6E
:1094300002D1E419B442E5D9099804F037F8284676
:109440000DB0F0BD0000024070B5040027D01648F2
:10945000C0680001000F0F2823D014494000085AAB
:1094600080020025256060600120A0606561A56123
:1094700080022561E060204604F037F800280AD019
:109480000B48014680390560416040318160E061F0
:10949000204600F00FF825620020656270BD0420B0
:1094A00070BD01204004DCE740800440143301001B
:1094B000200F002070B5002822D0C4691648402231
:1094C000410816484900400840006568884202D9B2
:1094D000421A402A12D82846FEF7F6FF1148104ECD
:1094E000410811486D1C3560400840224900400089
:1094F000A568884206D9421A402A03D9FEF724FFFC
:10950000042070BD2846FEF7DFFF6D1C0220756049
:109510002060002070BD000091DD00009DDD000096
:10952000E0F2FF1FD5D40000E9D40000FFB589B0F8
:109530001F4614000D460DD06A46099804F0A8FA9B
:109540003A462946039B099803F0DDFF060002D145
:10955000009D28E004200DB0F0BD02CC15488160CC
:109560000399042902D0082907D00EE0290203221A
:10957000090A52068918416007E002CCC16029023D
:109580000722090A120689184160099803F0DEFFD4
:10959000064609980069002800D08047002E04D1B3
:1095A000039845193F1A002FD7D1099803F07EFF81
:1095B0003046D0E700000240FFB589B014460D46A2
:1095C0006A46099804F064FA22462946059B0998E0
:1095D00003F099FF00282FD16A462946099804F024
:1095E00057FA009D029808906942404201404F425C
:1095F000AF4201D108983F18002C1CD07E1BA64218
:1096000000D9264630460599FFF72CF82902012299
:10961000090A12068A1809494A600C9A00041202C3
:109620001043FF308860099803F090FF002803D1B1
:10963000A41BAD19DEE700200DB0F0BD0000024014
:10964000FFB589B0129F1D0016460C4610D06A4621
:10965000099804F01DFA32462146079B099803F049
:1096600052FF002805D1154A39068F18009C22E0C8
:1096700004200DB0F0BD21020120090A400609189E
:109680000F48416087602968C160099803F05EFF58
:10969000002809D01399002900D00C6014990029E2
:1096A000E7D000220A60E4E70799761A8908890062
:1096B0004D1907990C19002EDDD1DAE7FFFFFF00E5
:1096C00000000240EFF3088470460007000F0D28E9
:1096D00001D1EFF309842546A08B2035800500D504
:1096E0002D1D7046C00600D44835704603F0BCFA04
:1096F000EFF3098003F0B8FAEFF3088003F0B4FA4F
:10970000EFF3148003F0B0FA284603F0ADFA606975
:1097100003F0AAFAA06903F0A7FAE06903F0A4FA3B
:109720004A2203A1002003F095F800F055FBFEE764
:109730002E5C736F757263655C6461706C696E6BCF
:109740005C486172644661756C745F48616E646CFC
:1097500065722E630000000010B5EFF31080C007A3
:10976000C00F72B60021064A1160002800D162B60F
:109770000448FFF769FE002800D0012010BD00005A
:10978000008104406C0E00201CB506F0B3FE0028DA
:109790001AD09E2069460870E7204870102000F01B
:1097A000A9FA012406F0A6FE00280DD00020694683
:1097B0000870082000F09EFA01A9002006F030FE93
:1097C000012802D1002C00D01CBD00201CBD0000CF
:1097D000FEB5074616460D46EFF31080C407E40FAA
:1097E00072B60B4639460948FFF7A0FE002809D19A
:1097F000012101900091029033462A4639460348E0
:10980000FFF71EFF002C00D162B6FEBD6C0E0020DB
:1098100000B5054A5278002A02D000F007F800BDD2
:1098200000F0E0F800BD0000F0F5FF1FF0B58C4639
:109830006A4E4021024671602027B7607760C007FA
:1098400001D0716000E0B160B76077605008C40774
:1098500001D0716000E0B160B760776013189008C4
:10986000C40701D0716000E0B160B76077601B1879
:10987000D008C40701D0716000E0B160B7607760C4
:109880001818C00701D0716000E0B160B760776060
:10989000B160B76077607160B76077607069884366
:1098A00070614F48007D041E03D0B7607760401E92
:1098B000FBD1B760306977604006C00FB76033698D
:1098C00077605B06DB0F5B000343B760306977604E
:1098D0004006C00F8000184301280DD002285DD03B
:1098E00004285BD0213403D0B7607760641EFBD1BD
:1098F00072690A4372616FE0920726D500231C4605
:109900002022B760356977606D06ED0F64195B083A
:10991000ED072B43521EF4D1B760326977605206CF
:10992000D20F5440E20700D008206246002A00D03F
:1099300013602B4A127D002A03D0B7607760521E55
:10994000FBD172690A4372611EE0002C03D0B7603C
:109950007760641EF9E772690A43726162461268B1
:1099600000242023D50701D0716000E0B160B7600A
:109970007760A41852085B1EF4D1E20701D0716031
:1099800000E0B160B7607760154A127A002A23D0F0
:10999000B160B7607760521EFBD11DE0104B5D7D5A
:1099A000002D06D0930704D52123B76077605B1E96
:1099B000FBD1002C03D0B7607760641EF9E77369B0
:1099C0000B437361002D07D0920705D4B1602122AB
:1099D000B7607760521EFBD17160F0BD80F00F4020
:1099E000F0F5FF1FF0B503460022C04D40208C4625
:1099F00068602024AC60BE4F79680E46761EFDD1AB
:109A00006C600E46761EFDD1DE0701D0686000E076
:109A1000A860AC600E46761EFDD16C600E46761EC8
:109A2000FDD1D6185A08D70701D0686000E0A860B9
:109A3000AC600F467F1EFDD16C600F467F1EFDD1CE
:109A4000B6189A08D70701D0686000E0A860AC603B
:109A50000F467F1EFDD16C600F467F1EFDD1B618EC
:109A6000DA08D70701D0686000E0A860AC600F4654
:109A70007F1EFDD16C600F467F1EFDD1B218D2074C
:109A800001D0686000E0A860AC60994E0A46521EA2
:109A9000FDD16C600A46521EFDD1A860AC600A463A
:109AA000521EFDD16C600A46521EFDD16860AC604A
:109AB0000A46521EFDD16C600A46521EFDD16A69EB
:109AC000402082436A61327D161E09D0AC60084690
:109AD000401EFDD16C600846401EFDD1521EF5D1DE
:109AE000AC600846401EFDD128696C604006C00F7E
:109AF0000A46521EFDD1AC600A46521EFDD12A69AB
:109B00006C605206D20F0F467F1EFDD152000243F9
:109B1000AC600846401EFDD128694006C70F2020D2
:109B200068600846401EFDD1B8001043012816D0D9
:109B300002286ED004286CD021360AD02023AB60D6
:109B40000A46521EFDD16B600A46521EFDD1761E9A
:109B5000F5D169694022114369616A60F0BD9A07D5
:109B60003CD50024264620232027AF600A46521EFB
:109B7000FDD12A696F605206D20F0F467F1EFDD1BC
:109B80006708D407B6183C435B1EEDD120232A4654
:109B9000AB600F467F1EFDD1176953607F06FF0F34
:109BA000491EFDD17E40F10700D008206146002902
:109BB00000D00C604E490C7D002C0AD04E6893609A
:109BC0003146491EFDD153603146491EFDD1641E08
:109BD000F5D1516940231943516139E0002E0AD073
:109BE0002023AB600A46521EFDD16B600A46521E0E
:109BF000FDD1761EF5D16A6940231A436A61624637
:109C00000026126820242746D30703D040236B6028
:109C100002E032E04023AB60AF600B465B1EFDD13B
:109C20006F600B465B1EFDD1B6185208641EEBD167
:109C3000F20702D040226A6001E04022AA603B465F
:109C40002C46AF600A46521EFDD16360491EFDD10D
:109C500027490A7A002A0DD04023AB604B682024A4
:109C6000AC601946491EFDD16C601946491EFDD1F4
:109C7000521EF5D140216960F0BD1D4A527D9446C7
:109C8000002A0DD09A070BD521242027AF600A4661
:109C9000521EFDD16F600A46521EFDD1641EF5D1E1
:109CA000002E0AD02024AC600A46521EFDD16C6002
:109CB0000A46521EFDD1761EF5D16A694024224320
:109CC0006A616246002A0ED09A070CD4AC60212348
:109CD0002026AE600A46521EFDD16E600A46521E14
:109CE000FDD15B1EF5D16C60F0BD000080F00F402F
:109CF000F0F5FF1FF0B50023104C1A460E4E20273A
:109D0000656815E0002A02D10B780822491CDC079F
:109D100002D04024746001E04024B460B7602C4657
:109D2000641EFDD177602C46641EFDD15B08521E77
:109D3000401EE7D2F0BD000080F00F40F0F5FF1F9D
:109D40001E48002202601E48816B4315194381633F
:109D50001B491C48403148601B4883681B490B4025
:109D60008360C3680B40C36019498020087019489C
:109D700024214170A2210170C178C906C90EC170A9
:109D80000321017142718179C906FCD481790907E7
:109D9000890F0229FAD14021417181790907890F80
:109DA0000229FAD181794906FCD51A2101708179FD
:109DB0000907890F0329FAD1704700000081044088
:109DC000008004400000011040900440FFF8FFFEB6
:109DD0000050064000400640BFF34F8F0349024841
:109DE000C860BFF34F8FFEE70400FA0500ED00E006
:109DF00038B5254D2C79E878800601D4202084439D
:109E0000E878000601D480208443200616D51F4838
:109E100002F0C5FD002800D00120E7221CA102F0BD
:109E200019FD1A4802F0DCFDE871184802F0B7FD90
:109E3000002803D1E8784006400EE870A00605D55A
:109E40006007800F03D0E8796946087038BDED7966
:109E5000194802F093FD0446132804D929461648F0
:109E600002F0F6FD38BD02F0A1FE002807D0132C49
:109E7000F8D1132211A1104802F037FE38BD0E4868
:109E800002F0AEFDEAE7000000B006402C0F002013
:109E90002E5C736F757263655C6869635F68616C83
:109EA0005C667265657363616C655C6B6C32367A97
:109EB0005C756172742E63003C1100203C4441507B
:109EC0004C696E6B3A4F766572666C6F773E0A002E
:109ED000F8B52E4E002435780095280741D5317C01
:109EE0000A090807C00F4B07DB0F154605431AD1B7
:109EF000950040002818C018254BC0001D5CAD0619
:109F00002D0F012D0FD1C5186F88002F0BD1214FB8
:109F1000BA5C6A801A5C520601D5882200E0C82229
:109F20001A5401200143EFF31080C507ED0F72B6FC
:109F3000194A184F143FB86811541921401CFEF7F4
:109F400091FBB960002D00D162B608203070002C62
:109F500002D1307D800601D5012400E0002435784F
:109F6000BBE700990B482943083804F0C2FE002CD7
:109F700001D0012000E00020064914390A7810437E
:109F80000870357002F0C2FBF8BD00008020074069
:109F900000160020ACF4FF1FC01C00201CB50020E0
:109FA00001906A4601A90948FFF7C6F9002808D0C0
:109FB000074880210078009A0843019902F0CEFBFF
:109FC0001CBD0449012008701CBD00008C2200202B
:109FD0005A33010024F5FF1F38B5174D174C288858
:109FE0006188421A16486168007801F04FFF616885
:109FF00080B209186160618809188AB26280298874
:10A000008A4206D20F49104B09784900595A8142B9
:10A0100011D96B460D490E48FFF760F9002500285D
:10A0200006D02078002803D00020FFF7B7FF257066
:10A0300065800648606038BD6033010024F5FF1F6D
:10A040005B330100CFF5FF1F5C3301009615002044
:10A050008C22002010B50446400702D50020FFF7EF
:10A06000BBFF200702D50020FFF798FF10BD00209E
:10A0700070470000034801694069081A02490988CD
:10A08000081A70472CF5FF1F5033010070B50B4DB7
:10A090000C460346696B286B88420BD9401A8442F0
:10A0A00000DD044622461846FEF70EFA686B0019DA
:10A0B000686300E00024204670BD00002CF5FF1FFF
:10A0C00000207047F8B5184F0C4606467969386984
:10A0D000401A16490988081A002801DC0020F8BD3A
:10A0E000844200DD0446FA69B869002590420DD328
:10A0F0000F4A031951188B4208D30D1A2A463146CC
:10A10000FEF7E2F976190A48641BB861002C06D004
:10A1100022463146FEF7D8F9B8690019B8613969A5
:10A12000601909183961F8BD2CF5FF1F5033010083
:10A130001615002010B5054C6068002805D10120D7
:10A14000606000F005F80020606010BD2CF5FF1F76
:10A15000F8B5234CA06800283DD06169206900262D
:10A16000421AE06811460143002935D021461D4FAF
:10A17000C9691D4D002A10D0A069814205D33888D5
:10A180008B182818834200D3421A184800784300DD
:10A190001748C05A904200DA02461648E660007836
:10A1A0008023184302F0DAFAE1690918E161626973
:10A1B000121862613B88EB188B4200D1E56121697E
:10A1C00091420BD1094909784A000949895A8142CB
:10A1D00004D10120E060F8BDA660F8BDE660F8BDDE
:10A1E0002CF5FF1F5033010016150020CFF5FF1F7F
:10A1F000543301004E33010010B50C4C206A002886
:10A2000003D0A06A401CA06210BD012020626062E1
:10A2100000F00EF8002060622062616B206B8842C3
:10A22000F2D0401AFFF74CFF10BD00002CF5FF1FC5
:10A2300010B5134C1348216B154B0A1A12480088AD
:10A24000821A124800784000185A82420EDB1148E8
:10A25000007801F01BFE216B08182063A06A00281B
:10A260000CD0616A002909D1401E06E00120E0629D
:10A27000606A002802D0A06A401CA06210BD0000E5
:10A280002CF5FF1F5615002052330100CFF5FF1F9C
:10A29000543301004F33010010B50446400702D586
:10A2A0002046FFF7A9FF200702D52046FFF742FF0F
:10A2B00010BD0020704700207047000010B50C480A
:10A2C00000F042F8002812D00948FEF7B2F9094917
:10A2D000020A08704A70020C8A70000EC8700448A6
:10A2E00002790A7142794A7180798871012010BD22
:10A2F00064F5FF1F1414002010B5104800244460BA
:10A300008460C46004610E498161446104624462F6
:10A310008462C462C1610B490163416301460480E8
:10A320004B203831C001FEF795F904480821383038
:10A3300004714471817100F019F810BD2CF5FF1FF4
:10A34000161500205615002070B50446064D21460E
:10A350002868FEF77FF92879A07168796071A8797B
:10A360002071012070BD000034F1FF1F10B507F00F
:10A3700049F804F041F8012010BD10B507F084F849
:10A38000012010BD0120704710B50446FEF751F9B9
:10A3900006490860A0790871607948712079887150
:10A3A0000020C871084607F085F810BD34F1FF1F82
:10A3B00010B51148002444608460C46004610F49F2
:10A3C00081614461046244628462C462C1610C4977
:10A3D000016341630480FFF7D0FF07494B20383108
:10A3E000C001FEF737F90448082138300471447180
:10A3F0008171FFF7C9FF10BD2CF5FF1F1615002056
:10A400005615002010B5FFF7D3FF10BD70B51B48DF
:10A410000078002831D01A4C0025206A0126002837
:10A420000AD1616B206B884206D11649884203D05D
:10A430002163E56225626163A06A002810D0206A6A
:10A4400000280DD1E06A00280AD12662FFF7F0FE4D
:10A450002562616B206B884202D0401AFFF730FE04
:10A46000A1686068084308D161692069884204D006
:10A470006660A660FFF76CFE656070BDCDF5FF1FDE
:10A480002CF5FF1F5615002070B505460F480068D3
:10A49000C1698847002816D10D4C002D06D004F064
:10A4A0002BF92060002006F0B9FD0CE004F024F93F
:10A4B0002168401AFF212D31884201D3012000E09C
:10A4C000002003F0A3FF012070BD0000A8310100AF
:10A4D00030F1FF1F002070470020704710B502497F
:10A4E0000880FFF74FFF10BD2CF5FF1F10B50B487C
:10A4F000FEF79FF8094C0002E178000A09060843BC
:10A500000749FEF7A7F80648217901716179417181
:10A51000A1798171FFF738FF10BD000014140020ED
:10A5200064F5FF1F01078A0E044910B551180A7817
:10A53000FD231A400A7002F083F810BDC0200740C6
:10A5400010B501464A790B79807811021943020649
:10A5500001D4024A115402F073F810BDACF4FF1F8D
:10A56000704710B500F016FB10BD0000094A0949FC
:10A5700080320028087D04D001231843087510207C
:10A5800005E0400840000875107AEF21084010727D
:10A59000704700008020074010B50C4C0C48A28882
:10A5A0000078824200D90246002A03D107490020E0
:10A5B000143908718020216802F0D0F82168091848
:10A5C0002160A188081AA08010BD0000E0F5FF1FDF
:10A5D0003533010010B5064C0020A288216801F037
:10A5E00055FC216809182160A188081AA08010BDB7
:10A5F000E0F5FF1F704700000749020605D5000778
:10A60000800E40180178FA2203E08000401801789B
:10A61000F622114001707047C0200740074902062A
:10A6200005D50007800E40180178052203E0800060
:10A63000401801780922114301707047C02007407B
:10A64000F8B504466F4F704D704E800720D502F06C
:10A6500053F83878C009FFF7CDFFF888A88038781C
:10A660004106890F04D001295CD0022975D169E027
:10A6700079780B0002F09EF80C070D711371192800
:10A68000712D333B4A7101F0A3FD1FE0FFF784FFFA
:10A6900070E0002004E002F043F85D483DE0012056
:10A6A00001F0D8FD002858D0F5E7C006C00E54D1FF
:10A6B000B8788021084330704006400E012102F036
:10A6C00005F802F02DF855E001F06CFC002844D0AC
:10A6D000DCE7C006C00E40D14C48401C14E001F03D
:10A6E0000DFE002839D002F01BF84A4815E0C006DC
:10A6F000C00E012831D1707800282ED03879B17879
:10A7000088422AD2444940182860BFE701F0BAFEC7
:10A71000002822D002F004F840480068002829D020
:10A72000804727E0C006C00E17D0012815D100F0E1
:10A7300017F900281ED100F06FF900281AD100F097
:10A74000BBF808E0C006C00E07D100F09FF9002852
:10A7500010D100F0E7F900280CD13878C00904D1F5
:10A76000F888002801D0002000E0802001F0B8FF28
:10A770000020A880600704D53878C0090DD001F00A
:10A78000D7FF200733D53878C00927D0A88831797A
:10A7900008432CD0FFF700FF29E0A8880028F0D05C
:10A7A000FFF718FFA8880028EBD138784106890FF9
:10A7B0000ED001290CD1C006C00E09D0012807D146
:10A7C00000F05CF80028DCD100F02AF80028D8D18D
:10A7D000802001F085FF0020A880D2E730780106B4
:10A7E00005D54006400E3070002101F06FFF600675
:10A7F00002D50020FFF796FE200602D58020FFF745
:10A8000091FEF8BDE8F5FF1FE0F5FF1FCCF5FF1F37
:10A81000C0330100B833010087F4FF1FBC330100CF
:10A8200010B51349134A08791278904203D0124A9E
:10A830001278904219D14878002804D0022805D017
:10A84000202812D10EE0FFF745FE05E0C878897890
:10A8500000020843FFF740FE002806D001F060FF29
:10A86000012010BDFFF742FEF6E7002010BD0000FA
:10A87000E8F5FF1FECF2FF1FEDF2FF1F10B50B49CB
:10A880000B4A08791278904203D00A4A1278904213
:10A890000AD14878092807D100F082FB002803D0AC
:10A8A00001F03EFF012010BD002010BDE8F5FF1FA4
:10A8B000F0F2FF1FF2F2FF1F70B52449244A087915
:10A8C0001278904203D0234A127890423BD11F481D
:10A8D0004978C278837810021F4C204D1843042910
:10A8E00020D008DC00290FD001290FD002290BD07D
:10A8F000032928D111E0202906D0212919D02229A5
:10A900001AD023291FD11AE02C6010E0FFF7D3FCE6
:10A9100005E02C60FFF740FE09E0FFF7CAFC0028C5
:10A92000F7D110E0FFF7A3FB0BE001F0F9FE0120E7
:10A9300070BDFFF7C3FCF2E7FFF7D0FD01E0FFF7C2
:10A94000A3FD0028F1D1002070BD0000E8F5FF1F35
:10A95000ECF2FF1FEDF2FF1F14140020E0F5FF1FC3
:10A96000F8B5254E254930790978884203D0244925
:10A97000097888423DD17078224C234D234F030043
:10A9800001F018FF0C3707232D37373737371826D4
:10A99000333700F023FA00282BD0F078012802D0BA
:10A9A000032803D003E01A48206000E02560FFF789
:10A9B000F3FD12E0F078022802D0032803D00CE067
:10A9C0001448206009E0256007E000F0EFF908E096
:10A9D00000F0BEFA0BE001F0A3FE0120F8BD00F08C
:10A9E000F3F9002805D02760E1E700F0CFFA00284E
:10A9F000F1D10020F8BD0000E8F5FF1FF0F2FF1FC5
:10AA0000F2F2FF1FE0F5FF1F94F4FF1F1414002063
:10AA1000551400209614002010B51848184A0179E2
:10AA20001278914227D142780146C8788B7800028B
:10AA30001843CB798C7919022143FE2A0CD0FF2AC6
:10AA400019D1002817D1002915D101F05FF900288C
:10AA500011D001F065FE0CE000280CD101290AD1CB
:10AA600000F048FE002806D0074906480860FFF7B6
:10AA700093FD012010BD002010BD0000E8F5FF1F70
:10AA8000F1F2FF1F14140020E0F5FF1F70B51F4DF9
:10AA90001F49687809780026884235D16879297974
:10AAA0000002084302282FD1AA781A4C002A2BD082
:10AAB000002004E02178002900D00C19401C411C22
:10AAC0008A42F7D82078002819D003F0AFFA01465F
:10AAD000E01CFDF7EDFC104A01261460E979AB7922
:10AAE00020780902194381420BD90C4990800978DA
:10AAF000491E084206D10A490120087002E00026DA
:10AB000002E09180FFF748FD304670BDE8F5FF1F79
:10AB10005833010048F4FF1FE0F5FF1F35330100F3
:10AB2000D0F5FF1F10B5154A154950780978002453
:10AB3000884220D1507911790002084307281AD1A0
:10AB4000114B10481860417A007A09020143D0790C
:10AB50009279000201241043884209D90B48998058
:10AB60000078401E014204D109490120087000E02C
:10AB70009880FFF711FD204610BD0000E8F5FF1F8B
:10AB800059330100F8F2FF1FE0F5FF1F35330100D4
:10AB9000D0F5FF1F074800214170C160016141618C
:10ABA000418081808161C161C180018101624181F7
:10ABB000704700006CF5FF1FF8B54A4EB0887188E9
:10ABC000494F00257C1C884218D3B069002815D154
:10ABD0007561B580012339787A1C184607F012F8A0
:10ABE00070807088002809D040487761007801287B
:10ABF00001D8746102E07088401C70807088002861
:10AC00003AD1F068002801D0F56035E030690028BD
:10AC100032D03649097801290ED83D70B58002231B
:10AC20007A1C0021012006F0EDFF7080708800285A
:10AC300000D0746135611FE03C780127202C00D3DF
:10AC400000243946A14001421AD0601CC1B2264AF4
:10AC500002231170B5800120521C06F0D3FF7080D2
:10AC60007088002804D0204870617088401C708073
:10AC70003069A740B84330617088002806D102E0EF
:10AC8000641CE4B2DAE7B069002828D07088B18883
:10AC9000174F401A84B2387841001648405AA042F3
:10ACA00000D2044614480078002805D080210843CB
:10ACB0002246716901F052FD7069104900197061F6
:10ACC000B088001980B2B0800988884208D23878EC
:10ACD00041000848405AA04202D10120B061F8BDAD
:10ACE000B561F8BD6CF5FF1F54140020403301001E
:10ACF000CFF5FF1F3C330100363301004233010022
:10AD0000F8B51C4C002620891B4D1C4F002803D190
:10AD1000E5613888E0802681E0882189421A184858
:10AD2000E169007801F0B2F8E16980B20918E161E7
:10AD3000218909188BB22381002809D039888B42D8
:10AD400006D21049104A09784900515A814210D957
:10AD50000E48017801200129009003D80021064AFD
:10AD6000022003E029786A1C02205B1E06F0E2FF45
:10AD70002681F8BD6CF5FF1F9514002044330100B7
:10AD800037330100CFF5FF1F3C3301004133010091
:10AD900010B50446000702D52046FFF70DFF6007F7
:10ADA00002D52046FFF7ACFF10BD00000348044960
:10ADB0008078085C0349087001207047E8F5FF1FA0
:10ADC00092F4FF1F1414002010B506F019FF024979
:10ADD0000870012010BD00001414002010B50B49AC
:10ADE0000022C878012804D0022804D0032806D104
:10ADF00003E0074A02E0002010BD064A521C897891
:10AE0000002306F0FFFE012010BD0000E8F5FF1F43
:10AE10005414002093F4FF1FFEB544480078002826
:10AE20007ED0434E002031788446481C3070414823
:10AE3000042300784200821893405B1E01929942DD
:10AE400003DB0021317001218C463B4A002511882B
:10AE5000FF2901D2491C118041003848405A364927
:10AE600000900988884200D10125354900200978E1
:10AE70008E4648E000216246002A0DD0314A135C1C
:10AE8000FF2B01D25B1C13542F4B1B5C002B03D0F8
:10AE9000125C9A4200D301212B4A0223145C019ACE
:10AEA000934022469A40009B9A4203DA002C01D03C
:10AEB000012200E00022002D06D0002A04D0012348
:10AEC000376983403B433361204B1B5C9C420CD071
:10AED0001C4C245C9C4206D30124376984403C43CB
:10AEE000346100243470184C2354002909D0002AFE
:10AEF00004D101213269814011433161114A00219D
:10AF00001154401CC0B27045B4D3002D02D00A4980
:10AF1000002008803069002806D07088002800E0F2
:10AF200002E001D1FFF748FEFEBD0000CDF5FF1F96
:10AF30006CF5FF1FCFF5FF1F8EF4FF1F38330100A4
:10AF40004033010090F4FF1F91F4FF1F92F4FF1FA4
:10AF50000A480A498078C978002802D0084A8154F2
:10AF600009E0094B0020074A1B7802E01154401CFD
:10AF7000C0B29842FAD3012070470000E8F5FF1FE5
:10AF800091F4FF1F92F4FF1F4033010010B50348F6
:10AF9000807806F0CDFE012010BD0000E8F5FF1F0F
:10AFA00038B50D490022C878012804D0022804D001
:10AFB000032806D103E0002038BD084A00E0084A13
:10AFC000521C00230093CB798C791B022343897890
:10AFD00006F0B0FE012038BDE8F5FF1F95140020F3
:10AFE00093F4FF1FF8B5EFF31080C007C00F72B6DF
:10AFF000564D0021EC68E9602A78009229700028FB
:10B0000000D162B6E00708D001F0D4FA06F03EFFA6
:10B010004F480068002800D08047E00606D501F0C0
:10B0200093FB4C480068002800D08047A00606D556
:10B0300001F03EFB48480068002800D080476007C8
:10B0400004D546480068002800D08047022C09D16A
:10B0500043480168002902D04248007A88474148A5
:10B06000FF210172200767D53F4FEFF31080C20721
:10B07000D20F72B6A9686868884257D1012156E09C
:10B08000EFF31081CE07F60F72B638490C5C192128
:10B09000401CFDF7E7FA6960002E00D162B6204639
:10B0A0002207D30F21066207090FD20F002908D10A
:10B0B0005C00A418E4003C5D0026A406240F0D2CBF
:10B0C0000AD08C005B00E3189A18D600BA5D92068D
:10B0D000120F012A13D01DE028690221884328613C
:10B0E000387E4006400E3876387C4006400E387474
:10B0F0001F486E7001680029B7D0022014E00029B3
:10B1000002D1C007C00F687019480159002901D049
:10B1100004208847B85D8006000F0928A5D114488F
:10B1200001590029A1D0082088479EE70021002A64
:10B1300000D162B60029A3D00098002804D00949A4
:10B14000087DDF2210400875F8BD000098F4FF1F4D
:10B1500064330100683301006C3301007033010077
:10B16000743301008020074000160020C01C00201E
:10B170007833010010B51C48402303701B48416818
:10B180000522120411434160416B1A0311434163CC
:10B1900000F036F81648017B802211430173017BD1
:10B1A0000906FCD41349124C090A803C2177114945
:10B1B0000A0C0F4960390A740E4A120E0A75FF21F3
:10B1C00021700D490968002900D004210B4A12683A
:10B1D000002A00D002221143192211432171037069
:10B1E000017B1943017310BDACF4FF1F00800440C4
:10B1F0000021074000160020703301007433010065
:10B2000001200249000608607047000000E100E0EC
:10B2100070B500F013F900282AD0164802240470F3
:10B220004470154E03203463307014480546FDF712
:10B2300000FA022808D9114920461F39FDF70AFAF9
:10B2400029462046FDF706FA0D488021007822465F
:10B250000843084901F082FA2846FDF7EAF9316B04
:10B26000401A2946FDF7F6F9044901200839087308
:10B2700070BD0000D614002094F5FF1F6B25002040
:10B280004633010010B510490878022808D0032879
:10B290000FD0042810D0052801D10020087010BD5F
:10B2A0000A48C07B282801D0A828F8D100F066FA07
:10B2B00010BD00F06DFD10BD0548802100780843E9
:10B2C00000F080FDF5E7000094F5FF1F4425002005
:10B2D0004633010010B51D4A117800290FD001290D
:10B2E00010D01B48052900781BD0072928D000F072
:10B2F00069FD18490220087300F04AFD10BD00F0F6
:10B3000009F910BD13481F38C07B2A2803D02F2805
:10B3100004D0AA28F5D100F00FFB10BD00F09CFA74
:10B3200010BD012181400C480068014201D001207C
:10B3300000E000201122920108A101F08BFA10BD5B
:10B3400000201070106B1F28D9D010BD94F5FF1F7E
:10B350004733010063250020D8F5FF1F2E5C736F73
:10B36000757263655C7573625C6D73635C75736243
:10B37000645F6D73632E630010B5144C6068E06009
:10B38000002801D0012010BD1148FDF752F9002816
:10B3900014D00F480838007B000604D50D488021E2
:10B3A0000078084308E00A481F30FDF742F9216B96
:10B3B000884203D00848007800F004FD04490120C9
:10B3C0001731087300F0E4FC002010BD94F5FF1F56
:10B3D0004C250020463301004733010010B51248C8
:10B3E00001798F200140080605D50807000F0122CA
:10B3F0001204824001E001228A400C480478802037
:10B4000004438C420ED10A48006810420AD0094811
:10B41000FDF70FF90849884204D10D22054920465D
:10B4200001F09CF910BD0000E8F5FF1F4633010054
:10B43000D8F5FF1F632500205553425370B50C48C3
:10B44000FDF7F7F80A4C02251734002808D02046EB
:10B450001F38007B000608D40648007800F0B2FCD4
:10B46000257300F095FC002070BD012070BD000028
:10B470004C2500204733010070B51148FDF7D9F87D
:10B48000104C216B884202D82063032000E0042086
:10B4900020700D4880210078226B08430B4901F091
:10B4A0005DF907481F300546FDF7C3F8216B401AC8
:10B4B0002946FDF7CFF8024900201731087370BD07
:10B4C0004C25002094F5FF1F46330100D6140020C0
:10B4D00010B50648064902880648007800F0D6FCF8
:10B4E00005490863FFF7F6FE10BD00004C3301006C
:10B4F000D61400204733010094F5FF1F10B5044611
:10B50000400702D50020FFF7E3FF200701D5FFF732
:10B51000B9FE10BDF8B5704E316B1F2901D20A4635
:10B5200000E01F2200206D4D6D4B02E01C5C2C548E
:10B53000401C9042FAD36B488022007801271043C8
:10B5400000901F2970D16548FDF773F8664988425D
:10B550006AD1281DFDF76DF8604C1F34211DFDF7E1
:10B5600079F820461738FDF764F821460831FDF7D1
:10B5700071F8687B002804D1A87B002801D010282E
:10B5800001D9277374E0E87B2A283BD020DC1A28F5
:10B5900047D00EDC0428F4D006DC00283BD003287A
:10B5A000EFD100F071FBF8BD1228EAD100F0AAF843
:10B5B000F8BD23283CD006DC1B282FD01E28E0D164
:10B5C00000F0CCF8F8BD252835D02828D9D13BE0AB
:10B5D0009E2836D00EDC5528D3D004DC2F2842D04C
:10B5E0003528CED103E05A281FD09128C9D100F0C8
:10B5F00019FCF8BDA12821D0A3284ED0A82823D01B
:10B60000AA28BED100F080FA0028F2D0287B0006DC
:10B610003BD43770F8BD00F00FFCF8BD00F0E8FB3C
:10B62000F8BD00F043FAF8BD3BE000F00DFAFAE790
:10B6300000F0EEFAF7E700F0C5FAF4E7FFF7E8FDEF
:10B64000F1E700F079FBEEE700F05EFA0028EAD0BF
:10B65000287B000604D50220307000F08FF8E2E766
:10B660002248007815E0287C800704D4002020734D
:10B6700000F08EFBD7E700F047FA0028D3D0287BF4
:10B68000000602D437703762CDE716488021007873
:10B69000084300F097FB0220E9E7009800F092FBD6
:10B6A0006FE7104C009800F08DFB2078104C0107DC
:10B6B000090F01200004884021680C4D08432060D8
:10B6C000287800F07FFB2878874020680743062011
:10B6D00027603070A7E7000094F5FF1F4425002085
:10B6E000D61400204633010055534243473301002E
:10B6F000DCF5FF1F024900200870012070470000A0
:10B700001414002010B5FFF799FE00281FD0104B2D
:10B71000002018708021597002219970D97020245E
:10B720001C7158719871D8710A48016808200A780C
:10B73000002A02D01A54491C00E01C54401CC0B21C
:10B740002428F4D3044924200863FFF795FE10BD94
:10B75000D614002044F4FF1F94F5FF1F10B50548D0
:10B76000C07CC107044800D00121017300F010FB28
:10B7700010BD00004425002063250020F8B5314DA0
:10B78000314FA969686A002688420AD33878802137
:10B790000024084300F016FB2C48067300F0F8FA6A
:10B7A00008E02B48007841002A48445AE86A84425D
:10B7B00000D30446FFF7E0FD002800D10024A86A6A
:10B7C00000282DD0002C0ED0A96AE86980224118EB
:10B7D00038781043224600F0C1FFA86A0019A86219
:10B7E000E86A001BE86229696869AA6A41439142D4
:10B7F00003D1AE62696A08186862144808300746C7
:10B80000FCF717FF001B3946FCF724FF002C06D07D
:10B81000E86A002803D1032028700C480673F8BD9D
:10B82000002CE0D02969E86A4018401EFCF71AFF96
:10B8300069690246884200D90A46E969686A06F0E1
:10B84000E5FAC1E794F5FF1F4633010063250020A8
:10B85000CFF5FF1F48330100F8B5334C0025A1692F
:10B86000606A884208D331482563007800F0AAFA5C
:10B870002F48057300F08CFAFFF77EFD002806D0F4
:10B88000206B002824D0A06A002802D010E0256395
:10B890001EE02169E06A4018401EFCF7E3FE616982
:10B8A0000246884200D90A46E169606A06F0AEFAAB
:10B8B00000202049A76A266B08E0E3693A189A5CE1
:10B8C0000B5C9A4201D0256202E0401CB042F4D3E6
:10B8D000266BA06A8119A162E06A871BE762226970
:10B8E000606942438A4203D1A562616A08186062B6
:10B8F0000F4808300546FCF79CFE801B2946FCF7E4
:10B90000A9FE002E0CD0002F02D02078052807D1E8
:10B91000206A002805D000200549087300F038FA95
:10B92000F8BD0120F8E7000094F5FF1F4733010040
:10B9300063250020D6140020F8B5384D384FA9698A
:10B94000686A0026884207D336482E63007800F0E4
:10B9500039FA3E7300F01CFAFFF70EFD002800D103
:10B960002E63296BA86A40182969884205D9FF22ED
:10B970002DA1002000F06EFFF8BD0020314905E048
:10B98000AB6A0A5C1B18EC69401CE2542A6B9042BB
:10B99000F6D3A86A8018A862E96A891AE962002ABF
:10B9A00025D0002914D1002812D029694018401E42
:10B9B000FCF758FE69690446884200D90C462246C5
:10B9C000E969686A06F03AFAAE62686A00190DE041
:10B9D00069692B690A465943814208D1E969686A55
:10B9E00006F02CFAAE626969686A401868620C4811
:10B9F00008300090FCF71DFE2C6B0099001BFCF733
:10BA000029FE002CB8D0E86A002802D02878052842
:10BA1000B2D13E7300F0BCF9F8BD000094F5FF1FF1
:10BA200063250020473301002E5C736F75726365D8
:10BA30005C7573625C6D73635C757362645F6D7378
:10BA4000632E6300D614002070B5FFF7F7FC0028C2
:10BA500024D0FFF791FC002820D01148002101706C
:10BA6000062242700F4B81701A7A0824D201C270EC
:10BA7000017141718171C1710B481C630546FCF76E
:10BA8000D8FD082808D9084920461F39FCF7E2FDEF
:10BA900029462046FCF7DEFDFFF7EEFC70BD0000F6
:10BAA000D614002094F5FF1F6B25002070B5FFF71A
:10BAB000C5FC002820D0FFF75FFC00281CD00F48F1
:10BAC0000321017000210E4B41701A7A0424D20127
:10BAD0008270C1700B481C630546FCF7AAFD042860
:10BAE00008D9084920461F39FCF7B4FD29462046ED
:10BAF000FCF7B0FDFFF7C0FC70BD0000D6140020BD
:10BB000094F5FF1F6B250020F8B52A48FCF791FD3E
:10BB1000284D00BA040A113D287D24020443264E14
:10BB200000207462B062E87B2F280AD004DC282849
:10BB30000BD02A281CD104E0A82810D0AA2817D19D
:10BB400009E0FFF719FC002830D0E87DA97D00024C
:10BB5000084344BA0CE0FFF70FFC002826D0154834
:10BB6000001DFCF766FD00BA040A287E2402044387
:10BB7000306944430F48F4620938FCF75AFD0D4F11
:10BB800001260E3700280DD0A04210D0287B0006D9
:10BB900004D50A4880210078084301E0084800786D
:10BBA00000F010F93E7300F0F3F80020F8BD01201A
:10BBB000F8BD00005525002094F5FF1F4633010015
:10BBC0004733010010B5FFF739FC00281AD0FFF702
:10BBD000D3FB002816D00C4A0C489169491E0B0E65
:10BBE00003700B0C43700B0A8370C17011690B0E4C
:10BBF00003710B0C43710B0A8371C1710820106330
:10BC0000FFF73AFC10BD000094F5FF1FD61400208A
:10BC100070B5FFF713FC00282ED0FFF7ADFB00280E
:10BC20002AD0164800210170417081700821144A01
:10BC3000C17091690C240B0E03710B0C43710B0A3C
:10BC40008371C1710221017211690B0C43720B0ADD
:10BC50008372C1720B4814630546FCF7EAFC0C289A
:10BC600008D9084920461F39FCF7F4FC294620462C
:10BC7000FCF7F0FCFFF700FC70BD0000D6140020BC
:10BC800094F5FF1F6B25002070B5FFF7D7FB002848
:10BC90002ED01B487021017000211A4B41705A6848
:10BCA000DD681446AC4306D006248470282404734F
:10BCB0004173DA600AE0002A1BD0134A127B002A83
:10BCC0001BD005228270202202734173C170017162
:10BCD000417181710A22C271017241728172C17215
:10BCE0008173C1730174417412201863FFF7C4FBA0
:10BCF00070BD022282703A22E6E781700173E4E7A8
:10BD0000D614002094F5FF1F6325002010B50549C7
:10BD1000002008600449FCF79DFC044907200870D6
:10BD2000012010BDDCF5FF1F6325002094F5FF1FE7
:10BD300010B5FFF7EBFF10BD70B5FFF77FFB0028D4
:10BD40001DD00F482022027000214170C1770D4C98
:10BD50000320226320700C488021007808430849A2
:10BD600000F0FCFC09480546FCF763FC216B401A17
:10BD70002946FCF76FFC054901200839087370BD9E
:10BD8000D614002094F5FF1F463301006B250020D8
:10BD900010B508490848FCF75DFC08488021007888
:10BDA0000D220843034900F0D9FC0549052008701D
:10BDB00010BD000063250020555342534633010057
:10BDC00094F5FF1F10B5044600F08AFC200605D547
:10BDD0002107090F01200004884001E00120A04054
:10BDE00002490A681043086010BD0000D8F5FF1F23
:10BDF00010B50A48817C04461F34002904D0012074
:10BE00002073FFF7C5FF10BDC07C0549C007C00FF8
:10BE1000486006F011F80020F2E7000044250020F9
:10BE200094F5FF1F10B5034900200873FFF7B0FF1A
:10BE300010BD00006325002010B51048FCF7F9FB89
:10BE40000E4C173400280FD020461F38007B000608
:10BE500004D50B4880210078084301E009480078A8
:10BE6000FFF7B0FF012004E0FFF786FA002803D0B7
:10BE700000202073FFF78CFF10BD00004C25002030
:10BE8000463301004733010070470000F7B507460D
:10BE900082B0002000903807860E3348F50028183D
:10BEA00001904488002F15D130484078002809D0EF
:10BEB0007008012181402D48103002F026FF00203B
:10BEC00005B0F0BD2848405D8006000F0D2801D167
:10BED000012000900498A04206D2FF22EE3224A155
:10BEE000002000F0B7FC049C1F4A0020B101C032C2
:10BEF000891803E0039A0B5C1354401CA042F9D349
:10BF00001A481430C15D0198174F418017487608D0
:10BF10000069795DF040C0074906C00FC90F88422B
:10BF20000FD10398C1798279080200991043002942
:10BF300001D000280CD001210C48B140103002F093
:10BF4000E4FE0A480069F040C00708D0C82007E0B6
:10BF500006480121C943103002F0BFFEF1E78820F6
:10BF600078552046ACE700000016002098F4FF1F2B
:10BF70002E5C736F757263655C6869635F68616C82
:10BF80005C667265657363616C655C757362645F42
:10BF90006B696E657469732E6300000010B5FFF75E
:10BFA0001DFA10BDFEB5574A574D1078574CC006C4
:10BFB000C00E02D001287CD18CE05549D0780B7896
:10BFC0005149544E544FC978062810D006DC012838
:10BFD00009D0022815D003286BD14FE0072832D0B2
:10BFE0000F2866D166E04D482060122070E0002BDB
:10BFF0005FD0002903D04A4820600A2068E0494801
:10C00000FAE7002B01D1012979D00220002904D0C0
:10C0100000977870002092780DE000967070F9E734
:10C0200000990B78002B05D0CB788E781B02334318
:10C0300059180091401C8242F2D1009801780029E1
:10C040005DD0206040E0002B59D00720002904D0AB
:10C0500000967070002092780DE000977870F9E7F4
:10C0600000990B78002B05D0CB788E781B023343D8
:10C0700059180091401C8242F2D1DEE72A48009014
:10C080009078032801D0002009E002F02DF80DE09F
:10C0900000990B78002B01D059180091401C917821
:10C0A0008142F5D100980178002928D020600078DD
:10C0B0000EE024E01D48007800281FD01C480090A6
:10C0C0002060017800291AD0C178827808021043D4
:10C0D000019005E001A9684600F02EF800280DD077
:10C0E000A1880198814208D980B21249A0800978BC
:10C0F000491E084201D1012028710120FEBD002007
:10C10000FEBD0000E8F5FF1FCCF5FF1FE0F5FF1FA7
:10C11000333301004C130020EFF2FF1FE83301001E
:10C12000FB330100FA3301003634010034330100DF
:10C13000FC3301003533010070B51A4A1A4CD3782C
:10C140001A4A25781478174A194E1279212B02D0F1
:10C15000222B24D118E0AA4201D0A2421FD1154AB5
:10C160001378154A002B127801D1012A17D0002A22
:10C1700008D0124A02601046114A128880183060B6
:10C18000092009E00F4AF5E7AA4201D0A24206D1F0
:10C190000D4830600D4800880860012070BD002007
:10C1A00070BD0000E8F5FF1FF0F2FF1FF2F2FF1F65
:10C1B000E0F5FF1F33330100CFF5FF1FEFF2FF1F44
:10C1C000F6F2FF1F4C130020C4330100E6330100D8
:10C1D00070B51D481D4B0078C106C90E0AD01D461A
:10C1E0001948143D1A4C6A780079012906D00229B1
:10C1F00028D10AE015480E38186021E0002A21D025
:10C20000A97888421ED2002016E08F21084001063E
:10C2100005D50607360F01210904B14001E00121CF
:10C220008140002A01D100070CD1A868084209D03A
:10C23000E868084000D001202070000A60701C608F
:10C24000012070BD002070BDE8F5FF1FE0F5FF1F65
:10C250001414002070B5274B024618781946C00602
:10C260004988254EC00E04D001282BD0022829D1A0
:10C2700011E0012926D10224002A05D0012000F076
:10C280006BFAF088204304E0002000F065FAF088A3
:10C29000A043F0802CE01C798F200440200605D5B7
:10C2A0002007000F01252D04854001E00125A54050
:10C2B0007078002806D0200704D0B068284201D04A
:10C2C000002901D0002070BD002A05D0204600F0D2
:10C2D00007FAF06828430AE03069284208D120466E
:10C2E000FEF720F92046FFF759FEF068A843F060FA
:10C2F000012070BDE8F5FF1FCCF5FF1FF8B55A48C7
:10C3000000260178C906C90E7ED1574F80781C3FA0
:10C3100000287AD0554801783846C078002901D1E4
:10C32000012871D0002801D0514C70E0514C6EE0D2
:10C330006078022805D0042847D0052847D0072870
:10C3400060D1494861798078814239D1787020790B
:10C35000B8704A490020484A0B8802E00021115475
:10C36000401C9842FAD301250120B968A840084230
:10C3700002D02846FEF740F901200004B968A84021
:10C38000084204D0284680210843FEF735F96D1C89
:10C39000102DE9D33A48B8600020F86038613D4676
:10C3A0000120FEF7DDF8E079400604D5E988012098
:10C3B0000143E98026E0E88840084000E88021E069
:10C3C000E078A178000208431DE0E6781AE0002E2C
:10C3D00018D1A5788F200540280605D52907090F13
:10C3E00001200004884001E00120A840B968014311
:10C3F0002046B960FEF7A4F82846FEF70FF9284654
:10C4000000F01EF9207801E02AE004E00419207809
:10C4100000288DD11FE0002501247D708026012099
:10C42000B968A040084202D02046FEF7E5F8012096
:10C430000004B968A040084203D020463043FEF70C
:10C44000DBF8641C102CEAD3FD600D483D61B86038
:10C450000020FEF785F8044879788078884201D07A
:10C460000020F8BD0120F8BDE8F5FF1F33330100BF
:10C47000EFF2FF1F4C13002087F4FF1FF4F2FF1FA1
:10C4800001000100F0B585B00027454803970197EA
:10C4900000783E46C006C00E01287ED140491C39B6
:10C4A0004878002876D0002002903E48027808465E
:10C4B000C078002A01D101286FD0002801D03A4C61
:10C4C00064E03A4C62E06078022805D004280ED07F
:10C4D00005281ED0072857D1314861791C3840788B
:10C4E000814251D0E078A178000208434DE0A7785E
:10C4F000E678002001902A480179B94244D1807839
:10C50000B04241D1012002902948C15D0391C65536
:10C510003AE023490879B84236D1A0788F221040FA
:10C5200000900006009804D50007000F01252D0497
:10C5300000E0012585408878B04214D118481C38A5
:10C54000816829438160C168A943C1602046FDF725
:10C55000F7FF0098FEF762F8009800F071F8019874
:10C560002843019010E0039886420DD1019828429B
:10C570000AD10B481C388168A9438160C168A9436E
:10C58000C1600098FEF738F8207804192078002858
:10C5900099D1029805B0F0BDFFE70020FAE700004E
:10C5A000E8F5FF1F33330100EFF2FF1F4C130020AB
:10C5B00087F4FF1F70B501261A4836060660012071
:10C5C000194D0024810049190C70401C1028F9D322
:10C5D00019211648FCF72BF8154816494460846069
:10C5E000C4600470447040224A800A46C0324A60E7
:10C5F000C8220A700C72104ACC614A610D21297060
:10C600000E49016108484038017D0222114301753D
:10C61000FF210170017201730476024880380660C0
:10C6200070BD000080E100E0C0200740C01C002079
:10C6300098F4FF1F0016002040170020555555554F
:10C64000F8B50546154F2C073E4600060121C03EB1
:10C65000240F00280EDA6000401C8140104802F0D0
:10C6600048FB2002C119600180198031416100211D
:10C67000C161F8BD68008140C943094802F02DFB43
:10C6800007486101001D425D881942802202D219CB
:10C6900042608822725400210172F8BDC016002049
:10C6A000A8F4FF1F10B5FDF7ADFEFFF741FB10BD6D
:10C6B00002480179DF221140017170478020074054
:10C6C00010B5FEF7A9FBFDF7A1FE10BD002903D1AF
:10C6D00040060249400E087670470000802007405F
:10C6E0000007810E034808180178022211430170E7
:10C6F00070470000C020074010B508220249002002
:10C70000FFF7C4FB10BD0000E8F5FF1F10B503489C
:10C7100001214902C06802F01DF810BD00F1FF1FA1
:10C7200010B500221146802000F018F810BD00005E
:10C7300010B50348034902780020FFF7A7FB10BD9E
:10C7400035330100141400200248017920221143DE
:10C75000017170478020074070470000F8B500075E
:10C76000114F840E1646A41CE200D01946803D46A7
:10C770000023A001C035451902E0C85CE8545B1CE9
:10C78000B342FAD3094960080969C140C90701D019
:10C79000882100E0C821B9540121814003481030AC
:10C7A00002F0B3FA3046F8BD0016002098F4FF1FDF
:10C7B0000020704730B47446641E2578641CAB4278
:10C7C00000D21D46635D5B00E31830BC184710B50E
:10C7D000002A06DA52005208D21DD308DB001022CC
:10C7E00003E0D21C93089B000C22002B02D09C1863
:10C7F0008C4201D9012010BD82188360411802606B
:10C800004160C91AD018884202D810600246F9E780
:10C810000020106010BD0000B0B5044603F0A2F97E
:10C82000002804D0034F0249BC46206800DFB0BD99
:10C83000FFFF000025F60000B0B5044603F092F9B2
:10C84000002803D0024F2068BC4600DFB0BD0000C6
:10C850007DF50000F8B516460F4600281BD1EFF312
:10C860001080C507ED0F72B600231A461946184608
:10C8700000F01EFA040003D13146384600F070FA89
:10C88000002D00D162B6002C05D1EFF30380C00665
:10C8900001D105F0F5FDF8BD7047000010B5282264
:10C8A0000D490E48FBF714FD05F0A4FE0C4805F0F9
:10C8B0009BFE05F0CFFC0B49012208600A49520299
:10C8C0000A600A4A012111600949400A08600A49C0
:10C8D0000848086010BD0000202D010088010020DC
:10C8E000D5D20000C8F5FF1FA4F5FF1FA8F5FF1F54
:10C8F000ACF5FF1F88FFFF1FB0F5FF1F00B591B01B
:10C90000FDF7B8FB402801D9402001E000280DD0F8
:10C9100081B2684604F0AEFD010007D06846FDF71D
:10C92000D1FB002802D0012001F04EFD04F030FEC2
:10C930000146402801D9402101E000290DD0684678
:10C94000FDF7A4FB002808D081B2684604F000FE81
:10C95000002802D0012001F037FD01F04DFD11B09B
:10C9600000BD0000044841788078814201D0012058
:10C97000704700207047000084F0FF1F30B5054667
:10C98000EFF31080C407E40F72B6284600F007F8F2
:10C99000A968081A401E002C00D162B630BDEFF322
:10C9A0001081CB07DB0F72B606C808388A4201D364
:10C9B000501A02E080681018401A002B00D162B6AD
:10C9C0007047EFF31083DB07DB0F72B68260C16044
:10C9D000002101604160002B00D162B67047000069
:10C9E00070B50446EFF31080C507ED0F72B603CCA7
:10C9F000083C884201D0012000E0002043220DA124
:10CA0000FFF728FFE16820680E5C401C2060A168E9
:10CA100088420AD3884201D1012000E00020482248
:10CA200004A1FFF717FF00202060002D00D162B69F
:10CA3000304670BD2E5C736F757263655C646170A7
:10CA40006C696E6B5C636972635F6275662E63000E
:10CA500070B50446EFF31080C507ED0F72B662683B
:10CA6000E06881546068401C6060A16888420AD315
:10CA7000884201D1012000E00020312209A1FFF706
:10CA8000E9FE0020606003CC884201D0012000E074
:10CA90000020362203A1FFF7DDFE002D00D162B693
:10CAA00070BD00002E5C736F757263655C646170AD
:10CAB0006C696E6B5C636972635F6275662E63009E
:10CAC000F8B514460E460746FFF769FF844200D2C8
:10CAD00020460546002404E03846FFF781FF305524
:10CAE000641CAC42F8D32846F8BDF8B514460E468F
:10CAF0000746FFF743FF844200D220460546002444
:10CB000004E0315D3846FFF7A3FF641CAC42F8D364
:10CB10002846F8BD10B50C48C0780121C00948402E
:10CB20002A220AA1FFF796FE124901246402084650
:10CB300022461038FFF745FF0F49224608461038B5
:10CB4000FFF73FFF10BD000000B006402E5C736F82
:10CB5000757263655C6869635F68616C5C66726569
:10CB6000657363616C655C6B6C32367A5C7561729F
:10CB7000742E63003C0F00204C11002010B500F013
:10CB800003FD10BD10B500F0FFFC10BD0248807918
:10CB9000002800D001207047500E00200248C079C4
:10CBA000002800D001207047500E00200248007A73
:10CBB000002800D001207047500E0020F8B58D21CC
:10CBC0002648FBF732FD8D272548FBF732FD234C25
:10CBD000244E234D4034B04213D168792A790102A2
:10CBE00011438D2901D20A4600E08D228D2901D9F9
:10CBF0000F4600E08D271A491848FBF765FC002016
:10CC0000E0718D211648FBF710FD15493046FBF702
:10CC100021FD2F71390A697110494122C91DE81D92
:10CC2000FBF752FC607A227A01020D481143403032
:10CC30000172090A4172A17A8172E17AC1728A0095
:10CC400006490C304C31FBF73FFC04488030017B37
:10CC500003488030017300F0BBF8F8BDC10D00201F
:10CC6000002F0020646C766B10B5094CE17A102916
:10CC700001D3002010BD064A8900403A89184C3182
:10CC8000FBF7E8FCE07A401CC0B2E07210BD000087
:10CC9000402F002010B541210448FBF7C6FC034893
:10CCA0000021393001724172C17210BD072F00207E
:10CCB000FFB581B01D4616460F461A48FBF77CFBB0
:10CCC000441C0198002802D03946FBF7AEFC002036
:10CCD000002E00D03080002D00D028701149C91FCF
:10CCE000C87900281BD0BC4201D8224602E0E01BD4
:10CCF00041183A460B4C0198C91D3934002804D01C
:10CD0000607A237A000218433080002E02D0019806
:10CD1000FBF7DAFB002D01D0A07A2870012005B0C6
:10CD2000F0BD0000072F00200148007B7047000085
:10CD3000802F00200549CA7A002A04D00A460C3206
:10CD40000260C87A7047002070470000402F002022
:10CD500002488079002800D001207047002F002071
:10CD6000F3B581B00746FBF727FB124D441C412663
:10CD70003146E81DFBF759FC412C02D839462246C2
:10CD800002E0413CE1193246E81DFBF79DFB094CEE
:10CD9000029840342072000A607200F010F90028F6
:10CDA00001D0012004E000F00CF9002800D002209E
:10CDB000A072FEBD002F00200149087370470000DB
:10CDC000802F00200149887170470000002F00204B
:10CDD00070B5002211461046FCF7BEFC092220491E
:10CDE0002048FBF771FB204C227810466278120233
:10CDF0001043A278E1781204104309061B4D084342
:10CE0000A8420FD16079217900020843092804D291
:10CE10006079217902020A4300E00922124911488F
:10CE2000FBF752FB0F492846FBF714FC0D4909207C
:10CE3000888020780146607800020143A0780004D1
:10CE40000143E07800060143A94205D160792179C8
:10CE500000020843092802D2024801F069FE70BDB1
:10CE6000AC310100500E002000FC0100646C766BB8
:10CE700010B503498871084601F05AFE10BD000044
:10CE8000500E002010B50349C871084601F050FE4D
:10CE900010BD0000500E002010B50349087208466E
:10CEA00001F046FE10BD0000500E0020F8B5002431
:10CEB000E4430F460646002512E0705D082102F0AB
:10CEC00037F9000644400A490820002C02DA6400C1
:10CED0004C4000E06400401E0006000EF5D16D1CC1
:10CEE000BD42EADB2021204602F022F9C043F8BD12
:10CEF000B71DC104F8B50E4617462021C04302F005
:10CF000017F90446002512E0705D082102F010F9BF
:10CF1000000644400A490820002C02DA64004C4014
:10CF200000E06400401E0006000EF5D16D1CBD42FD
:10CF3000EADB2021204602F0FBF8C043F8BD0000E8
:10CF4000B71DC10470B514460D460646FF2A07D822
:10CF5000FF22DF320AA10020FFF77CFC022070BD17
:10CF600000F058FD002801D0102070BD2A4621464F
:10CF7000304600F001FF0028F7D01F2070BD0000F0
:10CF80002E5C736F757263655C6461706C696E6B47
:10CF90005C647261672D6E2D64726F705C69617084
:10CFA0005F666C6173685F696E74662E6300000073
:10CFB000C1060007000F002900DB09307047002080
:10CFC00070470120704710B500231A4600F014FB8B
:10CFD000002800D0012010BD10B505F045F801284B
:10CFE00000D0002010BD0000F8B5164E01253078A5
:10CFF0000024ED03012806D0FF22393212A10020BF
:10D00000FFF728FC0AE0B0780227002808D0FF22AA
:10D010003F320DA10020FFF71DFC37700220F8BD44
:10D02000204600F029F8002802D037702120F8BDF2
:10D03000012080022418AC42F2D30120B0700020FD
:10D04000F8BD000060F0FF1F2E5C736F75726365A2
:10D050005C6461706C696E6B5C647261672D6E2DCF
:10D0600064726F705C6961705F666C6173685F6940
:10D070006E74662E63000000F8B5254E05463078C4
:10D08000012806D0FF22013222A10020FFF7E2FB97
:10D090001AE00127BF0239462846FBF7E3FA0224CB
:10D0A000002902D0FF22093209E0F07800280DD0D3
:10D0B000F168B0684018A84208D0FF22103215A1CC
:10D0C0000020FFF7C7FB34700220F8BD01227F204B
:10D0D000D20380020121954203D3854201D2002070
:10D0E00000E00846002810D0F170F7602846B560CF
:10D0F00001F006F9252803D00028E6D03470F8BDE9
:10D10000284600F087FC0028F9D034702020F8BDB4
:10D1100060F0FF1F2E5C736F757263655C646170F5
:10D120006C696E6B5C647261672D6E2D64726F70DA
:10D130005C6961705F666C6173685F696E74662EAE
:10D1400063000000012080027047000010B527280E
:10D1500004D2064980000858002805D1ED2204A118
:10D160000020FFF777FB08A010BD0000DC300100B5
:10D170002E5C736F757263655C6461706C696E6B55
:10D180005C6572726F722E63000000000146012020
:10D19000272901D20148405C70470000B4F0FF1F0E
:10D1A000F3B581B00446009000E0641C207840286C
:10D1B00002D00028F9D164E06078622848D012DCFF
:10D1C000522854D008DC422842D0442849D048286C
:10D1D00041D04D2817D134E054283FD0552833D0C2
:10D1E000562810D140E0722841D006DC642838D09F
:10D1F000682830D06D2806D123E074282ED07528F9
:10D2000022D0762830D020A52046FBF7D5F8074657
:10D210002846FBF7D1F80646A019029B009AC119CF
:10D22000D218891E91422BD2BA1EA11CFBF7B0F96D
:10D23000324629462046FBF747F920780028B5D129
:10D240001FE000F045FF01E000F04AFF0546DBE784
:10D2500000F0ECFEFAE700F019FFF7E700F03CFF02
:10D26000F4E700F00FFFF1E700F042FFEEE70848B7
:10D27000807A002802D0064D0A35C5E705A5C3E728
:10D28000E4190098201AFEBD4552524F520000008A
:10D290009C2C010068747470733A2F2F6D62656462
:10D2A0002E6F72672F6465766963652F3F636F64C5
:10D2B000653D40553F76657273696F6E3D40563FE0
:10D2C0007461726765745F69643D405400000000DA
:10D2D00070470000F8B51E4615460C46074605F097
:10D2E0003BFA2C480178032912D001462039022C40
:10D2F0000FD0002C1FD0012C0AD10A68AA4207D1F6
:10D300008078002833D00020421E08608A6088613F
:10D31000F8BD0868A842FBD1304604F073FF04460C
:10D32000304604F075FF0646384602F07BFE0346A1
:10D330002246314617E0384602F074FE0328E7D053
:10D34000304604F05DFF8007E2D4384602F06AFE02
:10D350000746304604F056FF0446304604F058FFB6
:10D3600001463B462246284603F04CFFF8BD0948DB
:10D37000282209492038FAF7ABFF03F029FC0748B7
:10D380008178012903D14178022900D1817003F00D
:10D3900029FCF8BDA8010020202D010084F0FF1F0A
:10D3A000F7B51C4E0446B0785502174600280BD13D
:10D3B0002946019802F0F8FD032802D0214603F027
:10D3C000D1FEB078002812D0124920394868A04216
:10D3D0000DD8C868A0420BD0A04208D90869401CEB
:10D3E00000D10C610869A04200D204460C61FEBD68
:10D3F000C8692A468018C861E019C860F07800281A
:10D4000003D0002003F04CFFFEBD2046019903F03D
:10D4100057FEFEBDA8010020F0B585B018A109682F
:10D4200004910378002104AA545C9C4226D0491C34
:10D430000329F9D313A10A688E6896464A68CD6815
:10D4400000239446C25C714664466F46039552C7FA
:10D4500011466139192911D9202A01D2052A0DD185
:10D4600000216C46675C974208D0491C1029F9D30B
:10D470005B1C0B2BE6D3012005B0F0BD0020FBE7C1
:10D48000E5002000222A2B2C2E2F3A3B3C3D3E3F2C
:10D490005B5C5D7C10B50448FBF7CBF8002801D03D
:10D4A000012010BD0020FCE78C2C010070B5044663
:10D4B000204600F01AF80546002D00D070BD044942
:10D4C00002480968884700BFF8E700000C3000F008
:10D4D000E4F2FF1F01680122920211430160BFF3D1
:10D4E0006F8FBFF34F8F70477047002807D0C06918
:10D4F000002802D00068022803D06D207047042065
:10D5000070470020704710B5002806D05B1E1942F6
:10D5100001D11A4203D0652010BD042010BD03685C
:10D520008B4204D8406889181818884201D26620B6
:10D5300010BD002010BD00000349884201D06B20BF
:10D5400070470020704700006B66656B10B50C4C8F
:10D5500070212170FFF7C9FF002807D10949204633
:10D56000096888472078810601D5672010BDC1066B
:10D5700001D5682010BDC007FCD0692010BD000097
:10D5800000000240E0F2FF1F70B50E4D00202C7825
:10D59000002C0FD000212970A978002901D000F0BB
:10D5A000A1FB022C05D06978032902D0002800D104
:10D5B000242070BDFF22453203A10020FFF74AF965
:10D5C000022070BD30F0FF1F2E5C736F75726365B3
:10D5D0005C6461706C696E6B5C647261672D6E2D4A
:10D5E00064726F705C666C6173685F6465636F64BE
:10D5F00065722E6300000000FEB51C46054630290A
:10D6000001D3012000E00020422217A1FFF722F9F8
:10D6100029460C2220316846FAF756FF1E4E002C90
:10D6200001D1002030711D49019888420BD11C495D
:10D630000098884201D10220FEBD1949FC39884278
:10D640000FD10120FEBD284604F0A8FC002804D01C
:10D65000002C04D10120307101E0002C01D0032006
:10D66000FEBD0020FEBD00002E5C736F7572636509
:10D670005C6461706C696E6B5C647261672D6E2DA9
:10D6800064726F705C666C6173685F6465636F641D
:10D6900065722E630000000030F0FF1F019996971D
:10D6A0008F9E939BFFB583B00746002406980E46D5
:10D6B0002546002813D00C98002810D00699002089
:10D6C00008600C9908600090FFF779FC002811D0E1
:10D6D0000120C003022F04D0032F09D040E06C22A8
:10D6E00055E00599002903D0864201D01B2438E07B
:10D6F00000900FE0FFF765FC002831D0012F02D029
:10D70000032F09D02CE00598002803D0002E01D06B
:10D710001A2426E0214821E02148FAF78AFF002850
:10D720001ED005460C350DE00198B04209D8281DE1
:10D73000FAF77FFFB04204D32846FAF77AFF009049
:10D740000BE014352846FAF774FF01900028EBD15E
:10D75000281DFAF76EFF0028E6D11248056800E0A0
:10D760001C24FFF71BFA002801D1012F04D0002C44
:10D7700004D0204607B0F0BD1C24FAE7002D05D0E8
:10D780000699009808600C980560F2E7AE2206A1A1
:10D790000020FFF75FF80220ECE700001C2D0100DD
:10D7A0008C2C0100A83101002E5C736F75726365CB
:10D7B0005C6461706C696E6B5C647261672D6E2D68
:10D7C00064726F705C666C6173685F6465636F64DC
:10D7D00065722E6300000000F7B51E4906464878C2
:10D7E0000025012804D0022805D0032830D105E007
:10D7F0000125ED0326E07F25AD0223E0087900280E
:10D8000026D01548FAF715FF002821D004460C341D
:10D810000CE0B74209D8201DFAF70BFFB04204D341
:10D82000201DFAF706FF05460AE014342046FAF7F1
:10D8300000FF0700EDD1201DFAF7FBFE0028E8D11C
:10D84000002D05D002983018A84201D30120FEBD5A
:10D850000020FEBD30F0FF1F8C2C010010B50D4CD8
:10D860002078002806D0BD220BA10020FEF7F2FF91
:10D87000022010BDFF2230211348FAF7B1FE01202B
:10D88000207000206070A060E0602061A070E070F7
:10D8900010BD000030F0FF1F2E5C736F7572636562
:10D8A0005C6461706C696E6B5C647261672D6E2D77
:10D8B00064726F705C666C6173685F6465636F64EB
:10D8C00065722E63000000000CF7FF1FF7B5434F91
:10D8D0000646387884B01546012807D0D22240A1E8
:10D8E0000020FEF7B7FF022007B0F0BDF87800284F
:10D8F00003D1FE6001203E61F870B878002857D14E
:10D9000039698E4201D1012000E0002049193961B6
:10D9100000282FD0B86830210C1AAC4200D9144628
:10D920003B49224608180599FAF7CEFDB8682D1B29
:10D930000019B860059936190919059130282AD3BC
:10D9400016D00020F42226A1FEF784FF01233048E0
:10D95000FA68B968FFF750FE787001A8009002AB32
:10D9600001227878F968FFF79DFE002827D103E0AF
:10D970000120E7E70320EFE7B8780124FF226040A9
:10D980000E3217A1FEF766FF019800F03FF900285C
:10D9900015D1BC7002E0B878002813D01C49BA68D1
:10D9A000F86800F091F8002809D1B878002809D06B
:10D9B0002A463046059900F087F8002802D0032156
:10D9C000397091E72A4630460599FFF705FF002890
:10D9D0008AD002203870132086E7000030F0FF1F45
:10D9E0002E5C736F757263655C6461706C696E6BDD
:10D9F0005C647261672D6E2D64726F705C666C6121
:10DA000073685F6465636F6465722E630000000075
:10DA10000CF7FF1F10B5EFF31081CC07E40F72B6BF
:10DA2000FBF7B4FC002C00D162B610BDFEB5174F59
:10DA300005467E787C68AE4222D0002E0ED0201D96
:10DA4000FAF7F7FD002100910B46019101462046AF
:10DA50003246183002F050FB002813D0002D0ED0B3
:10DA60002046FAF7E6FD002101910B46014600959C
:10DA700020461830FA6802F03FFB002804D07D7081
:10DA80000020FEBD0C20FEBD0B20FEBD20F1FF1FBF
:10DA900070B50E460500144613D020211046FAF743
:10DAA000C6FD2660E8686060A9686868FAF7DAFD74
:10DAB000A0600420E06020616061A061E06100205E
:10DAC00070BD042070BD0000F7B5424E044670786A
